:020000040800F2
:10000000D005002001010008C7260008391F00089C
:10001000C5260008170B0008C92F000800000000C3
:10002000000000000000000000000000692B000834
:10003000C50B000800000000AB2900086B2B00086E
:100040001B0100081B0100081B0100081B01000820
:100050001B0100081B0100081B0100081B01000810
:100060001B0100081B0100081B0100081B01000800
:100070001B0100081B0100081B0100081B010008F0
:100080001B0100081B0100081B0100081B010008E0
:100090001B0100081B0100081B0100081B010008D0
:1000A0001B0100081B0100081B0100081B010008C0
:1000B0001B0100081B0100081B0100081B010008B0
:1000C0001B0100081B0100081B0100081B010008A0
:1000D0001B010008B12F0008BD2F00081B010008FC
:1000E0001B0100081B0100081B010008DFF80CD0F1
:1000F00000F082FC00480047AD4F0008D00500200A
:100100000648804706480047FEE7FEE7FEE7FEE7B1
:10011000FEE7FEE7FEE7FEE7FEE7FEE7E72B000867
:10012000ED0000082DE9F0410024061B254671F181
:10013000000605DA01240027D0EB070067EB010178
:10014000161E73F1000605DA0027D2EB070201251F
:1001500067EB030300F0B3FA86460E4617469C464B
:10016000AC4204D00025D0EB050E65EB010624B1AE
:100170000020D2EB000760EB030C704631463A4694
:100180006346BDE8F081202A04DB203A21FA02F020
:100190000021704721FA02F3D040C2F120029140C1
:1001A000084319467047D2B201E000F8012B491EFE
:1001B000FBD270470022F6E710B513460A46044604
:1001C0001946FFF7F0FF204610BD30B50446002069
:1001D000034600E05B1C934203D2E05CCD5C401B15
:1001E000F8D030BDF0B480EA0102D40F4200B2EB87
:1001F000410F02D20246084611464A0042D0C30DC2
:10020000DDB2C1F3C752AD1A202D35DAC1F31601A4
:1002100041F4000204B15242C5F1200602FA06F18F
:100220002A411044B3EBD05F23D0C4B1012DA0EB21
:10023000C35009DCF0BC4FF0004202EAC352DBB20B
:1002400000F5000000F096BA400000F1807000EB6D
:10025000C350A0F1807040EAD170490009E049081C
:1002600041EAC071A0EBC35000F50000400800EB6C
:10027000C350F0BC00F075BA6142012202EB4101AB
:10028000001BF6E7F0BC704781F00041AAE780F060
:100290000040A7E780EA010210B502F000434000E9
:1002A00022D04A001FD0010E01EB1261C0F35600AC
:1002B000C2F3560240F4000042F40002A0FB022008
:1002C00000047F39140400D0401C50EA124001D4CD
:1002D0004000491EC2B20C0604EBD010401C40087E
:1002E000802A02D003E0002010BD20F00100002988
:1002F00000DA0020184310BD30B480EA010202F099
:10030000004530F0004221F0004013D090B1C30D01
:10031000D40DC2F31601C0F31600E41A41F4000133
:1003200040F400027D34914201D3641C00E0490096
:10033000002C02DA30BC002070474FF4000000238C
:10034000914201D3891A034340084FEA4101F7D192
:1003500051B1914202D14FF0004105E002D24FF07D
:10036000010101E06FF0010103EBC450284430BCEF
:1003700000F0F7B9420005D0C0F3C7525242914293
:1003800001DC0020704700EBC15070472DE9FE4FA3
:10039000804681EA0300C00F0C46009021F0004126
:1003A00023F00045B8EB0200A94105D240462146A2
:1003B00090461C460B46024623F00040104347D0AF
:1003C000270DC7F30A00C3F30A510290401A0190A7
:1003D00040286BDAC3F3130040F4801B0098924668
:1003E00020B10023D2EB030A63EB0B0B01985946B3
:1003F000C0F14002504600F093F906460D465046C3
:100400005946019A00F09BF910EB08006141002465
:1004100087EA115284EAE7731A4340D0009A62B324
:10042000019A012A4FEA075215DC001B61EB020119
:100430004FF0004202EA0752CDE90042001C41F5AC
:10044000801132462B4600F0D2F903B0BDE8F08FA0
:1004500040462146F9E7001B61EB0201001C41F513
:10046000801300185B412018A2F5001747EB030129
:1004700040EAD570B6196D4111E06D084FEA3606B5
:1004800045EAC0754FEA0752001B61EB0201001CF0
:1004900041F5801149084FEA3000001951413246B8
:1004A0002B4603B0BDE8F04F00F092B9009801224E
:1004B00040000023D0EB020263EBE073009821467A
:1004C0004FEAE074B8EB000061EB0401E9E783F068
:1004D00000435BE781F0004158E72DE9FE4F81EAD8
:1004E000030404F0004421F0004100944FF0000B9D
:1004F00023F0004350EA01045ED052EA03045BD0CB
:10050000C3F30A54C1F30A552C44A4F2F334019402
:10051000A0FB0254C1F3130141F48011C3F3130390
:1005200043F4801301FB024400FB034E840A970A44
:1005300044EA815447EA8357A4FB076802958D0A71
:1005400005FB07854FEA932C04FB0C542705029DFD
:100550004FEA065847EA1637B5EB08056EEB070C6D
:10056000870E920E47EA811742EA8312A7FB020127
:10057000B6EB0B0164EB00042B0D43EA0C335E1861
:1005800044EB1C50DA465146E7FB0201C5F3130465
:100590004FEA0B3343EA14534FEA0432019C43EA17
:1005A0000603A4F10C040294009CCDE900B400F011
:1005B0001EF903B0BDE8F08F00200146F9E7C10F36
:1005C00080EAE0700844CA079623002100F0D2B800
:1005D00096230022114600F0CDB800F0004220F032
:1005E0000040C10DC0F3160040F400007F2901DA7D
:1005F00000207047962903DCC1F19601C84001E054
:1006000096398840002AF4D04042704720F00040DC
:10061000C10DC0F3160040F400007F2901DA00206C
:100620007047962903DCC1F19601C840704796399E
:100630008840704700F0004230F000400AD0C10D01
:1006400001F56071C0F3160042EA0151C20840078B
:100650001143704700200146704701F0004330B459
:1006600021F0004150EA010206D00A0DA2F56072A5
:10067000C1F31301002A02DC30BC00207047440F94
:1006800044EAC104C100E01830BC00EBC25000F0E5
:1006900068B830B50B46014600202022012409E04D
:1006A00021FA02F59D4205D303FA02F5491B04FA2B
:1006B00002F52844151EA2F10102F1DC30BD2DE93E
:1006C000F05F0546002092469B46884606468146D6
:1006D00040241BE02846414647462246FFF753FD8B
:1006E00053465A46C01A914110D311461846224625
:1006F00000F016F82D1A67EB01084F46224601203C
:10070000002100F00DF817EB00094E41201EA4F166
:100710000104DFDC484631462A464346BDE8F09FE7
:10072000202A04DB203A00FA02F1002070479140B1
:10073000C2F1200320FA03F3194390407047202AA6
:1007400006DBCB17203A41FA02F043EAE07306E0F9
:1007500041FA02F3D040C2F1200291400843194609
:1007600070470029A8BF7047401C490008BF20F00F
:100770000100704710B4B0FA80FC00FA0CF050EAA7
:10078000010404BF10BC704749B1CCF1200421FA28
:1007900004F411FA0CF118BF012121430843A3EB23
:1007A0000C01CB1D4FEA00614FEA102042BF002030
:1007B00010BC704700EBC35010440029A4BF10BC0C
:1007C0007047401C490008BF20F0010010BC704772
:1007D00010B5141E73F1000408DA401C41F1000149
:1007E00092185B411A4301D120F0010010BD2DE9A0
:1007F000F04D92469B4611B1B1FA81F202E0B0FA97
:1008000080F220329046FFF78BFF04460F4640EA05
:100810000A0041EA0B0153465A46084313D01146D9
:1008200053EA010019D0C8F140025046FFF7ABFC73
:1008300005460E46504659464246FFF771FF0843AB
:1008400005D0012004E020463946BDE8F08D0020A7
:10085000054346EAE0762C4337430A986305E40AE9
:10086000A0EB08000022FD0A44EA47540A3002D5F2
:1008700000200146E9E7010510196941DDE9084555
:1008800000196941BDE8F04DA2E72DE9F04D81EA7C
:10089000030404F0004B21F0004514464FF0000A19
:1008A00023F0004150EA050220D054EA01021DD095
:1008B000C5F30A570246C5F31303C1F31300C1F38E
:1008C0000A5640F4801543F48013A7EB0608101B6A
:1008D000D64608F2FD3873EB050002D308F1010893
:1008E00001E092185B41B8F1000F03DA00200146E5
:1008F000BDE8F08D00204FF48011064684460EE0DE
:10090000171B73EB050705D3121B63EB05030643A7
:100910004CEA010C49084FEA300092185B4150EA5A
:100920000107EDD152EA030012D082EA040083EA03
:100930000501084305D0101BAB4106D2012200235C
:1009400006E000224FF0004302E06FF00102531076
:100950001AEB06004CEB085110EB0A0041EB0B01BF
:10096000BDE8F04DFFF734BF70B521F000430343FD
:100970000CD0C1F30A550024D5EB040564EB040345
:10098000D617AD1AB34102DB0020014670BD201816
:1009900041EB025170BDC1F30A52C1F3130140F2A1
:1009A000FF3341F480119A4202DA00200146704779
:1009B00040F233439A42A2F2334202DC5242FFF742
:1009C000E2BBFFF7ADBE000030B5041E71F10004BC
:1009D00004DB4FF00044404264EB0101141E73F14C
:1009E000000405DB1C464FF00043524263EB040356
:1009F000994208BF904230BD064C074D06E0E068C2
:100A000040F0010394E8070098471034AC42F6D355
:100A1000FFF770FB58710008787100082DE9F04D60
:100A200000231A461B1A8A4103DB00200146BDE859
:100A3000F08DC1F30A52C1F3130141F480154FF058
:100A4000000BD10702D100186D41521E0027044649
:100A500040F2FF11384601EB620A3E4680460246EC
:100A600000204FF48011FFF78EFBC2197141BB18B3
:100A700046EB0100B4EB030C75EB000C04D3E41A55
:100A800065EB000517460E46241908F101006D417B
:100A900080463428E3DDF91946EB0600091BA8411E
:100AA00003D24FF0FF32134601E0002213461BEB46
:100AB000070046EB0A51BDE8F04DFFF789BE000084
:100AC00070B5044600688168C943C90717D18168B9
:100AD00021F00101816000F02DFB05460AE000BF16
:100AE00000F028FB401B022804D920688068C0431E
:100AF000C00706D020688068C043C007F0D000203F
:100B000070BDA06A40F01000A062E06A40F00100F1
:100B1000E062012070BDFEE738B5002000906B4612
:100B200001227521682004F0BBF99DF800006828B7
:100B30000CD0BFF34F8F20480168204A01F4E061D8
:100B400011430160BFF34F8F00BFFDE704F050FB7E
:100B500000282FD1782005F009F840BB782004F058
:100B600079FA20BBC82004F0C1FF00BB03F0F0FB02
:100B7000E8B91348044604F0F5F90546E01C04F012
:100B8000F1F945EAC005A01D04F0ECF945EA801032
:100B900080B203F08DFD50B940F2731003F0B0FA4B
:100BA00028B9C82003F0ECFC08B905F067F801206B
:100BB00004F0C2FE38BD00000CED00E00400FA05B0
:100BC00030000020704772B6FEE70000F8B5002440
:100BD000009490F824202546012A12D0012280F8A2
:100BE00024204A681F23072A0DD20668776B521EFD
:100BF00002EB820293409F430B6893401F4377634D
:100C000019E00220F8BD06680D2A0AD2376BD21F00
:100C100002EB820293409F430B6893401F4337636C
:100C200009E0F76A0D3A02EB820293409F430B689A
:100C300093401F43F7620A68072306680A2A0AD30B
:100C4000F7680A3A02EB420293409F438B68934055
:100C50001F43F76008E0376902EB420293409F436D
:100C60008B6893401F4337610A68102A01D0112A0C
:100C700020D1124B02689A4217D193681B0219D4F3
:100C8000936843F4000393600968102912D10C495A
:100C90000C4A0968B1FBF2F101EB8101490000E067
:100CA000491E00910029FBD104E0816A41F0200136
:100CB0008162012480F824502046F8BD00240140C0
:100CC0000C00002040420F002DE9F0414FF00007DA
:100CD00004003D467ED0A06A002628B9E66284F86A
:100CE0002460204600F07EF82046FFF7E9FEA16A66
:100CF00001F01001014304D0A06A40F01000A0628E
:100D000068E0A16A21F4885141F00201A1626268A1
:100D1000E169237B0A4347EA43010A43A1684FF490
:100D20008077B94208D0012906D0002194F814C078
:100D3000BCF1010F02D00AE03946F7E7F3B1A36A2C
:100D400043F02003A362E36A43F00103E3622368F4
:100D5000D3F804C02CF4694C4CEA010CC3F804C06D
:100D600023689968DFF870C001EA0C0111439960AB
:100D7000A168B9420BD0012909D00CE0DFF85CC0B2
:100D8000A3690CEB43330B4343F40061DFE7218A93
:100D90000D05A5F580152168CB6A23F470032B435C
:100DA000CB62216889680E4B1940914208D1E662F6
:100DB000A16A21F0020141F00101A162BDE8F081C8
:100DC000A06A20F0020040F01000A062E06A40F04B
:100DD0000100E0620120F1E7FDF7E1FF00E0FFFF25
:100DE000FE0E1FFF00B585B0002100910191029118
:100DF000039100680E49884218D10E48816941F478
:100E000000718161816901F400710491816941F08F
:100E1000080181618069694600F0080004900120A2
:100E2000009003200190044800F08AF805B000BD4E
:100E30000024014000100240000C014010B590F861
:100E400021100022022905D00421816380F820208E
:100E5000012010BD01680B6823F00E030B600168D0
:100E60000B6823F001030B6090F84030C46B012144
:100E700001FA03F3636080F8211080F82020104607
:100E800010BD000010B590F821100024022903D0F5
:100E90000421816301243DE001680A6822F00E020A
:100EA0000A6001680A6822F001020A601A4A0168B1
:100EB000914201D1012121E0174A1432914201D11E
:100EC00010211BE0144A2832914201D1891515E006
:100ED000114A3C32914201D189140FE00E4A50323E
:100EE000914202D14FF4803108E00B4A64329142C2
:100EF00002D14FF4801101E04FF08071064A083AA8
:100F00005160012180F82110002180F82010416BF0
:100F100001B18847204610BD0800024070B5044664
:100F200000F008F90546601C02D00448007804442B
:100F300000F000F9401BA042FAD370BD0000002071
:100F40002DE9F84FDFF8B891002409F1040A0AF1FD
:100F5000040B23460F270BF1040EC9E00125A54021
:100F60002A40AA427DD1674ED1F804C0ACEB0608F6
:100F7000B44532D014DCBCF1030F3AD009DCBCF12B
:100F8000000F2AD0BCF1010F1CD0BCF1020F31D1EF
:100F90001DE0BCF1110F17D0BCF1120F2AD119E0DE
:100FA000B8F5881F19D006DCB8F5803F15D0B8F524
:100FB000801F1FD111E0B8F5001F0ED0B8F5041F37
:100FC00018D10AE0CB6815E0CB681B1D12E0CB6896
:100FD00008330FE0CB680C330CE08B682BB1012B8E
:100FE0004FF0080303D0456104E0042302E00561EB
:100FF00000E00023FF2A01D8064601E000F10406C4
:101000004FEA840501D9A5F12005D6F8008007FA3A
:1010100005FC28EA0C0803FA05F548EA0508C6F8B5
:1010200000804D68ED0062D5374DAE6946F001068F
:10103000AE61AD6924F0030605F001050095334D5E
:1010400006EB050CDCF80850A607360F07FA06F881
:1010500025EA0805DFF8B880404503D14FF00008C5
:1010600017E044E0DFF8AC80404502D14FF00108C2
:101070000FE0DFF8A480404502D14FF0020808E0FD
:10108000DFF89880404502D14FF0030801E04FF0AF
:10109000040808FA06F848EA0508CCF808804D6804
:1010A000D9F80060ED034D4601D5164300E09643A4
:1010B0002E604D68DAF80060AD03554601D5164341
:1010C00000E096432E604D68DBF80060ED025D465F
:1010D00001D5164300E096432E604D68DEF80060AF
:1010E000AD02754601D5164300E096432E60641CA0
:1010F0000D682A46E5407FF431AFBDE8F88F000067
:1011000000040140000011100010024000000140E6
:1011100000080140000C0140001001400014014093
:101120008068084000D0012070470AB10161704713
:101130000904FBE7014880687047000000000020B8
:1011400002488168027811448160704700000020E5
:10115000074810B5016841F010010160032000F05C
:1011600075F80F2000F006F800F024F8002010BDFC
:101170000020024070B50D4D04464FF47A71287876
:10118000B1FBF0F00A490968B1FBF0F000F062FB36
:1011900048B9102C07D200222146501E00F036F824
:1011A00000206C6070BD012070BD000000000020B8
:1011B0000C0000200C4808B5816941F001018161F3
:1011C000816901F001010091C16941F08051C16163
:1011D000C06900F0805000900448416821F0E0614F
:1011E00041F00071416008BD001002400000014064
:1011F000002809DB00F01F02012191404009800016
:1012000000F1E020C0F8001170470000F0B40E4B70
:101210001B680C46C3F30223C3F10705042D00D954
:101220000425191D072901D2002300E0DB1E012639
:1012300006FA05F1491E214099409E40761E16404F
:101240003143F0BC01F0FABE0CED00E0064900F0BD
:10125000070208684FF6FF03184040EA0220034ADD
:1012600010430860704700000CED00E00000FA0534
:101270002DE9F84305460078354CC00754D0E069A5
:101280000026C00008D4E06940F08050E061E069C9
:10129000012600F0805000902E480168C90512D444
:1012A0000168804641F480710160FFF743FF074603
:1012B00005E000BFFFF73EFFC01B642823D8D8F825
:1012C0000000C005F6D5206A10F4407021D0A9882E
:1012D00001F4407181421CD0206A1F49012220F490
:1012E00040700A6000220A602062C00711D0FFF738
:1012F00021FF074641F2883808E000BFFFF71AFFD8
:10130000C11B414502D90320BDE8F883206A80074C
:10131000F4D5206A696820F44070084320621EB149
:10132000E06920F08050E0612878800705D560688A
:10133000A96820F44040084360602878C00605D5BD
:101340006068E96820F48000084360600020DBE703
:101350000010024000700040400442422DE9F04776
:101360000F46050061D0434E306800F00700B842D8
:1013700009D2306820F0070038433060306800F050
:101380000700B84251D128683B4C810712D540076D
:1013900003D5606840F4E06060602878000703D5FA
:1013A000606840F4605060606068A96820F0F000F8
:1013B000084360602878C00728D06868012810D0EA
:1013C0002168022810D0890700292EDA616821F0EF
:1013D000030101436160FFF7ADFE804641F28839A9
:1013E0000DE021688903EFE78901EDE7FFF7A2FE31
:1013F000A0EB0801494502D90320BDE8F0876068E9
:10140000696800F00C00B0EB810FEFD1306800F09C
:101410000700B8420BD9306820F00700384330602D
:10142000306800F00700B84201D00120E5E72878D5
:10143000400705D56068E96820F4E0600843606013
:101440002878000706D56068296920F4605040EAD2
:10145000C100606000F038F86168084AC1F3031108
:10146000515CC8400649086006480068FFF782FEE4
:101470000020C2E70020024000100240C45D0008C6
:101480000C00002004000020044805490068496859
:10149000044AC1F30221515CC84070470C0000208F
:1014A00000100240D45D00080448054900684968FE
:1014B000044AC1F3C221515CC84070470C000020AF
:1014C00000100240D45D000812A185B00FC98DE85C
:1014D0000F0014A0144A006804905168134801F0EA
:1014E0000C03042B10D0082B0ED1C1F38343C90386
:1014F0001DF803000AD5516804AAC1F34041515CAC
:101500000A4A5043B0FBF1F005B070470849484320
:10151000FAE7000002030405060708090A0B0C0D90
:101520000E0F1010010200000010024000127A009D
:1015300000093D002DE9F84F040070D02078C04D1F
:10154000C00749D06868C0F38100012807D06868E7
:10155000C0F38100022809D16868C00306D5286855
:10156000800339D560680028E7D035E06068B0F5C1
:10157000803F0BD010B1B0F5A02F11D0286820F417
:1015800080302860286820F4802002E0286840F439
:1015900080302860606890B1FFF7CCFD06460AE015
:1015A000286840F480202860F0E700BFFFF7C2FD04
:1015B000801B642873D828688003F7D50CE0FFF7F8
:1015C000B9FD064605E000BFFFF7B4FD801B6428A7
:1015D000F0D828688003F7D420789A4E80074FF01F
:1015E00001094FF0000839D5686810F00C0F07D0DA
:1015F0006868C0F38100022809D16868C00306D476
:101600002868800714D52069012808D110E02069D6
:10161000B0B1C6F80090FFF78DFD074605E00AE17E
:10162000FFF788FDC01B0228C4D828688007F7D5BB
:101630002868616920F0F80040EAC10028600DE0E8
:10164000C6F80080FFF776FD074604E0FFF772FD5D
:10165000C01B022823D828688007F7D42078000709
:101660002CD57948A169D9B1C0F80090FFF762FD87
:10167000074604E0FFF75EFDC01B02280FD8686A2A
:101680008007F7D571484FF4FA510068B0FBF1F0CC
:10169000009000BF0098411E0091FAD20EE080E059
:1016A000C0F80080FFF746FD074604E0FFF742FD63
:1016B000C01B022875D8686A8007F7D420784007D5
:1016C00060D5E8690027C00008D4E86940F0805080
:1016D000E861E869012700F0805000905C480168EB
:1016E000C90513D40168834641F480710160FFF796
:1016F00021FD824606E000BFFFF71CFDA0EB0A00BB
:1017000064284ED8DBF80000C005F5D5E068012854
:101710000AD008B1052813D0286A20F001002862F9
:10172000286A20F0040002E0286A40F001002862E4
:10173000E06841F2883B98B1FFF7FCFC82460BE081
:10174000286A40F004002862EEE700BFFFF7F2FCD1
:10175000A0EB0A0159455AD8286A8007F6D50CE053
:10176000FFF7E8FC824605E0FFF7E4FCA0EB0A0186
:1017700059454CD8286A8007F6D41FB1E86920F093
:101780008050E861E06988B36968C1F3810102298A
:1017900044D00228C6F8608004D0FFF7CBFC044692
:1017A00038E034E0FFF7C6FC074604E0FFF7C2FC70
:1017B000C01B02282BD828688001F7D4206AB0F516
:1017C000803F05D16868A16820F400300843686054
:1017D000D4E908010843696821F47411084368607A
:1017E000C6F86090FFF7A6FC044606E025E000BFBF
:1017F000FFF7A0FC001B022809D828688001F7D554
:101800001BE000BFFFF796FC001B022802D9032053
:10181000BDE8F88F28688001F4D40EE00128F7D0E5
:101820006868226A00F48031914204D1616A00F450
:101830007010884201D00120EAE70020E8E70000AC
:101840000010024000004242800442420C0000208E
:101850000070004010B5401EB0F1807F01D3012020
:1018600010BD4FF0E02460610F21601701F0E6FB2E
:101870000020A06107202061002010BD70B590F805
:101880003C20012A26D0012480F83C40022280F826
:101890003D2003685A689D6822F070060A6832434A
:1018A0005A600D4B02689A4208D0B2F1804F05D0C1
:1018B0000A4B9A4202D00A4B9A4204D1496825F059
:1018C00080031943916080F83D40002180F83C106E
:1018D000084670BD022070BD002C0140000400408D
:1018E0000008004010B5040003D094F83D0010B18A
:1018F00007E0012010BD002084F83C00204600F0E5
:101900001FF8022084F83D00211D206801F06CF9C9
:10191000012084F8460084F83E0084F83F0084F8F3
:10192000400084F8410084F8420084F8430084F8C1
:10193000440084F8450084F83D00002010BD0000FC
:1019400008B50068B0F1804F08D10548C16941F081
:101950000101C161C06900F00100009008BD0000F4
:101960000010024070B5044690F83C00012817D0E2
:10197000012584F83C50022084F83D0020688268EC
:1019800022F0770222F47F4282600868502830D02B
:101990000DDC20284DD005DC98B310283BD148E061
:1019A000022070BD302844D0402834D139E060286E
:1019B00028D0702806D0B0F5805F2CD0B0F5005F3D
:1019C00029D10AE0CB68D1E90121206801F042F970
:1019D0002068816841F0770109E0CB68D1E90121F5
:1019E000206801F037F92068816841F48041816006
:1019F00011E0CA684968206801F0E0F950212068C8
:101A000007E016E0CA684968206801F0E8F960213B
:101A1000206801F029F984F83D50002084F83C004A
:101A200070BDCA684968206801F0C8F94021206883
:101A3000EFE7226801461046EBE7000010B586B0DC
:101A40000021009101910291039103681149022242
:101A50001148B3F1804F13D0104CA3420ED18B69C3
:101A600043F004038B61896901F004010491C021F2
:101A7000CDE9001269460392FFF762FA06B010BD85
:101A80008B6943F004038B61896901F004010491BF
:101A90000321EDE70010024000080140000400406F
:101AA00070B5044690F83C000D4601280AD001208C
:101AB00084F83C0042B1042A18D0082A2AD00C2A03
:101AC0004DD139E0022070BD206801F0D5F82068C2
:101AD000816941F0080181612068816921F0040178
:101AE0008161206881692A69114311E0206801F051
:101AF000EBF82068816941F40061816120688169A7
:101B000021F480618161206881692A6941EA0221AA
:101B1000816124E0206801F003F92068C16941F087
:101B20000801C1612068C16921F00401C161206818
:101B3000C1692A69114311E0206801F01DF920688C
:101B4000C16941F40061C1612068C16921F480610B
:101B5000C1612068C1692A6941EA0221C16100208E
:101B600084F83C0070BD10B5040003D094F83D002B
:101B700010B107E0012010BD002084F83C00204691
:101B800000F01EF8022084F83D00211D206801F0BD
:101B90002BF8012084F8460084F83E0084F83F00CA
:101BA00084F8400084F8410084F8420084F843003F
:101BB00084F8440084F8450084F83D00002010BDFE
:101BC00008B500680649884208D10648C16941F055
:101BD0000201C161C06900F00200009008BD000070
:101BE000000400400010024070477047F8B50268DA
:101BF00004461068D168536910F00F0F4FF00005CC
:101C000054D003F0010601F4907737435FD0C20748
:101C100005D0CA0503D5226C42F0010222644207B6
:101C200005D5DA0703D0226C42F002022264820753
:101C300005D5DA0703D0226C42F0040222640207C1
:101C400007D501F02002324303D0226C42F0080293
:101C50002264226C002A35D0800604D5880602D57D
:101C6000204601F0EEF820684069216CC0F3801036
:101C700001F008010143204625D001F0CAF8206890
:101C8000416949061BD5416921F040014161A06BC2
:101C9000A8B158494163A06BFFF7F4F8002811D0B0
:101CA000A06B416B01B0BDE8F040084783060ED53C
:101CB0008B060CD52046BDE8F84001F0C2B820469E
:101CC000FFF793FFF8BDFFF790FF2564F8BD266B83
:101CD0002023012E52D1C60650D5CE064ED510680F
:101CE00050680090506940062AD5A16B086840688A
:101CF0000004000CEAD0A68D8642E7D9E085886909
:101D0000202818D0D06820F48070D0602068416905
:101D100021F0010141612068416921F040014161E8
:101D200084F83E3025632068C16821F01001C1604D
:101D3000A06BFFF783F8A08DE18D401A81B219E006
:101D4000A08DE18D401A81B2E08D0028BED000291F
:101D5000BCD0D06820F49070D0602068426922F036
:101D60000102426184F83E3025632068C26822F097
:101D70001002C2602046FFF737FFF8BD05062BD5DD
:101D80000D0629D594F83D002128F6D1A068B0F5BC
:101D9000805F01D12069B0B1206A411C21622168B5
:101DA00000784860E08C401E0004000CE084E4D120
:101DB0002068C16821F08001C1602068C16841F0DD
:101DC0004001C160F8BD206A0088C0F3080050607F
:101DD000206A801C2062E5E74006F3D54806F1D56D
:101DE000D168204621F04001D16084F83D3000F0F8
:101DF000A2F8F8BD032E000870B5040004D094F8D2
:101E00003D00002510B106E0012070BD84F83C5073
:101E1000204600F023F8242084F83D002068C168A3
:101E200021F40051C160204601F066F82068016984
:101E300021F4904101612068416921F02A0141614A
:101E40002068C16841F40051C1602564202084F8F5
:101E50003D0084F83E00002070BD000070B586B0E3
:101E6000002400940194029403942E4E03682E499A
:101E7000022003222D4DB34226D18B6943F48043C7
:101E80008B618B6903F4804304938B6943F00403F3
:101E90008B618969039201F0040104910102CDE98B
:101EA000001069462846FFF74BF82815CDE90004D5
:101EB000694628460294FFF743F800221146252080
:101EC000FFF7A4F9252028E0194EB34227D1CB69AA
:101ED00043F40033CB61CB6903F4003304938B6983
:101EE00043F004038B618969039201F004010491BA
:101EF0000421CDE9001069462846FFF721F80820A3
:101F0000CDE90004694628460294FFF719F800223B
:101F100011462620FFF77AF92620FFF769F906B067
:101F200070BD000000380140001002400008014070
:101F30000044004070477047FEE770B50D46044608
:101F400000F0F4F8204600F0BBF800F04DF9284608
:101F500000F0B6F800F048F900F0E8F8641CE0B2D0
:101F600000F0AEF800F040F9002000F073F80446ED
:101F700000F012F9204670BD10B5124C002240212D
:101F80002046FFF7D2F8206820F0704020602068DB
:101F900040F040502060002280212046FFF7C5F825
:101FA000022002F075F8012240212046FFF7BDF81B
:101FB000022002F06DF820460022BDE810404021CA
:101FC000FFF7B3B8000C014000B585B000200290C7
:101FD0000A48816941F0080181618069694600F021
:101FE00008000490C020009011200190032003906D
:101FF0000348FEF7A5FF05B000BD00000010024039
:10200000000C014010B5124C002240212046FFF781
:102010008CF8206820F070402060206840F040502C
:102020002060012280212046FFF77FF8022002F085
:102030002FF8012240212046FFF777F8022002F016
:1020400027F820460022BDE810404021FFF76DB878
:10205000000C01402DE9F041184C0746002520688E
:1020600020F070402060206840F0004020602E4644
:10207000002240212046FFF758F8022002F008F81D
:10208000012240212046FFF750F86806050E802106
:102090002046FFF745F808B16D1CEDB2022001F0B3
:1020A000F7FF761CF6B2082EE2D327B1FFF764FFE4
:1020B0002846BDE8F081FFF7A5FFF9E7000C0140D5
:1020C00070B5194E05463046316821F070413160D7
:1020D000316841F04051316000224021FFF725F87E
:1020E0000024280601D5012200E00022802130468C
:1020F000FFF71BF86806050E022001F0C9FF012258
:1021000040213046FFF711F8022001F0C1FF002204
:1021100040213046FFF709F8022001F0B9FF641CA6
:10212000E4B2082CDDD370BD000C014010B5194C91
:10213000206820F070402060206840F0405020600F
:10214000012280212046FEF7F0FF80212046FEF785
:10215000E7FF002812D0012240212046FEF7E5FFCC
:10216000022001F095FF002280212046FEF7DDFFCE
:1021700080212046FEF7D4FF08B1002010BD0220C8
:1021800001F086FF002240212046FEF7CEFF01200D
:1021900010BD0000000C014010B5124C206820F06A
:1021A00070402060206840F04050206000224021B4
:1021B0002046FEF7BAFF002280212046FEF7B5FF39
:1021C000022001F065FF012240212046FEF7ADFF0D
:1021D000012280212046FEF7A8FFBDE81040022022
:1021E00001F056BF000C014070B5184C0025206866
:1021F00020F070402060206840F000402060012204
:1022000080212046FEF791FF022001F041FF0122CC
:1022100040212046FEF789FF07E06D1CEDB2642DDA
:1022200003D9FFF7B9FF002070BD022001F030FF95
:1022300080212046FEF774FF0028EED100224021C5
:102240002046FEF772FF012070BD0000000C014027
:1022500010B51446FFF771FE2070012010BDF8B5CF
:1022600015461C460E4607466A46FFF7F1FF012059
:102270009DF80010A8400CB1084301E021EA0000DD
:10228000C2B28DF800203146384600F02BF8F8BD78
:102290002DE9F84314461D460F4680466A46089EBF
:1022A000FFF7D6FF00281BD0611CFF20C4F10802F5
:1022B00000FA01F12A44521ED0400143C5F1080042
:1022C0008640F2B2C4F10700C2409DF80000084009
:1022D00010438DF80000C2B23946404600F002F8C3
:1022E000BDE8F88307B502AB012200F001F80EBD8E
:1022F0002DE9F0411E461546884607460024FFF7A3
:1023000015FF3846FFF7DCFEFFF76EFF4046FFF78C
:10231000D7FEFFF769FF06E0305DFFF7D1FEFFF75C
:1023200063FF641CE4B2AC42F6D3FFF735FF012033
:10233000BDE8F08110B5022000F011F8032000F094
:1023400020F8002000F014F8002000F02FF8002002
:1023500000F026F8BDE81040002000F01BB808B5DA
:102360000323009002226B21D020FFF791FF08BDCC
:1023700008B50223009004221C21D020FFF788FF1B
:1023800008BD08B50223009004221B21D020FFF7CE
:102390007FFF08BD034601223721D020FFF75FBF32
:1023A000034605226A21D020FFF759BF03460622C3
:1023B0006B21D020FFF753BF3EB500241148009495
:1023C000019402940E498460016004730475012530
:1023D00005614FF460214460C161FEF775FC08B1EE
:1023E000FEF7F1FB0820CDE9000569460294054897
:1023F000FEF7ECFB002801D0FEF7E5FB3EBD000038
:1024000000240140740000202DE9F04F85B0002425
:1024100043480094019402940394816941F01001AF
:102420008161816901F010010491816941F020010D
:102430008161816901F020010491816941F0040109
:102440008161816901F004010491816941F0080111
:1024500081618069DFF8CC9000F008004FF40055EE
:102460000490002229464846FEF75FFEDFF8B8A038
:10247000002230215046FEF758FEDFF8B0B048F693
:10248000C047002239465846FEF74FFE4FF44078C9
:10249000012241465846FEF748FE009502260125D6
:1024A0000396CDE9015469464846FEF749FD3020C0
:1024B000CDE90005CDE9024669465046FEF740FDEC
:1024C00000970396CDE9015469465846FEF738FD5A
:1024D00041F23800CDE90004694658460294FEF7FF
:1024E0002FFD4FF4C0408DE8310069465846FEF795
:1024F00027FD4FF41940CDE9000469465046029487
:10250000FEF71EFD1120CDF80080CDE90104032067
:10251000039069465846FEF713FD05B0BDE8F08FFD
:10252000001002400010014000080140000C014072
:1025300010B58EB000240794089409940A940B9463
:102540001C2168460C94FDF735FE21484FF0804170
:10255000C0E900144FF6FF71C0E9024104618461D3
:10256000FFF7C0F908B1FEF72EFB4FF4805007903B
:1025700007A91748FFF7F6F908B1FEF724FB14483E
:10258000FFF7F1FA08B1FEF71EFB0B940BA91048F8
:102590000C94FFF773F908B1FEF715FB6020CDE945
:1025A000000402940022694609480494FFF778FA6F
:1025B00008B1FEF708FB042269460548FFF770FAE8
:1025C00008B1FEF700FB0248FFF738FA0EB010BD65
:1025D000A400002010B58AB0002407941C2168468E
:1025E0000894FDF7E7FD1A481849C0E900144FF6B2
:1025F000FF71C0E9024104618461FFF7B4FA08B1D8
:10260000FEF7E1FA079407A911480894FFF736F995
:1026100008B1FEF7D8FA6020CDE900040294002248
:1026200069460B480494FFF73BFA08B1FEF7CBFA72
:10263000042269460648FFF733FA08B1FEF7C3FAE9
:102640000348FFF7FBF90AB010BD0000000400408A
:10265000EC0000200C4810B50A4901604FF4E1314C
:102660004160002181600C22C160C0E904128161D7
:10267000C161FFF7C1FB002803D0BDE81040FEF7A1
:10268000A2BA10BD00380140340100200C4810B53A
:102690000A4901604FF4E1314160002181600C2260
:1026A000C160C0E904128161C161FFF7A5FB002888
:1026B00003D0BDE81040FEF786BA10BD00440040CC
:1026C00078010020FEE7FEE770B5002400212046D7
:1026D00000F0F0F80025002000F056F96D1CEDB276
:1026E000802DF8D3641CE4B2082CEFD370BD000039
:1026F00010B586B0002002901048816941F00801B1
:10270000816180690E4C00F0080004904FF4407025
:102710000090112001900320039069462046FEF7A7
:102720000FFC012211022046FEF7FFFC012251029C
:102730002046FEF7FAFC06B010BD00000010024073
:10274000000C01402DE9F047144E002407464FF0DD
:1027500080084FF40079B51528FA04F23A4049464A
:102760003046FEF7E2FC012229463046FEF7DDFC4A
:10277000002229463046FEF7D8FC641CE4B2082C3F
:10278000EAD3012229463046FEF7CFFC29463046DF
:10279000BDE8F0470022FEF7C8BC0000000C014075
:1027A00070B501220B4D540221462846FEF7BDFCB0
:1027B0000122160231462846FEF7B7FC00222146C8
:1027C0002846FEF7B2FC31462846BDE8704000229C
:1027D000FEF7ABBC000C014070B50A4D4FF400741D
:1027E000002221462846FEF7A0FC012211022846BD
:1027F000FEF79BFC21462846BDE870400122FEF70B
:1028000094BC0000000C014010B500204FF47A7217
:102810000021491C9142FCD3401C9042F8D3FFF7A1
:1028200067FFAE2000F09FF8D52000F09CF88020D4
:1028300000F099F8A82000F096F83F2000F093F8F7
:10284000D32000F090F8002000F08DF8402000F038
:102850008AF8A12000F087F8C82000F084F8DA2078
:1028600000F081F8122000F07EF8812000F07BF863
:10287000CF2000F078F8D92000F075F8F12000F0B2
:1028800072F8DB2000F06FF8302000F06CF8A42024
:1028900000F069F8A62000F066F88D2000F063F8DB
:1028A000142000F060F8AF2000F05DF8BDE81040A3
:1028B000FFF70ABF10B50C4640F0B00000F053F827
:1028C000102040EA141000F04EF804F00F00BDE8AC
:1028D000104000F048B800002DE9F0410746CE0056
:1028E0004000083E801E15464FF0FF38F1B2C0B2DE
:1028F000FFF7E0FF1148002400EB05152819A0F5AB
:10290000805090F8000E00F03FF8641CE4B2082CF0
:10291000F4D308EB4700F1B2C0B2FFF7CBFF0024BD
:102920002819A0F5805090F8080E00F02DF8641CCE
:10293000E4B2082CF4D3BDE8F0810000DC5D0008AF
:102940002DE9F04115460E460746002406E03019F1
:10295000C1B23846FFF7C0FF641CE4B22A5D002A0A
:10296000F5D1BDE8F08110B50446FFF719FF7820D6
:10297000FFF7E8FE0020FFF7E5FE2046FFF7E2FE46
:10298000BDE81040FFF728BF10B50446FFF708FF69
:102990007820FFF7D7FE4020FFF7D4FE2046FFF750
:1029A000D1FEBDE81040FFF717BF70472DE9F74F84
:1029B00088B082466A4C07A8CDE900408B4604F1F6
:1029C0001A0106AB02AA881F01F0CCFC2088C005C2
:1029D0007ED50298FDF7F3FD6FF01D063146FDF739
:1029E000C9FC054660600398FDF7E9FD3146FDF737
:1029F000C1FC8046A0600498FDF7E1FD3146FDF77B
:102A0000B9FC0746E0600598FDF7D9FD3146FDF7B2
:102A1000B1FC0646206101212846FDF7ABFC394692
:102A2000FDF738FC05464FF0404739464046FDF774
:102A300031FC3146FDF72EFC2946FDF7D3FBFDF7AF
:102A4000F9FD01F017F8DFF81C914FF066384246A7
:102A50004B46FDF742FDFDF700FECAF80000E068B6
:102A600001210546FDF786FC82462946FDF712FC4A
:102A70000546A06839460646FDF70CFC3146FDF7D1
:102A800009FC2946FDF700FC4FF07E51FDF7AAFB3B
:102A9000FDF7D0FD07460D4601216068FDF76AFC91
:102AA0003146FDF7F7FB064650462169FDF7F2FB7C
:102AB0003146FDF797FBFDF7BDFD3A462B4601F089
:102AC00021FA42464B46FDF708FDFDF7C6FD00E042
:102AD00042E0CBF80000216901910846FDF7DAFBDE
:102AE000E168074608460091FDF7D4FBA168064659
:102AF0008B465846FDF7CEFB616805468A46504630
:102B0000FDF7C8FB2946FDF76DFB3146FDF7BCFB21
:102B10003946FDF7B9FBFDF78DFD05460C465046DD
:102B20000199FDF7B7FB064658460099FDF7B2FB41
:102B30003146FDF757FB0121FDF71CFCFDF77AFD3F
:102B40002A46234601F0DEF942464B46FDF7C5FC16
:102B5000FDF783FD0A9908600BB0BDE8F08F000017
:102B60001000002066A64C407047FEF7E9BA30B569
:102B700093B028216846FDF71DFB14210AA8FDF734
:102B800019FB002501200F95109511950104129550
:102B90008DE8230004904FF4E010CDE908100224E2
:102BA00007946846FEF7C6FC08B172B6FEE70AA9AC
:102BB0000F2081E831004FF48060CDE90D0502213E
:102BC0000AA8FEF7CBFB08B172B6FEE74FF400404F
:102BD00011900F940FA8FEF74BFB002801D072B69E
:102BE000FEE713B030BD7047F0B50268164B174CC6
:102BF000174D4FF08047984205D0B84203D0A0420D
:102C000001D0A84203D122F070064A6832439842AC
:102C100005D0B84203D0A04201D0A84203D122F48B
:102C20004074CA6822434C6922F080022243026049
:102C30008A68C2620A688262984201D109690163A6
:102C400001214161F0BD0000002C01400004004062
:102C50000008004010B5846842EA032224F47F444F
:102C60000A432243826010BD826822F070020A4348
:102C700042F007018160704730B5026A22F001021C
:102C80000262026A4368846924F073050C682C436D
:102C900022F002058A682A430A4DA8420BD122F08D
:102CA0000805CA6823F440732A434D6922F00402E0
:102CB0001D438B692B434360846149684163026211
:102CC00030BD0000002C014030B5026A22F0100235
:102CD0000262026A436884690D6824F4E64444EAA7
:102CE00005248D6822F0200242EA05120B4DA8420D
:102CF0000ED1CD6822F0800242EA05124D6923F41C
:102D0000406343EA85038D6922F0400243EA85036C
:102D10004360846149688163026230BD002C0140D8
:102D200030B5026A22F480720262036A4268C469A2
:102D300023F4007324F073050C682C438D6843EA78
:102D400005230C4DA8420ED1CD6823F4006343EA5D
:102D500005234D6922F4405242EA05128D6923F49D
:102D6000806342EA05124260C4614968C16303623C
:102D700030BD0000002C014030B5026A22F48052C0
:102D80000262046A4268C3690D6823F4E64343EAB9
:102D900005238D6824F4005444EA0534064DA84206
:102DA00004D14D6922F4804242EA85124260C36137
:102DB00049680164046230BD002C014010B5036A0B
:102DC000046A24F001040462846924F0F00444EAF3
:102DD000021423F00A020A438461026210BD10B596
:102DE000036A23F0100303628369046A23F47043C7
:102DF00043EA023224F0A00343EA01118261016236
:102E000010BD10B5406A0021C185C184FEF7EDFEFA
:102E100010BD0168CA6822F49072CA6001684A69EC
:102E200022F001024A61016B012904D10168CA68DC
:102E300022F01002CA60202180F83E1000210163B8
:102E4000704708B590F83E10222901D0022008BD35
:102E500082684FF480539A4201D1016921B1816A9D
:102E60009A421BD04AB10AE00268816A5268C2F3F2
:102E700008020A80816A891C08E0026972B102684E
:102E8000526802F07F020A70816A491C8162C18D1A
:102E9000491E0904090CC18503D019E00268526873
:102EA000F1E70168CA6822F02002CA600168CA68B6
:102EB00022F48072CA6001684A6922F001024A6104
:102EC000202180F83E10016B012903D0FFF732F872
:102ED000002008BD002101630168CA6822F01002C9
:102EE000CA6001680A68D20602D50A68496800917A
:102EF000818DFEF779FEEBE770B504460068016945
:102F0000E26821F44051114301612169A06808433E
:102F1000616908432168CA6841F20C639A4302431D
:102F2000CA6020684169A26921F44071114341617E
:102F30001E492068884202D1FEF7B6FA01E0FEF78A
:102F4000A3FA00EBC00101EB00126068642180006D
:102F5000B2FBF0F3B3FBF1F36FF018067343B2FB6F
:102F6000F0F5B2FBF0F605EB8305322303EB051514
:102F7000B5FBF1F5B6FBF1F605F0F00505EB06152E
:102F8000B2FBF0F6B2FBF0F0B0FBF1F06FF018021C
:102F9000504306EB800003EB0010B0FBF1F021681A
:102FA00000F00F002844886070BD00000038014028
:102FB0000148FEF71BBE0000340100200148FEF767
:102FC00015BE000078010020FEE700000FB4054B9D
:102FD00010B503A9044A029800F070F910BC5DF81E
:102FE00014FB0000F94900086C0000200FB4084BE6
:102FF00010B504A902AA039800F060F9044602A9DA
:10300000002000F0F2FC204610BC5DF814FB00002C
:10301000EB390008490050EAC12018BF04204A0DCE
:1030200018BF40F0010040F2FF72B2EB515F08BFE1
:1030300040F00200012808BF052070470907090E6B
:10304000002804DB00F1E02080F80014704700F055
:103050000F0000F1E02080F8141D70472DE9F041C9
:103060004F1E00EBC7010446D1E9000115461E467C
:1030700037F006020DD02A463346FDF72EFA7F1EA2
:1030800004EBC703D3E90023FDF780F937F006020C
:10309000F1D1022F25D0042F13D0062F18BFBDE881
:1030A000F0812A463346FDF718FAD4E90A23FDF7E2
:1030B0006DF92A463346FDF710FAD4E90823FDF7E7
:1030C00065F92A463346FDF708FAD4E90623FDF7E9
:1030D0005DF92A463346FDF700FAD4E90423FDF7EB
:1030E00055F92A463346FDF7F8F9D4E90223FDF7EE
:1030F0004DF92A463346FDF7F0F9D4E90023BDE83F
:10310000F041FDF743B90122FDF72EBCFDF73EB9B2
:103110000022134610461146FDF7B7BB024A0020B5
:103120001107FDF721BC000001FDFFFF02E008C808
:10313000121F08C1002AFAD170477047002001E031
:1031400001C1121F002AFBD170470000014908602D
:1031500070470000700000202DE9FF5FDDE90220CC
:10316000010DDDF838B0024318D044F61050A1F23A
:10317000FF3141430D140F98012820D0A5EB0B001F
:10318000401C5FEA000A4FF00004474EDFF81C9134
:10319000A046504616D5CAF1000728E00F98012432
:1031A00043A2012808D0002100980F9BC0E900210C
:1031B000C0E90243BDE8FF9F6FEA0B01F4E7CBF1E2
:1031C0000000DEE7074612E0F80707D02246334644
:1031D00040464946FDF781F98046894622463346F6
:1031E00010461946FDF779F904460E467F10002F68
:1031F000EAD1DDE90201BAF1000F42464B4602DA9C
:10320000FDF76BF901E0FDF740FB04460E46002296
:10321000284BFDF7D9FB03D84FF0FF30014607E0FC
:103220000022254B20463146FDF7B0F8FDF7B3FBF1
:10323000102409E0002C0ADB0A220023FDF73FFAE4
:10324000019B30321A55641E50EA0102F2D1641C0F
:10325000019AC4F1110314440F9A012A03D00122E8
:1032600008430DD10AE0084304D000204FF0110BB1
:103270000F9080E7A3EB0B056D1E0DE05B4504DDB1
:103280004FF0000205F1010504E003DA4FF00002FF
:10329000A5F10105002AECD000980F99C0E9023190
:1032A000C0E9004586E70000000024400000F03F30
:1032B000300000000000F0430000E03F2DE9FF4F28
:1032C00095B09B468946064600250FE2252877D112
:1032D00000242746F84A0121059400E0044316F82B
:1032E000013F203B01FA03F01042F7D130782A2841
:1032F00011D06FF02F033078A0F13002092A16D8D0
:10330000059A44F0020402EB820203EB42021044ED
:10331000761C0590EFE759F8042B0592002A03DA92
:10332000504244F40054059044F00204761C307876
:103330002E2816D116F8010F44F004042A280DD0C7
:103340006FF02F023078A0F13003092B09D807EB7A
:10335000870302EB4303C718761CF3E759F8047B95
:10336000761C30786C280FD006DC4C2817D06828E3
:103370000DD06A2814D104E0742810D07A280FD117
:103380000DE044F400140AE044F4801401E044F435
:1033900040147278824202D104F58014761C761CA7
:1033A000307866280BD013DC582877D009DC002849
:1033B00075D04528F6D04628F4D047281AD19DE18B
:1033C00018E0632835D0642879D0652812D195E1BA
:1033D000702873D008DC6728F1D069286FD06E2878
:1033E0000DD06F2806D1B5E073282CD0752875D084
:1033F000782874D05A46179990476D1C75E1C4F32C
:103400000250022809D003280DD0D9F80010042852
:103410000DD00D6009F1040967E1D9F80010EA1731
:10342000C1E90052F6E7D9F800100D80F2E70D70FF
:10343000F0E719F8041B8DF8001000208DF801004A
:10344000EA46012003E059F804AB4FF0FF30610772
:103450004FF0000102D40DE008F101018846B942A5
:103460000FDA8045F8DB1AF808100029F4D108E0DB
:1034700008F1010188468142FADB1AF80810002998
:10348000F6D105985B46A0EB080721463846179A07
:1034900000F094FA284400EB080507E04DE029E12C
:1034A0000DE01AF8010B5A4617999047B8F1010838
:1034B000F7D25B4621463846179A13E142E00A22CA
:1034C0000092C4F302524FF0000A022A08D059F8C1
:1034D00004CB032A4FEAEC710AD00DE029E02AE080
:1034E00009F1070121F00702F2E802C1914609E063
:1034F0000FFA8CFC4FEAEC71042A03D14FFA8CFCD2
:103500004FEAEC71002907DA0A460021DCF1000CD1
:1035100061EB02012D2202E0220504D52B228DF859
:103520000420012203E0E20701D02022F7E79046C1
:1035300059E00A2102E010220DE010214FF0000AAC
:1035400000910BE010224FF0000A44F00404082719
:10355000009203E008224FF0000A0092C4F30252E6
:10356000022A05D059F804CB0021032A08D009E02B
:1035700009F1070121F00702F2E802C1914605E0D6
:103580001FFA8CFC042A01D10CF0FF0C4FF000084C
:10359000220728D5702806D0009B83F0100353EA39
:1035A0000A0305D00EE040228DF80420012208E035
:1035B0005CEA010206D030228DF804208DF8050067
:1035C00002229046009B83F0080353EA0A030AD1C3
:1035D0005CEA010201D1620705D530228DF8042092
:1035E0004FF001087F1E582804D034A003900EA885
:1035F00002900DE036A0F9E753466046009AFDF7C9
:103600005EF884460398825C0298401E0290027025
:103610005CEA0100F0D1029806A9081A00F1200A1C
:10362000600702D524F4803400E00127574502DD0D
:10363000A7EB0A0000E0002000EB0A0100900598CB
:103640004144401A0590E00306D45B462146179A90
:10365000059800F0B3F90544002706E001A85A4692
:10366000C05D179990476D1C7F1C4745F6DBE00352
:103670000CD55B462146179A059800F09FF9054442
:1036800004E030205A46179990476D1C0099481E57
:1036900000900029F5DC08E0029802995A4600786B
:1036A000491C0291179990476D1CBAF10001AAF1CB
:1036B000010AF1DC65E100000928010030313233F4
:1036C000343536373839616263646566000000005E
:1036D0003031323334353637383941424344454648
:1036E0000000000000F058F90544761C30780028EE
:1036F0007FF4ECAD19B02846BDE8F08F620700D426
:10370000062709F1070222F0070CFCE80223E14634
:1037100003F000485FEA080C02D00FF2702C0DE0B5
:103720005FEA045C02D50FF2682C07E05FEAC47C14
:1037300002D00FF2602C01E0AFF2700C4FF0FF38B6
:1037400023F00043CDF850C065280CD006DC452896
:1037500009D046281DD047283DD13DE0662818D025
:1037600067287ED138E00021112F01DB112000E015
:10377000781CCDE9000106A90EA8FFF7EDFCDDE9F4
:103780000F010E9A03910021009207F1010A0491A2
:103790004DE04FF000400097CDE9011006A90EA8BA
:1037A000FFF7DAFCDDE90F0203920E9B119900226C
:1037B000DDF80CA00093049211B9791C00EB010A0A
:1037C000B7EB0A0004D4C0F1FF3007F1010A0490FE
:1037D000AAEB0700019044E0012F00DA0127002145
:1037E000112F01DD112000E03846CDE9000106A9C6
:1037F0000EA8FFF7B1FCDDE90F010E9A039100213D
:1038000004910092BA4621070CD40399514500DA7D
:103810008A46BAF1010F05DD009AAAF10101515C57
:10382000302908D0B84202DA10F1040F06DA01217B
:10383000CDE9011015E0AAF10101E9E7002805DC56
:10384000049901440491AAEB000102E0411C514596
:1038500000DD8A460499401A401C01904FF0004058
:103860000290200704D40198504501DBCDF8048074
:1038700000208DF84F0002980DF14F07B0F1004F76
:1038800025D02B200E9002984FF0020800280CDA69
:10389000404202902D200E9007E00A210298FCF78A
:1038A000F8FE3031029007F8011DB8F10001A8F1CF
:1038B0000108F2DC02980028EFD1791E0E980870FA
:1038C000307800F0200040F0450007F8020D12A803
:1038D000C01B00F107081498007800B1012000EB2C
:1038E0000A01019801EBE07105984144401A401E1D
:1038F0000590E00306D45B462146179A059800F030
:103900005DF805441498007818B15A461799904705
:103910006D1CE00324D55B462146179A059800F0FC
:103920004DF805441CE00498002807DBDDE903019D
:10393000884203DD0098405C179901E01799302018
:103940005A469047049805F10105401C04900198DF
:10395000401E019004D12E205A46179990476D1CA5
:10396000BAF10001AAF1010ADDDC05E017F8010B4C
:103970005A46179990476D1CB8F10001A8F101084B
:10398000F4DC5B462146179A0598ABE62D00000053
:103990002B000000200000002DE9F0410446002526
:1039A0001E461746880404D405E039462020B04757
:1039B0006D1C641EF9D52846BDE8F0812DE9F04163
:1039C000044600251E469046C80301D5302700E076
:1039D0002027880404D505E041463846B0476D1CD1
:1039E000641EF9D52846BDE8F0810A68531C0B60B7
:1039F000107070472DE9FE4F07460E4600256846B9
:103A000001F004F800246FF00F0AE8464FF00109B6
:103A100057F8240056F82410401A00D54042FCF70D
:103A2000CEFD5146FCF7A6FC58F8241011F0FF4FCC
:103A30000BD0FCF761FC4FF07E51FCF725FC0A49E6
:103A400020F00040884205DC07E0084908440849A6
:103A5000884202D309FA04F00543641C032CD7DB27
:103A60002846BDE8FE8F0000295C0F3E666666C1F1
:103A70009A99D9002DE9F04D8D4F21F0004A86B07A
:103A800005460C46BA452ADBAAEB070028430AD0B4
:103A90008848824501DC1AD1CDB106B02846BDE880
:103AA000F04DFFF730BB844A844B2846FCF715FDE8
:103AB00007460E46824A834B28462146FCF70DFDF9
:103AC00006B03A463346BDE8F04DFCF75FBC012036
:103AD000FFF73CFB06B0BDE8F04DFFF719BB7A4895
:103AE000824542DABAF1795F0BDA2846FFF792FA9B
:103AF000042808BFFFF712FB284606B02146BDE8A0
:103B0000F08D2A460B461046FCF7E7FC834602463A
:103B10006E480E460B4606217844FFF79FFA5A4638
:103B20003346FCF7DAFC804669488A465A463346F3
:103B300004217844FFF792FA5A463346FCF7CDFC4D
:103B400000223B46FCF722FC02460B46404651460B
:103B5000FCF79BFE2A462346FCF7BFFC06B02A462C
:103B60002346BDE8F04DFCF711BC284624F0004187
:103B700000223D463B46FCF7ADFC4FF0FF32FCF720
:103B8000F3FE0646024653480F460B46062178448C
:103B9000FFF764FA32463B46FCF79FFCCDE9000193
:103BA0004D4832463B4604217844FFF757FA3246E7
:103BB0003B46FCF792FC00222B46FCF7E7FB8346D2
:103BC00002913046394602F0D7F8804643480D4608
:103BD000504517DCDDE900015A46029BFCF755FE13
:103BE00042462B46FCF779FC42462B46FCF7CEFBBF
:103BF0000122FCF7B9FE304A304BFCF768FC304A32
:103C0000304B4CE04FF0000A52460B464046FCF762
:103C1000BDFBCDE9031052462B4610461946FCF772
:103C20005CFC32463B46FCF755FCDDE90332FCF711
:103C30002CFE06460F46DDE900015A46029BFCF7C2
:103C400024FE83460091012230463946FCF78CFE63
:103C5000194A1A4BFCF73EFC06460F460122404625
:103C60002946FCF781FE5A46009BFCF736FC32469B
:103C70003B46FCF72CFC06460F46012250462946DF
:103C8000FCF772FE0E4DDFF858802A464346FCF7DB
:103C900021FC32463B46FCF71DFC2A464346FCF716
:103CA00019FC002CD8BF81F0004106B0BDE8F08DB2
:103CB0000000F03F0000F07F075C143326A6913C23
:103CC000182D4454FB21F93F0000E03FFC34000074
:103CD00012350000863400009C3400003333EF3F7F
:103CE000FB21E93F2DE9F84F04460D4621F0004045
:103CF00000917349814211DC7249884201DC06D18E
:103D00002CB120462946BDE8F84FFFF7FCB96E48B4
:103D1000002DCCBF6D496E49BDE8F88F6D498142D9
:103D200011DD6D498142D8BF4FF0FF366DDD204671
:103D30002946FFF76FF9042808BFFFF7EFF920467F
:103D40002946BDE8F88F6549654F25F00045814259
:103D500033DD6449814219DD002632464FF080434D
:103D600020462946FCF712FB80468A46012220465F
:103D70002946FCF7F9FD00223B46FCF7A8FB42462A
:103D80005346FCF782FD04460D463EE00126002224
:103D9000BA463B4620462946FCF7F8FA80460F46CD
:103DA0000022534620462946FCF791FB42463B46FB
:103DB000FCF76BFD04460D4627E04B4981421BDDB5
:103DC000DFF828A102260022534620462946FCF7A8
:103DD00084FB00223B46FCF7D9FA80460F460022BE
:103DE000534620462946FCF772FB42463B46FCF709
:103DF0004CFD04460D4608E0032622462B460020D3
:103E00003B49FCF742FD04460D4622462B46104630
:103E10001946FCF762FB8B46824602460B46FCF7CE
:103E20005CFB07460246334888460B460621784429
:103E3000FFF714F952465B46FCF74FFB82462E48CB
:103E40008B463A46434605217844FFF707F93A4640
:103E50004346FCF742FB02460B46002E50465946AD
:103E60000CDAFCF793FA22462B46FCF736FB01B03E
:103E700022462B46BDE8F04FFCF72CBBFCF786FA38
:103E800022462B46FCF729FB1C4A7A4402EBC60368
:103E9000D3E90023FCF71BFB22462B46FCF717FB5C
:103EA000174A7A4402EBC603D3E90023FCF712FB5E
:103EB000009A002AB8BF81F00041BDE8F88F0000E9
:103EC000000010440000F07F182D4454FB21F93FFE
:103ED000FB21F9BF0000DC3F0000203E0000F33F63
:103EE0000000F03F0000E63F008003400000F83F84
:103EF0000000F0BF9E3200005C320000FA3100008A
:103F0000C23100002DE9F04D9446CCF1000423F0BD
:103F100000464CEA0404524F46EAD4749A46884656
:103F200021F00042BC4206D8454240EA050442EA7C
:103F3000D474BC4204D9BDE8F04D6246FFF7E6B840
:103F4000AAF14055A5F17F6555EA0C040BD0022477
:103F500004EAAA74434DDFF810E144EAD87452EA47
:103F6000000B04D00CE0BDE8F04DFFF7BBBE002C09
:103F700014BF012CBDE8F08D022C30D0032C32D0C0
:103F800056EA0C0B0AD0BE4220D1BA4209D126F023
:103F9000804622F080423346114617E000291ADBA2
:103FA00025E0DFF8C8B0FB44002C04BFDBE90001CA
:103FB000BDE8F08D012C02BFDBE9000181F000417A
:103FC000BDE8F08D022C0AD0032C0CD0BA4212D1DD
:103FD000B8F1000F0BDA23482549BDE8F08D2846DB
:103FE0002449BDE8F08D28467146BDE8F08D1D4896
:103FF0002149BDE8F08D921B12153C2AC4BF194817
:104000001D490EDCBAF1000FBEBF12F13C0F0020BB
:10401000014606DB6246FCF738FC21F00041FFF761
:1040200061FE002C08BFBDE8F08D012C04BF81F0BB
:104030000041BDE8F08D114A114B022C07D0FCF76E
:1040400046FA2A46BDE8F04D0A4BFCF740BAFCF7A9
:104050003EFA2A46BDE8F04D064BFCF73BBA00009D
:104060000000F07F182D4454FB2109C05631000098
:10407000FB21F9BFFB210940FB21F93F075C143309
:1040800026A6A13C01490860704700006800002096
:1040900070B54FF0E024002265690949A3690968F9
:1040A0004843A1699942FCD002D2A3EB010302E08C
:1040B000A5EB010633441A440B468242F1D370BD8E
:1040C0006800002008B560B120208DF8000028208D
:1040D0008DF8010030208DF8020038208DF80300A3
:1040E00004E0A32204216846FCF75DF86A46042137
:1040F00040F69E2001F096FD01F05CFA08BD00003C
:104100003EB5044602208DF80000CA208DF801005B
:10411000E3208DF8020009208DF803006A4604218F
:10412000682001F07FFDA3208DF80000610609D50D
:10413000C0218DF80110C8218DF80210C2218DF820
:10414000031005E08DF801008DF802008DF80300E2
:1041500014F4C07F09D0C4218DF80410CC218DF84F
:104160000510C6218DF8061005E08DF804008DF8C5
:1041700005008DF806008DF808008DF807008DF811
:1041800009006A460A2140F6A72001F04BFDA0076E
:104190004FF0D80503D020208DF8000001E08DF805
:1041A00000506A46012140F6B62001F03BFDA00612
:1041B00001D5012000E0002000F08EF814F4C07F4B
:1041C0001ED0E0050AD5B2208DF800008B208DF8B6
:1041D0000100B6208DF802009B2009E0B0208DF888
:1041E000000080208DF80100B4208DF8020090209E
:1041F0008DF803006A46042140F6A22001F012FD6A
:10420000E1074FF40B6022D0F8218DF800106A46C8
:10421000012101F007FDFA21072000F039FB0720FA
:1042200000F004FB012000F021FB642000F0C4FB3F
:104230004FF4FA7000F0D0FBC821254800F0BEFA18
:10424000282000F0D3FA0A2000F0E0FA05E08DF80B
:1042500000506A46012101F0E5FCA00703D5D920F2
:104260008DF8000001E08DF800506A46012140F20F
:104270003D7001F0D7FC600701D5012000E000206F
:1042800000F048F8E00601D5012000E00020FFF72B
:1042900019FF104D44F00800688101F08BF90020EF
:1042A000A873600601D50620A87314F4C07F02D05D
:1042B000A87B801DA87314F0140F02D0A87B1030C7
:1042C000A873A00702D0A87B001DA87300203EBDE4
:1042D00009E3CA02BC0100200EB54FF4976310B188
:1042E00006A107C901E008A207CA8DE807006A46CF
:1042F0000921184601F096FC0EBD0000B8AAB38D46
:10430000B4980D355D000000B8AAAAAAB088C3C54C
:10431000C700000008B560B1C0208DF80000C220C1
:104320008DF80100C4208DF80200C6208DF803002E
:1043300004E08B2204216846FBF735FF6A4604211E
:1043400040F6982001F06EFC01F034F908BD000041
:10435000C8234FF48062024940F6F63001F00CB8F1
:104360001C6400082DE9FF4F89B01746DDE916529D
:1043700000244C4E884681462C80A246B07B69467C
:1043800001F0A6F84FF0FF3B18B158460DB0BDE85C
:10439000F08F708910F0140F3CD0009909BA21F009
:1043A000FF039DF803100B433B6001991B1409BAEE
:1043B00021F0FF029DF807105B430A437A600299DF
:1043C0009DF80B4009BA21F0FF012143B960039C1D
:1043D000091424BA24F0FF0C9DF80F4012144CEA83
:1043E000040CC7F80CC04FEA2C47494302FB0232C9
:1043F00007FB071111441024A1F17061B1F1007F96
:1044000004D901F0D7F8A5F800A0BEE7298841F447
:10441000807129804206694611D50A19A41D1388A6
:104420005BBAA8F8003053885BBAA8F802309288CB
:1044300052BAA8F804202A8842F008022A8010F410
:10444000C07F11D00A19A41D13885BBAA9F80030E7
:1044500053885BBAA9F80230928852BAA9F80420AE
:104460002A8842F070022A80800716D00C44E07837
:1044700000F0C00500F03F016078C00706D0C80812
:1044800001F007013268491C02B1904760780007CB
:1044900003D5716809B1A80988470C9801F0ECFBB5
:1044A000002073E7BC0100202DE9FF41044603A86A
:1044B00000F018FEBDF80C00410CC3032F48028920
:1044C00002F00300550754F8200000D54042C2F323
:1044D000C105960654F8255000D56D42C2F38116E9
:1044E000D20554F8264000D56442A0FB0367C217EA
:1044F00002FB037200FB0120820042EA9670A5FBDA
:104500000367EA1702FB037205FB0122950045EAE7
:104510009672A4FB0367E51705FB037304FB0131E7
:104520008B0043EA9671030E8DF80030030C8DF872
:104530000130030A8DF802308DF80300100E8DF85B
:104540000400100C8DF80500100A8DF80600080E06
:104550008DF80800080C8DF80900080A8DF80A008B
:104560008DF807208DF80B106A460C214FF425704A
:1045700001F058FB04B0BDE8F0810000BC01002050
:1045800030B5044613A285B007CA8DE807004FF086
:10459000FF35C82C16D8C820B0FBF4F1491E080A14
:1045A0008DF80C008DF80D1003AA022140F21620A0
:1045B00001F038FB30B96A460C2140F6C12001F009
:1045C00031FB10B1284605B030BD0548848100207C
:1045D000F9E70000FEF2ABC4AAF1DFDFBBAFDFDF1B
:1045E000BC010020F8B53049098901F0030250F8F8
:1045F00022404A0700D56442C1F3C1028B0650F83D
:10460000222000D55242C1F3811350F82330C8054F
:1046100000D55B42254984FB0140850045EA947042
:1046200082FB0142A40F44EA820483FB0121950F1F
:1046300045EA8105010E8DF80010010C8DF801107E
:10464000010A8DF802108DF803006A4604214FF428
:10465000747001F0E7FA4FF0FF3688B9200E8DF83C
:104660000000200C8DF80100200A8DF802008DF862
:1046700003406A4604214FF4757001F0D3FA08B183
:104680003046F8BD280E8DF80000280C8DF801008A
:10469000280A8DF802008DF803506A4604214FF471
:1046A000767001F0BFFAF8BDBC01002009E3CA0230
:1046B0002DE9FF4104463CA004F00303006802908A
:1046C0003AA0006803903AA006683AA0056802A8DC
:1046D000C15C8DF80010C4F3C101425C8DF801206B
:1046E000C4F38112805C8DF8020003A8C35C8DF8CE
:1046F0000430415C8DF80510805C8DF806006A4638
:10470000032140F2264001F08DFA4FF0FF37E0BB65
:1047100001AA032140F22A4001F084FAA8BBCDE9A6
:10472000006560070BD59DF8000040F001008DF892
:1047300000009DF8040040F001008DF80400A00680
:104740000BD59DF8010040F001008DF801009DF8A7
:10475000050040F001008DF80500E0050BD59DF83F
:10476000020040F001008DF802009DF8060040F0C4
:1047700001008DF806006A4603214FF4886001F0BD
:1047800051FA10B901AA032100E004E040F23140DF
:1047900001F048FA18B1384604B0BDE8F081064887
:1047A00004810020F8E700004CCD6C000CC92C00FF
:1047B0003656760026466600BC0100204FF47A7219
:1047C00090FBF2F008B54843010E8DF80010010C83
:1047D0008DF80110010A8DF802108DF803006A4669
:1047E00004214FF4AE7001F01DFA08BD0521B0FBA5
:1047F000F1F008B5010A8DF800108DF801006A4645
:1048000002214FF4AD7001F00DFA08BD0521B0FB97
:10481000F1F008B5010A8DF800108DF801006A4624
:1048200002214FF4AC7001F0FDF908BD08B500217C
:104830008DF80010C10702D030218DF800108107DB
:1048400005D59DF8001041F00C018DF800104007CF
:1048500005D59DF8000040F003008DF800006A4681
:1048600001214FF4A47001F0DDF908BD08B560B175
:10487000042800D90420401E8DF800006A4601215A
:1048800040F24F1001F0CEF908BD0120F3E700001F
:104890002DE9FC41054640074FF0FF367CD0B1F5CD
:1048A000C86F79D80846FBF793FE3E49FBF724FD15
:1048B000074601A800F0F8FB9DF80400022806D086
:1048C00004280DD008282ED0102865D134E00E2100
:1048D0003846FBF74FFDFBF799FE84B2324907E0FB
:1048E0000D213846FBF746FDFBF790FE2F4984B2B9
:1048F0003846FBF7CFFCFBF789FE210A8DF8001044
:1049000080B28DF80140010A8DF802108DF8030085
:10491000E8076C4620D0224602214FF4EA7001F0ED
:1049200081F9C8BB11E00C213846FBF723FDFBF7EA
:104930006DFE84B21E49DBE70B213846FBF71AFDFA
:10494000FBF764FE84B21B49D2E7A21C02214FF49C
:10495000927001F067F9F8B9A8070DD56A460221EF
:104960004FF4EC7001F05EF9B0B9A21C02214FF4D3
:10497000947001F057F978B9680710D56A4602219A
:104980004FF4EE7001F04EF930B9A21C02214FF441
:10499000967001F047F910B13046BDE8FC81002067
:1049A000FBE7000000004843000040460000C0450F
:1049B000000040450000C0440521B0FBF1F008B5FF
:1049C000010A8DF800108DF801006A4602214FF4AB
:1049D000EF7001F027F908BD0521B0FBF1F008B533
:1049E000010A8DF800108DF801006A4602214FF48B
:1049F000ED7001F017F908BD38B504468DF80000D8
:104A000069460320ABBE204638BD00002DE9FE43B9
:104A10000646264801AB042240680D21007800F0CC
:104A20003FFA10B10720BDE8FE839DF804101C205A
:104A300000EAD1029DF80710DFF87490C1F301136A
:104A40001A438DF800209DF80520C1F3810300EA88
:104A5000D2021A438DF801209DF8062001F00301CF
:104A600000EAD20008430024124F8DF80200A0464D
:104A70006D46285D10B146F824900AE046F824807F
:104A80000DE000BF56F824003946FBF703FC46F85A
:104A90002400285D401E10F0FF002855F2D1641C50
:104AA000E4B2032CE5D30020BDE700003C00002069
:104AB0007B14AE3E1D5A843F2DE9FE4F0546012072
:104AC000C14E8DF800004FF000088DF8018030686D
:104AD0000C461746817C70686B460222007800F015
:104AE00017FA4FF0FF3A00287AD1C820FCF716FADF
:104AF0008DF8008030686B460122C17B70680078B9
:104B000000F006FA0028EFD130686B4601224179A7
:104B10007068007800F0FCF90028E5D130686B4639
:104B20000122817C7068007800F0F2F90028DBD166
:104B300030686B460122C17D7068007800F0E8F9AA
:104B40000028D1D130686B46012201797068007865
:104B500000F0DEF90028C7D14FF00C098DF8009065
:104B600030686B46012201797068007800F0D0F956
:104B7000002835D10F20FCF7D1F9B06A6B4601222D
:104B8000407A8DF80000306881787068007800F015
:104B9000BFF9002824D1B06A6B460122007A8DF853
:104BA0000000306841787068007800F0B1F90028A2
:104BB00073D1B06A807A0FB140F0E0008DF8000048
:104BC00030686B46012281797068007800F0A0F9A6
:104BD000002862D12FB1B06AC07A40F0E00001E055
:104BE0004AE018208DF8000030686B460122C17938
:104BF0007068007800F08CF9F0BB17B1C820FCF7A2
:104C00008DF940208DF8000030686B460122017953
:104C10007068007800F07CF970BB78208DF8000097
:104C200030686B46012241797068007800F070F9B5
:104C300010BB3220FCF772F98DF8008030684746CF
:104C40006B46417970680122007800F061F998B9EB
:104C500031687068B046897A00786B46022200F0AD
:104C60001FF948B9BDF80000AF6040BAB0FBF9F0D9
:104C70006F60C6B22F6000E00FE0A760676027603A
:104C8000002739E0D8F80010D8F804006B46C97A3C
:104C900000780C2200F004F910B15046BDE8FE8FF8
:104CA000BDF80000236840BA02B2BDF80200BDF8AA
:104CB00004101A44226040BA626800B21044606076
:104CC00049BAA06809B20844A060BDF806002B6884
:104CD00040BA02B2BDF808001A4440BA01B2BDF8A9
:104CE0000A002A606A6840BA11446960A96800B283
:104CF00008447F1CFFB2A860B742C3D32868832250
:104D0000C117090441EA104100040023FBF70AFA25
:104D100032460023FBF706FA286068688322C11731
:104D2000090441EA104100040023FBF7FBF9324675
:104D30000023FBF7F7F96860A8688322C11709040C
:104D400041EA104100040023FBF7ECF9324600234E
:104D5000FBF7E8F9A86020684FF40065C117090463
:104D600041EA104100042A460023FBF7DBF93246F2
:104D70000023FBF7D7F9206060682A46C1170904B1
:104D800041EA104100040023FBF7CCF9324600232E
:104D9000FBF7C8F96060A0682A46C117090441EA18
:104DA000104100040023FBF7BDF932460023FBF756
:104DB000B9F9A060002802DDA0F5803001E000F51F
:104DC0008030A060002069E73C0000202DE9F84F0A
:104DD00081462E488846002540686B4603220078AD
:104DE0000D2100F05DF810B10720BDE8F88F9DF8A7
:104DF0000000002400F01F008DF800009DF8010065
:104E00006FF00F0B00F01F008DF801009DF80200FD
:104E10006E4600F01F008DF802004FF0010A00BF3F
:104E200059F8241058F82400081A00D54042FBF71E
:104E3000C6FB5946FBF79EFA0746305DC0B11448E1
:104E400002E01449FBF726FA315D491E11F0FF011B
:104E50003155F6D101463846FBF74EFA4FF07E51F8
:104E6000FBF712FA0C4920F00040884205DC07E00D
:104E70000A483844B0F1D97F02D90AFA04F0054350
:104E8000641C032CCCDB2846AFE700003C0000206C
:104E90000000C84154E3853F295C0F3E0000E0BE9E
:104EA0002DE9F0411D4614460F460646FDF73EF932
:104EB000B0B17006000EFDF703F9FDF795F990B15A
:104EC0003846FDF7FDF8FDF78FF9FDF72FF90120C2
:104ED00000EB4600C0B2FDF7F3F8FDF785F90FE0EF
:104EE0000120BDE8F081FDF757F9F9E7012C0DD05D
:104EF0005FF00100FDF7AEF8641E05F8010BE4B2A7
:104F0000002CF3D1FDF748F90020EAE70020F1E793
:104F10002DE9F0411E4615460F460446FDF706F9F9
:104F200068B16006000EFDF7CBF8FDF75DF948B1FA
:104F30003846FDF7C5F8FDF757F900240CE00120CD
:104F4000BDE8F081FDF728F9F9E7305DFDF7B8F825
:104F5000FDF74AF910B1641CAC42F6DBFDF71CF911
:104F60000020EDE790F90010002902DD4FF000006D
:104F7000704702DA4FF00400704790F901100029E1
:104F800002DD4FF00100704702DA4FF00500704774
:104F900090F90200002802DD4FF00200704702DAAB
:104FA0004FF0060070474FF00700704786B0FCF7DF
:104FB000CFF8FDF7DCFDFDF727FAFDF7FDF9FDF76A
:104FC000B7FAFDF707FBFDF745FBFDF75FFB482050
:104FD000FFF758F8FCF7F8FFFDF7ACF9FBF79CFD7D
:104FE000FDF712FC04AA03A902A8FDF7DFFC029852
:104FF000FBF720FB02460B4614A16846FDF7F6FFBF
:1050000001216A460846FDF79BFC0398FBF712FB5B
:1050100002460B460DA16846FDF7E8FF6A460121EE
:105020000220FDF78DFC0498FBF704FB02460B46BB
:1050300006A16846FDF7DAFF6A4601210320FDF765
:105040007FFC3220FBF76AFFCCE70000252E336699
:10505000000000002DE9F041124C20F00101002574
:1050600094F8240010B10020BDE8F081A07A4FF040
:10507000FF3668B10840277C2074884200D035464E
:1050800041B1012000F04CFE00F094FA38B12774D1
:105090003046E9E7207D00B1012000F041FE2846BE
:1050A000E2E700003C0000200D494A7A42B1012AA3
:1050B00008D0022A0FD0032A0FD04FF0FF307047DC
:1050C000022200E004220270C97C11B11106C90D50
:1050D0000170002070470822F5E71022F3E7000076
:1050E0003C0000200F494A7A42B1012A09D0022A25
:1050F00011D0032A12D04FF0FF3070474FF4804296
:1051000001E041F69C720280C97C11B1C2F34E01EC
:105110000180002070474FF48052F4E74FF40062A2
:10512000F1E700003C0000200B49097A39B1012960
:1051300007D002290AD003290BD0002103E0FA216D
:1051400001E04FF4FA710180002070474FF47A714A
:10515000F9E74FF4FA61F6E73C0000200A49097AC2
:1051600041B1012908D002290AD003290AD04FF001
:10517000FF307047054900E0054901600020704795
:105180000449FAE70449F8E73C0000200000034323
:105190000000834233330342333383410C49C97ADD
:1051A000072913D2DFE801F01204060A0C0E1000E2
:1051B000BC2100E062210180002070472A21FAE72B
:1051C0001421F8E70A21F6E70521F4E70021F2E7C8
:1051D0003C000020054991F8242012B14FF0FF3027
:1051E0007047C98901800020704700003C00002002
:1051F0002DE9FC414C4C80208DF8000020686B4666
:105200000122817C60680078FFF782FE4FF0FF3753
:10521000002832D16420FBF781FE00258DF8005074
:1052200020686B460122817C60680078FFF770FE81
:10523000002870D120686B460622817D6068007866
:10524000FFF72EFE002866D19DF805009DF803109B
:10525000C007400F01F0010140EA41019DF8010043
:105260004FF0010600F00100014309D0012905D0EB
:10527000022915D02DA0FDF7A9FE4CE0E67410E040
:1052800020686B460122C17860680078FFF708FE4D
:1052900040BB9DF8000010F00F0020D0042822D061
:1052A000E574FF2004F80A0F4FF6FF7104F8020CB2
:1052B00004F8010C6070A180A0712072A67026769F
:1052C0006576E572A572E56025616561A576E5768E
:1052D000A5834FF4FA6000F06BFB18B907E01D4896
:1052E000FDF774FE17E01CA0FDF770FEC6E7022074
:1052F00000F080FA78B92A2000F0C2FB58B93220B9
:1053000000F0F4FB38B90020FFF7A4FE18B9002024
:1053100000F0A4FA10B13846BDE8FC81002000F08E
:1053200025FC0020F8E700003C000020556E737556
:1053300070706F7274656420736F667477617265E4
:105340002070726F64756374207265762025642EF8
:105350000A0000000871000848616C662073656EE1
:105360007369746976697479207061727420666FEC
:10537000756E642E0D0A00002DE9FF4FDFF8948052
:10538000064685B098F8250015460F464FF0FF39C0
:10539000B0BBAFB3002420E0301B102800DD10208C
:1053A00080B283463A1901469246204600F03AFC04
:1053B00030BB6A465946204600F0D2F800BB504642
:1053C0005A466946FAF701FF20B16FF0010009B0B3
:1053D000BDE8F08F04EB0B0084B2B442DCD3280AA2
:1053E0008DF810008DF81150D8F80000444604AB39
:1053F000817ED8F8040002220078FFF789FD08B109
:105400004846E4E7012084F825000898E08400205D
:10541000DDE700003C0000202DE9F84305464FF091
:10542000FF39282844D80727284C00267DB10120C1
:1054300000F0F4FA20208DF800004FF00108012D53
:1054400017D0052D18D88DF8018005201FE0002009
:1054500000F0E4FA8DF800608DF8017020686B466A
:105460000222817C60680078FFF752FD00BB267540
:1054700029E08DF80160E8E7142D04D802208DF8AA
:1054800001000A2003E003208DF80100142000F041
:10549000F7FA9DF801006B4607EB80108DF80100CC
:1054A00020680222817C60680078FFF731FD10B12E
:1054B0004846BDE8F8830820A072267384F814805B
:1054C0000020FFF7C7FD0020F3E700003C000020AC
:1054D0002DE9F843214C0646174694F824008946E6
:1054E0004FF0FF3890B3A07A80B320686B46022259
:1054F000817A60680078FFF7D3FC38BBBDF8000004
:1055000045BAB54202D2002038701FE06068418879
:10551000B5EB510F11D9216800786B46497C012207
:10552000FFF7BEFC90B99DF80000C00605D500F05D
:1055300041F86FF00100BDE8F8832068F2B24B46F5
:10554000C17A60680078FFF7ABFC08B14046F2E72B
:10555000B5FBF6F0401E38700020ECE73C00002060
:10556000F8B516000D464FF0FF371FD0104CA17A4A
:10557000E1B1010A8DF80010C0B28DF801004119A7
:1055800060684289914211D8216800786B46097E93
:105590000222FFF7BDFC48B92068EAB23346417DDC
:1055A00060680078FFF77CFC002800D03846F8BD22
:1055B0003C000020F8B5524C4FF0FF36A07A00288E
:1055C0007CD000258DF8005020686B460122C17BFD
:1055D00060680078FFF79CFC00286FD120686B465C
:1055E0000122417960680078FFF792FC002865D1BC
:1055F00020686B460122017960680078FFF788FC1B
:1056000000287AD194F82400C8B30C208DF800004B
:1056100020686B460122017960680078FFF778FC0A
:1056200000286AD1C0208DF80000A07AC00702D0FF
:10563000E0208DF8000020686B4601220179606847
:105640000078FFF765FC002857D1607C18B1022074
:105650008DF8000001E08DF8005020686B460122B3
:10566000C17B60680078FFF753FC38BB8DF80050B1
:1056700020686B46012241796068007839E0FFE7D5
:1056800004208DF8000020686B46012201796068D3
:105690000078FFF73DFC88B9A07C80B9A07AC007EC
:1056A0000DD060208DF8000020686B460122017942
:1056B00060680078FFF72CFC00B902E01DE0402094
:1056C000F0E7607C18B101208DF8000001E08DF852
:1056D000005020686B460122C17B60680078FFF7AC
:1056E00017FC50B92068064B0122417960681033DD
:1056F0000078FFF70DFC002800D03046F8BD000010
:105700003C0000202DE9F047394C82468AB094F8DD
:1057100024000F4620B1002000F00EF9012600E021
:10572000002607A8FFF700FD06A8FFF7BDFC09A8A3
:10573000FFF734FD08A8FFF74DFD94F80A9094F8A0
:1057400010800025002239465046FFF7B5F910B108
:105750006D1C022DF6DB022D1AD00025012203A9B3
:105760006846FFF7A9F910B16D1C022DF6DB022D7A
:105770000ED003A93846FEF73DF9C7B26946504638
:10578000FFF724FB10F0FF0F4FF0000502D002E0FE
:10579000002503E001250FB945F00205FF20207226
:1057A0006072E0724FF6FF71E181A07220740120F7
:1057B0002073BDF81C0000F0FBF89DF8180000F005
:1057C00019F8BDF8240000F05BF9BDF8200000F0E6
:1057D0008DF9484600F0CAF94046FFF73BFC16B188
:1057E000012000F0A9F80AB02846BDE8F0870000C3
:1057F0003C00002038B5184C4FF0FF35A17A19B3A2
:10580000022806D0042806D008280ED010281BD164
:105810000DE0002000E008208DF80000607A9DF87F
:105820000010B0EBD10F04D005E01020F4E71820F1
:10583000F2E7002038BD20686B460122C17960681C
:105840000078FFF765FB08B1284638BD9DF80000D9
:10585000C0086072EDE700003C000020F8B5354C50
:105860000546A07CA84201D10020F8BD31484FF088
:10587000FF366B46D0E900104FF00102097900783D
:1058800035B3FFF70DFB70BB9DF800006B4620F0B1
:1058900020008DF8000020680122017960680078FE
:1058A000FFF736FBF8B90320FBF738FB02208DF831
:1058B000000094F8220078B382202BE020686B4629
:1058C0000122017D60680078FFF722FB58B92EE0C5
:1058D000FFF7E6FA38B9A07AC0079DF8000003D0B8
:1058E00040F0200002E00CE020F020008DF80000E5
:1058F00020686B460122017960680078FFF708FB99
:1059000008B13046F8BD0320FBF708FB94F82200ED
:1059100000B180208DF8000094F823000028CDD03D
:105920009DF8000040F030008DF80000C6E7A57437
:105930009AE700003C00002038B51C4C94F8241075
:1059400081421DD0002500B394F82500D0B100207D
:1059500000F0E6F90020FFF781FFE08C00F0C6F8C8
:105960008DF8005060686B46012200782321FFF714
:10597000CFFA012084F8240000F0D2F9FFF71AFED4
:10598000002038BD4FF0FF3038BD002000F0C8F9CE
:10599000207C8DF8000060686B460122007823218E
:1059A000FFF7B6FA84F82450E8E700003C00002036
:1059B00038B5194C4FF0FF35A17A31B3FA2809D028
:1059C000B0F5FA7F08D0B0F57A7F0FD0B0F5FA6F56
:1059D0001BD10DE0002000E008208DF80000207AA7
:1059E0009DF80010B0EBD10F04D005E01020F4E7D3
:1059F0001820F2E7002038BD20686B46012281792B
:105A000060680078FFF784FA08B1284638BD9DF831
:105A10000000C0082072EDE73C00002038B5174CAC
:105A2000054694F82300A84201D1002038BD0DB1ED
:105A3000302000E000208DF80000A07C28B19DF807
:105A4000000040F002008DF8000094F8220028B118
:105A50009DF8000040F080008DF8000020686B4643
:105A60000122017D60680078FFF752FA10B14FF013
:105A7000FF3038BD84F82350D7E700003C000020F9
:105A800038B5194C4FF0FF35A17A31B3BC2801D39A
:105A9000012010E0622801D302200CE02A2801D363
:105AA000032008E0142801D3042004E00A2801D3CD
:105AB000052000E006208DF80000E07A9DF8001037
:105AC000884201D1002038BD20686B4601228178D0
:105AD00060680078FFF71CFA08B1284638BD9DF8C9
