:020000040800F2
:1000000000C000201D2E0008952300089B23000837
:10001000A1230008A7230008AD230008000000006A
:1000200000000000000000000000000061810008E6
:10003000B323000800000000418300088983000802
:10004000652E0008652E0008652E0008652E000844
:10005000652E0008652E0008652E0008652E000834
:10006000652E0008652E0008652E0008652E000824
:10007000652E0008C1230008D5230008E9230008E5
:10008000FD230008652E0008652E0008652E000877
:10009000652E0008652E0008652E0008652E0008F4
:1000A000652E0008652E0008652E0008652E0008E4
:1000B000652E0008652E0008652E0008652E0008D4
:1000C000652E0008652E0008652E0008652E0008C4
:1000D000652E000811240008292400084124000886
:1000E000652E0008652E0008652E0008652E0008A4
:1000F000652E0008652E0008652E0008652E000894
:10010000652E0008652E0008652E0008652E000883
:10011000652E0008652E000859240008652E000889
:10012000652E0008652E0008652E0008652E000863
:1001300000000000000000000000000000000000BF
:1001400000000000000000000000000000000000AF
:10015000000000000000000000000000000000009F
:10016000000000000000000000000000000000008F
:10017000000000000000000000000000000000007F
:10018000000000000000000000000000000000006F
:10019000000000000000000000000000000000005F
:1001A000000000000000000000000000000000004F
:1001B000000000000000000000000000000000003F
:1001C000000000000000000000000000000000002F
:1001D000000000000000000000000000000000001F
:0401E0005FF8E0F1F3
:1001F00010B5054C237833B9044B13B10448AFF361
:1002000000800123237010BDE001002000000000E9
:10021000C8B9000808B5034B1BB103490348AFF345
:10022000008008BD00000000E4010020C8B90008FB
:10023000034613F8012B002AFBD1181A0138704726
:1002400081F0004102E000BF83F0004330B54FEA87
:1002500041044FEA430594EA050F08BF90EA020FF4
:100260001FBF54EA000C55EA020C7FEA645C7FEA87
:10027000655C00F0E2804FEA5454D4EB5555B8BFAA
:100280006D420CDD2C4480EA020281EA030382EA1B
:10029000000083EA010180EA020281EA0303362DAD
:1002A00088BF30BD11F0004F4FEA01314FF4801C80
:1002B0004CEA113102D0404261EB410113F0004F92
:1002C0004FEA03334CEA133302D0524263EB430349
:1002D00094EA050F00F0A780A4F10104D5F1200EE7
:1002E0000DDB02FA0EFC22FA05F2801841F1000142
:1002F00003FA0EF2801843FA05F359410EE0A5F116
:1003000020050EF1200E012A03FA0EFC28BF4CF046
:10031000020C43FA05F3C01851EBE37101F00045FC
:1003200007D54FF0000EDCF1000C7EEB00006EEB09
:100330000101B1F5801F1BD3B1F5001F0CD3490893
:100340005FEA30004FEA3C0C04F101044FEA4452EA
:1003500012F5800F80F09A80BCF1004F08BF5FEA71
:10036000500C50F1000041EB045141EA050130BD51
:100370005FEA4C0C404141EB0101013C28BFB1F563
:10038000801FE9D291F0000F04BF01460020B1FAAE
:1003900081F308BF2033A3F10B03B3F120020CDA81
:1003A0000C3208DD02F1140CC2F10C0201FA0CF05F
:1003B00021FA02F10CE002F11402D8BFC2F1200CC4
:1003C00001FA02F120FA0CFCDCBF41EA0C0190407A
:1003D000E41AA2BF01EB0451294330BD6FEA0404C3
:1003E0001F3C1CDA0C340EDC04F11404C4F12002AE
:1003F00020FA04F001FA02F340EA030021FA04F3C0
:1004000045EA030130BDC4F10C04C4F1200220FA16
:1004100002F001FA04F340EA0300294630BD21FA54
:1004200004F0294630BD94F0000F83F4801306BF1A
:1004300081F480110134013D4EE77FEA645C18BF0E
:100440007FEA655C29D094EA050F08BF90EA020FA5
:1004500005D054EA000C04BF1946104630BD91EA9D
:10046000030F1EBF0021002030BD5FEA545C05D1A0
:100470004000494128BF41F0004130BD14F58004DF
:100480003CBF01F5801130BD01F0004545F0FE4153
:1004900041F470014FF0000030BD7FEA645C1ABF88
:1004A000194610467FEA655C1CBF0B46024650EABF
:1004B000013406BF52EA033591EA030F41F40021EB
:1004C00030BD00BF90F0000F04BF0021704730B571
:1004D0004FF4806404F132044FF000054FF0000146
:1004E00050E700BF90F0000F04BF0021704730B507
:1004F0004FF4806404F1320410F0004548BF4042DC
:100500004FF000013EE700BF42004FEAE2014FEA30
:1005100031014FEA02701FBF12F07F4393F07F4F0B
:1005200081F06051704732F07F4208BF704793F00E
:100530007F4F04BF41F40021704730B54FF4607421
:1005400001F0004521F000411CE700BF50EA010224
:1005500008BF704730B54FF000050AE050EA0102CD
:1005600008BF704730B511F0004502D5404261EB3D
:1005700041014FF4806404F132045FEA915C3FF47E
:10058000D8AE4FF003025FEADC0C18BF03325FEA1B
:10059000DC0C18BF033202EBDC02C2F1200300FACC
:1005A00003FC20FA02F001FA03FE40EA0E0021FAF1
:1005B00002F11444BDE600BF70B54FF0FF0C4CF4DF
:1005C000E06C1CEA11541DBF1CEA135594EA0C0F91
:1005D00095EA0C0F00F0DEF82C4481EA030621EACC
:1005E0004C5123EA4C5350EA013518BF52EA033507
:1005F00041F4801143F4801338D0A0FB02CE4FF0B9
:100600000005E1FB02E506F00042E0FB03E54FF0E8
:100610000006E1FB03569CF0000F18BF4EF0010EE0
:10062000A4F1FF04B6F5007F64F5407404D25FEADC
:100630004E0E6D4146EB060642EAC62141EA55518F
:100640004FEAC52040EA5E504FEACE2EB4F1FD0CD1
:1006500088BFBCF5E06F1ED8BEF1004F08BF5FEA4F
:10066000500E50F1000041EB045170BD06F0004601
:1006700046EA010140EA020081EA0301B4EB5C04AE
:10068000C2BFD4EB0C0541EA045170BD41F48011A6
:100690004FF0000E013C00F3AB8014F1360FDEBFCB
:1006A000002001F0004170BDC4F10004203C35DAA7
:1006B0000C341BDC04F11404C4F1200500FA05F32A
:1006C00020FA04F001FA05F240EA020001F00042CB
:1006D00021F0004110EBD37021FA04F642EB060141
:1006E0005EEA430E08BF20EAD37070BDC4F10C046B
:1006F000C4F1200500FA04F320FA05F001FA04F22F
:1007000040EA020001F0004110EBD37041F100011A
:100710005EEA430E08BF20EAD37070BDC4F1200525
:1007200000FA05F24EEA020E20FA04F301FA05F28D
:1007300043EA020321FA04F001F0004121FA04F235
:1007400020EA020000EBD3705EEA430E08BF20EA05
:10075000D37070BD94F0000F0FD101F0004640003F
:1007600041EB010111F4801F08BF013CF7D041EAC1
:10077000060195F0000F18BF704703F000465200C5
:1007800043EB030313F4801F08BF013DF7D043EA96
:100790000603704794EA0C0F0CEA135518BF95EA4C
:1007A0000C0F0CD050EA410618BF52EA4306D1D1D3
:1007B00081EA030101F000414FF0000070BD50EAF2
:1007C000410606BF1046194652EA430619D094EA7C
:1007D0000C0F02D150EA013613D195EA0C0F05D166
:1007E00052EA03361CBF104619460AD181EA0301BA
:1007F00001F0004141F0FE4141F470014FF0000072
:1008000070BD41F0FE4141F4780170BD70B54FF00C
:10081000FF0C4CF4E06C1CEA11541DBF1CEA13558C
:1008200094EA0C0F95EA0C0F00F0A7F8A4EB05046E
:1008300081EA030E52EA03354FEA013100F0888065
:100840004FEA03334FF0805545EA131343EA12632E
:100850004FEA022245EA111545EA10654FEA0026E3
:100860000EF000419D4208BF964244F1FD0404F59C
:10087000407402D25B084FEA3202B61A65EB0305F8
:100880005B084FEA32024FF480104FF4002CB6EBB5
:10089000020E75EB030E22BFB61A754640EA0C0035
:1008A0005B084FEA3202B6EB020E75EB030E22BF75
:1008B000B61A754640EA5C005B084FEA3202B6EBB6
:1008C000020E75EB030E22BFB61A754640EA9C0075
:1008D0005B084FEA3202B6EB020E75EB030E22BF45
:1008E000B61A754640EADC0055EA060E18D04FEA03
:1008F000051545EA16754FEA06164FEAC30343EAA3
:1009000052734FEAC2025FEA1C1CC0D111F4801F6F
:100910000BD141EA00014FF000004FF0004CB6E768
:1009200011F4801F04BF01430020B4F1FD0C88BF07
:10093000BCF5E06F3FF6AFAEB5EB030C04BFB6EB12
:10094000020C5FEA500C50F1000041EB045170BD05
:100950000EF0004E4EEA113114EB5C04C2BFD4EB32
:100960000C0541EA045170BD41F480114FF0000EB6
:10097000013C90E645EA060E8DE60CEA135594EA32
:100980000C0F08BF95EA0C0F3FF43BAF94EA0C0F35
:100990000AD150EA01347FF434AF95EA0C0F7FF4AA
:1009A00025AF104619462CE795EA0C0F06D152EAFE
:1009B00003353FF4FDAE1046194622E750EA4106E2
:1009C00018BF52EA43067FF4C5AE50EA41047FF4F3
:1009D0000DAF52EA43057FF4EBAE12E74FF0FF3C58
:1009E00006E000BF4FF0010C02E000BF4FF0010C29
:1009F0004DF804CD4FEA410C7FEA6C5C4FEA430CA2
:100A000018BF7FEA6C5C1BD001B050EA410C0CBFF0
:100A100052EA430C91EA030F02BF90EA020F002052
:100A2000704710F1000F91EA030F58BF994208BFB9
:100A300090422CBFD8176FEAE37040F00100704776
:100A40004FEA410C7FEA6C5C02D150EA013C07D1CD
:100A50004FEA430C7FEA6C5CD6D152EA033CD3D018
:100A60005DF8040B704700BF8446104662468C4612
:100A70001946634600E000BF01B5FFF7B7FF002845
:100A800048BF10F1000F01BD4DF808EDFFF7F4FF6E
:100A90000CBF012000205DF808FB00BF4DF808EDF9
:100AA000FFF7EAFF34BF012000205DF808FB00BF1C
:100AB0004DF808EDFFF7E0FF94BF012000205DF83E
:100AC00008FB00BF4DF808EDFFF7CEFF94BF0120F3
:100AD00000205DF808FB00BF4DF808EDFFF7C4FFEC
:100AE00034BF012000205DF808FB00BF4FEA410C35
:100AF0007FEA6C5C02D150EA013C0AD14FEA430C18
:100B00007FEA6C5C02D152EA033C02D14FF0000054
:100B100070474FF0010070474FEA410212F5001292
:100B200015D211D56FF47873B3EB625212D94FEA34
:100B3000C12343F0004343EA505311F0004F23FA1E
:100B400002F018BF404270474FF00000704750EA73
:100B5000013005D111F0004008BF6FF00040704730
:100B60004FF00000704700BF4FEA4002B2F1FE4F65
:100B70000FD34FF09E03B3EB12620DD94FEA00235F
:100B800043F0004310F0004F23FA02F018BF404238
:100B900070474FF00000704712F1610F01D142021F
:100BA00005D110F0004008BF6FF0004070474FF0D3
:100BB0000000704780B500AF502000F0EFF800F063
:100BC000E5FE00F015FF00F045FF00F05DFD00F0D0
:100BD00071FD00BF80BD000080B584B000AF7860BB
:100BE0007B68BB600023FB8109E0FB89BA68134482
:100BF0001B78184607F0A6FEFB890133FB817B6852
:100C0000B3F80031FA899A42EFD3074B1B68012BE6
:100C100006D1054B00221A6000F000F900F066FCD6
:100C200000BF1037BD4680BDFC01002080B58CB0F0
:100C300000AFF860B9607A607B800E23FB621823F6
:100C4000BB62444B1B783B74424B5B787B74424BDA
:100C50001B7887F82630404B5B7887F8273007F100
:100C6000100107F10C030222184607F0E7FD07F117
:100C7000100107F108030622184607F0DFFD07F10F
:100C800010013B1D0A22184607F0D8FDBB1C01339A
:100C9000FA6A511CF962197802F130033B440A46A2
:100CA00003F8202CBA1CFB6A591CF9621278303305
:100CB0003B4403F8202C07F13902FB6A591CF96206
:100CC000127830333B4403F8202C07F13801FB6ADB
:100CD0005A1CFA620A7830333B4403F8202C07F19F
:100CE0003C030133FA6A511CF962197802F13003AE
:100CF0003B440A4603F8202C07F13C02FB6A591CCE
:100D0000F962127830333B4403F8202C07F140039A
:100D10000133FA6A511CF962197802F130033B443D
:100D20000A4603F8202C07F14002FB6A591CF962BD
:100D3000127830333B4403F8202CBB6A9AB207F197
:100D400010031146184600F0B7FE00BF3037BD460D
:100D500080BD00BF100000201400002080B483B0CC
:100D600000AF0346FB80044AFB88138000BF0C37AA
:100D7000BD4680BC704700BF0002002080B483B035
:100D800000AF0346FB71044AFB79137000BF0C37B8
:100D9000BD4680BC704700BF0202002080B582B013
:100DA00000AF0346FB80FB88012B0BD10120FFF72E
:100DB000E5FF0020FFF7D2FF01222021154803F0B4
:100DC000B6F922E0FB88002B0BD10020FFF7D6FFFD
:100DD0000020FFF7C3FF002220210E4803F0A7F9EF
:100DE00013E0FB88092B10D90220FFF7C7FFFB880F
:100DF000094AA2FB0323DB089BB21846FFF7AEFFAC
:100E000001222021034803F092F900BF0837BD46B4
:100E100080BD00BF00100140CDCCCCCC80B500AF70
:100E200000F0A0F90346002B37D0514BB3F9003046
:100E3000013B4F4AB2F900104E4A9B0013440A4648
:100E40005A804B4BB3F90030013B4B4AB2F90010CA
:100E5000484A22F82310494BB3F900301A46484B50
:100E60001B689A4208D0474B01221A60434BB3F9E2
:100E700000301A46424B1A603D4BB3F900301A4617
:100E8000414B1B689A4208D0394BB3F900301A46DF
:100E90003D4B1A603B4B01221A603C4BB3F90030CA
:100EA000002B62D0394BB3F90020394B1A8000F087
:100EB00073F8364BB3F90030013B2E4A32F9233038
:100EC000062B0CDC314BB3F90030013B294A32F9D7
:100ED0002330002B03DD2F4B01221A8045E02B4BE2
:100EE000B3F90030013B234A32F923300C2B0CDCE0
:100EF000264BB3F90030013B1E4A32F92330062B52
:100F000003DD244B02221A802FE0204BB3F900307E
:100F1000013B184A32F92330122B0CDC1B4BB3F97E
:100F20000030013B134A32F923300C2B03DD194BFF
:100F300003221A8019E0154BB3F90030013B0D4A2A
:100F400032F92330182B0CDC104BB3F90030013B85
:100F5000084A32F92330122B03DD0E4B04221A808B
:100F600003E00C4B00221A80FFE700BF80BD00BFEA
:100F7000040200200C02002006020020B2250020FE
:100F8000740200208C02002078020020B02500208E
:100F90000A0200200802002080B400AF544BB3F9CD
:100FA0000030013B534A32F92330013B172B00F24A
:100FB000938001A252F823F01910000821100008B4
:100FC00029100008311000083910000841100008ED
:100FD000491000085110000859100008611000085D
:100FE00069100008711000087910000881100008CD
:100FF000891000089110000899100008A11000083D
:10100000A9100008B1100008B9100008C1100008AC
:10101000C9100008D1100008374B384A1A6062E046
:10102000354B374A1A605EE0334B364A1A605AE055
:10103000314B354A1A6056E02F4B344A1A6052E061
:101040002D4B334A1A604EE02B4B324A1A604AE06D
:10105000294B314A1A6046E0274B304A1A6042E079
:10106000254B2F4A1A603EE0234B2E4A1A603AE085
:10107000214B2D4A1A6036E01F4B2C4A1A6032E091
:101080001D4B2B4A1A602EE01B4B2A4A1A602AE09D
:10109000194B294A1A6026E0174B284A1A6022E0A9
:1010A000154B274A1A601EE0134B264A1A601AE0B5
:1010B000114B254A1A6016E00F4B244A1A6012E0C1
:1010C0000D4B234A1A600EE00B4B224A1A600AE0CD
:1010D000094B214A1A6006E0204B00221A80064B79
:1010E0001F4A1A6000BF00BFBD4680BC704700BFEA
:1010F000B02500200C02002070020020E0B900089A
:10110000E4B90008E8B90008ECB90008F0B9000833
:10111000F4B90008F8B90008FCB9000800BA0008E2
:1011200004BA000808BA00080CBA000810BA00088F
:1011300014BA000818BA00081CBA000820BA00083F
:1011400024BA000828BA00082CBA000830BA0008EF
:1011500034BA000838BA00083CBA0008040200207B
:1011600040BA000880B400AF984BB3F900301A467B
:10117000974B1B689A4200F09F81944BB3F9003063
:101180001A46934B1A60934BB3F90020924B1A8086
:10119000914BB3F90030013B172B00F2858101A27E
:1011A00052F823F0051200081D120008351200083D
:1011B0007D120008651200084D1200080D1300088A
:1011C000F5120008DD12000895120008AD120008A3
:1011D000C5120008251300083D1300085513000828
:1011E0009D130008851300086D1300089114000872
:1011F0007914000861140008B513000831140008C0
:1012000049140008714BB3F90020744B1A80724BDB
:1012100001221A80724B734A1A604BE16B4BB3F98F
:1012200000206E4B1A806C4B02221A806C4B6E4A67
:101230001A603FE1654BB3F90020684B1A80664B9A
:1012400003221A80664B694A1A6033E15F4BB3F997
:101250000020624B1A80604B04221A80604B644A63
:101260001A6027E1594BB3F900205C4B1A805A4BA6
:1012700005221A805A4B5F4A1A601BE1534BB3F99F
:101280000020564B1A80544B06221A80544B5A4A5F
:101290001A600FE14D4BB3F90020504B1A804E4BB2
:1012A00007221A804E4B554A1A6003E1474BB3F9A7
:1012B00000204A4B1A80484B08221A80484B504A5B
:1012C0001A60F7E0414BB3F90020444B1A80424BBF
:1012D00009221A80424B4B4A1A60EBE03B4BB3F9B0
:1012E00000203E4B1A803C4B0A221A803C4B464A57
:1012F0001A60DFE0354BB3F90020384B1A80364BCB
:101300000B221A80364B414A1A60D3E02F4BB3F9B7
:101310000020324B1A80304B0C221A80304B3C4A52
:101320001A60C7E0294BB3F900202C4B1A802A4BD6
:101330000D221A802A4B374A1A60BBE0234BB3F9BF
:101340000020264B1A80244B0E221A80244B324A4E
:101350001A60AFE01D4BB3F90020204B1A801E4BE2
:101360000F221A801E4B2D4A1A60A3E0174BB3F9C7
:1013700000201A4B1A80184B10221A80184B284A4A
:101380001A6097E0114BB3F90020144B1A80124BEE
:1013900011221A80124B234A1A608BE00B4BB3F9CF
:1013A00000200E4B1A800C4B12221A800C4B1E4A46
:1013B0001A607FE0054BB3F90020084B1A80064BFA
:1013C00013221A80064B194A1A6073E0AC250020DC
:1013D0007C020020AE25002006020020040200202E
:1013E0006C020020E0B90008E4B90008E8B9000880
:1013F000ECB90008F0B90008F4B90008F8B9000821
:10140000FCB9000800BA000804BA000808BA0008CD
:101410000CBA000810BA000814BA000818BA00087C
:101420001CBA000820BA000824BA000828BA00082C
:10143000244BB3F90020244B1A80244B14221A8029
:10144000234B244A1A6035E01E4BB3F900201E4B93
:101450001A801E4B15221A801D4B1F4A1A6029E064
:10146000184BB3F90020184B1A80184B16221A801B
:10147000174B1A4A1A601DE0124BB3F90020124BA9
:101480001A80124B17221A80114B154A1A6011E06C
:101490000C4BB3F900200C4B1A800C4B18221A800D
:1014A0000B4B104A1A6005E0074B00221A80084BCC
:1014B0000D4A1A60012300E000231846BD4680BC97
:1014C000704700BFAC250020040200200602002067
:1014D0006C0200202CBA000830BA000834BA0008A8
:1014E00038BA00083CBA000840BA000880B500AF1E
:1014F000174BB3F900301946164800F0D9F9164BCE
:101500001B681946154800F0D3F9114BB3F90030A8
:101510001946104800F0CCF9114BB3F900301946C8
:10152000104800F0C5F9104BB3F90030002B0DD076
:101530000D4BB3F9003019460C4800F0B9F9084BCF
:10154000B3F900301946074800F0B2F900BF80BD7A
:101550000402002048BA00086C02002058BA0008B3
:101560000A02002070BA00080802002080BA0008B1
:1015700080B500AF4FF400710A4802F0C1FD034688
:10158000002B0CD1142005F0FDF94FF40071054833
:1015900002F0B6FD0346002B01D1012300E0002339
:1015A000184680BD0010014080B500AF4FF4807137
:1015B0000A4802F0A5FD0346002B0CD1142005F0CB
:1015C000E1F94FF48071054802F09AFD0346002BC3
:1015D00001D1012300E00023184680BD0010014026
:1015E00080B582B000AF0346FB71FFF7C1FF034631
:1015F000012B0ED10E4B1B881A46FB7901335B0081
:101600009A4209DA0A4B1B8801339AB2084B1A80B6
:1016100002E0074B00221A80054B1B88022B01D1E8
:10162000012300E0002318460837BD4680BD00BFF7
:101630008202002080B582B000AF0346FB71FFF745
:10164000B3FF0346012B0ED10E4B1B881A46FB79C4
:1016500001335B009A4209DA0A4B1B8801339AB2C4
:10166000084B1A8002E0074B00221A80054B1B88AA
:10167000022B01D1012300E0002318460837BD46A4
:1016800080BD00BF8402002080B500AF0021084863
:1016900003F06EFB0421064803F06AFB08210448AE
:1016A00003F066FB0C21024803F062FB00BF80BD23
:1016B0002816002080B500AF0021084803F058FB31
:1016C0000421064803F054FB0821044803F050FBB2
:1016D0000C21024803F04CFB00BF80BDE015002048
:1016E00080B582B000AF0B4807F0A8FF0A4B1B681B
:1016F000391D4FF0FF32184605F004FC0346012B5C
:10170000F4D17B681846FFF767FA012005F03AF933
:10171000ECE700BF94BA0008F012002080B500AFDB
:101720001F4B1B68002B14D0012220211D4802F002
:10173000FEFC4FF4967005F025F90022202119488F
:1017400002F0F5FC642005F01DF9154B00221A602B
:1017500007E000222021134802F0E9FC642005F094
:1017600011F9114B1B68002B10D000224FF480712F
:101770000E4802F0DCFC4FF47A7005F003F90A4BD6
:1017800000221A60064B01221A60C9E701224FF4B9
:101790008071064802F0CBFC642005F0F3F8BFE747
:1017A00088020020001001408C0200200008014047
:1017B00080B586B004AF00237B6000233B6001202E
:1017C000FFF70EFF0346012B1BD1214B1B68002B9B
:1017D0000CBF01230023DBB21A461D4B1A607B6845
:1017E00001337B60002302930023019301230093C4
:1017F00001234FF000024FF000014FF00000FFF70F
:1018000015FA0120FFF716FF0346012B1CD1114BDF
:101810001B780133DAB20F4B1A703B682D333B60F3
:101820003B680D4A82FB03121A44D111DA178A1A57
:10183000B42101FB02F29B1A3B604FF07E524FF045
:101840008041064800F00CF80A2005F09BF8B6E746
:101850008802002080020020B7600BB600004040E4
:1018600080B584B000AFF860B9607A60F868FFF7BF
:101870007BF9034619460B4800F01AF8B868FFF7E1
:1018800073F903461946084800F012F87868FFF724
:101890006BF903461946054800F00AF800BF1037F7
:1018A000BD4680BDC0BA0008CCBA0008D8BA00084E
:1018B0000FB490B59DB000AFFF2387F86E300023C2
:1018C00087F86F3007F184037B6007F108007B68BD
:1018D000D7F88020652107F027FF14E097F86F30D4
:1018E0005A1C87F86F201A4607F108031344012297
:1018F0001946254804F0E1F900BF234B93F83D3029
:10190000DBB2202BF9D197F86F30632B09D897F809
:101910006F4007F108031846FEF78AFC03469C4215
:10192000DCD307F16E0301221946174804F0C5F90C
:1019300000BF154B93F83D30DBB2202BF9D107F1F6
:101940006E0301221946104804F0B7F900BF0E4B90
:1019500093F83D30DBB2202BF9D107F16E03012261
:101960001946094804F0A9F900BF074B93F83D3028
:10197000DBB2202BF9D100BF00BF7437BD46BDE8F4
:10198000904004B0704700BF7016002080B500AFD3
:10199000144B1B68DA68134B1B6842F01002DA60C4
:1019A000114B1B781A461346DB0113445B000F4AA8
:1019B00013444FF4807219460A4804F0C2F9094BE7
:1019C0001B685A69074B1B6822F001025A61054BDC
:1019D0001B68DA68034B1B6822F48072DA6000BF70
:1019E00080BD00BF70160020B012002090020020C1
:1019F00080B500AF144B1B68DA68134B1B6842F0CC
:101A00001002DA60114B1B781A461346DB011344AF
:101A10005B000F4A13444FF4807219460A4804F0E1
:101A200090F9094B1B685A69074B1B6822F00102A9
:101A30005A61054B1B68DA68034B1B6822F48072FD
:101A4000DA6000BF80BD00BFB4160020B0120020D5
:101A50009002002080B500AF144B1B68DA68134B6E
:101A60001B6842F01002DA60114B1B781A461346CD
:101A7000DB0113445B000F4A13444FF48072194694
:101A80000A4804F05EF9094B1B685A69074B1B684A
:101A900022F001025A61054B1B68DA68034B1B6890
:101AA00022F48072DA6000BF80BD00BFF81600200B
:101AB000B01200209002002080B582B000AF7860A4
:101AC0000B467B807A8840F6FF737968034804F000
:101AD00062F800BF0837BD4680BD00BF7016002009
:101AE00080B582B000AF324B1B681B6803F0100357
:101AF000102B59D100233B602D4B1B681B683B60AA
:101B00002B4B1B685B683B603B68294804F049F934
:101B1000284B1B685B689BB2274A12781146C3F5B5
:101B2000807398B2254A0B46DB010B445B001344DB
:101B300003F5807302461A801F4B1B781A46134622
:101B4000DB0113445B001D4A13447B601C4B186887
:101B5000391D0023002205F03DF9174B1A78194B67
:101B60001A70154B1B780133DAB2134B1A70154BF0
:101B70001B7803F00F03DAB2124B1A700E4B1B786E
:101B800003F00F03DAB20C4B1A700B4B1B781A469A
:101B90001346DB0113445B00084A13444FF4807280
:101BA0001946034804F0CDF800BF0837BD4680BD94
:101BB0007016002080170020B01200209002002034
:101BC000F0120020B112002080B582B000AF324B7D
:101BD0001B681B6803F01003102B59D100233B60D6
:101BE0002D4B1B681B683B602B4B1B685B683B6085
:101BF0003B68294804F0D5F8284B1B685B689BB20A
:101C0000274A12781146C3F5807398B2254A0B46CD
:101C1000DB010B445B00134403F5807302461A801A
:101C20001F4B1B781A461346DB0113445B001D4A09
:101C300013447B601C4B1868391D0023002205F0FB
:101C4000C9F8174B1A78194B1A70154B1B780133CA
:101C5000DAB2134B1A70154B1B7803F00F03DAB28C
:101C6000124B1A700E4B1B7803F00F03DAB20C4BB9
:101C70001A700B4B1B781A461346DB0113445B00AA
:101C8000084A13444FF480721946034804F059F887
:101C900000BF0837BD4680BDB4160020C417002021
:101CA000B012002090020020F0120020B11200209B
:101CB00080B582B000AF324B1B681B6803F0100385
:101CC000102B59D100233B602D4B1B681B683B60D8
:101CD0002B4B1B685B683B603B68294804F061F84C
:101CE000284B1B685B689BB2274A12781146C3F5E4
:101CF000807398B2254A0B46DB010B445B0013440A
:101D000003F5807302461A801F4B1B781A46134650
:101D1000DB0113445B001D4A13447B601C4B1868B5
:101D2000391D0023002205F055F8174B1A78194B7E
:101D30001A70154B1B780133DAB2134B1A70154B1E
:101D40001B7803F00F03DAB2124B1A700E4B1B789C
:101D500003F00F03DAB20C4B1A700B4B1B781A46C8
:101D60001346DB0113445B00084A13444FF48072AE
:101D70001946034803F0E5FF00BF0837BD4680BDA4
:101D8000F816002008180020B01200209002002051
:101D9000F0120020B112002080B582B000AF786050
:101DA000391D4FF6FF730122034803F0F4FE7B68F0
:101DB00018460837BD4680BD7016002080B584B037
:101DC00000AF3B1D00221A605A609A60184B194AF6
:101DD0001A60174B00229A60154B00221A73144B9D
:101DE00000221A75124B4FF46022DA61104B002268
:101DF0005A600F4B01221A610D4801F067F8034643
:101E0000002B01D000F030FA00237B600123BB607F
:101E10000023FB603B1D1946054801F041F90346CC
:101E2000002B01D000F020FA00BF1037BD4680BD66
:101E3000B41200200024014080B588B000AF786063
:101E400007F1100300221A605A609A60DA607B681A
:101E50001B68144A934221D1134B9B69124A43F4E5
:101E600000739361104B9B6903F40073FB60FB6884
:101E70000D4B9B690C4A43F0040393610A4B9B6929
:101E800003F00403BB60BB6803233B6103237B6156
:101E900007F110031946054801F09EFF00BF2037E7
:101EA000BD4680BD002401400010024000080140F2
:101EB00080B582B000AF184B5B69174A43F001034D
:101EC0005361154B5B6903F001037B607B68002263
:101ED00005210D2001F0D3FA0D2001F0ECFA0022CB
:101EE00005210E2001F0CBFA0E2001F0E4FA0022C9
:101EF00005210F2001F0C3FA0F2001F0DCFA0022C7
:101F00000521102001F0BBFA102001F0D4FA00BF27
:101F10000837BD4680BD00BF0010024080B485B0C8
:101F200000AFF860B9607A60FB68064A1A60BB6867
:101F3000054A1A607B6880221A6000BF1437BD46CC
:101F400080BC7047F412002094130020B0B59AB002
:101F500000AF254B07F158040FCB84E80F0007F1C1
:101F600058030021184604F021FD03461F4A136060
:101F70001F4B07F13C041D460FCD0FC495E8070029
:101F800084E8070007F13C030021184604F0AEFC8A
:101F90000346184A1360184B07F120041D460FCD65
:101FA0000FC495E8070084E8070007F1200300212B
:101FB000184604F09BFC0346104A1360104B3C1D6E
:101FC0001D460FCD0FC495E8070084E807003B1DB0
:101FD0000021184604F08AFC03460A4A136000BF39
:101FE0006837BD46B0BD00BFE4BA0008F01200205B
:101FF00000BB0008E412002028BB0008E812002003
:1020000050BB0008EC12002080B582B000AF7860B1
:10201000FFF766FB00BF0837BD4680BD80B582B0C4
:1020200000AF7860FFF77AFB00BF0837BD4680BD80
:1020300080B582B000AF7860FFF7BAFB00BF083709
:10204000BD4680BD80B588B000AF07F11003002207
:102050001A605A609A60DA603A4B9B69394A43F0D9
:1020600020039361374B9B6903F02003FB60FB68FF
:10207000344B9B69334A43F004039361314B9B69B2
:1020800003F00403BB60BB682E4B9B692D4A43F0F1
:10209000100393612B4B9B6903F010037B607B68FB
:1020A000284B9B69274A43F008039361254B9B69A2
:1020B00003F008033B603B6800222021224802F025
:1020C00036F800224FF48071204802F030F82023C7
:1020D0003B6101237B610023BB610223FB6107F1AC
:1020E00010031946184801F077FE4FF480733B61E6
:1020F00000237B610023BB6107F1100319461248DE
:1021000001F06AFE4FF400733B6100237B61012301
:10211000BB6107F1100319460B4801F05DFE4FF457
:1021200080733B6101237B610023BB610223FB6160
:1021300007F110031946054801F04EFE00BF203795
:10214000BD4680BD00100240001001400008014063
:1021500080B500AF00F088FE00F017F8FFF772FFBF
:10216000FFF7A6FE00F040FC00F068FC00F090FCD9
:10217000FFF724FE00F040FA00F0D6FAFEF71AFD51
:10218000FFF7E4FE04F0ABFBFEE780B596B000AFCE
:1021900007F1300328220021184607F069FB07F1F8
:1021A0001C0300221A605A609A60DA601A613B1DB3
:1021B00000221A605A609A60DA601A615A6101233B
:1021C0003B634FF480337B630023BB6301233B6499
:1021D0000223FB644FF480333B654FF4E0137B65CF
:1021E00007F13003184601F0BBFF0346002B01D076
:1021F00000F03AF80F23FB6102233B6200237B626D
:102200004FF48063BB620023FB6207F11C030221D1
:10221000184602F027FA0346002B01D000F024F8FC
:1022200002237B604FF40043FB603B1D184602F025
:10223000E1FB0346002B01D000F016F800BF583731
:10224000BD4680BD80B582B000AF78607B681B68FA
:10225000044A934201D100F01DFE00BF0837BD467D
:1022600080BD00BF0010004080B400AF72B600BF58
:10227000FEE7000080B584B000AF184B9B69174A99
:1022800043F001039361154B9B6903F00103BB60AD
:10229000BB68124BDB69114A43F08053D3610F4B8B
:1022A000DB6903F080537B607B6800220F216FF0B5
:1022B000010001F0E4F80A4B5B68FB60FB6823F067
:1022C000E063FB60FB6843F00073FB60044AFB685B
:1022D000536000BF1037BD4680BD00BF00100240F4
:1022E0000000014080B58CB000AF78600023FB6235
:1022F0000023BB6200227968362001F0C0F8362046
:1023000001F0D9F81F4BDB691E4A43F01003D3617B
:102310001C4BDB6903F01003FB60FB6807F1100244
:1023200007F114031146184602F016FB02F0ECFA0E
:1023300003465B00FB62FB6A134AA2FB03239B0C70
:10234000013BBB62114B124A1A60104B40F2E7325C
:10235000DA600E4ABB6A53600C4B00221A610B4BC9
:1023600000229A60094802F0FBFB0346002B04D1CF
:10237000064802F045FC034600E0012318463037CA
:10238000BD4680BD0010024083DE1B439415002033
:102390000010004080B400AFFEE780B400AFFEE75D
:1023A00080B400AFFEE780B400AFFEE780B400AFBA
:1023B000FEE780B400AF00BFBD4680BC70470000A0
:1023C00080B500AF024801F09DFA00BF80BD00BF9C
:1023D0000818002080B500AF024801F093FA00BF52
:1023E00080BD00BF3C17002080B500AF024801F05F
:1023F00089FA00BF80BD00BF8017002080B500AF04
:10240000024801F07FFA00BF80BD00BFC417002062
:1024100080B500AFFFF764FB024803F01DFD00BF6D
:1024200080BD00BF7016002080B500AFFFF7CCFB69
:10243000024803F011FD00BF80BD00BFB4160020AC
:1024400080B500AFFFF734FC024803F005FD00BF84
:1024500080BD00BFF816002080B500AF024802F032
:1024600041FD00BF80BD00BF9415002080B400AFC7
:1024700001231846BD4680BC704780B582B000AFCE
:102480007860396007F09CFA034616221A604FF014
:10249000FF3318460837BD4680BD80B582B000AF17
:1024A00078604FF0FF317868FFF7E7FFFEE780B50F
:1024B00086B000AFF860B9607A6000237B610AE003
:1024C000AFF300800146BB685A1CBA60CAB21A70EA
:1024D0007B6901337B617A697B689A42F0DB7B68B8
:1024E00018461837BD4680BD80B586B000AFF8608D
:1024F000B9607A6000237B6109E0BB685A1CBA604E
:102500001B781846FFF748FC7B6901337B617A69C9
:102510007B689A42F1DB7B6818461837BD4680BD60
:1025200080B483B000AF78604FF0FF3318460C37AB
:10253000BD4680BC704780B483B000AF786039601E
:102540003B684FF400525A60002318460C37BD46D2
:1025500080BC704780B483B000AF78600123184618
:102560000C37BD4680BC704780B485B000AFF860C2
:10257000B9607A60002318461437BD4680BC7047A6
:1025800080B586B000AF7860144A154BD31A7B61D2
:102590007B693B61134B1B68002B02D1114B124A24
:1025A0001A60104B1A687B6813443A699A4207D242
:1025B00007F006FA03460C221A604FF0FF3309E0D9
:1025C000084B1B68FB60074B1A687B681344054A7D
:1025D0001360FB6818461837BD4680BD00C0002058
:1025E00000040000DC1500207027002080B400AF3C
:1025F00000BFBD4680BC704780B58EB000AF07F10C
:10260000280300221A605A609A60DA6007F12003FA
:1026100000221A605A603B1D00221A605A609A60BC
:10262000DA601A615A619A613E4B4FF080421A603B
:102630003C4B40F2CF225A603A4B00229A60394B11
:102640004FF4FA62DA60374B00221A61354B0022F0
:102650009A61344802F084FA0346002B01D0FFF758
:1026600003FE4FF48053BB6207F1280319462D483F
:1026700002F0FEFD0346002B01D0FFF7F5FD2948CF
:1026800002F01EFB0346002B01D0FFF7EDFD0023F7
:102690003B6200237B6207F120031946214803F0C7
:1026A000AFF90346002B01D0FFF7DEFD60237B600E
:1026B0000023BB600023FB6000237B613B1D0022E5
:1026C0001946184802F016FD0346002B01D0FFF70B
:1026D000CBFD3B1D04221946124802F00BFD0346B8
:1026E000002B01D0FFF7C0FD3B1D082219460D4805
:1026F00002F000FD0346002B01D0FFF7B5FD3B1DA6
:102700000C221946074802F0F5FC0346002B01D0C5
:10271000FFF7AAFD034800F0CFF800BF3837BD46E9
:1027200080BD00BFE015002080B58EB000AF07F17E
:10273000280300221A605A609A60DA6007F12003C9
:1027400000221A605A603B1D00221A605A609A608B
:10275000DA601A615A619A613D4B3E4A1A603C4BFD
:1027600047225A603A4B00229A60394B4FF47A72F2
:10277000DA60374B00221A61354B00229A613448E7
:1027800002F0EEF90346002B01D0FFF76DFD4FF488
:102790008053BB6207F1280319462D4802F068FDFB
:1027A0000346002B01D0FFF75FFD294802F088FAAD
:1027B0000346002B01D0FFF757FD00233B620023A7
:1027C0007B6207F120031946214803F019F90346FB
:1027D000002B01D0FFF748FD60237B600023BB6026
:1027E0000023FB6000237B613B1D00221946184833
:1027F00002F080FC0346002B01D0FFF735FD3B1DA6
:1028000004221946124802F075FC0346002B01D041
:10281000FFF72AFD3B1D082219460D4802F06AFC0D
:102820000346002B01D0FFF71FFD3B1D0C2219466C
:10283000074802F05FFC0346002B01D0FFF714FDB0
:10284000034800F039F800BF3837BD4680BD00BFEF
:10285000281600200004004080B485B000AF7860E6
:102860007B681B68B3F1804F0CD1114BDB69104AB8
:1028700043F00103D3610E4BDB6903F00103FB60FE
:10288000FB6810E07B681B680A4A93420BD1084B37
:10289000DB69074A43F00203D361054BDB6903F0B0
:1028A0000203BB60BB6800BF1437BD4680BC7047E5
:1028B000001002400004004080B58CB000AF78608A
:1028C00007F11C0300221A605A609A60DA607B6884
:1028D0001B68B3F1804F44D13E4B9B693D4A43F0A6
:1028E000080393613B4B9B6903F00803BB61BB6921
:1028F000384B9B69374A43F004039361354B9B691E
:1029000003F004037B617B6940F60843FB6102230B
:102910003B620223BB6207F11C0319462E4801F0FB
:102920005BFA4FF40043FB6102233B620223BB626C
:1029300007F11C031946294801F04EFA284B5B6841
:10294000FB62FB6A23F44073FB62FB6A43F0E063C3
:10295000FB62FB6A43F44073FB62214AFB6A5360EB
:1029600034E07B681B681F4A93422FD1194B9B6947
:10297000184A43F004039361164B9B6903F0040368
:102980003B613B69134B9B69124A43F00803936117
:10299000104B9B6903F00803FB60FB68C023FB61DD
:1029A00002233B620223BB6207F11C0319460B485A
:1029B00001F012FA0323FB6102233B620223BB6294
:1029C00007F11C031946044801F006FA00BF30372E
:1029D000BD4680BD00100240000C014000080140CF
:1029E000000001400004004080B500AF114B124AC6
:1029F0001A60104B4FF4E1325A600E4B00229A607D
:102A00000C4B0022DA600B4B00221A61094B0C229E
:102A10005A61084B00229A61064B0022DA61054890
:102A200003F06CF80346002B01D0FFF71DFC00BF3C
:102A300080BD00BF701600200038014080B500AF97
:102A4000114B124A1A60104B4FF4E1325A600E4B90
:102A500000229A600C4B0022DA600B4B00221A61B4
:102A6000094B0C225A61084B00229A61064B002246
:102A7000DA61054803F042F80346002B01D0FFF766
:102A8000F3FB00BF80BD00BFB4160020004400402F
:102A900080B500AF114B124A1A60104B4FF4E1326F
:102AA0005A600E4B00229A600C4B0022DA600B4BEE
:102AB00000221A61094B0C225A61084B00229A61CC
:102AC000064B0022DA61054803F018F80346002B94
:102AD00001D0FFF7C9FB00BF80BD00BFF816002082
:102AE0000048004080B58EB000AF786007F1240345
:102AF00000221A605A609A60DA607B681B68794A23
:102B0000934240F08980784B9B69774A43F4804335
:102B10009361754B9B6903F480433B623B6A724B44
:102B20009B69714A43F0040393616F4B9B6903F007
:102B30000403FB61FB694FF400737B620223BB62F9
:102B400003233B6307F124031946684801F044F965
:102B50004FF480637B620023BB620123FB6207F1B9
:102B600024031946614801F037F9614B614A1A6044
:102B70005F4B10225A605E4B00229A605C4B8022B1
:102B8000DA605B4B00221A61594B00225A61584BA4
:102B900000229A61564B4FF48052DA61544800F09B
:102BA00099FC0346002B01D0FFF75EFB7B68504A7F
:102BB0005A634F4A7B6853624F4B504A1A604E4BE0
:102BC00000225A604C4B00229A604B4B8022DA6004
:102BD000494B00221A61484B00225A61464B0022A1
:102BE0009A61454B4FF44052DA61434800F072FC61
:102BF0000346002B01D0FFF737FB7B683E4A9A6300
:102C00003D4A7B68536200220521252000F037FCF5
:102C1000252000F050FCF1E07B681B68384A9342A5
:102C200074D1314BDB69304A43F40033D3612E4B0E
:102C3000DB6903F40033BB61BB692B4B9B692A4AF8
:102C400043F004039361284B9B6903F004037B6109
:102C50007B6904237B620223BB6203233B6307F18E
:102C600024031946214801F0B7F808237B620023AA
:102C7000BB620123FB6207F1240319461B4801F0E4
:102C8000ABF8204B204A1A601E4B00225A601D4BA5
:102C900000229A601B4B8022DA601A4B00221A61D4
:102CA000184B00225A61174B00229A61154B4FF4C2
:102CB0004052DA61134800F00DFC0346002B01D0AE
:102CC000FFF7D2FA7B680F4A9A630E4A7B68536219
:102CD00000220521262000F0D2FB262000F0EBFB8D
:102CE0008CE000BF003801400010024000080140A5
:102CF0003C1700204400024080170020580002408A
:102D000000440040C41700206C0002407B681B6830
:102D10003C4A934272D13C4BDB693B4A43F48023EB
:102D2000D361394BDB6903F480233B613B69364B4C
:102D30009B69354A43F010039361334B9B6903F061
:102D40001003FB60FB684FF480637B620223BB626D
:102D500003233B6307F1240319462C4801F03CF898
:102D60004FF400637B620023BB620123FB6207F127
:102D700024031946254801F02FF8254B5B687B6337
:102D80007B6B23F030037B637B6B43F0E0637B63FF
:102D90007B6B43F010037B631D4A7B6B53601D4BC1
:102DA0001D4A1A601B4B00225A601A4B00229A607F
:102DB000184B8022DA60174B00221A61154B002253
:102DC0005A61144B00229A61124B4FF44052DA615F
:102DD000104800F07FFB0346002B01D0FFF744FAB8
:102DE0007B680C4A9A630B4A7B6853620022052178
:102DF000272000F044FB272000F05DFB00BF3837A0
:102E0000BD4680BD00480040001002400010014057
:102E10000000014008180020300002400C480D4915
:102E20000D4A002302E0D458C4500433C4188C4225
:102E3000F9D30A4A0A4C002301E013600432A2428B
:102E4000FBD3FFF7D3FB06F0C1FDFFF781F9704715
:102E500000000020E001002014BF0008E001002075
:102E60006C270020FEE7000080B500AF084B1B6810
:102E7000074A43F010031360032000F0F5FA0F2017
:102E8000FFF730FAFFF7F6F90023184680BD00BFC0
:102E90000020024080B400AF054B1B781A46054B5A
:102EA0001B681344034A136000BFBD4680BC7047D3
:102EB000080000204C18002080B400AF024B1B68B3
:102EC0001846BD4680BC70474C18002080B586B0BF
:102ED00000AF78600023FB7500233B610023BB60DB
:102EE0000023FB607B68002B01D10123CEE07B68CF
:102EF0009B68002B7B689B6A002B09D17B680022B2
:102F0000DA627B68002283F824207868FEF794FF59
:102F1000786800F0BDF90346FB757B689B6A03F097
:102F20001003002B40F0A980FB7D002B40F0A58012
:102F30007B689B6A23F4885323F0020343F0020268
:102F40007B689A627B685A687B681B6851498B4230
:102F50000AD17B68DB69B3F5402F02D07B68DB695F
:102F600004E04FF4002301E07B68DB691A437B68CF
:102F70001B7B5B001343BA681343BB607B689B6891
:102F8000B3F5807F03D07B689B68012B02D14FF49F
:102F9000807300E000233A6913433B617B681B7D2B
:102FA000012B19D17B681B7B002B09D17B689B69A6
:102FB000013B5A033B69134343F400633B610BE05D
:102FC0007B689B6A43F020027B689A627B68DB6ABD
:102FD00043F001027B68DA627B681B685B6823F45C
:102FE00069417B681B683A690A435A607B681B68C1
:102FF0009A68294B13407A681268B9680B4393604A
:103000007B689B68B3F5807F03D07B689B68012B4E
:1030100004D17B681B69013B1B05FB607B681B6857
:10302000DB6A23F470017B681B68FA680A43DA6282
:103030007B681B689A68194B1340BA689A420BD197
:103040007B680022DA627B689B6A23F0030343F00B
:1030500001027B689A6218E07B689B6A23F0120386
:1030600043F010027B689A627B68DB6A43F00102DE
:103070007B68DA620123FB7507E07B689B6A43F09B
:1030800010027B689A620123FB75FB7D1846183796
:10309000BD4680BD003C0140FDF7E1FFFE0E1FFF75
:1030A00080B485B000AF786039600023FB730023E3
:1030B000BB607B6893F82430012B01D10223DCE054
:1030C0007B68012283F824203B685B68062B1CD8B0
:1030D0007B681B68596B3B685A6813469B00134416
:1030E000053B1F2202FA03F3DB4319403B681868D3
:1030F0003B685A6813469B001344053B00FA03F2F1
:103100007B681B680A435A633CE03B685B680C2B96
:103110001CD87B681B68196B3B685A6813469B0078
:103120001344233B1F2202FA03F3DB4319403B689D
:1031300018683B685A6813469B001344233B00FA07
:1031400003F27B681B680A431A631BE07B681B68F9
:10315000D96A3B685A6813469B001344413B1F22BF
:1031600002FA03F3DB4319403B6818683B685A686E
:1031700013469B001344413B00FA03F27B681B6833
:103180000A43DA623B681B68092B1CD97B681B6801
:10319000D9683B681A6813465B0013441E3B07223C
:1031A00002FA03F3DB4319403B6898683B681A68EE
:1031B00013465B0013441E3B00FA03F27B681B6856
:1031C0000A43DA6019E07B681B6819693B681A6872
:1031D00013465B001344072202FA03F3DB43194052
:1031E0003B6898683B681A6813465B00134400FA12
:1031F00003F27B681B680A431A613B681B68102B4B
:1032000003D03B681B68112B32D17B681B681D4AB9
:10321000934225D17B681B689B6803F40003002B55
:1032200026D17B681B689A687B681B6842F40002A1
:103230009A603B681B68102B1AD1134B1B68134A0A
:10324000A2FB03239A0C13469B0013445B00BB6054
:1032500002E0BB68013BBB60BB68002BF9D107E013
:103260007B689B6A43F020027B689A620123FB73B0
:103270007B68002283F82420FB7B18461437BD4668
:1032800080BC7047002401400000002083DE1B4307
:1032900080B584B000AF78600023FB607B681B685A
:1032A0009B6803F00103012B2ED17B681B689A6891
:1032B0007B681B6822F001029A60FFF7FDFDF86051
:1032C0001BE0FFF7F9FD0246FB68D31A022B14D965
:1032D0007B681B689B6803F00103012B0DD17B68A1
:1032E0009B6A43F010027B689A627B68DB6A43F05A
:1032F00001027B68DA62012307E07B681B689B6838
:1033000003F00103012BDCD0002318461037BD4623
:1033100080BD000080B485B000AF78607B6803F0AA
:103320000703FB600C4BDB68BB60BA684FF6FF031A
:103330001340BB60FB681A02BB68134343F0BF63D2
:1033400043F40033BB60044ABB68D36000BF14374A
:10335000BD4680BC704700BF00ED00E080B400AF08
:10336000044BDB681B0A03F007031846BD4680BC0C
:10337000704700BF00ED00E080B483B000AF0346AB
:10338000FB7197F90730002B0BDBFB7903F01F0271
:10339000064997F907305B09012000FA02F241F86B
:1033A000232000BF0C37BD4680BC704700E100E021
:1033B00080B483B000AF03463960FB7197F90730E2
:1033C000002B0ADB3B68DAB20C4997F9073012018F
:1033D000D2B20B4483F800230AE03B68DAB2084912
:1033E000FB7903F00F03043B1201D2B20B441A76AF
:1033F00000BF0C37BD4680BC704700BF00E100E055
:1034000000ED00E080B489B000AFF860B9607A6088
:10341000FB6803F00703FB61FB69C3F10703042B9F
:1034200028BF0423BB61FB690433062B02D9FB6967
:10343000033B00E000237B614FF0FF32BB6902FADF
:1034400003F3DA43BB681A407B699A404FF0FF31BF
:103450007B6901FA03F3D9437B680B401343184699
:103460002437BD4680BC704780B582B000AF78601D
:103470007868FFF74FFF00BF0837BD4680BD80B5B5
:1034800086B000AF0346B9607A60FB7300237B61AE
:10349000FFF764FF78617A68B9687869FFF7B2FF6F
:1034A000024697F90F3011461846FFF781FF00BF1B
:1034B0001837BD4680BD80B582B000AF0346FB71B2
:1034C00097F907301846FFF757FF00BF0837BD468A
:1034D00080BD000080B485B000AF78600023FB6041
:1034E0007B68002B01D1012359E07B681B681A46D9
:1034F0002D4B9A420FD87B681B681A462B4B1344FE
:103500002B4AA2FB03231B099A007B681A647B6881
:10351000284ADA630EE07B681B681A46264B134480
:10352000234AA2FB03231B099A007B681A647B6869
:10353000224ADA637B68022283F821207B681B68B9
:103540001B68FB60FB6823F47F5323F03003FB60B0
:103550007B685A687B689B681A437B68DB681A4300
:103560007B681B691A437B685B691A437B689B69AC
:103570001A437B68DB691343FA681343FB607B687B
:103580001B68FA681A607B6800229A637B680122D4
:1035900083F821207B68002283F82020002318462E
:1035A0001437BD4680BC704707040240F8FFFDBFDA
:1035B000CDCCCCCC00000240F8FBFDBF00040240A3
:1035C00080B586B000AFF860B9607A603B600023D8
:1035D000FB75FB6893F82030012B01D102234AE0F0
:1035E000FB68012283F82020FB6893F82130012B2F
:1035F0003AD1FB68022283F82120FB6800229A63FB
:10360000FB681B681A68FB681B6822F001021A60DD
:103610003B687A68B968F86800F0B0FBFB68DB6A61
:10362000002B08D0FB681B681A68FB681B6842F017
:103630000E021A600FE0FB681B681A68FB681B68C3
:1036400022F004021A60FB681B681A68FB681B689A
:1036500042F00A021A60FB681B681A68FB681B6864
:1036600042F001021A6005E0FB68002283F8202086
:103670000223FB75FB7D18461837BD4680BD80B41C
:1036800085B000AF78600023FB737B6893F821302E
:10369000022B08D07B6804229A637B68002283F89F
:1036A0002020012320E07B681B681A687B681B6868
:1036B00022F00E021A607B681B681A687B681B6820
:1036C00022F001021A607B681A6C7B68DB6B0121B7
:1036D00001FA02F25A607B68012283F821207B689C
:1036E000002283F82020FB7B18461437BD4680BC9F
:1036F0007047000080B584B000AF78600023FB7392
:103700007B6893F82130022B05D07B6804229A63F2
:103710000123FB73D6E07B681B681A687B681B6813
:1037200022F00E021A607B681B681A687B681B68AF
:1037300022F001021A607B681B681A46644B9A42A9
:1037400058D97B681B68634A93424FD07B681B68DB
:10375000614A934248D07B681B68604A934240D0DC
:103760007B681B685E4A934238D07B681B685D4A61
:10377000934230D07B681B685B4A934228D07B68B9
:103780001B68534A934220D07B681B68574A934278
:1037900019D07B681B68564A934212D07B681B681D
:1037A000544A93420AD07B681B68534A934202D121
:1037B0004FF480531BE04FF4803318E04FF48073D4
:1037C00015E0102313E0012311E04FF080730EE0A9
:1037D0004FF480130BE04FF4803308E04FF4805334
:1037E00005E04FF4807302E0102300E00123434A18
:1037F000536057E07B681B68364A93424FD07B6822
:103800001B68354A934248D07B681B68334A934211
:1038100040D07B681B68324A934238D07B681B6873
:10382000304A934230D07B681B682F4A934228D09D
:103830007B681B68264A934220D07B681B682B4A12
:10384000934219D07B681B68294A934212D07B6847
:103850001B68284A93420AD07B681B68264A934219
:1038600002D14FF480531BE04FF4803318E04FF443
:10387000807315E0102313E0012311E04FF08073F3
:103880000EE04FF480130BE04FF4803308E04FF468
:10389000805305E04FF4807302E0102300E0012321
:1038A000174A53607B68012283F821207B6800223D
:1038B00083F820207B685B6B002B03D07B685B6BFD
:1038C00078689847FB7B18461037BD4680BD00BF1F
:1038D00080000240080002401C000240300002400C
:1038E00044000240580002406C00024008040240BC
:1038F0001C04024030040240440402400004024020
:103900000000024080B584B000AF78607B68DB6B5C
:103910001B68FB607B681B681B68BB607B681B6C5B
:1039200004229A40FB681340002B00F0F180BB6832
:1039300003F00403002B00F0EB807B681B681B681E
:1039400003F02003002B07D17B681B681A687B6893
:103950001B6822F004021A607B681B681A465F4BE2
:103960009A4258D97B681B685D4A93424FD07B6866
:103970001B685C4A934248D07B681B685A4A934252
:1039800040D07B681B68594A934238D07B681B68DB
:10399000574A934230D07B681B68564A934228D0DE
:1039A0007B681B684D4A934220D07B681B68524A53
:1039B000934219D07B681B68504A934212D07B68AF
:1039C0001B684F4A93420AD07B681B684D4A93425A
:1039D00002D14FF480431BE04FF4802318E04FF4F2
:1039E000806315E0402313E0042311E04FF080636F
:1039F0000EE04FF480030BE04FF4802308E04FF417
:103A0000804305E04FF4806302E0402300E004239C
:103A10003D4A536057E07B681B68314A93424FD060
:103A20007B681B682F4A934248D07B681B682E4AEC
:103A3000934240D07B681B682C4A934238D07B6805
:103A40001B682B4A934230D07B681B68294A9342FB
:103A500028D07B681B68214A934220D07B681B6872
:103A6000254A934219D07B681B68244A934212D09E
:103A70007B681B68224A93420AD07B681B68214AF4
:103A8000934202D14FF480431BE04FF4802318E0AF
:103A90004FF4806315E0402313E0042311E04FF05E
:103AA00080630EE04FF480030BE04FF4802308E0C6
:103AB0004FF4804305E04FF4806302E0402300E0D0
:103AC0000423124A53607B68DB6A002B00F03681C6
:103AD0007B68DB6A7868984730E100BF800002406D
:103AE000080002401C000240300002404400024036
:103AF000580002406C000240080402401C040240CE
:103B0000300402404404024000040240000002402D
:103B10007B681B6C02229A40FB681340002B00F06C
:103B2000DD80BB6803F00203002B00F0D7807B68C8
:103B30001B681B6803F02003002B0BD17B681B68FC
:103B40001A687B681B6822F00A021A607B680122EF
:103B500083F821207B681B681A467B4B9A4258D910
:103B60007B681B68794A93424FD07B681B68784A10
:103B7000934248D07B681B68764A934240D07B686A
:103B80001B68754A934238D07B681B68734A93421E
:103B900030D07B681B68724A934228D07B681B68D0
:103BA000694A934220D07B681B686E4A934219D0C1
:103BB0007B681B686C4A934212D07B681B686B4A17
:103BC00093420AD07B681B68694A934202D14FF442
:103BD00000531BE04FF4003318E04FF4007315E07E
:103BE000202313E0022311E04FF000730EE04FF4A6
:103BF00000130BE04FF4003308E04FF4005305E0EE
:103C00004FF4007302E0202300E00223594A53607E
:103C100057E07B681B684D4A93424FD07B681B6816
:103C20004B4A934248D07B681B684A4A934240D033
:103C30007B681B68484A934238D07B681B68474AB8
:103C4000934230D07B681B68454A934228D07B68FA
:103C50001B683D4A934220D07B681B68414A9342CF
:103C600019D07B681B68404A934212D07B681B685E
:103C70003E4A93420AD07B681B683D4A934202D178
:103C80004FF400531BE04FF4003318E04FF400737F
:103C900015E0202313E0022311E04FF000730EE043
:103CA0004FF400130BE04FF4003308E04FF40053DF
:103CB00005E04FF4007302E0202300E002232E4AC7
:103CC00053607B68002283F820207B689B6A002B6E
:103CD00034D07B689B6A786898472FE07B681B6CC0
:103CE00008229A40FB681340002B28D0BB6803F0E1
:103CF0000803002B23D07B681B681A687B681B684D
:103D000022F00E021A607B681A6C7B68DB6B012163
:103D100001FA02F25A607B6801229A637B680122F1
:103D200083F821207B68002283F820207B681B6BAE
:103D3000002B04D07B681B6B7868984700BF00BFDE
:103D40001037BD4680BD00BF800002400800024021
:103D50001C00024030000240440002405800024073
:103D60006C000240080402401C040240300402407F
:103D700044040240000402400000024080B485B0C8
:103D800000AFF860B9607A603B60FB681A6CFB6852
:103D9000DB6B012101FA02F25A60FB681B683A688A
:103DA0005A60FB685B68102B08D1FB681B687A6857
:103DB0009A60FB681B68BA68DA6007E0FB681B68FA
:103DC000BA689A60FB681B687A68DA6000BF1437CB
:103DD000BD4680BC7047000080B48BB000AF7860F7
:103DE000396000237B6200233B6279E101227B6A18
:103DF00002FA03F3FB613B681B68FA691340BB617D
:103E0000BA69FB699A4240F068813B685B68964AF0
:103E100093425ED0944A934275D8944A934258D0C4
:103E2000924A93426FD8924A934252D0904A934218
:103E300069D8904A93424CD08E4A934263D88E4AB6
:103E4000934246D08C4A93425DD8122B2AD8122B2B
:103E500059D801A252F823F0D33E0008AD3E000825
:103E6000BF3E0008013F0008073F0008073F000869
:103E7000073F0008073F0008073F0008073F00080A
:103E8000073F0008073F0008073F0008073F0008FA
:103E9000073F0008073F0008073F0008B53E00083D
:103EA000C93E0008754A934213D02CE03B68DB689A
:103EB0003B6229E03B68DB6804333B6224E03B68FB
:103EC000DB6808333B621FE03B68DB680C333B6216
:103ED0001AE03B689B68002B02D104233B6213E08D
:103EE0003B689B68012B05D108233B627B68FA691C
:103EF0001A6109E008233B627B68FA695A6103E0B2
:103F000000233B6200E000BFBB69FF2B01D87B6848
:103F100001E07B6804337B61BB69FF2B02D87B6ABD
:103F20009B0002E07B6A083B9B003B617B691A684F
:103F30000F213B6901FA03F3DB431A40396A3B69FD
:103F400001FA03F31A437B691A603B685B6803F06C
:103F50008053002B00F0C180494B9B69484A43F0D5
:103F600001039361464B9B6903F00103BB60BB688F
:103F7000444A7B6A9B08023352F82330FB607B6A19
:103F800003F003039B000F2202FA03F3DB43FA68FA
:103F90001340FB607B683C4A93421FD07B683B4ADE
:103FA000934219D07B683A4A934213D07B68394ACE
:103FB00093420DD07B68384A934207D07B68374ADA
:103FC000934201D105230AE0062308E0042306E01A
:103FD000032304E0022302E0012300E000237A6AC5
:103FE00002F0030292009340FA681343FB602549F4
:103FF0007B6A9B080233FA6841F823203B685B68C0
:1040000003F48033002B06D0254B1A682449BB6982
:1040100013430B6006E0224B1A68BB69DB4320495F
:1040200013400B603B685B6803F40033002B06D041
:104030001B4B5A681A49BB6913434B6006E0184B87
:104040005A68BB69DB43164913404B603B685B68A9
:1040500003F48013002B25D0114B9A681049BB69DB
:1040600013438B6025E000BF0000321000003110C8
:10407000000022100000211000001210000011109A
:10408000001002400000014000080140000C014007
:10409000001001400014014000180140001C0140C4
:1040A00000040140154B9A68BB69DB431349134078
:1040B0008B603B685B6803F40013002B06D00F4B4A
:1040C000DA680E49BB691343CB6006E00B4BDA6834
:1040D000BB69DB4309491340CB607B6A01337B62D8
:1040E0003B681A687B6A22FA03F3002B7FF47EAEEA
:1040F00000BF00BF2C37BD4680BC704700040140A4
:1041000080B485B000AF78600B467B807B689A688E
:104110007B881340002B02D00123FB7301E00023B6
:10412000FB73FB7B18461437BD4680BC704780B4D8
:1041300083B000AF78600B467B8013467B707B7842
:10414000002B03D07A887B681A6103E07B881A040D
:104150007B681A6100BF0C37BD4680BC7047000009
:1041600080B586B000AF78607B68002B01D1012359
:1041700072E27B681B6803F00103002B00F087806C
:10418000924B5B6803F00C03042B0CD08F4B5B68E5
:1041900003F00C03082B12D18C4B5B6803F48033C3
:1041A000B3F5803F0BD1894B1B6803F40033002B20
:1041B0006CD07B685B68002B68D101234CE27B6884
:1041C0005B68B3F5803F06D1804B1B687F4A43F4A0
:1041D000803313602EE07B685B68002B0CD17B4B37
:1041E0001B687A4A23F480331360784B1B68774A44
:1041F00023F4802313601DE07B685B68B3F5A02F78
:104200000CD1724B1B68714A43F4802313606F4BCF
:104210001B686E4A43F4803313600BE06B4B1B68E2
:104220006A4A23F480331360684B1B68674A23F49F
:10423000802313607B685B68002B13D0FEF73CFE85
:10424000386108E0FEF738FE02463B69D31A642B5A
:1042500001D9032300E25D4B1B6803F40033002BFC
:10426000F0D014E0FEF728FE386108E0FEF724FEE7
:1042700002463B69D31A642B01D90323ECE1534B6B
:104280001B6803F40033002BF0D100E000BF7B6813
:104290001B6803F00203002B63D04C4B5B6803F0F8
:1042A0000C03002B0BD0494B5B6803F00C03082B6D
:1042B0001CD1464B5B6803F48033002B16D1434B73
:1042C0001B6803F00203002B05D07B681B69012BE0
:1042D00001D00123C0E13D4B1B6823F0F8027B684D
:1042E0005B69DB00394913430B603AE07B681B696B
:1042F000002B20D0364B01221A60FEF7DDFD38611D
:1043000008E0FEF7D9FD02463B69D31A022B01D91A
:104310000323A1E12D4B1B6803F00203002BF0D017
:104320002A4B1B6823F0F8027B685B69DB00274996
:1043300013430B6015E0264B00221A60FEF7BCFD0C
:10434000386108E0FEF7B8FD02463B69D31A022B3C
:1043500001D9032380E11D4B1B6803F00203002BEE
:10436000F0D17B681B6803F00803002B3AD07B6810
:104370009B69002B19D0174B01221A60FEF79CFD98
:10438000386108E0FEF798FD02463B69D31A022B1C
:1043900001D9032360E10D4B5B6A03F00203002B9C
:1043A000F0D0012000F008FB1CE00A4B00221A604C
:1043B000FEF782FD38610FE0FEF77EFD02463B69A5
:1043C000D31A022B08D9032346E100BF0010024094
:1043D0000000424280044242924B5B6A03F00203B7
:1043E000002BE9D17B681B6803F00403002B00F06D
:1043F000A6800023FB758B4BDB6903F08053002BF9
:104400000DD1884BDB69874A43F08053D361854BDC
:10441000DB6903F08053BB60BB680123FB75824BF3
:104420001B6803F48073002B18D17F4B1B687E4AF6
:1044300043F480731360FEF73FFD386108E0FEF738
:104440003BFD02463B69D31A642B01D9032303E1E8
:10445000754B1B6803F48073002BF0D07B68DB681E
:10446000012B06D16F4B1B6A6E4A43F001031362A6
:104470002DE07B68DB68002B0CD16A4B1B6A694A14
:1044800023F001031362674B1B6A664A23F004039F
:1044900013621CE07B68DB68052B0CD1614B1B6A47
:1044A000604A43F0040313625E4B1B6A5D4A43F0AB
:1044B000010313620BE05B4B1B6A5A4A23F00103B2
:1044C0001362584B1B6A574A23F0040313627B683C
:1044D000DB68002B15D0FEF7EFFC38610AE0FEF731
:1044E000EBFC02463B69D31A41F28832934201D970
:1044F0000323B1E04B4B1B6A03F00203002BEED009
:1045000014E0FEF7D9FC38610AE0FEF7D5FC02465C
:104510003B69D31A41F28832934201D903239BE0CD
:10452000404B1B6A03F00203002BEED1FB7D012BF5
:1045300005D13C4BDB693B4A23F08053D3617B6858
:10454000DB69002B00F08780364B5B6803F00C03BF
:10455000082B61D07B68DB69022B46D1334B0022EC
:104560001A60FEF7A9FC386108E0FEF7A5FC0246D8
:104570003B69D31A022B01D903236DE0294B1B6839
:1045800003F00073002BF0D17B681B6AB3F5803F0A
:1045900008D1244B5B6823F400327B689B68214977
:1045A00013434B601F4B5B6823F474127B68196ADA
:1045B0007B685B6A0B431B4913434B601B4B012217
:1045C0001A60FEF779FC386108E0FEF775FC0246D8
:1045D0003B69D31A022B01D903233DE0114B1B6821
:1045E00003F00073002BF0D035E0104B00221A606E
:1045F000FEF762FC386108E0FEF75EFC02463B69AC
:10460000D31A022B01D9032326E0064B1B6803F0C3
:104610000073002BF0D11EE07B68DB69012B07D112
:10462000012319E000100240007000406000424287
:104630000B4B5B68FB60FB6803F480327B681B6A92
:104640009A4206D1FB6803F470127B685B6A9A4257
:1046500001D0012300E0002318461837BD4680BD75
:104660000010024080B584B000AF786039607B688C
:10467000002B01D10123D0E06A4B1B6803F0070334
:104680003A689A4210D9674B1B6823F007026549C4
:104690003B6813430B60634B1B6803F007033A68E6
:1046A0009A4201D00123B8E07B681B6803F0020343
:1046B000002B20D07B681B6803F00403002B05D07F
:1046C000594B5B68584A43F4E06353607B681B684E
:1046D00003F00803002B05D0534B5B68524A43F4A8
:1046E00060535360504B5B6823F0F0027B689B681B
:1046F0004D4913434B607B681B6803F00103002B9B
:1047000040D07B685B68012B07D1474B1B6803F4E3
:104710000033002B15D101237FE07B685B68022BFF
:1047200007D1414B1B6803F00073002B09D1012313
:1047300073E03D4B1B6803F00203002B01D1012302
:104740006BE0394B5B6823F003027B685B6836499A
:1047500013434B60FEF7B0FBF8600AE0FEF7ACFBDA
:104760000246FB68D31A41F28832934201D90323EF
:1047700053E02D4B5B6803F00C027B685B689B0089
:104780009A42EBD1274B1B6803F007033A689A4221
:1047900010D2244B1B6823F0070222493B681343C5
:1047A0000B60204B1B6803F007033A689A4201D064
:1047B000012332E07B681B6803F00403002B08D060
:1047C000194B5B6823F4E0627B68DB68164913438E
:1047D0004B607B681B6803F00803002B09D0124B69
:1047E0005B6823F460527B681B69DB000E4913434E
:1047F0004B6000F021F802460B4B5B681B0903F08D
:104800000F030A49CB5C22FA03F3094A1360094BF0
:104810001B681846FDF766FD002318461037BD4695
:1048200080BD00BF002002400010024084BB000891
:10483000000000200400002090B48AB000AF294B93
:104840003C1D0FCB84E80F0040F201233B80002386
:10485000FB610023BB6100237B6200237B6100239B
:104860003B62214B5B68FB61FB6903F00C03042B8B
:1048700002D0082B03D02BE01C4B3B622BE0FB69E2
:104880009B0C03F00F0328333B4413F8243C7B615B
:10489000FB6903F48033002B12D0134B5B685B0C75
:1048A00003F0010328333B4413F8283CBB617B69C8
:1048B0000E4A03FB02F2BB69B2FBF3F37B6204E036
:1048C0007B690B4A02FB03F37B627B6A3B6202E07B
:1048D000064B3B6200BF3B6A18462837BD4690BC7A
:1048E000704700BF6CBB00080010024000127A0045
:1048F00000093D0080B400AF024B1B681846BD465E
:1049000080BC70470000002080B500AFFFF7F2FFC9
:104910000246054B5B681B0A03F007030349CB5CA7
:1049200022FA03F3184680BD0010024094BB000831
:1049300080B500AFFFF7DEFF0246054B5B68DB0A80
:1049400003F007030349CB5C22FA03F3184680BD4A
:104950000010024094BB000880B483B000AF7860C0
:1049600039607B680F221A60114B5B6803F0030209
:104970007B685A600E4B5B6803F0F0027B689A60BC
:104980000B4B5B6803F4E0627B68DA60084B5B68A2
:10499000DB0803F4E0627B681A61064B1B6803F0D6
:1049A00007023B681A6000BF0C37BD4680BC7047E9
:1049B000001002400020024080B485B000AF786053
:1049C0000A4B1B680A4AA2FB03235B0A7A6802FBB4
:1049D00003F3FB6000BFFB685A1EFA60002BF9D19D
:1049E00000BF00BF1437BD4680BC704700000020E8
:1049F000D34D621080B586B000AF786000233B6174
:104A00000023FB607B681B6803F00103002B7DD053
:104A10000023FB754F4BDB6903F08053002B0DD156
:104A20004C4BDB694B4A43F08053D361494BDB6904
:104A300003F08053BB60BB680123FB75464B1B68CA
:104A400003F48073002B18D1434B1B68424A43F494
:104A500080731360FEF730FA386108E0FEF72CFA35
:104A600002463B69D31A642B01D903236DE03A4B0C
:104A70001B6803F48073002BF0D0364B1B6A03F4E1
:104A80004073FB60FB68002B2ED07B685B6803F4EF
:104A90004073FA689A4227D02E4B1B6A23F4407366
:104AA000FB602E4B01221A602C4B00221A60294A0F
:104AB000FB681362FB6803F00103002B14D0FEF7C0
:104AC000FBF938610AE0FEF7F7F902463B69D31AB1
:104AD00041F28832934201D9032336E01D4B1B6A11
:104AE00003F00203002BEED01A4B1B6A23F4407232
:104AF0007B685B68174913430B62FB7D012B05D173
:104B0000144BDB69134A23F08053D3617B681B6825
:104B100003F00203002B08D00E4B5B6823F44042E5
:104B20007B689B680B4913434B607B681B6803F0F1
:104B30001003002B08D0074B5B6823F480027B68CE
:104B40005B69044913434B60002318461837BD4680
:104B500080BD00BF0010024000700040400442428F
:104B600080B582B000AF78607B68002B01D1012353
:104B700041E07B6893F83D30DBB2002B06D17B68C7
:104B8000002283F83C207868FDF766FE7B680222ED
:104B900083F83D207B681A687B6804331946104609
:104BA00000F04EFC7B68012283F846207B680122DE
:104BB00083F83E207B68012283F83F207B68012236
:104BC00083F840207B68012283F841207B68012222
:104BD00083F842207B68012283F843207B6801220E
:104BE00083F844207B68012283F845207B680122FA
:104BF00083F83D20002318460837BD4680BD0000DD
:104C000080B485B000AF78607B6893F83D30DBB24C
:104C1000012B01D0012344E07B68022283F83D2070
:104C20007B681B68DA687B681B6842F00102DA6007
:104C30007B681B681D4A934218D07B681B681C4A1E
:104C4000934213D07B681B68B3F1804F0ED07B6812
:104C50001B68184A934209D07B681B68164A934226
:104C600004D07B681B68154A934211D17B681B688E
:104C70009B6803F00703FB60FB68062B10D07B6882
:104C80001B681A687B681B6842F001021A6007E023
:104C90007B681B681A687B681B6842F001021A6017
:104CA000002318461437BD4680BC7047002C0140D5
:104CB000003401400004004000080040000C0040A7
:104CC00080B582B000AF78607B68002B01D10123F2
:104CD00041E07B6893F83D30DBB2002B06D17B6866
:104CE000002283F83C20786800F039F87B680222C3
:104CF00083F83D207B681A687B68043319461046A8
:104D000000F09EFB7B68012283F846207B6801222D
:104D100083F83E207B68012283F83F207B680122D4
:104D200083F840207B68012283F841207B680122C0
:104D300083F842207B68012283F843207B680122AC
:104D400083F844207B68012283F845207B68012298
:104D500083F83D20002318460837BD4680BD80B447
:104D600083B000AF786000BF0C37BD4680BC704791
:104D700080B584B000AF786039603B68002B09D102
:104D80007B6893F83E30DBB2012B14BF0123002374
:104D9000DBB222E03B68042B09D17B6893F83F30FB
:104DA000DBB2012B14BF01230023DBB215E03B680B
:104DB000082B09D17B6893F84030DBB2012B14BF7C
:104DC00001230023DBB208E07B6893F84130DBB2BB
:104DD000012B14BF01230023DBB2002B01D00123E0
:104DE00072E03B68002B04D17B68022283F83E20EE
:104DF00013E03B68042B04D17B68022283F83F2038
:104E00000BE03B68082B04D17B68022283F840202A
:104E100003E07B68022283F841207B681B68012243
:104E20003968184600F0C8FD7B681B68284A934221
:104E300004D07B681B68274A934201D1012300E01C
:104E40000023002B07D07B681B685A6C7B681B68AB
:104E500042F400425A647B681B681D4A934218D092
:104E60007B681B681B4A934213D07B681B68B3F1B5
:104E7000804F0ED07B681B68174A934209D07B682D
:104E80001B68164A934204D07B681B68144A9342FD
:104E900011D17B681B689B6803F00703FB60FB680C
:104EA000062B10D07B681B681A687B681B6842F071
:104EB00001021A6007E07B681B681A687B681B6840
:104EC00042F001021A60002318461037BD4680BD2B
:104ED000002C014000340140000400400008004064
:104EE000000C004080B582B000AF78607B681B6822
:104EF0001B6903F00203022B22D17B681B68DB686D
:104F000003F00203022B1BD17B681B686FF00202C7
:104F10001A617B6801221A777B681B689B6903F022
:104F20000303002B03D0786800F06FFA05E078687F
:104F300000F062FA786800F071FA7B6800221A7754
:104F40007B681B681B6903F00403042B22D17B6878
:104F50001B68DB6803F00403042B1BD17B681B6810
:104F60006FF004021A617B6802221A777B681B6863
:104F70009B6903F44073002B03D0786800F045FA76
:104F800005E0786800F038FA786800F047FA7B6846
:104F900000221A777B681B681B6903F00803082B43
:104FA00022D17B681B68DB6803F00803082B1BD148
:104FB0007B681B686FF008021A617B6804221A770D
:104FC0007B681B68DB6903F00303002B03D0786860
:104FD00000F01BFA05E0786800F00EFA786800F03F
:104FE0001DFA7B6800221A777B681B681B6903F037
:104FF0001003102B22D17B681B68DB6803F01003C1
:10500000102B1BD17B681B686FF010021A617B6844
:1050100008221A777B681B68DB6903F44073002B56
:1050200003D0786800F0F1F905E0786800F0E4F961
:10503000786800F0F3F97B6800221A777B681B68B8
:105040001B6903F00103012B0ED17B681B68DB6831
:1050500003F00103012B07D17B681B686FF001028D
:105060001A617868FDF7EEF87B681B681B6903F02E
:105070008003802B0ED17B681B68DB6803F0800304
:10508000802B07D17B681B686FF080021A617868FB
:1050900000F02BFD7B681B681B6903F04003402B6D
:1050A0000ED17B681B68DB6803F04003402B07D1FF
:1050B0007B681B686FF040021A61786800F0B7F9EE
:1050C0007B681B681B6903F02003202B0ED17B68D3
:1050D0001B68DB6803F02003202B07D17B681B686B
:1050E0006FF020021A61786800F0F6FC00BF083704
:1050F000BD4680BD80B584B000AFF860B9607A600D
:10510000FB6893F83C30012B01D10223ACE0FB6833
:10511000012283F83C207B680C2B00F29F8001A2C7
:1051200052F823F0595100085D5200085D52000802
:105130005D520008995100085D5200085D52000858
:105140005D520008DB5100085D5200085D52000806
:105150005D5200081B520008FB681B68B9681846BE
:1051600000F0E8F9FB681B689A69FB681B6842F06D
:1051700008029A61FB681B689A69FB681B6822F049
:1051800004029A61FB681B689969BB681A69FB682D
:105190001B680A439A6162E0FB681B68B96818469D
:1051A00000F038FAFB681B689A69FB681B6842F4D8
:1051B00000629A61FB681B689A69FB681B6822F4AD
:1051C00080629A61FB681B689969BB681B691A0257
:1051D000FB681B680A439A6141E0FB681B68B96879
:1051E000184600F08BFAFB681B68DA69FB681B68DD
:1051F00042F00802DA61FB681B68DA69FB681B6829
:1052000022F00402DA61FB681B68D969BB681A697D
:10521000FB681B680A43DA6121E0FB681B68B96818
:10522000184600F0DFFAFB681B68DA69FB681B6848
:1052300042F40062DA61FB681B68DA69FB681B688C
:1052400022F48062DA61FB681B68D969BB681B695C
:105250001A02FB681B680A43DA6100E000BFFB68C2
:10526000002283F83C20002318461037BD4680BD3D
:1052700080B584B000AF786039607B6893F83C30CB
:10528000012B01D10223B3E07B68012283F83C208B
:105290007B68022283F83D207B681B689B68FB606B
:1052A000FB6823F07703FB60FB6823F47F43FB601C
:1052B0007B681B68FA689A603B681B68B3F5005FFF
:1052C0003ED0B3F5005F00F28780B3F5805F00F059
:1052D0008580B3F5805F7FD8702B1AD0702B7BD878
:1052E000602B50D0602B77D8502B3CD0502B73D8EC
:1052F000402B58D0402B6FD8302B64D0302B6BD83C
:10530000202B60D0202B67D8002B5CD0102B5AD0DC
:1053100062E07B6818683B6899683B685A683B683C
:10532000DB6800F02AFB7B681B689B68FB60FB68FE
:1053300043F07703FB607B681B68FA689A604EE075
:105340007B6818683B6899683B685A683B68DB680B
:1053500000F013FB7B681B689A687B681B6842F44B
:1053600080429A603BE07B6818683B6859683B68FC
:10537000DB681A4600F08AFA7B681B6850211846E1
:1053800000F0E1FA2BE07B6818683B6859683B68DD
:10539000DB681A4600F0A8FA7B681B686021184693
:1053A00000F0D1FA1BE07B6818683B6859683B68DD
:1053B000DB681A4600F06AFA7B681B6840211846D1
:1053C00000F0C1FA0BE07B681A683B681B6819465D
:1053D000104600F0B8FA02E000BF00E000BF7B68B2
:1053E000012283F83D207B68002283F83C200023C3
:1053F00018461037BD4680BD80B483B000AF7860DA
:1054000000BF0C37BD4680BC704780B483B000AF8E
:10541000786000BF0C37BD4680BC704780B483B055
:1054200000AF786000BF0C37BD4680BC704780B4C9
:1054300083B000AF786000BF0C37BD4680BC7047BA
:1054400080B485B000AF786039607B681B68FB6012
:105450007B68334A934213D07B68324A93420FD021
:105460007B68B3F1804F0BD07B682F4A934207D003
:105470007B682E4A934203D07B682D4A934208D121
:10548000FB6823F07003FB603B685B68FA681343BA
:10549000FB607B68224A934213D07B68214A934287
:1054A0000FD07B68B3F1804F0BD07B681E4A9342CC
:1054B00007D07B681D4A934203D07B681C4A934205
:1054C00008D1FB6823F44073FB603B68DB68FA6833
:1054D0001343FB60FB6823F080023B685B69134366
:1054E000FB607B68FA681A603B689A687B68DA62DE
:1054F0003B681A687B689A627B68094A934203D0CA
:105500007B68084A934203D13B681A697B681A6337
:105510007B6801225A6100BF1437BD4680BC7047CA
:10552000002C01400034014000040040000800400D
:10553000000C004080B487B000AF786039607B68B1
:105540001B6A23F001027B681A627B681B6A7B611D
:105550007B685B683B617B689B69FB60FB6823F051
:105560007003FB60FB6823F00303FB603B681B6870
:10557000FA681343FB607B6923F002037B613B689D
:105580009B687A6913437B617B68204A934203D00E
:105590007B681F4A93420CD17B6923F008037B612F
:1055A0003B68DB687A6913437B617B6923F0040302
:1055B0007B617B68154A934203D07B68144A93420F
:1055C00011D13B6923F480733B613B6923F4007381
:1055D0003B613B685B693A6913433B613B689B698C
:1055E0003A6913433B617B683A695A607B68FA68A1
:1055F0009A613B685A687B685A637B687A691A6269
:1056000000BF1C37BD4680BC704700BF002C014066
:105610000034014080B487B000AF786039607B68A7
:105620001B6A23F010027B681A627B681B6A7B612D
:105630007B685B683B617B689B69FB60FB6823F46C
:10564000E043FB60FB6823F44073FB603B681B682E
:105650001B02FA681343FB607B6923F020037B6124
:105660003B689B681B017A6913437B617B68214A15
:10567000934203D07B68204A93420DD17B6923F08B
:1056800080037B613B68DB681B017A6913437B61A4
:105690007B6923F040037B617B68164A934203D009
:1056A0007B68154A934213D13B6923F480633B61C5
:1056B0003B6923F400633B613B685B699B003A698B
:1056C00013433B613B689B699B003A6913433B6111
:1056D0007B683A695A607B68FA689A613B685A68E5
:1056E0007B689A637B687A691A6200BF1C37BD4683
:1056F00080BC7047002C01400034014080B487B06A
:1057000000AF786039607B681B6A23F480727B6825
:105710001A627B681B6A7B617B685B683B617B68A4
:10572000DB69FB60FB6823F07003FB60FB6823F020
:105730000303FB603B681B68FA681343FB607B69EB
:1057400023F400737B613B689B681B027A691343F7
:105750007B617B68214A934203D07B68204A934255
:105760000DD17B6923F400637B613B68DB681B021E
:105770007A6913437B617B6923F480637B617B6877
:10578000164A934203D07B68154A934213D13B6972
:1057900023F480533B613B6923F400533B613B6836
:1057A0005B691B013A6913433B613B689B691B01C1
:1057B0003A6913433B617B683A695A607B68FA68CF
:1057C000DA613B685A687B68DA637B687A691A62D7
:1057D00000BF1C37BD4680BC704700BF002C014095
:1057E0000034014080B487B000AF786039607B68D6
:1057F0001B6A23F480527B681A627B681B6A3B61D8
:105800007B685B687B617B68DB69FB60FB6823F41A
:10581000E043FB60FB6823F44073FB603B681B685C
:105820001B02FA681343FB603B6923F400533B619E
:105830003B689B681B033A6913433B617B68114AD1
:10584000934203D07B68104A934209D17B6923F4C9
:1058500080437B613B685B699B017A6913437B6191
:105860007B687A695A607B68FA68DA613B685A68D3
:105870007B681A647B683A691A6200BF1C37BD46B0
:1058800080BC7047002C01400034014080B487B0D8
:1058900000AFF860B9607A60FB681B6A7B61FB68E7
:1058A0001B6A23F00102FB681A62FB689B693B617B
:1058B0003B6923F0F0033B617B681B013A691343AA
:1058C0003B617B6923F00A037B617A69BB68134300
:1058D0007B61FB683A699A61FB687A691A6200BF6A
:1058E0001C37BD4680BC704780B487B000AFF860FD
:1058F000B9607A60FB681B6A23F01002FB681A62C9
:10590000FB689B697B61FB681B6A3B617B6923F4D5
:1059100070437B617B681B037A6913437B613B693E
:1059200023F0A0033B61BB681B013A6913433B6151
:10593000FB687A699A61FB683A691A6200BF1C3792
:10594000BD4680BC704780B485B000AF78603960D8
:105950007B689B68FB60FB6823F07003FB603A6820
:10596000FB68134343F00703FB607B68FA689A60A7
:1059700000BF1437BD4680BC704780B487B000AF0D
:10598000F860B9607A603B60FB689B687B617B690B
:1059900023F47F437B613B681A027B681A43BB6830
:1059A00013437A6913437B61FB687A699A6000BF8D
:1059B0001C37BD4680BC704780B487B000AFF8602C
:1059C000B9607A60BB6803F01F03012202FA03F397
:1059D0007B61FB681A6A7B69DB431A40FB681A62C9
:1059E000FB681A6ABB6803F01F03796801FA03F3C6
:1059F0001A43FB681A6200BF1C37BD4680BC704763
:105A000080B485B000AF786039607B6893F83C3033
:105A1000012B01D1022350E07B68012283F83C2056
:105A20007B68022283F83D207B681B685B68FB6013
:105A30007B681B689B68BB60FB6823F07003FB609E
:105A40003B681B68FA681343FB607B681B68FA6855
:105A50005A607B681B681B4A934218D07B681B689E
:105A6000194A934213D07B681B68B3F1804F0ED064
:105A70007B681B68154A934209D07B681B68144AEF
:105A8000934204D07B681B68124A93420CD1BB68D6
:105A900023F08003BB603B685B68BA681343BB605C
:105AA0007B681B68BA689A607B68012283F83D2096
:105AB0007B68002283F83C20002318461437BD463B
:105AC00080BC7047002C01400034014000040040BD
:105AD00000080040000C004080B483B000AF786044
