:020000040000FA
:10000000A08100206D020000810200008302000038
:10001000850200008502000085020000000000004B
:100020000000000000000000000000008502000049
:10003000850200000000000085020000850200002B
:100040008502000085020000850200008502000094
:100050008502000085020000850200008502000084
:100060008502000085020000850200008502000074
:100070008502000085020000850200008502000064
:100080008502000085020000850200008502000054
:100090008502000085020000850200008502000044
:1000A0008502000085020000850200008502000034
:1000B0008502000085020000850200008502000024
:1000C0008502000085020000850200008502000014
:1000D0008502000085020000850200008502000004
:1000E000850200008502000000000000850200007B
:1000F00085020000850200008502000085020000E4
:1001000085020000850200008502000085020000D3
:1001100000000000000000008502000085020000D1
:1001200085020000850200008502000085020000B3
:1001300085020000850200008502000085020000A3
:1001400000000000000000000000000000000000AF
:100150008502000085020000850200008502000083
:10016000000000000000000000000000000000008F
:10017000000000000000000000000000000000007F
:10018000000000000000000000000000000000006F
:10019000000000000000000000000000000000005F
:1001A000000000000000000000000000000000004F
:1001B0008502000085020000850200008502000023
:1001C0008502000085020000850200008502000013
:1001D0008502000085020000850200008502000003
:1001E000850200008502000085020000000000007A
:1001F000000000008502000085020000850200006A
:1002000085020000850200000000000000000000E0
:1002100085020000850200008502000085020000C2
:1002200085020000850200008502000085020000B2
:1002300085020000850200008502000085020000A2
:100240008502000085020000850200008502000092
:100250008502000085020000850200008502000082
:100260008502000085020000850200004EF68850DD
:10027000CEF20000016841F47001016000F004B8A2
:10028000FEE7FEE7FEE7000000F002F800F05CF891
:100290000AA090E8000C82448344AAF10107DA45E1
:1002A00001D100F051F8AFF2090EBAE80F0013F0D7
:1002B000010F18BFFB1A43F001031847E01E0300AB
:1002C000001F03000A444FF0000C10F8013B13F02C
:1002D000070408BF10F8014B1D1108BF10F8015B9F
:1002E000641E05D010F8016B641E01F8016BF9D192
:1002F00013F0080F1EBF10F8014BAD1C0C1B09D1E9
:100300006D1E58BF01F801CBFAD505E014F8016B5A
:1003100001F8016B6D1EF9D59142D6D370470000EC
:100320000023002400250026103A28BF78C1FBD8FE
:10033000520728BF30C148BF0B6070471FB52EF071
:1003400024FB1FBD10B510BD00F037F91146FFF7B3
:10035000F5FF29F02BFE00F055F903B4FFF7F2FF8B
:1003600003BC00F059F90000EFF3108072B670473B
:10037000EFF310807047EFF3108062B6704730BF24
:10038000704780F311887047EFF3118070470000C9
:100390000138FDD17047000002480349034A044B6D
:1003A00070470000A0750020A0810020A0790020E7
:1003B000A079002010B5431C02E010F8011B71B1B8
:1003C0008107FAD14FF0013202C88C1A8C4314EA2B
:1003D000C211F9D0C01A0A0603D0C01E10BDC01A3F
:1003E00010BD0A0401D0801E10BD0902FCD0401EC1
:1003F00010BD032A40F2308010F0030C00F015808D
:1004000011F8013BBCF1020F624498BF11F801CB17
:1004100000F8013B38BF11F8013BA2F1040298BF7C
:1004200000F801CB38BF00F8013B11F0030300F0E6
:100430002980083AC0F0088051F8043B083A51F886
:1004400004CBA0E80810F5E7121D5CBF51F8043B8F
:1004500040F8043BAFF30080D20724BF11F8013B02
:1004600011F801CB48BF11F8012B24BF00F8013B64
:1004700000F801CB48BF00F8012B704701B5FFF72A
:10048000B8FF01BD10B5203AC0F00B80B1E818509C
:10049000203AA0E81850B1E81850A0E81850BFF46E
:1004A000F5AF5FEA027C24BFB1E81850A0E818500D
:1004B00044BF18C918C0BDE810405FEA827C24BF61
:1004C00051F8043B40F8043B08BF7047D20728BFEF
:1004D00031F8023B48BF11F8012B28BF20F8023B3E
:1004E00048BF00F8012B704702F0FF0343EA0322E4
:1004F00042EA024200F002B84FF000020429C0F0C4
:10050000128010F0030C00F01B80CCF1040CBCF145
:10051000020F18BF00F8012BA8BF20F8022BA1EB97
:100520000C0100F00DB85FEAC17C24BF00F8012B7C
:1005300000F8012B48BF00F8012B70474FF0000274
:1005400000B5134694469646203922BFA0E80C50C9
:10055000A0E80C50B1F12001BFF4F7AF090728BFA4
:10056000A0E80C5048BF0CC05DF804EB890028BF20
:1005700040F8042B08BF704748BF20F8022B11F049
:10058000804F18BF00F8012B7047704770477047C5
:1005900010B500F00DF8006810BD10B5044600F06D
:1005A00007F8046010BD0000004870473C7500204B
:1005B000004870473C75002070477546FFF7F4FF10
:1005C000AE4605006946534620F00700854618B040
:1005D00020B5FFF7E1FEBDE820404FF000064FF0E8
:1005E00000074FF000084FF0000B21F00701AC4668
:1005F000ACE8C009ACE8C009ACE8C009ACE8C00987
:100600008D46704710B50446AFF300802046BDE824
:100610001040FFF7A2BE000001491820ABBEFEE764
:100620002600020010B5064820F016FB0021054800
:1006300000F00CF8044A0021024800F04DF810BD0B
:100640002C300020008003400C30002001228A4022
:10065000C260704701228A40C260826801238B40D9
:100660001A438260704782680A43826070472DE9AE
:10067000F04105460E4614463146284625F0F0FA6C
:100680000746214638460BF0A7FC38460BF032FCF3
:10069000BDE8F08110B50A0C120401F00F0401232B
:1006A000A3401A43836A1A43826210BD30B58900A1
:1006B00044690F258D40AC4302F00F058D402C435B
:1006C0004461056A0F248C4025EA040403F0030505
:1006D0008D402C43046230BD10B503464C014034BC
:1006E0002344002002E09C6810C2401CDC6804F433
:1006F00080740CB90828F6D310BD026801238B4022
:100700001A430260704770B50C46650140352844B5
:10071000920005680F269640B54303F00F069640F9
:100720003543056086690F25954026EA0505C3F324
:10073000032696403543856146680F25954026EA95
:100740000505C3F3031696403543456003F4702551
:1007500075B141690F259540A943C3F30245954002
:10076000294341610669012595402E43066104E055
:10077000066901259540AE43066170BD10481149D8
:100780004860082088600120487088700C480E4935
:1007900048600820886001204870887008480B492C
:1007A0004860082088600120487088700448084923
:1007B00048600820886001204870887070470000F9
:1007C00000700040DC6C0020FC6C00201C6D0020E0
:1007D0003C6D0020524890ED010AB8EE400ADFED72
:1007E000510A20EE200ADFED500A80EE201A4F4811
:1007F00080ED001A90ED000AF6EE000AB4EEE00A71
:10080000F1EE10FA03D80020494908703AE0474851
:1008100090ED000ADFED470AB4EEE00AF1EE10FABF
:1008200003D80420424908702CE0404890ED000AAB
:10083000DFED410AB4EEE00AF1EE10FA03D803202E
:100840003B4908701EE0394890ED000ADFED3B0A95
:10085000B4EEE00AF1EE10FA03D802203449087031
:1008600010E0324890ED000AF0EE0A0AB4EEE00A19
:10087000F1EE10FA03D801202D49087002E00020A3
:100880002B4908702A48007805283CD2DFE800F0A0
:10089000030D182430000120294948702949487067
:1008A000294948702949487037E000202449487098
:1008B00001202449487024494870244948702CE09C
:1008C00001201F49487000201E49487001201E4920
:1008D00048701E49487020E00120194948701949A4
:1008E000487000201849487001201849487014E0E9
:1008F000012013494870134948701349487000207B
:100900001249487009E001200D4948700D494870AE
:100910000D4948700D49487000BF00BF7047000086
:100920000C3000203333534000F07F450804002092
:10093000820F00209A99993FCDCCEC3F9A9929409B
:10094000DC6C0020FC6C00201C6D00203C6D002045
:1009500010B5FFF73FFF1CF0EDFE10BD10B52348AA
:100960001FF0A8FB00BF21481FF0BEFB0028FAD0F3
:100970001F481FF09FFB08211E4808F0D9FB1C48A8
:10098000401E1FF097FB08211B4808F0D1FB0023F5
:100990001A4619461948FFF789FE00231A461946D8
:1009A0001648FFF7B0FE6423012200211348FFF729
:1009B000AAFE00211148FFF749FE00210F48FFF76A
:1009C0009CFE00210D48FFF745FE01210B48FFF773
:1009D0004AFE1E200BF08EFA094A00210748FFF755
:1009E00046FEE0211E200BF0DDFA10BD003800F0BD
:1009F000040800F000400240007000400080034006
:100A00002506000010B509480088401C07490880E9
:100A100008460088022800DC10BD00200349088039
:100A200000210348FFF736FE00BFF5E71804002059
:100A30000080034030B587B000240020049005906A
:100A400006907F480078052873DC002039E07D4956
:100A500091ED000AF3EE040AB4EEE00AF1EE10FAAA
:100A60002AD8794991F86810012925D100241BE082
:100A70007549343101EB840191ED000ADFED730A11
:100A800060EE200A9FED721A80EE810A04A901EB44
:100A90008401D1ED000A30EE200A04A901EB8401A3
:100AA00081ED000A611C8CB2032CE1DB411C88B291
:100AB0000021654A82F868100121664A604B1B7864
:100AC000D154B0F57A7FC2DBDDED040A00EE100AE6
:100AD000B8EE400A80EE801A5949097801EB4101CD
:100AE0005D4A02EB810181ED001ADDED050A00EEA1
:100AF000100AB8EE400A80EE801A5149097801EBDD
:100B0000410102EB810181ED011ADDED060A00EEE3
:100B1000100AB8EE400A80EE801A4949097801EBC4
:100B2000410102EB810181ED021A0621444A117054
:100B300000BF4848007847494978084045498978C6
:100B400008404449C9780840424909790840414968
:100B500049790840002870D04048007800286CD1BE
:100B600001203E49087000203D4908703D4A3E4939
:100B7000394801F0B9FD3D490870002504E0002026
:100B800034494855681C85B2062DF8DB3748007893
:100B9000012839D13448D0ED021AB0EE611AD0EDF7
:100BA000011AF0EE610AD0ED001AB0EE610A304988
:100BB000022024F0ACFF2B48D0ED021AB0EE611AEF
:100BC000D0ED011AF0EE610AD0ED001AB0EE610A24
:100BD0002749052024F09BFF17F004FB002025493E
:100BE00008800221244A0346B6EE000ACDE900211E
:100BF00002904FF4FA6241F28831204801F001FB83
:100C000001201F49487214E000201A49088002217F
:100C1000194A03469FED1B0ACDE9002102904FF4CB
:100C2000FA6241F28831154801F0EBFA00201649CA
:100C30000880012007B030BDFFE70020FAE7000080
:100C4000FD000020E80A0020002800200AE81C41DE
:100C500000000046FF000020A8160020050100202B
:100C6000FE000020F000002078160020FC0000208C
:100C70003C300020920100200050024074180020F7
:100C80008E370020CDCCCC3D7E0200203EB5002426
:100C9000FE48008800EE100AB8EE400ADFEDFC0ABC
:100CA000B4EEE00AF1EE10FA22D8FA4890ED000A0C
:100CB000DFEDF90AB4EEE00AF1EE10FA18DBF748BE
:100CC00090ED000ADFEDF60AB4EEE00AF1EE10FA5C
:100CD0000ED8F44890ED000ADFEDF30AB4EEE00A16
:100CE000F1EE10FA04DBF1480088401CEF4908805F
:100CF000E648008800EE100AB8EE400ADFEDE40A8C
:100D0000B4EEE00AF1EE10FA22D8E24890ED000AC3
:100D1000DFEDE10AB4EEE00AF1EE10FA18DBDF488D
:100D200090ED000ADFEDDE0AB4EEE00AF1EE10FA13
:100D30000ED8DC4890ED000ADFEDDB0AB4EEE00AE5
:100D4000F1EE10FA04DBD9480088B0F5167F03DA1B
:100D5000D7480078022852D1D648008800284ED1C2
:100D60000120D5490880D54908700020D449087071
:100D700001200221D34A00239FEDD30ACDE90021AF
:100D800002904FF47A725100D04801F03AFA0620EE
:100D9000CF4908700020CF490870C449088000245A
:100DA0001DE00020CC4908559FEDCC0A04EB44001F
:100DB000CB4901EB800080ED000A9FEDC80A04EBEF
:100DC000440001EB800080ED010A9FEDC40A04EBB2
:100DD000440001EB800080ED020A601C84B2062C06
:100DE000DFDB0A20BF49088001201DF0E5FB012060
:100DF0001DF00AFC0020BC490880AD490870AF48CE
:100E0000007801287ED1A148008800EE100AB8EED3
:100E1000400ADFED9F0AB4EEE00AF1EE10FA19D8AD
:100E20009C4890ED000ADFEDB10AB4EEE00AF1EE65
:100E300010FA0FD8994890ED000AB5EEC00AF1EE0D
:100E400010FA07D1974890ED000AB5EEC00AF1EE0E
:100E500010FA03D0A6480078012817D1A5480088C9
:100E6000401CA449088008460088142803DAA048DA
:100E70000078012806D10020954908709E49088015
:100E80009E49088000209A49087097E17F480088B1
:100E900000EE100AB8EE400ADFED7D0AB4EEE00A7B
:100EA000F1EE10FA19D87B4890ED000AB5EEC00AB1
:100EB000F1EE10FA11D1794890ED000ADFED7A0ACF
:100EC000B4EEE00AF1EE10FA07DB764890ED000A86
:100ED000B5EEC00AF1EE10FA03D08548007802287A
:100EE0001AD184480088401C82490880084600883E
:100EF000142803DA7E480078022809D101207449B9
:100F0000087000E061E100207B4908807B4908808F
:100F100000207749087051E15C48008800EE100A13
:100F2000B8EE400ADFED5A0AB4EEE00AF1EE10FA2C
:100F300019D8584890ED000AB5EEC00AF1EE10FA43
:100F400011D1564890ED000ADFED550AB4EEE00AE3
:100F5000F1EE10FA07D8534890ED000AB5EEC00A3A
:100F6000F1EE10FA03D062480078032818D16148E6
:100F70000088401C5F49088008460088142803DA6E
:100F80005B480078032807D10220514908700020EF
:100F900059490880594908800020554908700DE1D9
:100FA0003A48008800EE100AB8EE400ADFED380A31
:100FB000B4EEE00AF1EE10FA19D8364890ED000AC6
:100FC000B5EEC00AF1EE10FA11D1344890ED000AE6
:100FD000B5EEC00AF1EE10FA09D1324890ED000AE0
:100FE000DFED310AB4EEE00AF1EE10FA03DA404820
:100FF0000078042818D13F480088401C3D490880EB
:1010000008460088142803DA39480078042807D1F4
:1010100003202F490870002037490880374908808D
:10102000002033490870C9E01848008800EE100A13
:10103000B8EE400ADFED160AB4EEE00AF1EE10FA5F
:1010400019D8144890ED000AB5EEC00AF1EE10FA76
:1010500011D1124890ED000AB5EEC00AF1EE10FA77
:1010600009D1104890ED000ADFED0D0AB4EEE00A58
:10107000F1EE10FA03D91E480078052853D11D4817
:101080000088401C1B490880084639E00603002000
:101090000040834410030020000016430C0300208E
:1010A0000000D2C1080300200000D2410601002048
:1010B000B90800202403002092010020FE00002037
:1010C000FC00002000500240CDCC4C3E74180020A3
:1010D000FD00002005010020FF00002000000000AE
:1010E000A81600207E02002032030020000016C354
:1010F000BA080020080100202C0300202E03002045
:101100000088142803DA31480078052807D1042024
:101110002F49087000202F4908802F49088000209F
:101120002A4908704AE02D48008800EE100AB8EEFF
:10113000400A5FED290AB4EEE00AF1EE10FA19D880
:10114000274890ED000A5FED2C0AB4EEE00AF1EEBC
:1011500010FA0FDD234890ED000AB5EEC00AF1EE5B
:1011600010FA07D1204890ED000AB5EEC00AF1EE62
:1011700010FA03D015480078062818D11B480088BB
:10118000401C1A49088008460088142803DA0F48D2
:101190000078062807D105200D49087000200D4968
:1011A00008800D49088000200849087006E00F49B2
:1011B000088800EBD07149100C4A11800B48008858
:1011C000C82802DB0020094908803EBDBA0800207B
:1011D000FD0000202C0300202E0300200603002029
:1011E000100300200C030020080300200801002049
:1011F00000B52DED028B83B0FD48FE49097830F82B
:101200001100E8BB26F03AFB2CF07AFBFA4890ED8F
:10121000000AFA4880ED020AF9480088052190FB8F
:10122000F1F1F848F34A127840F82210F34890EDB3
:10123000000AF548D0ED000A30EE200A8DED000AD4
:10124000EE4890ED010AF048D0ED200A30EE200A79
:101250008DED010AE94890ED020A8DED020ADDEDFF
:10126000021AB0EE611ADDED011AF0EE610ADDED51
:10127000001AB0EE610A0121084609F077FE00E08D
:101280000CE00120DA49DB4A127821F81200002034
:10129000DE49D84A127841F822005AE2D448D549AA
:1012A000097830F81100012871D126F0E7FAD74803
:1012B000D049097850F8210005282BD2D44890ED68
:1012C000011AF0EE410A90ED001AB0EE410A29F041
:1012D00061FEB0EE408AB1EE040AB4EEC08AF1EECF
:1012E00010FA0BD8C948C349097850F82100401CAE
:1012F000C649C04A127841F822000AE0C348BD49F5
:10130000097850F821004008C049BA4A127841F8DB
:1013100022001EE2B94890ED000ABB48D0ED010A58
:1013200030EE200A8DED000AB44890ED010AB6486F
:10133000D0ED210A30EE200A8DED010AAF4890ED84
:10134000020A8DED020ADDED021AB0EE611ADDED42
:10135000011AF0EE610ADDED001AB0EE610A01211A
:10136000084609F003FEA248A249097830F81100A6
:10137000401C81B29E489F4A127820F8121000212A
:10138000A2489C4A127840F82210E2E1FFE7984810
:101390009849097830F811001F287DDA26F06EFA96
:1013A0009A489449097850F8210005282BD298488A
:1013B00090ED011AF0EE410A90ED001AB0EE410AEC
:1013C00029F0E8FDB0EE408AB1EE040AB4EEC08A1E
:1013D000F1EE10FA0BD88D488649097850F82100B3
:1013E000401C8A49834A127841F822000AE0874863
:1013F0008049097850F82100410884487D4A1278D4
:1014000040F82210A5E17A487A49097830F81100AD
:101410007B4931F81000052190FBF1F07949754ABC
:10142000127841F82200754890ED000A7048714921
:10143000097830F81100744901EB8000D0ED000A02
:1014400030EE200A8DED000A6C4890ED010A6848E4
:101450006849097830F811106B48803000EB810042
:10146000D0ED000A30EE200A8DED010A634890EDC0
:10147000020A8DED020ADDED021AB0EE611ADDED11
:10148000011AF0EE610ADDED001AB0EE610A0121E9
:10149000084609F06BFD00E019E055485549097808
:1014A00030F81100401C5249524A127821F81200BB
:1014B000002056494F4A127841F822005548B0F8AA
:1014C000560001289ED154498870088041E148485F
:1014D0004849097830F811001F2855D126F0CEF977
:1014E0004A484449097850F8210005282BD2484839
:1014F00090ED011AF0EE410A90ED001AB0EE410AAB
:1015000029F048FDB0EE408AB1EE040AB4EEC08A7C
:10151000F1EE10FA0BD83D483649097850F8210011
:10152000401C3A49334A127841F822000AE0374811
:101530003049097850F82100400834492D4A127882
:1015400041F8220005E1C8202E492A4A127841F8C4
:10155000220027482749097830F81100401C81B241
:101560002348244A127820F8121000202749214AE3
:10157000127841F822002748B0F856000128A5D17A
:10158000254988700880E4E019481A49097830F83C
:101590001100202870D126F071F91A4815490978F0
:1015A00050F8210050B117481249097850F821002D
:1015B000401E14490F4A127841F8220011480D4983
:1015C000097850F82100002854D10D48C08F05211A
:1015D00090FBF1F00B49074A127841F822000748C6
:1015E00090ED000A0848D0ED1F0A30EE200A15E001
:1015F000706D00209D100020084C00202C700020F1
:10160000201000209C6E002060730020D46D00200C
:10161000A00D00207C6300205C3F00208DED000ABF
:101620004E4890ED010A4E48D0ED3F0A30EE200AB8
:101630008DED010A494890ED020A8DED020ADDEDBB
:10164000021AB0EE611ADDED011AF0EE610ADDED6D
:10165000001AB0EE610A0121084609F087FC4148F2
:101660004149097830F81100401C3E493E4A127841
:1016700021F812006DE0FFE73A483B49097830F85D
:101680001100212847D126F0F9F838483649097861
:1016900050F8210005282BD2354890ED011AF0EEC4
:1016A000410A90ED001AB0EE410A29F073FCB0EE49
:1016B000408AB1EE040AB4EEC08AF1EE10FA0BD8FB
:1016C0002A482949097850F82100401C2749264A10
:1016D000127841F822000AE024482349097850F89A
:1016E000210041082148204A127840F8221030E0B9
:1016F0001C481D49097830F81100401C81B2194876
:10170000194A127820F8121000201849164A127847
:1017100041F822001DE013481349097830F8110000
:10172000222814D10020134981F83000124890ED8E
:10173000260A084680ED060A002014F0B1FBFBEEF5
:101740000E0A9FED0E0A022006F06AFF01E026F065
:1017500095F803B0BDEC028B00BD00002C7000209A
:1017600060730020706D00209D100020D46D00205B
:10177000A00D0020F4620020B02600200000000030
:1017800000202E49097901292BD12D4991ED000A1C
:101790002C4981ED000A13200AE0294991ED000A45
:1017A0002849243101EB800181ED000A411E88B2F5
:1017B0000028F2DC224991ED000A224981ED090A54
:1017C0001F4991ED000A204981EDFD0A1C4991ED68
:1017D000000A1E4981ED000A9FED1D0A81ED030AF2
:1017E0002AE01C4991ED150A164981ED000A1320E3
:1017F0000AE0184991ED150A1249243101EB8001E4
:1018000081ED000A411E88B20028F2DC114991EDF9
:10181000150A0C4981ED090A094991ED000A0A49A6
:1018200081EDFD0A0B4991ED150A084981ED000A89
:101830009FED070A81ED030A70470000F80A0020B7
:10184000B8030020084C0020985400202C4F0020A2
:10185000000000000028002070B52DED028B04462A
:1018600094ED050AF94880ED010A94ED040A80ED33
:10187000550AF74890ED180AF648D0ED000A30EE08
:10188000600AF24880ED560AF14890ED170AF248D6
:10189000D0ED000A30EE600AEC4880ED020A9FEDC0
:1018A000EF0A00F5A87015F053FA9FEDEC0AE7482F
:1018B00015F04EFAE54890ED0C0A80ED2B0A90EDFC
:1018C000600A80ED7F0A94F83000062834D2DFE801
:1018D00000F00334A4F3F2F194ED060AB5EEC00A69
:1018E000F1EE10FA1FD1D94890EDA90AB5EEC00A61
:1018F000F1EE10FA05D1D64890ED190AD34880EDE3
:10190000A90AD34890ED190AD04880EDAA0A9FEDA4
:10191000D30A00F5287015F0F7FECC4890EDB40A14
:1019200080EDD30A08E09FEDCE0AC84880EDA90AF1
:1019300094ED060A80EDD30AD8E194F8310001282D
:1019400025D1D4ED060AB0EE600AB5EEC00AF1EE7C
:1019500010FA05D2DFEDC30A70EE200AB0EE600A7D
:10196000DFEDC00AB4EEE00AF1EE10FA05DDDFEDBE
:10197000BD0A70EE600AB0EE600AB44880EDA90AB4
:10198000002084F83100E08584F8320000BF94F82C
:10199000320028BBAD4890EDAB0AB5EEC00AF1EEBF
:1019A00010FA02DD90EDAB0A04E0A84890EDAB0A16
:1019B000B1EE400AF0EE080AB4EEE00AF1EE10FAD9
:1019C00003D2E08D401CE08504E0E08D00EBD07197
:1019D0004910E185E08DC82802DB012084F832003F
:1019E0009B4890ED190A994880EDAA0A9FED9B0A41
:1019F00000F5287015F088FE9448D0EDB40AB0EEDA
:101A0000600AB3EE091AFBEE090A25F053FFB0EEA7
:101A1000408A8E4880EDD38A68E194F8310001282D
:101A20002AD18B48D0ED190A94ED061A70EEC10A3E
:101A3000B0EE600AB5EEC00AF1EE10FA05D2DFEDA5
:101A4000890A70EE200AB0EE600ADFED860AB4EE75
:101A5000E00AF1EE10FA05DDDFED820A70EE600AB1
:101A6000B0EE600A794880EDA90A002084F83100C0
:101A7000E08584F8320000BF94F8320040BB734820
:101A800090EDAB0AB5EEC00AF1EE10FA02DD90ED72
:101A9000AB0A04E06D4890EDAB0AB1EE400AF0EEFF
:101AA000080AB4EEE00AF1EE10FA06D2E08D401C0E
:101AB000E08507E0E4E09DE027E0E08D00EBD071F9
:101AC0004910E185E08DC82802DB012084F832004E
:101AD0005F4890ED190A5D4880EDAA0A9FED5F0A04
:101AE00000F5287015F010FE5848D0EDB40AB0EE9D
:101AF000600AB3EE091AFBEE090A25F0DBFEB0EE30
:101B0000408A524880EDD38AF0E094F831000128F1
:101B10002AD14F48D0ED190A94ED061A70EE810AC9
:101B2000B0EE600AB5EEC00AF1EE10FA05D2DFEDB4
:101B30004D0A70EE200AB0EE600ADFED4A0AB4EEFC
:101B4000E00AF1EE10FA05DDDFED460A70EE600AFC
:101B5000B0EE600A3D4880EDA90A002084F831000B
:101B6000E08584F8320000BF94F8320028BB374883
:101B700090EDAB0AB5EEC00AF1EE10FA02DD90ED81
:101B8000AB0A04E0314890EDAB0AB1EE400AF0EE4A
:101B9000080AB4EEE00AF1EE10FA03D2E08D401C20
:101BA000E08504E0E08D00EBD0714910E185E08D27
:101BB000C82802DB012084F83200254890ED190A7C
:101BC000224880EDAA0A9FED250A00F5287015F03D
:101BD0009BFD1E48D0EDB40AB0EE600AB3EE091AC0
:101BE000FBEE090A25F066FEB0EE408A174880ED4C
:101BF000D38A7BE028F026FA054694F831000128C4
:101C000018D1D4ED060AF1EE600AB0EE600AB3EE28
:101C1000091AFBEE090A25F04DFEB0EE408A0B488A
:101C200080EDD38A002084F83100E08584F832000A
:101C3000656300BF94F83200B0B9616B681AA16B9C
:101C4000814202D8012184F8321018E09854002013
:101C500074280020500100204C0100200AD7A33B2B
:101C6000000000000000B4431FED030A214880ED8E
:101C7000D30A214890ED190A1E4880EDA90A35E0E3
:101C800028F0E0F9054694F83100012816D1D4ED8A
:101C9000060AB0EE600AB3EE091AFBEE090A25F057
:101CA00009FEB0EE408A134880EDD38A002084F804
:101CB0003100E08584F83200656300BF94F832009B
:101CC00040B9616B681AA16B814202D8012184F886
:101CD00032100AE01FED1E0A064880EDD30A0648BE
:101CE00090ED190A034880EDA90A00BF00BFBDECC2
:101CF000028B70BD985400207428002010B5034852
:101D0000FFF7AAFD08F034FC10BD0000F4620020CB
:101D100010B50446207821286FD2DFE800F0111EAC
:101D2000324650646F7684878A8D9BA8ABAEBBC861
:101D3000CBCECFD0D1D2D3D4D5D6D76ED8D9F80088
:101D400012F060F900208C4981F830008B4890ED4A
:101D5000260A084680ED060A0CE101F005F900208C
:101D6000854981F83000854890ED260A084680EDC7
:101D7000060ADFED830A9FED820A002006F050FC80
:101D8000F8E01FF079FC00207B4981F830007B48A7
:101D900090ED260A084680ED060ADFED790A9FEDF0
:101DA000780A002006F03CFCE4E01DF027FBDFEDA4
:101DB000740A9FED730A002006F032FCDAE006F0A8
:101DC000DBFE00206C4981F830006C4890ED260A5B
:101DD000084680ED060ADFED6A0A9FED690A0020D9
:101DE00006F01EFCC6E006F059FFDFED650A9FED28
:101DF000640A002006F014FCBCE09DE014230F22CE
:101E00000A21052029F036FAB4E05E48008800EE89
:101E1000100AB8EE400A00F0BBF8012802D1207881
:101E2000401E2070A6E025F0C3FEA3E025F0CAFF07
:101E3000A0E026F08DF99DE05248008800EE100ADF
:101E4000B8EE400A00F0A4F8012802D12078401C26
:101E500020708FE04C48008830B907204A4908803C
:101E6000087800211CF02CFCFFF7C2F982E02AF070
:101E700025F87FE025F002FD7CE04348008830B97A
:101E8000102041490880087800211CF019FC02F05C
:101E900059FC6FE03C48008830B910203A4908806E
:101EA000087800211CF00CFC03F0E6FF62E003F070
:101EB00009FB5FE02BF0C0FB00BF00BF00BF00BF0D
:101EC00000BF00BF00BF00BF00BF00BF00BF00BF1A
:101ED0002A4890ED240A284880ED040A274890ED0E
:101EE000250A254880ED050A0020234981F83000A5
:101EF000224890ED260A084680ED060ADFED200A0A
:101F00009FED1F0A002006F08BFB33E0FFE7002067
:101F100013F0E6FE0020184981F83000174890EDD4
:101F2000260A084680ED060ADFED180A9FED140A1E
:101F3000022006F075FB1DE0104890ED240A0E48C3
:101F400080ED040A0D4890ED250A0B4880ED050A46
:101F50000020094981F83000084890ED260A08461B
:101F600080ED060ADFED060A9FED050A002006F067
:101F700057FB00BF00BF10BDF4620020B026002058
:101F800000000000600100209C0F0020000048C2FB
:101F900000B52DED028B83B0B0EE408A25F06EFCCB
:101FA00043484449097830F81100E8BB0020424911
:101FB0000880424890ED010A414880ED000A3F4800
:101FC00090ED020A3E4880ED010A3E4890ED000A7D
:101FD0003B4880ED020A90ED000A8DED000A90ED7D
:101FE000010A8DED010A90ED020A30EE080A8DED2E
:101FF000020ADDED021AB0EE611ADDED011AF0EE13
:10200000610ADDED001AB0EE610A0121084608F010
:10201000ADFF01202649274A127821F8120000203E
:1020200003B0BDEC028B00BDFFE7214821490978D0
:1020300030F81100012839D123481E49097850F899
:102040002100B0F5C87F2FD2204890EDFF0AB5EEF1
:10205000C00AF1EE10FA02DD90EDFF0A04E01B4821
:1020600090EDFF0AB1EE400AF2EE040AB4EEE00A87
:10207000F1EE10FA0BD814480E49097850F82100F7
:10208000401C11490B4A127841F822000AE00E4820
:102090000849097850F8210040080B49054A127890
:1020A00041F822000020BBE70120B9E70020B7E794
:1020B000706D0020C01000203003002084690020D3
:1020C0002C700020084C0020D46D00209854002073
:1020D0001E480088401C1D49088008460088C82802
:1020E00033DB002008801A48008800EE100AF8EE62
:1020F000400A9FED181A80EE810A1748D0ED000AB9
:10210000B4EEE00AF1EE10FA05DD14480088401C38
:102110001249088006E01149088800EBD071491087
:102120000E4A11800D4800880A280EDBC8200C4991
:102130004861B5EE000A084680ED060A0120887065
:102140000520088000200549088070471A040020F7
:102150006401002000007A440C04002010040020D8
:10216000943F002010B505481DF0A4FF0E2104483F
:1021700006F0FCFF1AF062FF10BD0000050800F039
:102180000050024010B504462088012803DB208857
:10219000401E208004E0217C0022E06807F031F836
:1021A000208810B9A07C01282AD12089401C2081D8
:1021B000208900EB80006188884201DB00202081BB
:1021C000608800EE100AB8EE400AD4ED010A60EE15
:1021D000200A208900EB800000EE100AB8EEC00A49
:1021E000F4EEC00AF1EE10FA05DB227CD1B2E06811
:1021F00007F007F804E0217C0022E06807F001F80E
:1022000010BDF0B505AC70CC00EE901AF8EE600A87
:10221000B1EE041AC0EE811AFCEEE10A10EE907ADB
:102220000780428080ED010A0381C46005828674C4
:10223000F0BD000010B504464CB95848FFF7A2FFA6
:102240005748FFF79FFF5748FFF79CFFA4E0012C7A
:102250005CD15548007848B95148FFF793FF4F4883
:1022600006F0D4FF4F4806F0D1FF95E04E480078C5
:10227000012809D14A48FFF785FF484806F0C6FF04
:10228000484806F0C3FF87E047480078022809D194
:102290004348FFF777FF414806F0B8FF414806F092
:1022A000B5FF79E040480078032809D13C48FFF7A2
:1022B00069FF3A4806F0AAFF3A4806F0A7FF6BE02C
:1022C00039480078042809D13548FFF75BFF3348C7
:1022D00006F09CFF334806F099FF5DE03248007835
:1022E000052809D12E48FFF74DFF2C4806F08EFF38
:1022F0002C4806F08BFF4FE02848FFF743FF2848A3
:10230000FFF740FF2748FFF73DFF45E0022C32D1A1
:102310002648007848B92248FFF734FF1F4806F0E6
:1023200075FF204806F072FF36E02048007801284B
:1023300009D11B48FFF726FF184806F067FF194828
:1023400006F064FF28E019480078022809D11448F3
:10235000FFF718FF114806F059FF124806F056FF24
:102360001AE00E48FFF70EFF0D48FFF70BFF0D4870
:10237000FFF708FF10E0032C0ED1002202210C48C9
:1023800006F03FFF00220421094806F03AFF002230
:102390000821074806F035FF10BD00007418002022
:1023A000881800209C180020FD0000201C0100203F
:1023B0000050024010B51248F1EE040A9FED110AD8
:1023C0001DF0FEFA1048F0EE000A9FED0E0A1DF017
:1023D000F7FA0E48F2EE040A9FED0D0A1DF0F0FA2E
:1023E0000C48F0EE000AB3EE040A1DF0E9FA0A48C0
:1023F000F7EE080AB3EE040A1DF0E2FA10BD000081
:10240000C418002000004843DC180020F418002005
:10241000000048420C1900202419002010B5435C2C
:10242000084C23704B1CC35C63708B1CC35CA37093
:10243000CB1CC35CE370234693ED000A82ED000AD7
:1024400010BD00006009002070B503460C4615461B
:1024500000204DE0461C31B246E000EB400604EBA4
:10246000C60606EB8106D6ED000A00EB400604EB3B
:10247000C60606EB800696ED001A80EE810AB5EEE0
:10248000C00AF1EE10FA2DD003EB8106D6ED000A5A
:1024900003EB800696ED001A40EE410A03EB81063D
:1024A000C6ED000A0A461BE002EB420604EBC60634
:1024B00006EB8106D6ED000A02EB420604EBC606E7
:1024C00006EB800696ED001A40EE410A02EB42064A
:1024D00004EBC60606EB8106C6ED000A561C32B2B6
:1024E000062AE1DB4E1C31B20629B6DB461C30B2AF
:1024F0000628AFDB052045E000EB400604EBC606EE
:1025000006EB8006D6ED000A03EB800696ED001A76
:10251000C1EE201A03EB8006C6ED001AF7EE000AA2
:1025200000EB400604EBC60606EB8006C6ED000A8B
:10253000002123E000EB400604EBC60606EB810613
:10254000D6ED000AB0EE600A03EB8106D6ED000A74
:1025500003EB800696ED001A40EE410A03EB81067C
:10256000C6ED000ADFED100A00EB400604EBC606DC
:1025700006EB8106C6ED000A4E1C31B28142D9DB62
:10258000461E30B20028B7DA002009E003EB8006CF
:10259000D6ED000A05EB8006C6ED000A461C30B2F7
:1025A0000628F3DB70BD00000000000010B50246F5
:1025B0000B46002017E09FED0D0A02EB800484ED2E
:1025C000000A00210BE09FED090A00EB400403EB39
:1025D000C40404EB810484ED000A4C1C21B20629DA
:1025E000F1DB441C20B20628E5DB10BD0000000032
:1025F000F0B586B004460D46F7EE001AB0EE611A4B
:10260000002035E0C61C02EB8606D6ED000A03EB7F
:102610008006D6ED001A02EB800696ED002A31EE18
:10262000C20A60EEA01A21EE802AF0EE411A42EEB4
:10263000401AB0EE611AF0EE001A60EEA11A61EED7
:10264000A01A61EE801A6E4606EB8006C6ED001AEF
:10265000F8EE001A60EEA11A61EE801A61EE801A9F
:10266000C61C6F4607EB8606C6ED001A461C30B244
:102670000328C7DB002032E004EB8006D6ED001A09
:102680006E4606EB800696ED002A42EE011A04EB38
:102690008006C6ED001A00211DE000EB400605EBA8
:1026A000C60606EB8106D6ED001A6E4606EB8006DE
:1026B00096ED002A6E4606EB8106D6ED002A42EE24
:1026C000221A00EB400605EBC60606EB8106C6EDB6
:1026D000001A4E1C31B20629DFDB461C30B2062838
:1026E000CADB06B0F0BD00002DE9F0432DED028BF2
:1026F000B9B007460E4614464FF000089FED9F0AFA
:10270000B0EE408A9FED9E0AF0EE408A002036909F
:1027100037903890182130A8FDF710FF18212AA80B
:10272000FDF70CFF182124A8FDF708FF902168464B
:10273000FDF704FF4FF001099FED920A8DED320A7B
:102740008DED310A8DED300A9FED8F0A8DED350A42
:102750008DED340A8DED330A7FE008F101000FFAA8
:1027600080F8694624A8FFF721FF00251FE005EB4C
:10277000450007EB800090ED000A8DED360A05EB71
:10278000450007EB800090ED010A8DED370A05EB5F
:10279000450007EB800090ED020A8DED380A36AB5C
:1027A00030AA694624A8FFF723FF681C05B2062D4E
:1027B000DDDB2AAA694624A8FFF746FE9DED2D0A17
:1027C00020EE000ADDED330A20EEA01AC0EE010A69
:1027D0009DED2A0A20EE000A30EE000A9DED2B1A2C
:1027E000DDED2B1A01EE210A9DED2C1ADDED2C1AE0
:1027F00001EE210A30EE800ADDED2E0A60EEA00A1D
:102800009DED341A21EE011AC0EE811A70EE210AF4
:102810009DED2F0A20EE000A9DED351A21EE011ADA
:10282000C0EE011A30EEA10AF0EE408A002512E057
:1028300030A800EB850090ED000A2AA800EB850087
:10284000D0ED000A30EE600A30A800EB850080ED84
:10285000000A681C05B2062DEADBB8F1140F05DA90
:10286000F4EEC88AF1EE10FA3FF777AF9DED330A28
:10287000DFED460A20EE200A84ED000A9DED340AC1
:10288000DFED420A20EE200A84ED010A9DED350AB3
:10289000DFED3E0A20EE200A84ED020A9DED300AAB
:1028A000D4ED000A20EE200A86ED000A9DED310AE3
:1028B000D4ED010A20EE200A86ED010A9DED320AD0
:1028C000D4ED020A20EE200A86ED020A94ED000AF9
:1028D000F7EE000A30EE600AB0EEC00ADFED2C0A17
:1028E000B4EEE00AF1EE10FA1DDC94ED010AF7EE09
:1028F000000A30EE600AB0EEC00ADFED250AB4EE41
:10290000E00AF1EE10FA0EDC94ED020AF7EE000A8E
:1029100030EE600AB0EEC00ADFED1D0AB4EEE00A48
:10292000F1EE10FA01DD4FF0000996ED000AB0EE6D
:10293000C00AF1EE040AB4EEE00AF1EE10FA15DC7A
:1029400096ED010AB0EEC00AF1EE040AB4EEE00A18
:10295000F1EE10FA0ADC96ED020AB0EEC00AF1EED2
:10296000040AB4EEE00AF1EE10FA01DD4FF00009BE
:10297000484639B0BDEC028BBDE8F0835F7089300A
:102980000000C842000000007FD6D03D0AE81C418C
:10299000CDCC4C3E10B506480088012800D110BDB2
:1029A000FEF774F90CF056FD04F096FA00BFF6E756
:1029B0002403002010B509480078401C074908701E
:1029C00008460078042804DB01F0C6FC0020034917
:1029D00008701EF05DFF01F0FBF910BD460E0020EF
:1029E0002DE9FF470546002403A9284621F0E3F816
:1029F000044695F87C9340F27F30465D34B902ABD3
:102A000001AA6946284620F05BFF04461CB9284607
:102A100022F056FD04462CB94FF4FA71284620F0F6
:102A20004AFA044644B9D5F814804346324649462A
:102A300028461CF0E1FE044644B928469DE80E00F5
:102A400022F0F1FC04460CB90298286124B903A9CC
:102A5000284622F010FD044634B9AF7806223946E4
:102A6000284621F0D9FD044614B940F27E3046557F
:102A7000204604B0BDE8F087002009490978012903
:102A800001D140F0010007490978012901D140F046
:102A9000020005490978012901D140F0040070477E
:102AA00080020020FE0000201401002010B52DED52
:102AB000028B86B0142101A8FDF740FD9FED780A36
:102AC000B0EE408A002077490870774908700024EA
:102AD00001201FE000EB4001744A02EB0111C9899B
:102AE000B1B170490978491C6E4A117000EB400180
:102AF0006E4A02EB011191ED060A2146621CD4B226
:102B000001AA02EB810181ED000A0121664A1170E0
:102B1000411CC8B20528DDDB654890ED040AB5EE1E
:102B2000C00AF1EE10FA1BDD90ED040ADFED610A38
:102B3000B4EEE00AF1EE10FA12D25A480078401CC6
:102B4000584908705A4890ED040A2046611CCCB2DE
:102B500001A901EB800080ED000A012052490870B4
:102B60005048007828B99FED530A534880ED000A79
:102B700092E04C480078012805D19DED010A4E48AD
:102B800080ED000A88E04748007802280DD19DEDCD
:102B9000021AF0EE410A9DED011AB0EE410A23F04F
:102BA00007FF454880ED000A76E03E48007803289C
:102BB00019D19DED021AF0EE410A9DED011AB0EE19
:102BC000410A23F0F5FEB0EE408A9DED030AF0EED7
:102BD000400AB0EE480A23F0EBFEB0EE408A3648D9
:102BE00080ED008A58E02F480078042823D19DED1D
:102BF000021AF0EE410A9DED011AB0EE410A23F0EF
:102C0000D7FEB0EE408A9DED030AF0EE400AB0EE2A
:102C1000480A23F0CDFEB0EE408A9DED040AF0EEA6
:102C2000400AB0EE480A23F0C3FEB0EE408A2248C4
:102C300080ED008A30E01B48007805282CD19DEDFE
:102C4000021AF0EE410A9DED011AB0EE410A23F09E
:102C5000AFFEB0EE408A9DED030AF0EE400AB0EE02
:102C6000480A23F0A5FEB0EE408A9DED040AF0EE7E
:102C7000400AB0EE480A23F09BFEB0EE408A9DED7C
:102C8000050AF0EE400AB0EE480A23F091FEB0EEDD
:102C9000408A094880ED008A06B0BDEC028B10BD69
:102CA00000000000EC090020ED090020283D002074
:102CB0008840002000004843E809002010B5014684
:102CC000002001EBC1026E4B13F8222001EBC1037F
:102CD0006B4C04EB83035B781A4001EBC10304EBFC
:102CE00083039B781A4001EBC10304EB8303DB7879
:102CF0001A4001EBC10304EB83031B791A4001EB7B
:102D0000C10304EB83035B791A4001EBC10304EBBD
:102D100083039B791A4001EBC10304EB8303DB7946
:102D20001A4001EBC10304EB83031B7A1A4001EB49
:102D3000C10304EB83035B7A1A4001EBC10304EB8C
:102D400083039B7A1A4001EBC10304EB8303DB7A14
:102D50001A4001EBC10304EB83031B7B1A4001EB18
:102D6000C10304EB83035B7B1A4001EBC10304EB5B
:102D700083039B7B1A4001EBC10304EB8303DB7BE2
:102D80001A4001EBC10304EB83031B7C1A4001EBE7
:102D9000C10304EB83035B7C1A4001EBC10304EB2A
:102DA00083039B7C1A4001EBC10304EB8303DB7CB0
:102DB0001A4001EBC10304EB83031B7D1A4001EBB6
:102DC000C10304EB83035B7D1A4001EBC10304EBF9
:102DD00083039B7D1A4001EBC10304EB8303DB7D7E
:102DE0001A4001EBC10304EB83031B7E1A4001EB85
:102DF000C10304EB83035B7E1A4001EBC10304EBC8
:102E000083039B7E1A4001EBC10304EB8303DB7E4B
:102E10001A4001EBC10304EB83031B7F1A4001EB53
:102E2000C10304EB83035B7F1A4001EBC10304EB96
:102E300083039B7F1A4001EBC10304EB8303DB7F19
:102E40001A4001EBC10304EB830393F820301A40CE
:102E500001EBC10304EB830393F821301A4001EB2B
:102E6000C10304EB830393F822301A4001EBC10342
:102E700004EB830393F823301A4002B1012010BD04
:102E80006817002070B52DED0E8B0546B0EE408A18
:102E900000245DE004EB4400400000EE100AB8EEB0
:102EA000C00ADFED2E0A20EE200A10EE101A0846A6
:102EB0002BF0C4FC41EC1E0BB0EE4E0AF0EE6E0A95
:102EC00023F032FCB0EE40CAF0EE60CA18EE100AF1
:102ED0002BF0B4FC53EC1C2B2BF0BAF941EC1A0B81
:102EE00018EE100A2BF0AAFC53EC1A2B2BF0BCFBAB
:102EF0002AF0ACFE1A4941F8240004EB44004000DB
:102F000000EE100AB8EEC00ADFED140A20EE200A27
:102F100010EE101A08462BF091FC41EC1C0BB0EEA1
:102F20004C0AF0EE6C0A23F067FDB0EE40AAF0EE1A
:102F300060AA18EE100A2BF081FC53EC1A2B2BF030
:102F400087F92AF083FE074941F82400601C84B207
:102F5000681C84429EDBBDEC0E8B70BD35FA8E3C46
:102F6000387000202C71002010B53A480088401CB1
:102F7000384908800846008814284CDB0020088067
:102F8000354890F85900012842D134490870002092
:102F900033490870304981F859009FED320A3248B0
:102FA00080ED010A084690ED170A2F4880ED020ACD
:102FB000084690F856109FED2D0A2B4814F058FA49
:102FC0009FED280A2848A83080ED010A224890ED9C
:102FD000180A2548A83080ED020A1F4890F85610BC
:102FE0009FED220A2048A83014F042FA1E4890EDC6
:102FF0000C0AB1EE400A1E4880ED000A1A48A830BB
:1030000090ED0C0AB1EE400A194880ED010A02E089
:1030100001201349087012480078012812D10F4886
:103020000078012806D102200C490870012012F016
:1030300037FF0EE00948007802280AD1002012F07C
:103040002FFF06E00A48D0ED010A90ED000A13F0C8
:103050008FFB10BDE80D00207C630020E70D0020F1
:10306000EA0D002000000000C05F0020CDCCCC3D68
:10307000B00D002023480088401C224908800846E3
:10308000008828283DDB002008801F4890ED090AB1
:10309000D0ED060AB4EE600AF1EE10FA1ED190ED02
:1030A0000A0AD0ED070AB4EE600AF1EE10FA15D163
:1030B00090ED0B0AD0ED080AB4EE600AF1EE10FABA
:1030C0000CD112480088401C10490880084600882E
:1030D0000A2810DD00200E4988700CE00B49088892
:1030E00000EBD0714910094A11801046008810B9D0
:1030F0000120074988700448034618330ECB24305A
:103100000EC07047160A002000280020120A002076
:10311000F80A002010B508F001F80A2001F00CFBB5
:103120000A211E201CF0A6FD1249087008460078EE
:10313000482811D103200870782200211E201CF09D
:10314000ABFD202201211E201CF0A6FD0022022141
:103150001E201CF0A1FD04E015F056FB01200549DE
:1031600008700548F3EE020A9FED040A1CF028FCE3
:1031700010BD00000E0A0020E024002000002042C4
:1031800010B52DED048B82B0044680480088401CA9
:103190007E4908800846008801287DD008460088BE
:1031A00000EE100AB8EE400AF1EE000AB4EEE00AB2
:1031B000F1EE10FA70DB76480078012857D1002133
:1031C0000D201CF057FD8DF8000001210D201CF092
:1031D00051FD8DF8010002210D201CF04BFD8DF8F2
:1031E000020003210D201CF045FD8DF80300042191
:1031F0000D201CF03FFD8DF8040005210D201CF072
:1032000039FD8DF805009DF800009DF8011040EA99
:10321000012000B200EE100AB8EEC00ADFED5D0A30
:1032200080EE201A84ED001A9DF802009DF803102C
:1032300040EA012000B200EE100AB8EEC00ADFED4D
:10324000550A80EE201A84ED011A9DF804009DF8BD
:10325000051040EA012000B200EE100AB8EEC00AE4
:10326000DFED4C0A80EE201A84ED021A83E0032180
:103270001E201CF0FFFC8DF8000004211E201CF015
:10328000F9FC8DF8010005211E201CF0F3FC8DF8DF
:10329000020006211E2000E075E01CF0EBFC8DF81A
:1032A000030007211E201CF0E5FC8DF80400082116
:1032B0001E201CF0DFFC8DF805009DF801009DF834
:1032C000001040EA012000EE100AB8EEC00AB0EE8D
:1032D000408A9DF803009DF8021040EA012000EEAC
:1032E000100AB8EEC00AB0EE409A9DF805009DF8AD
:1032F000041040EA012000EE100AB8EEC00AF0EE19
:10330000408A9FED250AB4EEC08AF1EE10FA05DD81
:103310009FED220A38EE400AB0EE408A9FED1E0A69
:10332000F4EEC08AF1EE10FA05DD9FED1C0A38EECE
:10333000C00AF0EE408A9FED180AB4EEC09AF1EE92
:1033400010FA05DD9FED150A39EE400AB0EE409AFD
:103350009FED130AC8EE000AC4ED000A9FED100AA3
:10336000C8EE800AC4ED010A9FED0D0AC9EE000AFD
:10337000C4ED020A00BF002004490880012002B009
:10338000BDEC048B10BD0020F9E70000140A0020FA
:103390000E0A002000803B4500FEFF4600FF7F47ED
:1033A000004088443EB503460C46002017A52D6812
:1033B000029517A52D68019516A52D680095012584
:1033C0001570012C02D0022C04D101E0002103E091
:1033D000012101E0022100BF00BF032B08D0042B14
:1033E00002D0082B0CD107E002AD6D5C15700AE02D
:1033F00001AD6D5C157006E01DF80150157002E01E
:103400006FF0070000BF00BF3EBD000002010300D7
:1034100007060800242526002DE9F04F06460F4632
:1034200013464FF496784FF01E09DFF884C0DFF89A
:1034300084A041F69A1B0EB9002037E0072F01D176
:10344000322033E0B3F93CE0C64502DA4FEA0941E5
:1034500003E0B3F93CE00EFB0BF181B1B3F838E0C7
:103460000EFB0AF202EB5102B2FBF1F212046245CA
:1034700002D8ACEB020404E04FF4481401E04FF42E
:10348000C804C4F30745642D02DD4FF0640E00E06C
:10349000AE46BEF1320F06DD642D02DD4FF0640E44
:1034A00003E0AE4601E04FF0320E7046BDE8F08F0B
:1034B00033B37500CDCC300010B52DED0E8B044626
:1034C000684890ED130AB0EE408A90ED140AF0EED1
:1034D000408A90ED150AB0EE409A90ED160AF0EE93
:1034E000409A28EE890AB0EE40CA28EE290AF0EE8A
:1034F00040CA28EEA90AB0EE40DA28EE090AF0EE3A
:1035000040DA29EE290AB0EE40EA28EE280AF0EE69
:1035100040EA28EE080AB0EE40AA28EEA80AF0EE2B
:1035200040AA29EE090AB0EE40BA29EEA90AF0EE47
:1035300040BA3AEE2A0A30EE4B0A30EE6B0A84EDBE
:10354000000A3CEE6C0AF0EE000A20EE200A84ED40
:10355000010A3DEE2D0AF0EE000A20EE200A84ED6D
:10356000020A3CEE2C0AF0EE000A20EE200A84ED5E
:10357000030A3AEE6A0A30EE0B0A30EE6B0A84ED6B
:10358000040A3EEE6E0AF0EE000A20EE200A84EDF8
:10359000050A3DEE6D0AF0EE000A20EE200A84EDE9
:1035A000060A3EEE2E0AF0EE000A20EE200A84ED16
:1035B000070A3AEE6A0A30EE4B0A30EE2B0A84ED27
:1035C000080AD0ED170A9FED281A60EE810AB0EEC6
:1035D000600A04F019FE234880ED0A0AD0ED170AAC
:1035E0009FED211A60EE810AB0EE600A04F080FBC4
:1035F0001C4880ED0D0AD0ED180A9FED1B1A60EEF5
:10360000810AB0EE600A04F0FFFD164880ED090A59
:10361000D0ED180A9FED141A60EE810AB0EE600A30
:1036200004F066FB0F4880ED0C0AD0ED190A9FEDFF
:103630000E1A60EE810AB0EE600A04F0E5FD09485A
:1036400080ED0B0AD0ED190A9FED071A60EE810A92
:10365000B0EE600A04F04CFB024880ED0E0ABDECAF
:103660000E8B10BD7428002035FA8E3CF8B564200E
:1036700024F075F94FF4A176AA2028F077FCAB204E
:1036800028F074FC3949087828F070FC37494878EC
:1036900028F06CFC3549887828F068FC3349C878F4
:1036A00028F064FC31490978304A527851402F4A59
:1036B000927851402D4AD27881EA020028F056FCD7
:1036C00000254FF6FF702A49088017E009E02848D6
:1036D0000088401E264908800846008808B9002056
:1036E000F8BD24481EF0F9FA0028F0D021481EF059
:1036F000E3FAC2B228466D1C0DF80020032DE5DB6D
:1037000000242CE0BB2028F031FCDC2028F02EFC2B
:103710001949085D28F02AFC174A611C505C28F002
:1037200025FC1549095D81F0DC01134B621C9A5C94
:1037300081EA020028F01AFC00250DE000BF0D48C8
:103740001EF0CBFA0028FAD00A481EF0B5FAC2B231
:1037500028466D1C0DF80020032DEFDBA41CB4429D
:10376000D0D3DD2028F002FC0120B9E7A805030032
:10377000CA02002000E00040AC05030070B504461A
:1037800015481CF097FC15481CF094FC012005F02E
:10379000A1FC40F2014005F09DFC03214FF04020C8
:1037A00005F020FD1CF05AFB054660232246294601
:1037B0000B481EF09BFA0A481EF0D8FA1021084860
:1037C0001EF0DBFA074906481EF0DBFA40211520FF
:1037D00008F0E8FB70BD0000000800F0001800F0E1
:1037E00000C00040011A020070B5044614481CF0E5
:1037F00061FC14481CF05EFC4FF0011005F06AFCFF
:10380000114805F067FC0321104805F0EBFC1CF0A3
:1038100025FB05466023224629460D481EF066FA20
:103820000B481EF0A3FA102109481EF0A6FA094918
:1038300007481EF0A6FA6021162008F0B3FB70BD01
:10384000010800F0011800F00104010000500040E0
:1038500000D00040391A020070B504461B481CF025
:1038600029FC1B481CF026FC1A481B490860081D4F
:10387000006840F08000091D08600020091F0860F2
:10388000164805F027FC164805F024FCC021154811
:1038900005F0A8FC1CF0E2FA054660232246294602
:1038A00011481EF023FA10481EF060FA10210E484D
:1038B0001EF063FA12F06CFD0C490B481EF061FA21
:1038C0008021312008F06EFB70BD0000030800F07D
:1038D000021800F04B434F4C2075004001180300C4
:1038E000011C03000070004000E000406D1A02005F
:1038F00010B515481CF0DEFB14481CF0DBFB144827
:1039000005F0E8FB134805F0E5FBC021124805F07F
:1039100069FC1CF0A3FA044660234FF47A32214676
:103920000E481EF0E3F90D481EF020FA10210B4856
:103930001EF023FA0A4909481EF023FA40214B20C1
:1039400008F030FB10BD0000020800F0031800F082
:1039500001180200011C02000060004000F000405D
:10396000E91A020070B504460D461B4805801B4845
:103970001CF0A0FB1A481CF09DFB1A481A4908606D
:10398000081D006840F08000091D08600020091F24
:103990000860164805F09EFB154805F09BFB30219A
:1039A000144805F01FFC1CF059FA06466023224615
:1039B000314611481EF09AF90F481EF0D7F9102130
:1039C0000D481EF0DAF90D490B481EF0DAF92021F6
:1039D0004E2008F0E7FA70BDEA030020030800F06B
:1039E000061800F04B434F4C2075004001100300B7
:1039F000011403000070004000200140511B020030
:103A000010B577495A2019F062FE7549086820F010
:103A10000041C1F1FF41C90F002970D1704890EDFC
:103A2000000ABCEEC00A10EE100A6E490870084683
:103A3000007801282FD16C481CF03CFB6B481CF02F
:103A400039FB6B4805F046FB6A4805F043FB032150
:103A5000694805F0C7FB1CF001FA044660234FF4E7
:103A60001652214665481EF041F965481AF0F5FDE9
:103A700062481EF07BF9102160481EF07EF9614912
:103A80005E481EF07EF960214F2008F08BFA01207D
:103A90005D490880A2E053480078022830D152489E
:103AA0001CF008FB51481CF005FB514805F012FBC7
:103AB000504805F00FFB03214F4805F093FB1CF025
:103AC000CDF9044660234FF4E13221464B481EF005
:103AD0000DF94B481AF0C1FD48481EF047F9102176
:103AE00046481EF04AF9474944481EF04AF9602109
:103AF0004F2008F057FA0120434908806EE03EE06D
:103B00003848007803282FD137481CF0D3FA3748BB
:103B10001CF0D0FA364805F0DDFA364805F0DAFA3E
:103B20000321354805F05EFB1CF098F9044660233C
:103B30004FF46122214631481EF0D8F830481AF07F
:103B40008CFD2E481EF012F910212C481EF015F99C
:103B50002C492A481EF015F960214F2008F022FA5E
:103B600001202949088039E01E480078042835D111
:103B70002548008890BB25481EF0A4FD2EE01A4879
:103B80001CF098FA19481CF095FA194805F0A2FAA9
:103B9000184805F09FFA0321174805F023FB1CF095
:103BA0005DF9044660234FF41652214613481EF077
:103BB0009DF813481AF051FD10481EF0D7F8102157
:103BC0000E481EF0DAF80F490C481EF0DAF86021B2
:103BD0004F2008F0E7F901200B49088010BD0000D4
:103BE0008C0800208A080020040800F0071800F064
:103BF00001000400010404000040024000300140C4
:103C00001E2F00200D1C0200EC0300202439002090
:103C100010B5044614481CF04DFA14481CF04AFA3A
:103C2000134805F057FA134805F054FA30211248AA
:103C300005F0D8FA052111481EF055F8104A214622
:103C400000201EF0B3F80D481EF090F810210B482C
:103C50001EF093F80B4909481EF093F840214C20C0
:103C600008F0A0F910BD0000020800F0041800F0F0
:103C70000110020001140200006000400000014039
:103C80000024F400211B020070B52DED028BB0EE74
:103C9000408A04460D4694ED030AB5EEC00AF1EEE3
:103CA00010FA33D194ED040AB5EEC00AF1EE10FA21
:103CB0002CD194ED050AB5EEC00AF1EE10FA25D12B
:103CC00094ED000AB5EEC00AF1EE10FA1ED194EDA3
:103CD000010AB5EEC00AF1EE10FA17D194ED020A0E
:103CE000B5EEC00AF1EE10FA10D184ED038A84ED2E
:103CF000048A84ED058A84ED008A84ED018A84EDCE
:103D0000028AB0EE480ABDEC028B70BD84ED028AD7
:103D100095ED030AD4ED020A20EE200AD5ED040A3F
:103D200094ED011A00EE810AD5ED050A94ED001A12
:103D300000EE810AD5ED010A94ED041A00EEC10AE5
:103D4000D5ED020A94ED031A00EEC10A84ED050ACE
:103D500094ED010A84ED000A94ED020A84ED010A53
:103D600094ED040A84ED030A94ED050A84ED040A37
:103D7000002628E004F10C0000EB860090ED000A1C
:103D800010EE101A084622F0AEF801280AD004EB13
:103D9000860090ED000A10EE101A084622F0A3F8F3
:103DA00001280ED184ED038A84ED048A84ED058A0E
:103DB00084ED008A84ED018A84ED028AB0EE480A1F
:103DC000A1E7701C86B2032ED4DB94ED050A9AE7B6
:103DD0003EB527F02DF81DF013FAFE4800880128A3
:103DE0007DD1FD48007801287AD1FC48B0F9000067
:103DF000B0F57A7F15DCFA48B0F90000B0F57A7FAB
:103E00000FDCF848B0F90000B0F57A7F09DCF6481D
:103E1000B0F90000B0F57A7F03DC6420F349088034
:103E200013E0F348007880B90020EA4908800821AF
:103E3000F04A0346B6EE000ACDE900210290C822FE
:103E400040F6B831EC48FEF7DCF9EC480088401C3D
:103E5000EA4908800846008804280BDBE34800880C
:103E6000012804DBE1480088401EE049088000206A
:103E7000E2490880DD480088C0F1640064214843BD
:103E800090FBF1F000F57A7000B2DD490880D74868
:103E90000088C0F164006421484390FBF1F000F514
:103EA0007A7000B2D7490880D0480088C0F1640019
:103EB0006421484390FBF1F000F57A7000B2D249DA
:103EC0000880CA480088C0F164006421484390FB20
:103ED000F1F000F57A7000B2CC49088001E0D1E140
:103EE00006E01CF053FD12F0EFFB12F017F8D7E1DB
:103EF000C748007802287DD1C648008800EE100A25
:103F0000B8EE400AF7EE000A20EE200AC248D0EDD3
:103F10008A0ABFEE001A01EE200AD0ED360AB7EE8B
:103F2000001A01EE200AD0EDDE0ABFEE001A01EE03
:103F3000200ABDEEC00A10EE100A00B2B049088097
:103F4000B448008800EE100AB8EE400AF7EE000A06
:103F500020EE200AB048D0ED8A0AB7EE001A01EE32
:103F6000200AD0ED360ABFEE001A01EE200AD0ED8D
:103F7000DE0ABFEE001A01EE200ABDEEC00A10EE06
:103F8000100A00B29F490880A248008800EE100A7B
:103F9000B8EE400AF7EE000A20EE200A9E48D0ED67
:103FA0008A0AB7EE001A01EE200AD0ED360AB7EE03
:103FB000001A01EE200AD0EDDE0AB7EE001A01EE7B
:103FC000200ABDEEC00A10EE100A00B28E49088029
:103FD0009048008800EE100AB8EE400AF7EE000A9A
:103FE00020EE200A8C48D0ED8A0ABFEE001A01EEBE
:103FF000200A00E03FE0D0ED360ABFEE001A01EEE5
:10400000200AD0EDDE0AB7EE001A01EE200ABDEE5E
:10401000C00A10EE100A00B27C4908807848B0F956
:10402000002040F6C41140F24C4021F089FC744954
:1040300008807448B0F9002040F6C41140F24C40AA
:1040400021F07EFC6F4908806F48B0F9002040F6EF
:10405000C41140F24C4021F073FC6B4908806B485E
:10406000B0F9002040F6C41140F24C4021F068FC49
:104070006649088005E16948008840F21A41884293
:104080007DDB6448008800EE100AB8EE400AF7EEC7
:10409000000A20EE200A6048D0ED8A0ABFEE001A1E
:1040A00001EE200AD0ED360AB7EE001A01EE200A22
:1040B000D0EDDE0ABFEE001A01EE200ABDEEC00A06
:1040C00010EE100A00B24E4908805248008800EEF7
:1040D000100AB8EE400AF7EE000A20EE200A4E4819
:1040E000D0ED8A0AB7EE001A01EE200AD0ED360AAA
:1040F000BFEE001A01EE200AD0EDDE0ABFEE001A74
:1041000001EE200ABDEEC00A10EE100A00B23D49D1
:1041100008804048008800EE100AB8EE400AF7EE2A
:10412000000A20EE200A3C48D0ED8A0AB7EE001AB9
:1041300001EE200AD0ED360AB7EE001A01EE200A91
:10414000D0EDDE0AB7EE001A01EE200ABDEEC00A7D
:1041500010EE100A00B22C4908802E48008800EEAC
:10416000100AB8EE400AF7EE000A20EE200A2A48AC
:10417000D0ED8A0ABFEE001A01EE200A00E013E03B
:10418000D0ED360ABFEE001A01EE200AD0EDDE0AAD
:10419000B7EE001A01EE200ABDEEC00A10EE100ABA
:1041A00000B21A4908803DE01A48008800B214495C
:1041B00008801848008800B2124908801548008815
:1041C00000B2114908801348008800B20F490880E6
:1041D00026E0000024030020A70C0020220E00206F
:1041E000240E0020260E0020280E00203E0E002067
:1041F000A60C0020005002409C1800203C0E00201D
:104200001A0E00201C0E00201E0E0020200E002082
:104210002A0E00203A0E002098540020380E00206C
:104220001CF0B4FB4448B0F9002040F6C41140F241
:104230004C4021F085FB404908804048B0F90020FF
:1042400040F6C41140F24C4021F07AFB3B49088013
:104250003B48B0F9002040F6C41140F24C4021F038
:104260006FFB374908803748B0F9002040F6C41189
:1042700040F24C4021F064FB324908801DF0E0F828
:1042800000BF0DE04FF47A702B4908802B4908805D
:104290002B4908802B4908801CF078FB11F03EFE6A
:1042A0002548B0F90000284908802448B0F90000EA
:1042B000264908802248B0F9000025490880214895
:1042C000B0F90000234908801B48B0F9002040F6EF
:1042D0009801002021F034FB174908801748B0F9F5
:1042E000002040F69801002021F02AFB13490880A5
:1042F0001348B0F9002040F69801002021F020FB7F
:104300000F4908800F48B0F9002040F698010020BE
:1043100021F016FB0B4908800C462488A3B2084CF8
:104320002488A2B2054C2488A1B2034C2488A0B2F0
:1043300013F0E2FE3EBD00001A0E00201C0E00200D
:104340001E0E0020200E0020220E0020240E002031
:10435000260E0020280E002070B5C5480078C549FB
:104360000870C5480078C5490870C5480078C54937
:104370000870C548B0F85010B0F85600081AC34984
:104380000989884203DC0220B94908700CE0BE4864
:10439000B0F85210B0F856000844BC490989884268
:1043A00002DB0120B2490870B748B0F86010B0F8DD
:1043B0006600081AB5494989884206DC0120B449DB
:1043C0000870B44981F83D0009E00FF0FFFD23F0CB
:1043D000A7FF0020AE490870AE4981F83D00AA4908
:1043E000B1F8A60019F024F90446A749B1F8A800CD
:1043F00019F01EF90546A84890F84700A64981F82B
:104400004800A6480078012804D0022803D00328D9
:1044100072D16BE000BFBCB90120A149087025F042
:1044200011FEA04948609FEDA00AA04880ED010A56
:104430009FED9D0AA0F5A87080ED010A02F076FEBE
:1044400000209B49087029E0012C12D125F0FAFDCB
:1044500094490860084600684968401A9149886094
:1044600008468068B0F57A7F18D302208C4908701E
:1044700014E001208A49087025F0E4FD894948606C
:104480009FED890A894880ED010A9FED870AA0F512
:10449000A87080ED010A002085490870022C03D124
:1044A00002207749087003E014B9012074490870AC
:1044B0007B4800787F49087015B1022D0CD107E0C8
:1044C00001206D49087012F0FFF811F027FD0BE094
:1044D00002206949087007E001206749087012F05E
:1044E000F3F811F01BFD00BF00BF36E02CB1012C2A
:1044F00020D0022C2BD126E02BE015B1022D0CD1BF
:1045000007E001205C49087012F0DEF811F006FDAA
:104510000BE002205849087007E001205649087056
:1045200012F0D2F811F0FAFC00BF00BF012054498C
:1045300008700CE00120584981F847004E49087086
:104540004F49087003E002204D49087000BF00BFCA
:1045500003E001204849087000BF00BF56480088AA
:1045600001280DD11CF0BCFD5449087008460078A4
:10457000022803D100205049088001E01CF006FA0F
:104580003F4800783F49097888420BD04C4890ED6D
:10459000000A4C4880EDFD0A39480078012801D115
:1045A00025F088F9324800783249097888420CD0E1
:1045B0002F480078022802D10120434908702C4876
:1045C0000078012801D1404908702B4800782B4918
:1045D0000978884202D002203B4908703A480078A6
:1045E000012811D122480078022809D137480088D3
:1045F00037490880324890ED000A324880EDFD0AC4
:1046000000203149087006E02F480078022802D1C6
:1046100000202D49087022480078022826D124481D
:10462000007818BB05F0E0F988B1254890ED020A42
:104630001E4880ED010A224890ED010A254880EDD0
:10464000010A02F073FD0120194908700EE09FED88
:10465000160A164880ED010A9FED130A1D4880EDE9
:10466000010A02F063FD00201149087070BD0000CE
:104670002A0E00202B0E00202C0E00202D0E0020D4
:10468000300E0020310E0020B0260020A42500208E
:104690002E0E0020F4620020C8380020F40E002006
:1046A000320E00203463002000000000285B002050
:1046B000340E0020330E002030030020200D002097
:1046C000084C002098540020350E002006030020DE
:1046D000360E0020D859002001460A1F102A1BD28E
:1046E000DFE802F00E0C101216181A1A141A1A1A11
:1046F0001A1A080A0A2011E006200FE004200DE033
:1047000002200BE0012009E0072007E0092005E076
:10471000032003E0002001E0FF2000BF00BF70473E
:1047200007E0022101E04A1E91B20029FBD1421E9E
:1047300090B20028F5D1704710B50446204623F00A
:10474000F9F810BD00B52DED048B83B09FEDFE0A86
:10475000B0EE408A9FEDFC0AF0EE408A9FEDFA0A27
:10476000B0EE409AF948FA49097830F8110000286B
:104770004BD123F083F823F0FFF89FEDF60AF648BB
:1047800080ED020A90ED000AB0EE408A90ED010A39
:10479000F0EE408A9FEDEF0AB0EE409A8DED008A70
:1047A000CDED018A8DED029ADDED021AB0EE611AAF
:1047B000DDED011AF0EE610ADDED001AB0EE610ADE
:1047C0000121084606F0D2FB0120E049E04A1278B8
:1047D00021F812000020E149DD4A127841F8220058
:1047E0004FF47A70DE49DA4A127841F8220001204B
:1047F000DC4988704CF250300880C82048619FED39
:10480000DA0A084680ED060A17E2D048D04909784E
:1048100030F81100012864D123F030F8D048CC4999
:10482000097850F8210050B1CD48C949097850F8AD
:104830002100401ECA49C64A127841F82200C848E1
:10484000C349097850F821000028DDD1C74890ED10
:10485000000AD0ED010A20EE200AB0EE408A90ED69
:10486000000AD0ED020A20EE200AF0EE408A9FED09
:10487000B90AB0EE409AB84890ED000A30EE080A46
:104880008DED000A90ED010A30EE280A8DED010A47
:104890008DED029ADDED021AB0EE611ADDED011A1E
:1048A000F0EE610ADDED001AB0EE610A0121084662
:1048B00006F05CFBA548A649097830F81100401CB9
:1048C000A249A34A127821F812000020A349A04A65
:1048D000127841F82200A2499D4A127841F822003C
:1048E00092E79A489A49097830F8110002287BD15A
:1048F00022F0C4FF99489649097850F8210005280C
:104900002BD29B4890ED011AF0EE410A90ED001A6F
:10491000B0EE410A26F03EFBF0EE409AB1EE040AFA
:10492000F4EEC09AF1EE10FA0BD88C488849097859
:1049300050F82100401C8949854A127841F822002C
:104940000AE086488249097850F8210040088349E6
:104950007F4A127841F8220056E7844890ED000A19
:10496000D0ED010A20EE200AB0EE408A90ED000A58
:10497000D0ED020A20EE200AF0EE408A9FED7D0A7B
:10498000B0EE409A744890ED000A30EE080A8DEDC2
:10499000000A90ED010A30EE280A8DED010A8DED36
:1049A000029ADDED021AB0EE611ADDED011AF0EEA9
:1049B000610ADDED001AB0EE610A0121084606F039
:1049C000D5FA62486249097830F81100401C5F4905
:1049D0005F4A127821F81200002160485C4A127880
:1049E00040F8221010E7FFE758485949097830F895
:1049F0001100032852D122F041FF58485449097848
:104A000050F82100B0F5C87F2ED25B4890EDFF0A28
:104A1000B5EEC00AF1EE10FA02DD90EDFF0A04E0F7
:104A2000554890EDFF0AB1EE400AF2EE040AB4EEEA
:104A3000E00AF1EE10FA0BD848484549097850F8D9
:104A40002100401C4549424A127841F82200DBE629
:104A500042483F49097850F8210040083F493C4A04
:104A6000127841F82200CFE638483949097830F801
:104A70001100401C81B23548354A127820F81210D6
:104A800000203649324A127841F822004FF49660ED
:104A900033492F4A127841F82200B5E62B482C49B9
:104AA000097830F81100042879D1FEF75DFA00206A
:104AB000324981F83000324890ED260A084680EDF0
:104AC000060ADFED210A9FED200A002003F0A8FD71
:104AD00023481F49097850F8210070B120481C492B
:104AE000097850F82100401E1D49194A127841F8F2
:104AF00022004FF4FA6019F0A3FC19481449097810
:104B000050F821000028A2D140F2DC5019F098FCA6
:104B10000E480F49097830F81100401C0B490C4A27
:104B2000127821F8120000200C49094A127841F845
:104B300022004FF47A700A49054A127841F822009F
:104B4000C8201049486120E000000000706D00207E
:104B5000A0100020000016432C700020D46D00200F
:104B60009C6E00205C3F002048E17A3FD008002086
:104B7000A00D00200000A04298540020F462002004
:104B8000B0260020783F002009E0B6EE000A084673
:104B900080ED060A01208870042008804DE0F84866
:104BA000F849097830F81100052847D1FEF7DCF9FB
:104BB0000020F54981F83000F44890ED260A0846B7
:104BC00080ED060A5FED200A1FED210A002003F0A8
:104BD00027FDEF48EB49097850F8210050B1EC4827
:104BE000E849097850F82100401EE949E54A127861
:104BF00041F82200E648E349097850F821000028EE
:104C0000CCD1012011F04CF9DD48DE49097830F8AB
:104C10001100401C81B2DA48DA4A127820F81210EA
:104C20000021DC48D74A127840F8221040F2C440F4
:104C3000D749D44A127841F8220050E2D048D149ED
:104C4000097830F8110006286ED122F017FED048FE
:104C5000CC49097850F8210070B1CD48C94909788C
:104C600050F82100401ECA49C64A127841F8220075
:104C70004FF47A7019F0E4FBC548C249097850F83E
:104C8000210000288AD140F2DC5019F0D9FBC2483B
:104C900090ED000AD0ED010A20EE200AB0EE408A25
:104CA00090ED000AD0ED020A20EE200AF0EE408AD4
:104CB0001FED580AB0EE409AB84890ED000A30EE69
:104CC000080A8DED000A90ED010A30EE280A8DEDFC
:104CD000010A8DED029ADDED021AB0EE611ADDEDEA
:104CE000011AF0EE610ADDED001AB0EE610A012151
:104CF000084606F03BF9A248A249097830F81100AD
:104D0000401C9F499F4A127821F812000020A149B7
:104D10009C4A127841F822004FF47A719C48994AD3
:104D2000127840F82210B7E395489649097830F890
:104D3000110007287ED122F0A1FD964891490978FB
:104D400050F82100C8282ED2954890EDFF0AB5EE04
:104D5000C00AF1EE10FA02DD90EDFF0A04E090487F
:104D600090EDFF0AB1EE400AF2EE040AB4EEE00A5A
:104D7000F1EE10FA0BD887488249097850F82100E3
:104D8000401C84497F4A127841F8220084E381481C
:104D90007C49097850F8210040087E49794A127808
:104DA00041F8220078E37C4890ED000AD0ED030A38
:104DB00020EE200AB0EE408A90ED000AD0ED040A01
:104DC00020EE200AF0EE408A1FED9E0AB0EE409AD7
:104DD000724890ED000A30EE080A8DED000A90ED61
:104DE000010A30EE280A8DED010A8DED029ADDED03
:104DF000021AB0EE611ADDED011AF0EE610ADDED86
:104E0000001AB0EE610A0121084606F0AFF85C48CE
:104E10005C49097830F81100401C5949594A127808
:104E200021F8120000205B49564A127841F822000E
:104E3000574900E004E0534A127841F822002BE37E
:104E40004F485049097830F8110008287CD122F0E9
:104E500015FD50484B49097850F8210005282BD200
:104E6000504890ED011AF0EE410A90ED001AB0EEB4
:104E7000410A26F08FF8F0EE409AB1EE040AF4EE03
:104E8000C09AF1EE10FA0BD842483E49097850F822
:104E90002100401C3F493B4A127841F822000AE0B9
:104EA0003C483849097850F8210040083949354ACA
:104EB000127841F82200EFE2374890ED000AD0ED79
:104EC000030A20EE200AB0EE408A90ED000AD0EDF1
:104ED000040A20EE200AF0EE408A1FEDDA0AB0EE56
:104EE000409A2E4890ED000A30EE080A8DED000A37
:104EF00090ED010A30EE280A8DED010A8DED029A3F
:104F0000DDED021AB0EE611ADDED011AF0EE610A74
:104F1000DDED001AB0EE610A0121084606F026F820
:104F200017481849097830F81100401C81B214481C
:104F3000144A127820F8121000201649114A1278EB
:104F400041F82200A8E2FFE70D480E49097830F841
:104F50001100092865D122F091FC0E480949097811
:104F600050F82100C82843D20D4890EDFF0AB5EE55
:104F7000C00AF1EE10FA17DD90EDFF0A19E000000B
:104F8000706D0020A0100020F4620020B0260020E8
:104F90009C6E0020D46D0020D00800202C700020D2
:104FA00098540020A00D0020FE4890EDFF0AB1EEBD
:104FB000400AF2EE040AB4EEE00AF1EE10FA0BD861
:104FC000F948FA49097850F82100401CF649F74A97
:104FD000127841F822005FE2F348F449097850F86A
:104FE00021004008F049F14A127841F8220053E2CA
:104FF000EF48EE49097830F81100401CEC49EB4AC3
:10500000127821F812000021E748E84A127840F8A7
:1050100022104FF49661E748E44A127840F82210D3
:105020003AE2E348E149097830F811000A2857D1FB
:10503000FDF79AFF0020E04981F83000DF4890ED4D
:10504000260A084680ED060ADFEDDD0A9FEDDC0A40
:10505000002003F0E5FAD748D449097850F8210038
:1050600070B1D448D149097850F82100401ED14987
:10507000CE4A127841F822004FF4FA6019F0E0F9B4
:10508000CC48CA49097850F821000028A3D140F241
:10509000DC5019F0D5F9C648C449097830F8110038
:1050A000401CC349C14A127821F812000020BE49B1
:1050B000BE4A127841F822004FF47A70BD49BB4ACB
:1050C000127841F82200C820BE494861B6EE000AB5
:1050D000084680ED060A0120887004200880DBE184
:1050E000B348B249097830F811000B2846D1FDF7D2
:1050F0003BFF0020B04981F83000B04890ED260A0F
:10510000084680ED060ADFEDAE0A9FEDAD0A0020ED
:1051100003F086FAA748A549097850F8210050B154
:10512000A448A249097850F82100401EA1499F4A8D
:10513000127841F822009F489C49097850F82100D4
:105140000028CCD1012010F0ABFE9948974909788E
:1051500030F81100401C9649944A127821F8120048
:1051600000209149914A127841F8220040F2C4404F
:1051700090498E4A127841F822008DE18C488B4983
:10518000097830F811000C286DD122F077FB89489E
:105190008649097850F8210070B18648834909781A
:1051A00050F82100401E8349804A127841F82200BD
:1051B0004FF47A7019F044F97E487C49097850F828
:1051C000210000288BD140F2DC5019F039F97E48DB
:1051D00090ED000AD0ED030A20EE200AB0EE408ADE
:1051E00090ED000AD0ED040A20EE200AF0EE408A8D
:1051F0009FED760AB0EE409A754890ED000A30EEC9
:10520000080A8DED000A90ED010A30EE280A8DEDB6
:10521000010A8DED029ADDED021AB0EE611ADDEDA4
:10522000011AF0EE610ADDED001AB0EE610A01210B
:10523000084605F09BFE5E485C49097830F811008D
:10524000401C5B49594A127821F812000021564847
:10525000564A127840F8221000205649534A1278D4
:1052600041F8220018E152485049097830F81100FD
:105270000D286DD122F002FB4B484C49097850F8BB
:105280002100C8282ED2474890EDFF0AB5EEC00A8B
:10529000F1EE10FA02DD90EDFF0A04E0414890EDD6
:1052A000FF0AB1EE400AF2EE040AB4EEE00AF1EEB3
:1052B00010FA0BD83C483D49097850F82100401CB1
:1052C00039493A4A127841F82200E5E03648374930
:1052D000097850F8210041083348344A127840F8E0
:1052E0002210D9E03A4890ED000A8DED000A90EDC9
:1052F000010A8DED010A9FED350A8DED020ADDED03
:10530000021AB0EE611ADDED011AF0EE610ADDED70
:10531000001AB0EE610A0121084605F027FE244874
:105320002249097830F81100401C81B220481F4AF8
:10533000127820F8121000211B481C4A127840F8FD
:10534000221000201B49194A127841F82200A3E0DC
:1053500017481649097830F811000E287ED122F03E
:105360008DFA11481149097850F82100052846D2D4
:10537000184890ED011AF0EE410A90ED001AB0EED7
:10538000410A25F007FEF0EE409AB1EE040AF4EE71
:10539000C09AF1EE10FA26D803480449097850F86B
:1053A000210019E098540020D46D0020A0100020A6
:1053B000706D00209C6E0020F4620020B02600205A
:1053C00000000000783F0020D008002000001643B5
:1053D0002C700020A00D0020401C3149314A127869
:1053E00041F822000AE02E482E49097850F82100A1
:1053F00040082B492B4A127841F822004CE02A48F9
:105400002849097830F81100401C81B22648254A05
:10541000127820F8121000202149224A127841F80F
:105420002200002121481F4A127840F8221004204F
:105430001F4908701FED1E0A1E4880ED010A1FED6E
:10544000200A80ED020A1FED220A1B4880ED000AA7
:105450001FED250A80ED010A1EE0FFE71248114901
:10546000097830F811000F2814D10020134981F871
:105470003000134890ED260A084680ED060A002009
:1054800010F00EFDFBEE0E0A1FED330A022003F0B2
:10549000C7F801E022F0F2F903B0BDEC048B00BDC7
:1054A000D46D0020A0100020706D00209C6E0020A4
:1054B000320A002084690020980D0020F462002048
:1054C000B026002000B52DED048B83B09FEDFE0AC1
:1054D000B0EE408A9FEDFC0AF0EE408A9FEDFA0A9A
:1054E000B0EE409AF948FA49097830F811000028DE
:1054F0007BD122F041FAF74890ED090AF64880ED99
:10550000000AF44890ED0A0AF44880ED000AF148D8
:1055100090ED0B0AF24880ED000AD0ED000A9FEDF5
:10552000F11A60EE810AB0EE600A21F0C9FAEA4889
:10553000D0ED000A9FEDEC1A41EE000AEB48C0EDF9
:10554000000AE748D0ED000A9FEDE61A60EE810AF6
:10555000B0EE600A21F04CF9E048D0ED000A9FED72
:10556000E21A41EE400AE248C0ED000ADC48D0ED04
:10557000000A9FEDDC1A60EE810AB0EE600A21F0AD
:105580009FFAD548D0ED000A9FEDD71A41EE400AA8
:10559000D648C0ED010AD248D0ED000A9FEDD11ADD
:1055A00060EE810AB0EE600A21F022F9CB48D0ED1E
:1055B000000A9FEDCD1A41EE000ACD48C0ED010A68
:1055C000C74890ED000ADFEDCB0AB4EEE00AF1EE39
:1055D00010FA16D89FEDBC0AC74880ED000A9FED6F
:1055E000C70AC74880ED000A00E05BE09FEDC50AEE
:1055F000C14880ED010A9FEDC10AC14880ED010A52
:1056000013E09FEDB10ABC4880ED000A9FEDBE0A91
:10561000BB4880ED000A9FEDBB0AB74880ED010A48
:105620009FEDB90AB64880ED010A22F027F99FEDF7
:10563000B70AB74880ED020A90ED000AB0EE408A42
:1056400090ED010AF0EE408A9FEDB00AB0EE409A6C
:105650008DED008ACDED018A8DED029ADDED021A05
:10566000B0EE611ADDED011AF0EE610ADDED001A0F
:10567000B0EE610A0121084605F078FC012193484B
:10568000934A127820F812100021A248904A12780A
:1056900040F822104FF4C8719F488D4A127840F8A4
:1056A0002210D1E389488A49097830F8110001288D
:1056B0005DD122F0E3F898488549097850F8210037
:1056C00050B195488249097850F82100401E92490E
:1056D0007F4A127841F822008F487D49097850F8B6
:1056E00021000028DDD1844890ED000AB0EE408A08
:1056F000834890ED000AF0EE408A9FED840AB0EEF8
:10570000409A834890ED000A30EE080A8DED000AB9
:1057100090ED010A30EE280A8DED010A8DED029A16
:10572000DDED021AB0EE611ADDED011AF0EE610A4C
:10573000DDED001AB0EE610A0121084605F016FC05
:1057400062486349097830F81100401C5F49604A9B
:10575000127821F8120000206E495D4A127841F853
:1057600022006D495A4A127841F822006CE35748EA
:105770005749097830F81100022874D122F07EF8D8
:1057800064485349097850F8210005282BD2634812
:1057900090ED011AF0EE410A90ED001AB0EE410AC8
:1057A00025F0F8FBF0EE409AB1EE040AF4EEC09A50
:1057B000F1EE10FA0BD857484549097850F8210006
:1057C000401C5449424A127841F822000AE05148EC
:1057D0003F49097850F8210041084E483C4A127868
:1057E00040F8221030E3444890ED010AB0EE408AC0
:1057F000434890ED010AF0EE408A9FED440AB0EE76
:10580000409A434890ED000A30EE080A8DED000AF8
:1058100090ED010A30EE280A8DED010A8DED029A15
:10582000DDED021AB0EE611ADDED011AF0EE610A4B
:10583000DDED001AB0EE610A0121084605F096FB85
:1058400022482349097830F81100401C1F49204A9A
:10585000127821F8120000202E491D4A127841F8D2
:105860002200F1E2FFE719481949097830F81100E0
:10587000032875D122F002F826481549097850F816
:105880002100052858D2254890ED011AF0EE410A72
:1058900090ED001AB0EE410A25F07CFBF0EE409A44
:1058A000B1EE040AF4EEC09AF1EE10FA38D81948B5
:1058B0000749097850F82100401C1649044A12781B
:1058C00041F8220037E0000000000000706D002069
:1058D000A2100020D0080020A4100020A810002052
:1058E000AC10002035FA8E3C0000DC427C10002019
:1058F000841000200000B442B0100020000048C214
:10590000B81000200000AF4300009643000016438B
:105910002C700020D46D00209C6E0020A00D002073
:10592000FD48FE49097850F821004008FA49FB4A31
:10593000127841F8220087E2F948F849097830F8EE
:105940001100401C81B2F648F44A127820F8121077
:105950000020F149F14A127841F8220074E2FFE791
:10596000EF48EE49097830F81100042821D10120D0
:10597000EC4981F8300081F83100EB4890ED000AE5
:10598000084680ED060A002010F08AFA5FED320A20
:105990001FED330A002002F043FEE148DF49097899
:1059A00030F81100401CDE49DC4A127821F8120060
:1059B0004AE2DB48D949097830F81100052824D19A
:1059C0000120D84981F83000D74890ED000A0846F8
:1059D00080ED060A002010F063FA5FED450A1FED26
:1059E000460A002002F01CFECE4890F83200012842
:1059F000A1D1CB48C949097830F81100401CC849E9
:105A0000C64A127821F812001EE2C548C349097837
:105A100030F81100062840D121F030FFC34890ED46
:105A2000000AB0EE408AC24890ED000AF0EE408ACB
:105A30001FED4A0AB0EE409ABE4890ED000A30EEE3
:105A4000080A8DED000A90ED010A30EE280A8DED6E
:105A5000010A8DED029ADDED021AB0EE611ADDED5C
:105A6000011AF0EE610ADDED001AB0EE610A0121C3
:105A7000084605F07BFAAA48A849097830F81100D1
:105A8000401CA749A54A127821F812000020A2491B
:105A9000A24A127841F82200D6E1A1489F4909782C
:105AA00030F81100072874D121F0E8FE9A489B498C
:105AB000097850F8210005282BD29F4890ED011A53
:105AC000F0EE410A90ED001AB0EE410A25F062FABC
:105AD000F0EE409AB1EE040AF4EEC09AF1EE10FA3C
