:020000040800F2
:100000007807002041120008C5060008C70600084E
:10001000CB060008CF060008D30600080000000049
:10002000000000000000000000000000D7060008EB
:10003000D906000800000000DB060008DD06000805
:100040005B1200085B1200085B1200085B120008DC
:100050005B1200085B1200085B1200085B120008CC
:100060005B1200085B1200085B1200085B120008BC
:100070005B1200085B1200085B1200085B120008AC
:100080005B1200085B1200085B1200085B1200089C
:100090005B1200085B1200085B1200085B1200088C
:1000A0005B1200085B1200085B1200085B1200087C
:1000B0005B120008DB0F00085B1200085B120008EF
:1000C0005B1200085B1200085B1200085B1200085C
:1000D0005B120008B51100085B1200085B120008F3
:1000E0005B1200085B1200085B1200085B1200083C
:1000F0005B1200085B1200085B1200085B1200082C
:100100005B1200085B1200085B1200085B1200081B
:100110005B1200085B1200085B1200085B1200080B
:100120005B1200085B1200085B1200085B120008FB
:1001300000F002F800F042F80AA090E8000C8244B7
:100140008344AAF10107DA4501D100F037F8AFF294
:10015000090EBAE80F0013F0010F18BFFB1A43F0A5
:1001600001031847E833000008340000103A24BFA8
:1001700078C878C1FAD8520724BF30C830C144BF0C
:1001800004680C607047000000230024002500264E
:10019000103A28BF78C1FBD8520728BF30C148BFEA
:1001A0000B607047752902F0EF87732903F03381E4
:1001B000002070471FB51FBD10B510BD03F05EF9DC
:1001C0001146FFF7F7FF00F018F803F07CF903B4CD
:1001D000FFF7F2FF03BC00F093FF000070B5044688
:1001E0004FF4FA60B4FBF0F000F007050120A840DE
:1001F000C6B2284600F082FE70BD1FB5002700245D
:10020000A046A146A24600F011FF4FF4A06001F005
:1002100037F84FF4E13000F081FF9EA002F058FF64
:10022000A7A002F055FF00F04BFB00F06DFB00F0C3
:100230008BFE00F0B5FB00F040FD41F61F410920A8
:1002400000F09EFEA6A002F043FFA9A002F040FF2E
:10025000AFA002F03DFFBB4B0FCB8DE80F00002598
:1002600020E05DF825202946B7A002F031FF0026E6
:1002700011E03146284600F048FE3146B9A002F0B0
:1002800027FF042E02D1B9A002F022FFC82000F0FF
:100290000AFF701CC6B2092EEBDD94A002F018FF15
:1002A000681CC5B2042DDCDBB2A002F011FFB6A0C1
:1002B00002F00EFF40F2D24000F07FFD0120B8496D
:1002C0000860B849C1F8840141F2883000F0EBFEC3
:1002D000B5A002F0FDFE0020BC490860BC490860E2
:1002E000BC4908604FF00108D3E0002000F01CFB7F
:1002F0008146B6480068322849D30821084600F0F4
:10030000A8FB0746384600F0BBFB0446B8F1010FD6
:1003100003D1204600F0B1FD02E0384600F04DFD6B
:10032000B4F57A7F03D340F6C410844201D901208A
:1003300000E000208246BAF1000F17D0A6480078EE
:10034000A0B94FF47A70B4FBF0F100FB11400A2120
:10035000B0FBF1F54FF47A70B4FBF0F62A46314663
:100360009EA002F0B5FE0020A94908709A4880F8C6
:1003700000A0007840B9A648007810B1A5A002F00E
:10038000A7FE0020A249087000209049086091480B
:100390000068B0F57A7F23D34FF47A70B4FBF0F1A4
:1003A00000FB11400A21B0FBF1F54FF47A70B4FB69
:1003B000F0F69748007808B1A0A000E0A0A0864918
:1003C000097809B19FA100E09FA12B463246CDE9F3
:1003D000001039469DA002F07BFE00207D49086098
:1003E0007D48007858B38A48007800BB7848006898
:1003F000B0F5FA7F2DD36A48006808B9012000E003
:100400000020674908604FF480719E4801F0A6F80B
:1004100008B9012000E0002005462A464FF480710B
:10042000984801F0ACF800206949086011E001200B
:100430005B4908600102934801F09DF809E0012042
:100440005749086001028F4801F095F80020604983
:100450000860B9F1010F07D1B8F1000F01D10120F7
:1004600000E00020804614E0B9F1020F11D15A4893
:10047000007870B16648007858B901206449087066
:100480004749086001027F4801F075F87EA002F03C
:100490001FFE2AE70D0A3D3D3D2053544D333246A1
:1004A0003130332041444320566F6C7461676520BE
:1004B0004D6F6E69746F72203D3D3D0D0A00000066
:1004C0005541525420496E697469616C697A65645A
:1004D000205375636365737366756C6C790D0A00E0
:1004E00053797374656D2052656164790D0A00005B
:1004F0000D0A3D3D3D20446967697420446973706D
:100500006C61792054657374203D3D3D0D0A0000F7
:100510004561636820706F736974696F6E207769D5
:100520006C6C20646973706C617920302D392C20DB
:100530003230306D73207065722064696769740DA4
:100540000A0D0A00F034000854657374696E672060
:10055000706F736974696F6E202575202825732963
:100560003A0D0A0020202575200000000D0A2020E9
:10057000000000000D0A5465737420436F6D706CA9
:10058000657465210D0A0000446973706C617969B6
:100590006E6720313233342E2E2E0D0A00000000FB
:1005A00094812142008021425374617274696E67A4
:1005B000206E6F726D616C204144432064697370DA
:1005C0006C61792E2E2E0D0A000000000000002024
:1005D00004000020080000200C000020414C415283
:1005E0004D2120566F6C746167653A2025752E2564
:1005F000303275562C205468726573686F6C643A9B
:1006000020312E3030567E322E3530560D0A000005
:100610000D000020416C61726D20636F6E6469741F
:10062000696F6E20636C65617265643B206D7574E3
:10063000652072657365742E0D0A000059455300DC
:100640004E4F00004F4E00004F4646005B41444372
:100650005D205261773D25752C20566F6C74616763
:10066000653D25752E25303275562C20416C617202
:100670006D3D25732C204D757465643D25730D0A01
:1006800000000000000C0140416C61726D206D752E
:10069000746564206279204B4559312E2057696C6E
:1006A0006C2072652D61726D206F6E206E6578749E
:1006B000206E657720616C61726D206576656E7461
:1006C0002E0D0A00704700BFFEE700BFFEE700BF27
:1006D000FEE700BFFEE770477047704770470000B5
:1006E0000CB50020019000906C48006840F4803008
:1006F0006A49086000BF6948006800F40030009053
:100700000198401C0190009818B90198B0F5A06FAD
:10071000F1D16248006800F4003010B1012000906F
:1007200001E0002000900098012843D15C48006857
:1007300040F010005A4908600846006820F00300A5
:1007400008600846006840F00200086053484068AE
:10075000524948600846406848600846406840F48E
:10076000806048600846406820F47C104860084675
:10077000406840F4E81048600846006840F0807027
:10078000086000BF4548006800F000700028F9D0FC
:100790004248406820F003004049486008464068ED
:1007A00040F00200486000BF3C48406800F00C0088
:1007B0000828F9D10CBD10B5FFF792FF10BD10B598
:1007C0003648006840F00100344908600846406837
:1007D00034490840314948600846006832490840B9
:1007E0002E4908600846006820F48020086008460A
:1007F000406820F4FE0048604FF41F008860FFF757
:10080000DAFF4FF000602949086010BD10B50021E3
:1008100000200022214B5B6803F00C0121B1042968
:1008200006D0082928D107E0214B224C236027E07D
:100830001F4B204C236023E0184B5B6803F47010BF
:10084000164B5B6803F48032022303EB904022B91D
:10085000194B4343174C23600DE0104B5B6803F4C6
:10086000003323B1144B4343124C236003E0104B7D
:100870004343104C236003E00D4B0E4C236000BF3C
:1008800000BF064B5B68C3F303130C4CE15C094BE0
:100890001B68CB40074C236010BD000000100240D5
:1008A000002002400000FFF8FFFFF6FE08ED00E028
:1008B00000127A001000002000093D001400002002
:1008C00008B50121082001F065F82020ADF80000EE
:1008D00010208DF8030003208DF8020069460948B6
:1008E00000F09CFD2021074800F045FE0220ADF8F5
:1008F00000006946034800F091FD0221014800F024
:100900003AFE08BD000C014008B50121082001F0A5
:1009100041F8C020ADF8000048208DF8030069467A
:100920001D4800F07BFD08BD10B5044614B1012040
:100930001A49087019480078E8B14021164800F0BB
:1009400000FE20B18021144800F0FBFD98B90A2078
:1009500000F0A9FB00201149087040210E4800F06A
:10096000F0FD08B9012010BD80210B4800F0E9FD21
:1009700078B90220F7E74021074800F0E2FD01289E
:1009800007D18021044800F0DCFD012801D1034992
:1009900008700020E7E70000000C01402400002060
:1009A00000B587B001214FF4027000F0F3FF4FF45F
:1009B000004000F053FF0120ADF8040000208DF846
:1009C000070001A9354800F029FD354801F046F837
:1009D000002002908DF80C008DF80D004FF460207F
:1009E00004900020059001208DF8180002A92C48E1
:1009F00001F05BF801212A4801F083F8284801F052
:100A0000A2F800BF264801F0A3F80028FAD1244834
:100A100001F0A8F800BF224801F0A9F80028FAD197
:100A200007B000BD10B504460723012221461C482B
:100A300001F0D3F801211A4801F0A3F800BF022108
:100A4000174801F00FFA0028F9D0154801F02CF9E9
:100A500010BD2DE9F04107460C460025002608E0B0
:100A60003846FFF7DFFF0544022000F01CFB701C36
:100A7000C6B2A642F4DBB5FBF4F080B2BDE8F0816B
:100A8000014640F23930484340F2FF7202EB8000E9
:100A900040F6FF72B0FBF2F070470000000C01401E
:100AA000002401402DE9F04107460E4637B1012FE1
:100AB00007D0022F08D0032F0CD108E0FE4CA5145C
:100AC0000AE0FD4C102507E0FB4C082504E0FA4C39
:100AD000012501E0BDE8F08100BF26B1294620468E
:100AE00000F04BFD03E02946204600F044FD00BF26
:100AF000F0E770B50546012405F0010050B124B1BE
:100B00000221ED4800F037FD0EE00221EA4800F036
:100B100034FD09E024B10221E74800F02EFD03E096
:100B20000221E54800F027FD05F0020050B124B194
:100B30002021E14800F01FFD0EE02021DE4800F0FA
:100B40001CFD09E024B12021DB4800F016FD03E084
:100B50002021D94800F00FFD05F0040060B12CB150
:100B60004FF40041D54800F006FD11E04FF400417C
:100B7000D24800F002FD0BE02CB14FF40041CF4809
:100B800000F0FBFC04E04FF40041CC4800F0F3FC23
:100B900005F0080060B12CB14FF40051C74800F0D7
:100BA000EAFC11E04FF40051C44800F0E6FC0BE011
:100BB0002CB14FF40051C14800F0DFFC04E04FF4C9
:100BC0000051BE4800F0D7FC05F0100060B12CB118
:100BD0004FF48051B94800F0CEFC11E04FF4805141
:100BE000B64800F0CAFC0BE02CB14FF48051B3487A
:100BF00000F0C3FC04E04FF48051B04800F0BBFCAF
:100C000005F0200050B124B10421AB4800F0B3FC42
:100C10000EE00421A84800F0B0FC09E024B1042152
:100C2000A54800F0AAFC03E00421A34800F0A3FCBF
:100C300005F0400060B12CB14FF400619E4800F017
:100C40009AFC11E04FF400619B4800F096FC0BE029
:100C50002CB14FF40061984800F08FFC04E04FF491
:100C60000061954800F087FC05F0800060B12CB170
:100C70004FF48041914800F07EFC11E04FF4804138
:100C80008E4800F07AFC0BE02CB14FF480418B4889
:100C900000F073FC04E04FF48041884800F06BFCE6
:100CA00070BD01460F2902DC8548405C7047FE2973
:100CB00001D13E20FAE70020F8E738B501210C20E9
:100CC00000F068FE40F62600ADF8000010208DF818
:100CD000030003208DF802006946774800F09EFB70
:100CE00041F21900ADF800006946734800F096FB28
:100CF0004FF47040ADF800006946704800F08EFB7C
:100D00000020FFF7F6FE41F219016B4800F033FCBA
:100D1000002404E000206B490855601CC4B2042C78
:100D2000F8DB002068490870684908706849087055
:100D300038BD70B5002405E000212046FFF7B2FE63
:100D4000601CC4B2042CF7DB002402E000BF601C6E
:100D5000C4B20A2CFADB5E480078012802D15D4853
:100D6000057816E05749594A1278885CFFF799FFD1
:100D700005465648017801208840534909780840C3
:100D800038B1504851490978405CFF2801D045F0FE
:100D900080052846FFF7ADFE01214C480078FFF79B
:100DA00081FE4A490978481CC11700EB91718910EE
:100DB000A0EB8101454A117070BD38B5024642F280
:100DC0000F739A4200DD00E0134619460023404CA1
:100DD00023700A2391FBF3F403FB1413DBB28DF8A9
:100DE00000300A2391FBF3F30A2493FBF4F504FB90
:100DF0001533DBB28DF80130642391FBF3F393FBE1
:100E0000F4F504FB1533DBB28DF802304FF47A733E
:100E100091FBF3F393FBF4F504FB1533DBB28DF890
:100E200003309DF8033013B9FF238DF803309DF88C
:100E30000330FF2B05D19DF8023013B9FF238DF845
:100E400002309DF80330FF2B09D19DF80230FF2BB3
:100E500005D19DF8013013B9FF238DF80130002032
:100E600005E01DF80030174C2354431CD8B2042869
:100E7000F7DB0023144C237038BD10B50146002267
:100E8000134B1A7040F6E442914200D911464A1DB4
:100E90000A23B2FBF3F0FE220A4B1A700A22B0FBBF
:100EA000F2F302FB1302074B5A700A22B0FBF2F274
:100EB0000A23B2FBF3F40FE000080140000C0140EC
:100EC0000035000825000020290000202A0000200D
:100ED0002B0000202C00002003FB1422164B9A70DC
:100EE0006422B0FBF2F20A23B2FBF3F403FB1422F8
:100EF000114BDA700822114B1A7010BD0121104AF3
:100F0000117081400F4A1170704710B500230C4CCE
:100F10002370002204E00023074CA354531CDAB2D0
:100F2000042AF8DB042803DA092901DC024B1954EE
:100F30000023024C237010BD250000202900002052
:100F40002B0000202C00002008B50121082000F013
:100F500021FD4FF48070ADF8000010208DF80300E3
:100F600003208DF802006946044800F057FA4FF458
:100F70008071024800F0FFFA08BD0000000C01403B
:100F80007FB505460C460121022000F010FDADF8AA
:100F90000850ADF804400020ADF80A00ADF8060096
:100FA00001A91D4801F05AFA012211461A4801F020
:100FB000CCFD1D208DF8000000208DF801000320DD
:100FC0008DF8020001208DF80300684600F05DF9FD
:100FD0000121114801F09EFD7FBD10B501210E4891
:100FE00002F061F8B8B101210B4802F06DF8FFF78B
:100FF000A0FE0A480068401C0849086008480068CC
:10100000401C074908600748007820B1064800687E
:10101000401C0549086010BD00040040000000208D
:10102000080000200C0000200400002010B56FF024
:10103000040000F074F92E4800682E49B0FBF1F06E
:101040002D4908700846007800EB4001C1EBC01044
:101050004FF6FF7101EAC0002849088010BD014623
:10106000254A12784A434FF0E0235A6100229A61E0
:101070001A46126942F001021A6100BF4FF0E022E5
:10108000106900F001021AB100F48032002AF5D094
:101090004FF0E022126922F001024FF0E0231A61C2
:1010A00000229A6170470146144A12884A434FF061
:1010B000E0235A6100229A611A46126942F0010245
:1010C0001A6100BF4FF0E022106900F001021AB16E
:1010D00000F48032002AF5D04FF0E022126922F0AD
:1010E00001024FF0E0231A6100229A61704700006C
:1010F0001000002000127A002E0000203000002096
:1011000000BF704700BF4A4A128802F04002002A1E
:10111000F9D0C2B2464B1B1D1A80704710B586B07D
:101120000446012144F2040000F034FC4FF4007046
:10113000ADF8140003208DF8160018208DF8170064
:1011400005A93C4800F06AF94FF48060ADF814003E
:1011500004208DF8170005A9364800F05FF9252016
:101160008DF8000003208DF801008DF802000120A9
:101170008DF80300684600F088F801940020ADF86F
:101180000800ADF80A00ADF80C00ADF810000C2016
:10119000ADF80E0001A9264800F0CBFE012240F276
:1011A0002551234800F05DFF0121214800F04DFF4B
:1011B00006B010BD10B540F225511D4801F036F8BB
:1011C00010B31B4800F0B2FFC4B21B48008800F403
:1011D0000040C8B91848008800F4804060B10A2C6B
:1011E00003D000201449088020E01348008840F410
:1011F00000401149088019E00D2C06D10E480088E6
:1012000040F480400C49088010E00B480088C0F38F
:101210000D000A490C5408480088401C0649088003
:1012200008460088C72801DD0020088010BD0000A6
:101230000038014000080140380000205000002024
:101240000948804709480047FEE7FEE7FEE7FEE75A
:10125000FEE7FEE7FEE7FEE7FEE7FEE70448054996
:10126000054A064B70470000BF070008310100081F
:101270007801002078070020780300207803002000
:1012800031490143314A1160704770B50021002394
:101290000F22C47804B32D4C246804F4E064C4F530
:1012A000E064210AC1F10403CA40447804FA03F15E
:1012B0008478144021430901254C0678A15504780F
:1012C00004F01F050124AC4005786D11AD0005F157
:1012D000E025C5F8004109E0047804F01F05012469
:1012E000AC401C4D0678761145F8264070BD1A4A70
:1012F0000A400243154B1B1F1A60704739B1134A4D
:10130000121D12680243114B1B1D1A6006E00F4AA2
:10131000121D126882430D4B1B1D1A607047042872
:1013200008D14FF0E021096941F004014FF0E022BB
:10133000116107E04FF0E021096921F004014FF04D
:10134000E0221161704700000000FA050CED00E09A
:1013500000E400E080E100E080FFFF1F10B50446DC
:10136000CC48844208D10121042000F02DFB00214B
:10137000042000F029FB46E0C748844208D101213F
:10138000082000F021FB0021082000F01DFB3AE0BE
:10139000C248844208D10121102000F015FB002131
:1013A000102000F011FB2EE0BD48844208D101213D
:1013B000202000F009FB0021202000F005FB22E0A6
:1013C000B848844208D10121402000F0FDFA0021F4
:1013D000402000F0F9FA16E0B348844208D1012118
:1013E000802000F0F1FA0021802000F0EDFA0AE000
:1013F000AE48844207D10121801500F0E5FA0021B2
:10140000A01500F0E1FA10BD10B50121084600F06A
:10141000DBFA0021012000F0D7FA10BD2DE9F041E0
:10142000024600250026002000230024002791F812
:1014300003C00CF00F0591F803C00CF0100CBCF1C8
:10144000000F03D091F802C04CEA050591F800C0E6
:10145000BCF1000F31D0146800202BE04FF0010CDC
:101460000CFA00F3B1F800C00CEA03069E4220D14A
:1014700083004FF00F0C0CFA03F7BC4305FA03FC92
:101480004CEA040491F803C0BCF1280F06D14FF0D8
:10149000010C0CFA00FCC2F814C00AE091F803C079
:1014A000BCF1480F05D14FF0010C0CFA00FCC2F85A
:1014B00010C0401C0828D1D31460B1F800C0BCF1A2
:1014C000FF0F34DD546800202EE000F1080C4FF0CF
:1014D000010808FA0CF3B1F800C00CEA03069E42BA
:1014E00021D183004FF00F0C0CFA03F7BC4305FA2F
:1014F00003FC4CEA040491F803C0BCF1280F05D1A9
:1015000000F1080C08FA0CF8C2F8148091F803C036
:10151000BCF1480F07D100F1080C4FF0010808FAA0
:101520000CF8C2F81080401C0828CED35460BDE8E7
:10153000F0814FF6FF710180022181700421C1709A
:1015400070470246002093680B400BB1012000E079
:10155000002070470146886880B27047024600202C
:10156000D3680B400BB1012000E00020704701461A
:10157000C86880B2704701617047416170470AB125
:10158000016100E041617047C16070474FF48032F3
:101590000A43826181618261826982697047024681
:1015A0000020434B18684FF68073184040EA021041
:1015B00008433F4B186070473E49C8617047F0B51B
:1015C0000A46002300240021002500F00046B6F161
:1015D000004F02D1364EF16901E0354E7168C0F31B
:1015E000034583B200F44016B6F5401F08D121F040
:1015F00070612F4E766826F070662D4F7E6012E087
:1016000000F48016B6F5801F06D1032606FA05F40D
:10161000A14341F0706106E0460D360103FA06F67B
:10162000B14341F0706122B1460D360103FA06F66E
:10163000314300F00046B6F1004F02D11C4EF1617B
:1016400001E01B4E7160F0BD30B500228B071C0F0E
:101650000F2303FA04F2164B08338C1053F824308E
:101660009343134C08348D1044F8253023468C10D6
:1016700053F824308C07240F00FA04F423430C4C55
:1016800008348D1044F8253030BD0A49DC3108603B
:101690007047000000080140000C014000100140AC
:1016A0000014014000180140001C014000200140CE
:1016B0000000014000002042DF48006840F00100C7
:1016C000DD49086008464068DC490840DA4948605E
:1016D00008460068DA490840D749086008460068AB
:1016E00020F4802008600846406820F4FE0048602E
:1016F0004FF41F0088607047CF49096821F480319A
:10170000CD4A11601146096821F480211160B0F5BD
:10171000803F03D0B0F5802F0ED106E0C64909689E
:1017200041F48031C44A116007E0C349096841F4BB
:10173000A021C14A116000E000BF00BF704710B592
:1017400001460022002300204A11012A02D1BA4C8E
:10175000236806E0022A02D1B74C236A01E0B64CA6
:10176000636A01F01F02012494401C400CB1012067
:1017700000E0002010BD38B50020009000240025B6
:1017800000BF3120FFF7DBFF05460098401C0090AA
:101790000098B0F5A06F01D0002DF2D03120FFF7F6
:1017A000CEFF08B1012400E00024204638BD0146E8
:1017B0000020A14A106820F0F80040EAC100106043
:1017C0007047A04908607047024600209A4B58684D
:1017D00020F47C1042EA01031843974B586070478D
:1017E00098490866704701460020934A506820F0E7
:1017F00003000843506070478F48406800F00C00B9
:101800007047014600208C4A506820F0F0000843E1
:101810005060704701460020874A506820F4E0601D
:1018200008435060704701460020834A506820F406
:10183000605040EAC1005060704729B17E4A527A38
:1018400002437D4B5A7204E07B4A527A82437A4BC0
:101850005A7270477B49D8310860704701460020B2
:10186000754A506820F4404008435060704700219A
:10187000714A20321170704A82F82010012802D07B
:1018800004280AD104E001216B4A2032117005E0DE
:101890000521694A2032117000E000BF00BF704787
:1018A0006949086070476449096A0143624A1162E4
:1018B0007047654944390860704730B500210022FF
:1018C000002400235C4D6D6805F00C0121B1042952
:1018D00005D0082923D105E05C4D056022E05B4D71
:1018E00005601FE0544D6D6805F47012524D6D682F
:1018F00005F48034022505EB92421CB9544D554342
:1019000005600BE04C4D6D6805F400351DB1504D80
:101910005543056002E04D4D5543056002E04B4DD7
:10192000056000BF00BF444D6D6805F0F001090976
:10193000484D6B5C0568DD4045603F4D6D6805F4C2
:10194000E061090A434D6B5C4568DD4085603A4DB6
:101950006D6805F46051C90A3E4D6B5C4568DD4019
:10196000C560354D6D6805F44041890B3A4D6B5C9F
:10197000C568B5FBF3F5056130BD29B12E4A526942
:1019800002432D4B5A6104E02B4A526982432A4B91
:101990005A61704729B1284A92690243264B9A61DD
:1019A00004E0254A92698243234B9A61704729B12A
:1019B000214AD2690243204BDA6104E01E4AD2690F
:1019C00082431D4BDA61704729B11B4AD26802433A
:1019D000194BDA6004E0184AD2688243164BDA6089
:1019E000704729B1144A12690243134B1A6104E08B
:1019F000114A12698243104B1A61704712494039EB
:101A0000086070470F49C86470470B49C871704738
:101A10000948406A40F080700749486270470146B3
:101A20000020054A92680A400AB1012000E0002027
:101A30007047014988727047001002400000FFF8AB
:101A4000FFFFF6FE000042428004424200127A008C
:101A500000093D003A0000204A00002010B504466D
:101A6000FA48844208D101214015FFF7ADFF00215B
:101A70006015FFF7A9FF17E0F548844208D101215E
:101A80000015FFF7A1FF00212015FFF79DFF0BE0D8
:101A9000F048844208D10121C803FFF795FF0021D7
:101AA0004FF40040FFF790FF10BD30B50246002014
:101AB00000235068E84C20400D790C6844EA052466
:101AC000204350609068E54C2040D1E902542C43FB
:101AD0004D7944EA450420439060D06A20F47000B8
:101AE0000C7C641EE4B2234340EA0350D06230BD54
:101AF00000210160017141718160C16001210174A7
:101B0000704721B1826842F00102826003E082687E
:101B100022F001028260704721B1826842F4807233
:101B2000826003E0826822F480728260704710B5A0
:101B30000023CBB21AB144681C43446002E04468FD
:101B40009C43446010BD816841F00801816070478A
:101B5000014600208A6802F008020AB1012000E074
:101B600000207047816841F00401816070470146A0
:101B700000208A6802F004020AB1012000E000207F
:101B8000704721B1826842F4A002826003E082685B
:101B900022F4A00282607047014600208A6802F4A5
:101BA00080020AB1012000E00020704710B50A460B
:101BB00000210023416821F46041531E41EA433172
:101BC000416010BD21B1426842F40062426003E00E
:101BD000426822F4006242607047F0B504460D4648
:101BE00000200021092D11DDE068A5F10A0606EBB1
:101BF0004607072606FA07F18843A5F10A0606EB11
:101C0000460603FA06F10843E0600CE0206905EBA4
:101C10004507072606FA07F1884305EB450603FA50
:101C200006F108432061072A0FDA606B561E06EBA7
:101C300086071F2606FA07F18843561E06EB86061E
:101C400005FA06F10843606322E00D2A0FDA206BE3
:101C5000D61F06EB86071F2606FA07F18843D61F14
:101C600006EB860605FA06F10843206310E0E06AF9
:101C7000A2F10D0606EB86071F2606FA07F1884338
:101C8000A2F10D0606EB860605FA06F10843E062AE
:101C9000F0BD21B1826842F48012826003E0826864
:101CA00022F48012826070470146C86C80B270478F
:101CB00066484C300068704721B1426842F4806247
:101CC000426003E0426822F480624260704721B1C2
:101CD000426842F48052426003E0426822F480523B
:101CE000426070470A460021816821F4E0411143B7
:101CF0008160704721B1826842F40042826003E053
:101D0000826822F400428260704721B1826842F406
:101D10000212826003E0826822F40212826070473D
:101D2000014600208A6802F400120AB1012000E096
:101D300000207047F0B5044615460020002200261A
:101D4000092911DDE068A1F10A0707EB470C072715
:101D500007FA0CF29043A1F10A0707EB470703FAD1
:101D600007F21043E0600CE0206901EB410C07270B
:101D700007FA0CF2904301EB410703FA07F2104314
:101D80002061A06BC0F30156EF1C06F1010CA7EB1C
:101D90000C0707EB870C1F2707FA0CF29043EF1C88
:101DA00006F1010CA7EB0C0707EB870701FA07F216
:101DB0001043A063F0BD10B50A4600210023816BDB
:101DC00021F44011531E41EA0351816310BD08B54F
:101DD000002300930090009B0B440093009B1A602B
:101DE00008BD08B5024600200090009201F12800CD
:101DF000009B184400900098006880B208BD0A4615
:101E000000214168164B19401143416070474162FF
:101E1000826270470A460021416821F01F01114388
:101E20004160704740B109490831096841F4000137
:101E3000064A0832116007E004490831096821F4B4
:101E40000001024A0832116070470000002401407E
:101E500000280140003C0140FFFEF0FFFDF7F1FFCC
:101E6000FFFD3FFF0246002013680B400BB101202D
:101E700000E000207047CA430260704770B5024618
:101E80000020002300240B125568CEB205EA060498
:101E900015681D4015B10CB1012000E0002070BD97
:101EA00000220A12D34303607047000010B50446B5
:101EB000FB48844209D101218803FFF785FD0021F9
:101EC0004FF48040FFF780FD32E0F648844209D1AC
:101ED00001214804FFF785FD00214FF40030FFF792
:101EE00080FD25E0F048844209D101218804FFF7F4
:101EF00078FD00214FF48020FFF773FD18E0EB48D8
:101F0000844209D10121C804FFF76BFD00214FF481
:101F10000020FFF766FD0BE0E548844208D101216F
:101F20000805FFF75EFD00214FF48010FFF759FD13
:101F300010BD2DE9F04786B005460E460024A246A6
:101F400000BFA1460027B08900B100BF2F462C8AF0
:101F50004CF6FF700440F08804432C82AC894EF6A6
:101F6000F3100440B0883189084371890843044361
:101F7000AC81AC8A4FF6FF400440B0890443AC8288
:101F800001A8FFF79AFCC648874202D1DDF810A0ED
:101F900001E0DDF80CA0A88900F4004040B10AEB94
:101FA000CA0000EB0A1031684900B0FBF1F807E005
:101FB0000AEBCA0000EB0A1031688900B0FBF1F8A7
:101FC0006420B8FBF0F004012009642101FB1089B2
:101FD000A88900F4004040B1322000EBC900B0FBFA
:101FE000F1F000F00700044308E0322000EB091094
:101FF0006421B0FBF1F000F00F0004432C8106B027
:10200000BDE8F0874FF41651016000218180C18046
:1020100001810C21418100218181704710B5024668
:102020000020108A4FF2FF0318400B884C8823438E
:102030008C882343CC8823431843108210BD002191
:10204000018041808180C180704721B1828942F442
:102050000052828104E082894DF6FF731A4082812A
:102060007047F0B50346002400260025002040F606
:102070006A17B94200D100BF1846C1F3421401F0FB
:102080001F06012707FA06F5012C01D10C3004E0E8
:10209000022C01D1103000E014301AB107682F4330
:1020A000076002E00768AF430760F0BD1AB1838A9A
:1020B0000B43838202E0838A8B4383827047028AC8
:1020C0004FF6F0731A400282028A0A430282704776
:1020D00082894FF2FF731A40828182890A4382818A
:1020E000704721B1828942F00202828104E0828934
:1020F0004FF6FD731A4082817047028A4FF6DF73F4
:102100001A400282028A0A430282704721B1028A7F
:1021100042F48042028204E0028A4BF6FF731A40C6
:1021200002827047C1F308028280704701468888A6
:10213000C0F308007047818941F001018181704737
:10214000028BD2B20283028B42EA012202837047E1
:10215000028B02F47F420283028B0A4302837047A0
:1021600021B1828A42F02002828204E0828A4FF604
:10217000DF731A408282704721B1828A42F01002D6
:10218000828204E0828A4FF6EF731A40828270479F
:1021900021B1828A42F00802828204E0828A4FF6EC
:1021A000F7731A408282704721B1828942F400425B
:1021B000828103E08289C2F30E028281704721B1DD
:1021C000828A42F40062828204E0828A4FF2FF73C4
:1021D0001A4082827047828A4FF6FB731A408282CD
:1021E000828A0A438282704721B1828A42F00202C7
:1021F000828204E0828A4FF6FD731A408282704721
:1022000002460020B1F5007F00D100BF13880B40CB
:102210000BB1012000E00020704701F40072B2F51C
:10222000007F00D100BFCA430280704770B50246EC
:10223000002400230025002040F66A16B14200D198
:1022400000BFC1F3421501F01F03012606FA03F394
:10225000012D02D19689334006E0022D02D1168A63
:10226000334001E0968A33400C12012606FA04F44A
:102270001688344013B10CB1012000E0002070BD7D
:1022800010B50022002340F66A14A14200D100BF1D
:102290000A1201249440A3B2DC43048010BD000064
:1022A000003801400044004000480040004C00401D
:1022B0000050004010B50446FE48844208D1012178
:1022C000C014FFF781FB0021E014FFF77DFBC4E0A1
:1022D000B4F1804F08D101210846FFF782FB0021AD
:1022E0000120FFF77EFBB8E0F348844208D10121CA
:1022F0000220FFF776FB00210220FFF772FBACE023
:10230000EE48844208D101210420FFF76AFB002136
:102310000420FFF766FBA0E0E948844208D10121D0
:102320000820FFF75EFB00210820FFF75AFB94E02E
:10233000E448844208D101211020FFF752FB00211C
:102340001020FFF74EFB88E0DF48844208D10121CE
:102350002020FFF746FB00212020FFF742FB7CE016
:10236000DA48844208D101214014FFF72DFB0021F7
:102370006014FFF729FB70E0D548844209D10121A0
:10238000C804FFF721FB00214FF40020FFF71CFBDE
:1023900063E0D048844209D101210805FFF714FB0E
:1023A00000214FF48010FFF70FFB56E0CA4884422B
:1023B00009D101214805FFF707FB00214FF4001068
:1023C000FFF702FB49E0C548844208D101214020C3
:1023D000FFF707FB00214020FFF703FB3DE0C0486B
:1023E000844208D101218020FFF7FBFA00218020E0
:1023F000FFF7F7FA31E0BB48844208D1012180158C
:10240000FFF7EFFA0021A015FFF7EBFA25E0B64839
:10241000844209D101210804FFF7D6FA00214FF4C4
:102420008030FFF7D1FA18E0B048844209D1012189
:102430004804FFF7C9FA00214FF40030FFF7C4FA4F
:102440000BE0AB48844208D101218804FFF7BCFAB5
:1024500000214FF48020FFF7B7FA10BD0022028858
:10246000944B98420ED0994B98420BD0B0F1804FCC
:1024700008D0914B984205D0904B984202D0904B97
:10248000984204D14FF68F731A404B881A438D4BF4
:10249000984207D08C4B984204D04FF6FF431A4025
:1024A000CB881A4302808B8883850B880385814BF8
:1024B00098420BD0854B984208D08B4B984205D060
:1024C0008A4B984202D08A4B984201D10B7A0386FC
:1024D00001238382704770B5002400220023058CFD
:1024E0004FF6FE7635400584028C8388048B4FF6C8
:1024F0008F752C40B51E2C400D882C43751E2A402C
:102500000D892A434D882A436A4DA8420BD06F4D4E
:10251000A84208D0744DA84205D0744DA84202D0FC
:10252000734DA84213D14FF6F7752A404D892A43BF
:102530004FF6FB752A408D882A434FF6FF652B40E6
:102540004FF6FF552B408D892B43CD892B4383803C
:102550000483CD888586028470BD70B50024002276
:102560000023058C4FF6EF7635400584028C838876
:10257000048B48F6FF752C404FF6FF452C400D8824
:102580004FF6FF7606EA05252C434FF6DF752A4005
:102590000D8906EA05152A434D8806EA05152A43E2
:1025A000444DA84202D0494DA8421DD14FF67F7537
:1025B0002A404D894FF6FF7606EA05152A434FF665
:1025C000BF752A408D8806EA05152A434FF6FF3568
:1025D0002B404FF2FF752B408D8906EA85052B4372
:1025E000CD8906EA85052B4383800483CD88058742
:1025F000028470BD70B5002400220023058C4FF6C4
:10260000FF6635400584028C8388848B4FF68F7576
:102610002C404FF6FC752C400D882C434FF6FF558F
:102620002A400D894FF6FF7606EA05252A434D8894
:1026300006EA05252A431F4DA84202D0234DA84291
:102640001DD14FF2FF752A404D894FF6FF7606EAFD
:1026500005252A434FF6FF352A408D8806EA0525D1
:102660002A434EF6FF752B404DF6FF752B408D89A2
:1026700006EA05152B43CD8906EA05152B43838011
:102680008483CD888587028470BD70B500220023C5
:102690000024058C4EF6FF7635400584038C848833
:1026A000828B48F6FF752A404FF6FF452A400D8879
:1026B00020E00000002C0140000400400008004021
:1026C000000C0040001000400014004000340140A5
:1026D000004C0140005001400054014000180040EF
:1026E000001C004000200040004001400044014028
:1026F000004801404FF6FF7606EA05252A434DF6CD
:10270000FF752B400D8906EA05352B434D8806EAF7
:1027100005352B43FA4DA84202D0FA4DA84208D104
:102720004BF6FF752C408D894FF6FF7606EA85152E
:102730002C4384808283CD88A0F84050038470BDF0
:10274000828B4FF2FF331A408283828B4FF6FF73E6
:1027500003EA01231A4382837047F0B50C461546FD
:10276000002200210026078C4EF6FF7C07EA0C07AA
:102770000784828B018C4FF6FF7707EA043640F618
:10278000FF473A404FF6FF7707EA05273A434FF6EF
:10279000FF7707EA03373A43D94FB8420ED0D94FF3
:1027A000B8420BD0B0F1804F08D0D74FB84205D017
:1027B000D64FB84202D0D64FB84206D14DF6FF7779
:1027C000394046F48057394305E047F6FF57394012
:1027D00044F48057394382830184F0BD828B4FF6E5
:1027E000F3731A408283828B0A4382837047F0B569
:1027F0000C461546002200210026078C4FF6FF6C80
:1028000007EA0C070784828B018C4FF6FF7707EAF3
:1028100004264FF60C773A404FF6FF7707EA031786
:102820002F433A43B64FB8420ED0B64FB8420BD002
:10283000B0F1804F08D0B44FB84205D0B34FB84282
:1028400002D0B34FB84206D14FF6FF57394046F495
:102850008077394305E04FF2FF57394044F48077E1
:10286000394382830184F0BD028B4FF2FF331A405B
:102870000283028B4FF6FF7303EA01231A4302839C
:102880007047F0B50C461546002200210026078C43
:102890004FF6EF7C07EA0C070784028B018C4FF69A
:1028A000FF7707EA041640F6FF473A404FF6FF77F6
:1028B00007EA03373A434FF6FF7707EA05273A431B
:1028C0008F4FB8420ED08F4FB8420BD0B0F1804F2F
:1028D00008D08D4FB84205D08C4FB84202D08C4FF3
:1028E000B84206D14FF6DF77394046F0100739433A
:1028F00005E04FF65F77394044F010073943028313
:102900000184F0BD028B4FF6F3731A400283028BF1
:102910000A4302837047F0B50C4615460022002199
:10292000068C4FF6FE773E400684028B018C4FF6F4
:102930000C7632407E1C06EA03162E433243704E5C
:10294000B0420ED06F4EB0420BD0B0F1804F08D0E5
:102950006D4EB04205D06D4EB04202D06C4EB042CA
:1029600006D14FF6FD76314044F00106314305E0D3
:102970004FF6F576314044F001063143028301847D
:10298000F0BD70B505460C465D4885420ED05D48E9
:1029900085420BD0B5F1804F08D05B48854205D009
:1029A0005A48854202D05A48854200D100E000BF13
:1029B000208850B92389A28861882846FFF7ABFF99
:1029C000E1882846FFF79EFF25E0208804280AD1E9
:1029D0002389A28861882846FFF753FFE1882846AB
:1029E000FFF742FF17E0208808280AD12389A28830
:1029F00061882846FFF7FBFEE1882846FFF7EEFED8
:102A000009E02389A28861882846FFF7A6FEE188AD
:102A10002846FFF795FE70BD2DE9F04105460C46AE
:102A200000260127608808B9022600E00026A08859
:102A3000012801D1022700E001272088A0B92389BD
:102A4000A28861882846FFF766FFE1882846FFF7DD
:102A500059FF23893A4631462846FFF712FFE1889D
:102A60002846FFF701FF13E02389A28861882846E2
:102A7000FFF707FFE1882846FFF7F6FE23893A466D
:102A800031462846FFF747FFE1882846FFF73AFF1F
:102A9000BDE8F0810A884B881A438B881A43CB889B
:102AA0001A430B891A434B891A438B891A43A0F89E
:102AB000442070474FF6FF71818000210180C18062
:102AC0004180017270470021018041808180C18076
:102AD000018141818181C181704700210180418054
:102AE000012181800021C180018170470021018086
:102AF00041808180C18001814181818170470000D6
:102B0000002C014000340140000400400008004057
:102B1000000C004021B1028842F00102028004E072
:102B200002884FF6FE731A400280704731B1B0F848
:102B3000442042F40042A0F8442005E0B0F84420CC
:102B4000C2F30E02A0F8442070471AB183890B43E8
:102B5000838102E083898B43838170478182704740
:102B600041EA0203A0F8483070471AB183890B4349
:102B7000838102E083898B438381704701894FF60B
:102B8000F8721140018170470A46002101894FF611
:102B90008F73194011430181704730B504460D46CB
:102BA00029462046FFF7F0FF208940F007002081EA
:102BB00030BD2DE9F04104460D4616461F46602DF6
:102BC00006D13B46012231462046FFF75AFE05E07A
:102BD0003B46012231462046FFF79DFE294620460E
:102BE000FFF7D2FF208940F007002081BDE8F08187
:102BF00030B50C4600210189C9B24FF6FF7505EAD0
:102C00000325154325432943018130BD2DE9F041BA
:102C100005460E4617469846002443463A46314636
:102C20002846FFF7E5FF2C894FF6F870044044F082
:102C300007044FF68F70044044F070042C81BDE807
:102C4000F081F0B504460D4616461F463B46324617
:102C500029462046FFF7CCFF208940F480402081A0
:102C6000F0BD0185828270470A46002101884FF637
:102C70008F731940114301807047F0B50C4615461B
:102C80001E460021002200230189028B038C4FF68F
:102C9000F877394021434FF6FC473A4040F201179C
:102CA0003A434FF6DD773B404FF6FF7707EA0617CA
:102CB0002F433B43018102830384F0BD0A46002178
:102CC000018B4FF68F7319401143018370470A46F9
:102CD0000021018B48F6FF7319404FF6FF7303EA9A
:102CE00002231943018370470A460021818B4FF666
:102CF0008F7319401143818370470A460021818BED
:102D000048F6FF7319404FF6FF7303EA0223194395
:102D10008183704721B1028842F08002028004E082
:102D200002884FF67F731A400280704721B1828873
:102D300042F00402828004E082884FF6FB731A405E
:102D40008280704721B1828842F00802828004E0CC
:102D500082884FF6F7731A408280704721B18288CB
:102D600042F00102828004E082884FF6FE731A402E
:102D7000828070470A460021018B4FF6F773194095
:102D80001143018370470A460021018B4FF2FF7304
:102D900019404FF6FF7303EA02231943018370477A
:102DA0000A460021818B4FF6F77319401143818346
:102DB00070470A460021818B4FF2FF7319404FF68E
:102DC000FF7303EA02231943818370470A460021F7
:102DD000018B4FF6FB7319401143018370470A467C
:102DE0000021018B4FF6FF3319404FF6FF7303EAC2
:102DF00002231943018370470A460021818B4FF655
:102E0000FB7319401143818370470A460021818B6F
:102E10004FF6FF3319404FF6FF7303EA02231943BD
:102E2000818370470A460021018B4FF67F7319405A
:102E30001143018370470A460021018BC1F30E0143
:102E40004FF6FF7303EA02231943018370470A46D2
:102E50000021818B4FF67F731940114381837047A6
:102E60000A460021818BC1F30E014FF6FF7303EA7E
:102E700002231943818370470A460021018C4FF6D3
:102E8000FD7319401143018470470A460021018CEB
:102E90004FF6F77319401143018470470A46002129
:102EA000018C4FF6DF7319404FF6FF7303EA0213EC
:102EB0001943018470470A460021018C4FF67F7345
:102EC00019404FF6FF7303EA021319430184704758
:102ED0000A460021018C4FF6FF5319404FF6FF734D
:102EE00003EA02231943018470470A460021018C3A
:102EF0004FF2FF7319404FF6FF7303EA02231943A1
:102F0000018470470A460021018C4DF6FF73194079
:102F10004FF6FF7303EA023319430184704730B55B
:102F2000002301248C40A3B2048C9C430484048CB1
:102F300002FA01F5ADB22C43048430BD30B5002354
:102F400004248C40A3B2048C9C430484048C02FAB5
:102F500001F5ADB22C43048430BD70B503460020AA
:102F600000241846183001258D40ACB21D8CA543B5
:102F70001D8409B1082909D100EB6100056825F01D
:102F8000700505600568154305600EE00D1FC5F36B
:102F90004E052844056825F4E045056005684FF6B0
:102FA000FF7606EA02263543056070BD21B102882E
:102FB00042F00202028004E002884FF6FD731A40DC
:102FC0000280704721B1028842F00402028004E0CE
:102FD00002884FF6FB731A400280704721B1828845
:102FE00042F08002828004E082884FF67F731A40AC
:102FF0008280704702884FF6F7731A400280028879
:103000000A430280704782884FF68F731A4082808D
:1030100082880A438280704702894FF6F8731A400B
:10302000028102890A430281704702894FF67F7349
:103030001A40028102890A430281704781847047E5
:103040008185704781867047018770478187704707
:10305000A0F84010704702884FF6FF431A400280E4
:1030600002880A43028070470146888E70470146F5
:10307000088F70470146888F70470146B1F84000BD
:1030800070470146888C70470146088D704702469C
:103090000020138A0B400BB1012000E00020704794
:1030A000CA430282704730B5024600200023002444
:1030B000158A05EA0103958905EA010413B10CB1EB
:1030C000012000E0002030BDCA43028270477047F3
:1030D0000FB4044910B503AA029800F0A1F910BC7E
:1030E0005DF814FB3400002070B504468569006863
:1030F000C10601D5302600E02026C00707D070BDEC
:10310000D4E9012130469047206A401C20626D1EA0
:10311000F6D570BD70B5044685690078C00707D143
:1031200070BDD4E9012120209047206A401C206214
:103130006D1EF6D570BD70B50C460546012A05D04A
:103140002878800600D5EA69002302E0012305E023
:103150005B1C934202D2E05C0028F9D1A869E61812
:10316000C01AA861286A184428622846FFF7BCFFE5
:1031700004E0D5E9012114F8010B9047B442F8D3DB
:103180002846FFF7C7FF70BD2DE9F0410646002431
:1031900010687529314616A510D0AFF300800028BD
:1031A00002DA404213A507E031688A0701D512A56B
:1031B00002E0490704D511A5012401E0AFF3008026
:1031C00000210A2206F1240709E0B0FBF2FCB0FB63
:1031D000F2F302FB1C00303078541846491C0028DA
:1031E000F3D123462A463046BDE8F04100F0A8B8A6
:1031F000000000002D0000002B0000002000000057
:103200002DE9F05F894604464FF0000ADFF824B14B
:10321000FB44C0F820A02046E168884700287DD004
:10322000252806D0D4E901219047206A401C20625D
:10323000F1E700255F462046E168884720280646DA
:1032400007DB312E05D2B81910F8200C08B1054360
:10325000F1E7A80701D525F00405C4F81CA0002754
:10326000C4F818A02A2E09D0304600F039F938B336
:1032700004EB8708303EC8F8186019E059F8041BC1
:10328000204604EB87029161E1688847012F0646DA
:1032900018D1E069002820DA25F020051DE0D8F8D3
:1032A000180000EB800006EB40003038C8F818002A
:1032B0002046E1688847064600F012F90028EED162
:1032C000012F0AD02E2E08D12046E16888477F1CA6
:1032D0000646022F45F02005C4DBA069002803DA6A
:1032E000404245F00105A061E80701D025F0100536
:1032F000A6B1A6F14100192802D8203645F4006590
:103300004A463146204625604D46FCF74BFF60B1EA
:10331000012807D0ED1D25F0070000E007E000F1CF
:10332000080978E705F1040975E730467AE7206A6D
:10333000BDE8F09FFC02000070477047704770477F
:103340002DE9F0470D4699469246044600F12408BF
:103350000168880604D5E06921F01001216000E0D1
:103360000120A84201DD471B00E00027A1697A196E
:1033700002EB0900081AA0612078C00602D420469A
:10338000FFF7B2FE002608E0D4E901211AF8060092
:103390009047206A401C761C20624E45F4DB207862
:1033A000C0060AD52046FFF79FFE06E0D4E90121BA
:1033B00030209047206A401C2062381EA7F1010788
:1033C000F4DC07E0D4E9012118F805009047206AF1
:1033D000401C2062281EA5F10105F3DC2046FFF702
:1033E00099FE2078000602D50220BDE8F087012072
:1033F000FBE710B5436913B1AFF3008001E0FFF7BD
:103400009AFE012010BD127800F124010A700022FA
:103410004A700122EDE711684FF0FF32E9E7000042
:10342000074B70B50D467B4400F011F80446284662
:1034300000F020F810B14FF0FF3070BD204670BD95
:10344000DBDCFFFF01694A1C02610878704700B5A8
:103450008FB0CDE901310021059105497944CDE9CD
:10346000031011466846FFF7CBFE0FB000BD000009
:10347000E5FFFFFF007B00F080007047754600F01D
:103480002BF8AE4605006946534620F007008546F6
:1034900018B020B5FDF7E2FEBDE820404FF0000671
:1034A0004FF000074FF000084FF0000B21F007012C
:1034B000AC46ACE8C009ACE8C009ACE8C009ACE86F
:1034C000C0098D46704710B50446AFF30080204612
:1034D000BDE81040FCF77BBE004870471801002093
:1034E00030380A2801D201207047002070470000C0
:1034F0003C35000844350008243500083035000804
:103500003F065B4F666D7D077F6F777C395E797113
:10351000040000080000000000000002000100009C
:103520001000000048756E6472656473000000004E
:1035300054686F7573616E64730000004F6E65733D
:103540000000000054656E73000000006C35000838
:1035500000000020500000006C010008BC3500088D
:10356000500000202807000088010008000000002B
:1035700000000000000000000000000000A24A045B
:103580000000000000000000010203040607080913
:10359000010000000000000000000000000000002A
:1035A000000000000000000000000102030401020E
:0C35B000030406070809020406080000D6
:0400000508000131BD
:00000001FF
