:020000040800F2
:1000000020090020B5010008EF2800085B22000845
:10001000ED280008F50E0008813A000800000000F5
:100020000000000000000000000000002936000869
:10003000A10F000800000000F12800088936000820
:10004000CF010008CF010008CF010008CF01000850
:10005000CF010008CF010008CF010008CF01000840
:10006000CF010008CF010008CF010008CF01000830
:10007000CF010008CF010008CF010008CF01000820
:10008000CF010008CF010008CF010008CF01000810
:10009000CF010008CF010008CF010008CF01000800
:1000A000CF010008CF010008CF010008CF010008F0
:1000B000ED360008CF010008CF010008CF0100088D
:1000C000CF010008CF010008CF010008CF010008D0
:1000D000CF0100085D3A0008693A0008753A000847
:1000E000CF010008CF010008CF01000800F002F89E
:1000F00000F051F80AA090E8000C82448344AAF171
:100100000107DA4501D100F046F8AFF2090EBAE86E
:100110000F0013F0010F18BFFB1A43F0010318473B
:10012000CC3D0000EC3D0000103A24BF78C878C1F7
:10013000FAD8520724BF30C830C144BF04680C60ED
:10014000704700000023002400250026103A28BF35
:1001500078C1FBD8520728BF30C148BF0B60704739
:10016000642900F0B780752900F0B480632900F09D
:100170008483732900F08983002070471FB500F045
:1001800023FC04000020002103F0B2FD401C60604D
:100190001FBD10B510BD00F032FE1146FFF7EEFF97
:1001A00003F0C0FC00F050FE03B4FFF7F2FF03BC05
:1001B00003F07EFC0948804709480047FEE7FEE758
:1001C000FEE7FEE7FEE7FEE7FEE7FEE7FEE7FEE707
:1001D00004480549054A064B70470000EB36000805
:1001E000ED00000820030020200900202005002049
:1001F000200500200FB4044910B503AA029800F0AE
:1002000049FB10BC5DF814FB440000200FB41CB582
:10021000074B06AA7B4469460090059800F00BFB4B
:100220000020694600F01AFB1CBC5DF814FB0000BE
:100230004506000070B5044685690068C10601D511
:10024000302600E02026C00707D070BDD4E9012188
:1002500030469047206A401C20626D1EF6D570BD66
:1002600070B5044685690078C00707D170BDD4E930
:10027000012120209047206A401C20626D1EF6D587
:1002800070BD70B50C460546012A05D02878800659
:1002900000D5EA69002302E0012305E05B1C9342DC
:1002A00002D2E05C0028F9D1A869E618C01AA8615A
:1002B000286A184428622846FFF7BCFF04E0D5E905
:1002C000012114F8010B9047B442F8D32846FFF7F8
:1002D000C7FF70BD2DE9F04106460024106875295E
:1002E000314616A510D0AFF30080002802DA404254
:1002F00013A507E031688A0701D512A502E0490776
:1003000004D511A5012401E0AFF3008000210A22E9
:1003100006F1240709E0B0FBF2FCB0FBF2F302FBAC
:100320001C00303078541846491C0028F3D123466D
:100330002A463046BDE8F04100F01EBA0000000039
:100340002D0000002B000000200000002DE9F05FD0
:10035000894604464FF0000ADFF874B1FB44C0F848
:1003600020A02046E1688847002874D0252806D0C0
:10037000D4E901219047206A401C2062F1E7002661
:100380005F462046E16888472028054607DB312D77
:1003900005D2781910F8200C08B10643F1E7B00730
:1003A00001D526F00406C4F81CA00027C4F818A044
:1003B0002A2D09D0284603F074FB38B304EB8708D4
:1003C000303DC8F8185019E059F8041B204604EBDA
:1003D00087029161E1688847012F054618D1E069DD
:1003E000002820DA26F020061DE0D8F8180000EBDF
:1003F000800005EB40003038C8F818002046E1685E
:100400008847054603F04DFB0028EED1012F0AD0A6
:100410002E2D08D12046E16888477F1C0546022F13
:1004200046F02006C4DBA069002803DA404246F00B
:100430000106A061F00701D026F010066C2D0BD04C
:10044000682D09D04C2D39D06A2D35D0742D35D07A
:100450007A2D33D016E038E0E1682F4620468847F1
:10046000B842054609D16C2F26D04FF48060E16870
:10047000064320468847054604E06C2F1AD04FF407
:10048000807006430DB3A5F14100192802D820352C
:1004900046F400664A462946204626604E46FFF747
:1004A0005FFE80B101280BD0F61D26F0070000F199
:1004B000080956E74020E4E78020D8E70020D6E787
:1004C00006F104094DE7284652E7206ABDE8F09F8F
:1004D000293B00000FB400B58DB010A90990009120
:1004E0000B904FF0FF300A9000200C9006487844A3
:1004F0000690064878446A4607900F9909A800F0CC
:10050000EFF90DB05DF814FB0F04000027040000A4
:100510002DE9FF5F1D464FF0FF3B91464FF000086D
:100520005F46D5E90146A96901987F1C8847296A79
:10053000824688470028F6D1BAF1FF3F0CD0002E42
:1005400024F4C06419DD600614D5BAF12B0F09D06C
:10055000BAF12D0F0ED103E0584604B0BDE8F09F6C
:1005600044F48064A96901987F1C8847761E8246FE
:10057000002E02DDBAF1300F03D0B9F1000F26D002
:1005800032E0A969761E01987F1C44F40074884704
:10059000002E824605DDBAF1780F06D0BAF1580F69
:1005A00003D0B9F1000F10D01EE0B9F1000F02D056
:1005B000B9F1100F18D1A969761E01987F1C24F497
:1005C000007488478246102002E0082000E00A20DC
:1005D000814609E0A96908FB0908761E01987F1C7D
:1005E00044F4007488478246002E05DD4946504693
:1005F00000F062F90028EDDAE96901988847A00562
:1006000002D46FF00100A8E7E00725D1600613D5FA
:10061000600502D5C8F1000000E0404629680A1DC7
:100620002A600968220501D5087015E0220701D566
:10063000088011E008600FE02868011D296000684B
:10064000210502D580F8008006E0210702D5A0F838
:10065000008001E0C0F8008038467EE770B50646AD
:1006600000F086F80468054630460A22002100F0B2
:1006700067F92C6070BD30B505460B462A4613F865
:10068000014B12F8010B08B1A042F8D01CB10028B0
:1006900002D06D1CF1E7284630BD10B5431C02E0C6
:1006A00010F8011B71B18107FAD14FF0013202C875
:1006B0008C1A8C4314EAC211F9D0C01A0A0603D06E
:1006C000C01E10BDC01A10BD0A0401D0801E10BD8E
:1006D0000902FCD0401E10BD4FF000020429C0F0FA
:1006E000128010F0030C00F01B80CCF1040CBCF164
:1006F000020F18BF00F8012BA8BF20F8022BA1EBB6
:100700000C0100F00DB85FEAC17C24BF00F8012B9A
:1007100000F8012B48BF00F8012B70474FF0000292
:1007200000B5134694469646203922BFA0E80C50E7
:10073000A0E80C50B1F12001BFF4F7AF090728BFC2
:10074000A0E80C5048BF0CC05DF804EB890028BF3E
:1007500040F8042B08BF704748BF20F8022B11F067
:10076000804F18BF00F8012B7047704770477047E3
:1007700000487047BC0200202DE9F0470D4699461D
:100780009246044600F124080168880604D5E06911
:1007900021F01001216000E00120A84201DD471B8B
:1007A00000E00027A1697A1902EB0900081AA0618C
:1007B0002078C00602D42046FFF73CFD002608E062
:1007C000D4E901211AF806009047206A401C761CE3
:1007D00020624E45F4DB2078C0060AD52046FFF79C
:1007E00029FD06E0D4E9012130209047206A401C11
:1007F0002062381EA7F10107F4DC07E0D4E90121EB
:1008000018F805009047206A401C2062281EA5F1B8
:100810000105F3DC2046FFF723FD2078000602D512
:100820000220BDE8F0870120FBE7000001694A1CB7
:1008300002610878704700B58FB0CDE90131002121
:10084000059105497944CDE9031011466846FFF743
:100850007DFD0FB000BD0000E5FFFFFF0A6802F854
:10086000010B0A60704710B5436913B1AFF3008004
:1008700001E0FFF706FD012010BD127800F1240110
:100880000A7000224A700122EDE711684FF0FF3232
:10089000E9E70000074B70B50D467B44FFF7CBFF3F
:1008A0000446284600F0A7FA10B14FF0FF3070BDA3
:1008B000204670BD6F3200003A2800D2303820F058
:1008C0002002412A01D3A2F13700884201D34FF020
:1008D000FF30704702681144137801601846704772
:1008E000D16005497944516104497944116200217C
:1008F0001161114600F076B8EDFFFFFFE300000044
:10090000426842B1016811F8013B23B1521EC0E9AF
:100910000012184670470121C160881E7047426866
:100920005AB1C368016843B983688B4205D0491E38
:10093000521CC0E90012002070474FF0FF30704792
:100940002DE9F04791460F4680460446002614F8EC
:10095000015B2DB100F030F80068405DC007F6D1B2
:100960002B2D02D02D2D18D0641E4A463946204624
:1009700000F0F2F927B13968A14201D1C7F800802F
:100980004FF0020471050BD54042002803DDFFF74C
:10099000EFFE0460A007BDE8F08746F48066E4E758
:1009A0000028F8DAFFF7E4FE04606FF00040F2E799
:1009B00000487047BC02002010B500F005F8001D8B
:1009C00010BD00BF2D33000000487047DC0200203E
:1009D00010B50446FFF7F0FF0068005D00F001006D
:1009E00010BD00002DE9F34F4FF0000A0C465646AB
:1009F0008DB001200C9001F10C000B9062690B98F6
:100A000001219047051E2DD0252D2CD0216A884725
:100A1000C0B162690B9801219047216A884700287C
:100A2000F7D16269411E0B98904700E0761CA169DE
:100A30000D988847216A88470028F7D1E1690D9809
:100A40008847DBE7A1690D988847A842074601D18E
:100A5000761CD3E7E1690D9888477F1C02D1BAF173
:100A6000000F6FD06BE162690B9800273D46394655
:100A700090472A2804D162690B98012190470125EB
:100A8000DFF8D08262690B9801219047A0F1300114
:100A90000A290AD24745E5DC07EB870100EB41074D
:100AA000303FDFD445F01005ECE7E90601D46FF0E4
:100AB00000476C280AD04C2814D0682815D06A2822
:100AC0000DD074281CD07A281AD01DE062690B98CA
:100AD000012190476C2802D045F0040514E045F050
:100AE00002050DE045F020050AE062690B9801213E
:100AF0009047682802D045F0080505E045F40065F8
:100B000062690B9801219047C4E9015765283DD0DF
:100B100019DC58287AD00CDC452837D004DC25288D
:100B200026D041289ED131E046282FD0472899D1A0
:100B30002CE05B2877D0612828D063287CD06428FB
:100B400023D15AE0F6E06F2848D008DC66281DD093
:100B500067281BD0692821D06E2816D127E070287D
:100B600045D0732868D0752847D078280DD14DE03E
:100B7000A1690D988847252805463FF469AFE169CA
:100B80000D9888476D1C3FF46AAFD8E00D99234655
:100B90006A466FF00100AFF30080C5E045F0400009
:100BA00023464FF000026060A80736D43EE0E80715
:100BB0007FF447AF2068011D21600068290501D539
:100BC00006701BE7290701D5068017E7A90703D59B
:100BD000F117C0E9006111E706600FE745F040003A
:100BE00023464FF008026060A80716D41EE040F6C6
:100BF0000E0125EA0100606016E045F04000234642
:100C00004FF00A026060A80707D40FE045F04000EB
:100C10006060A80708D5234610220D996FF00100E7
:100C2000AFF3008080E007E0102223460D996FF0BB
:100C30000100FFF76DFC77E04FF0000963284F4695
:100C4000C8464B46CB4602D05B2806D038E0E806C3
:100C500001D40120A060012732E06269D4F80CB011
:100C60000B98012190475E2807D14FF001094946B2
:100C70006269D4F80CB00B989047216939B900210A
:100C80000A4603AB43F82120491C0829FADBD8B3F4
:100C9000216949B308F1010862690B980121904765
:100CA0005D28F4D1B9F1000F09D0002003A951F853
:100CB0002020D24341F82020401C0828F7DB03AB5A
:100CC0002069002820794FEA40701ED05B462246FA
:100CD000CDF80080CDE901970D9900286FF0010053
:100CE00020DAAFF300801FE0C11703AA00EBD16147
:100CF0004B1121F01F0102EB8302411A13680120FE
:100D0000884003431360C7E719E00D992246002885
:100D10006FF00100009702DAAFF3008004E0AFF358
:100D2000008001E0AFF3008000280ADA401C06D101
:100D30000C9820B14FF0FF300FB0BDE8F08F504657
:100D4000FAE7E90701D10AF1010A064400200C90F4
:100D500054E60000CCCCCC0C2DE9F05F8246154661
:100D60008B4600270AF10104B9460078302801D0EB
:100D70009DB113E014F8010B0127782803D05828FF
:100D800001D045B10AE00DB1102D07D1002714F8AC
:100D9000010B102502E0082500E00A250026B046D8
:100DA0000EE005FB080005FB06F101271FFA80F89D
:100DB00001EB1046B6F5803F00D3B94614F8010B9D
:100DC0002946FFF779FD0028EBDABBF1000F05D0CB
:100DD0000FB1641E00E05446CBF80040B9F1000F9B
:100DE00006D0FFF7C5FC02210160C81EBDE8F09FD8
:100DF00048EA0640FAE7007B00F08000704775463D
:100E0000FFF7D6FDAE4605006946534620F00700C1
:100E1000854618B020B5FFF7DBF9BDE820404FF05C
:100E200000064FF000074FF000084FF0000B21F0D4
:100E30000701AC46ACE8C009ACE8C009ACE8C009A1
:100E4000ACE8C0098D46704710B50446AFF300808A
:100E50002046BDE81040FFF7A7B900004FF0013C65
:100E600050F8042B51F8043B9A4221D1A2EB0C0319
:100E7000934313EACC1317D150F8042B51F8043BD9
:100E80009A4215D1A2EB0C03934313EACC130BD176
:100E900050F8042B51F8043B9A4209D1A2EB0C0301
:100EA000934313EACC13DBD04FF00000704700BF30
:100EB000D01A01BAB1FA81F101F0180122FA01F059
:100EC000CB40C1F12001DBB2C0B2C01A2CFA01F351
:100ED000D11A914311EAC311E6D1704710B5102120
:100EE000034800F021FA012800D0002010BD0000C6
:100EF00000080140FEE7000000220121014800F047
:100F000018BA0000000C014001221146014800F00F
:100F100010BA0000000C014010B5FFF7DFFF0C49CC
:100F2000CA78904213D00B4AC87048B101201070A3
:100F3000087009A0FFF75EF9BDE8104000F032B874
:100F400000201070BDE810400CA0FFF753B910BD91
:100F500000000020400000205B42545D20436F6E83
:100F60006E6563746564202853544154452070694C
:100F70006E2048494748290D0A0000005B42545D35
:100F800020446973636F6E6E6563746564202853D3
:100F9000544154452070696E204C4F57290D0A006A
:100FA0007047000010B5002186B0084601F052FAE3
:100FB000114C207828B1228910A16846FFF726F944
:100FC00003E012A16846FFF721F9684601F0AEFA86
:100FD0000021012001F03EFAA07810B1A28910A1F1
:100FE00001E0628912A16846FFF710F9684601F036
:100FF0009DFA06B010BD0000000000204469737423
:101000003A2534646D6D20202020200053797374BC
:10101000656D3A204F464620202020200000000029
:101020005365743A2534646D6D2020202020200003
:101030005468723A2534646D6D20202020202000F1
:1010400072B6FEE710B590F821100022022905D0F3
:101050000421816380F82020012010BD01680B6805
:1010600023F00E030B6001680B6823F001030B6093
:1010700090F84030C46B012101FA03F3636080F8FB
:10108000211080F82020104610BD000010B590F807
:1010900021100024022903D00421816301243DE0B2
:1010A00001680A6822F00E020A6001680A6822F0EC
:1010B00001020A601A4A0168914201D1012121E02E
:1010C000174A1432914201D110211BE0144A2832F0
:1010D000914201D1891515E0114A3C32914201D16A
:1010E00089140FE00E4A5032914202D14FF4803100
:1010F00008E00B4A6432914202D14FF4801101E0C2
:101100004FF08071064A083A5160012180F82110A1
:10111000002180F82010416B01B18847204610BDA6
:101120000800024070B5044600F008F90546601C4E
:1011300002D004480078044400F000F9401BA042AB
:10114000FAD370BD480000202DE9F84FDFF8B891C0
:101150000024A9F1040B23460F2709F1040AABF17F
:10116000040EC9E00125A5402A40AA427DD1674E60
:10117000D1F804C0ACEB0608B44532D014DCBCF1A5
:10118000030F3AD009DCBCF1000F2AD0BCF1010FEB
:101190001CD0BCF1020F31D11DE0BCF1110F17D0F2
:1011A000BCF1120F2AD119E0B8F5881F19D006DC5E
:1011B000B8F5803F15D0B8F5801F1FD111E0B8F504
:1011C000001F0ED0B8F5041F18D10AE0CB6815E057
:1011D000CB681B1D12E0CB6808330FE0CB680C33E3
:1011E0000CE08B682BB1012B4FF0080303D0456155
:1011F00004E0042302E0056100E00023FF2A01D897
:10120000064601E000F104064FEA840501D9A5F184
:101210002005D6F8008007FA05FC28EA0C0803FA36
:1012200005F548EA0508C6F800804D68ED0062D56E
:10123000374DAE6946F00106AE61AD6924F0030694
:1012400005F001050095334D06EB050CDCF8085060
:10125000A607360F07FA06F825EA0805DFF8B88072
:10126000404503D14FF0000817E044E0DFF8AC80C0
:10127000404502D14FF001080FE0DFF8A48040455F
:1012800002D14FF0020808E0DFF89880404502D113
:101290004FF0030801E04FF0040808FA06F848EAA6
:1012A0000508CCF808804D68D9F80060ED024D467D
:1012B00001D5164300E096432E604D68DAF80060D1
:1012C000AD02554601D5164300E096432E604D68A9
:1012D000DBF80060AD035D4601D5164300E09643A0
:1012E0002E604D68DEF80060ED03754601D51643AB
:1012F00000E096432E60641C0D682A46E5407FF4AA
:1013000031AFBDE8F88F0000080401400000111063
:10131000001002400000014000080140000C0140A4
:1013200000100140001401408068084000D00120F6
:1013300070470AB1016170470904FBE70148806802
:10134000704700004800002002488168027811447C
:101350008160704748000020074810B5016841F0DF
:1013600010010160032000F075F80F2000F006F86E
:1013700000F024F8002010BD0020024070B50D4D93
:1013800004464FF47A712878B1FBF0F00A490968F5
:10139000B1FBF0F000F0DCFA48B9102C07D20022C3
:1013A0002146501E00F036F800206C6070BD012010
:1013B00070BD000048000020540000200C4808B513
:1013C000816941F001018161816901F001010091B0
:1013D000C16941F08051C161C06900F08050009046
:1013E0000448416821F0E06141F00071416008BDAE
:1013F0000010024000000140002809DB00F01F023D
:10140000012191404009800000F1E020C0F8001166
:1014100070470000F0B40E4B1B680C46C3F3022368
:10142000C3F10705042D00D90425191D072901D290
:10143000002300E0DB1E012606FA05F1491E2140CB
:1014400099409E40761E16403143F0BC02F019BB15
:101450000CED00E0064900F0070208684FF6FF03B4
:10146000184040EA0220034A104308607047000019
:101470000CED00E00000FA052DE9F0470F460500ED
:1014800061D0434E306800F00700B84209D230689E
:1014900020F0070038433060306800F00700B842A1
:1014A00051D128683B4C810712D5400703D56068AD
:1014B00040F4E06060602878000703D5606840F47D
:1014C000605060606068A96820F0F00008436060C8
:1014D0002878C00728D06868012810D02168022821
:1014E00010D0890700292EDA616821F00301014339
:1014F0006160FFF723FF804641F288390DE02168E3
:101500008903EFE78901EDE7FFF718FFA0EB08017A
:10151000494502D90320BDE8F0876068696800F09A
:101520000C00B0EB810FEFD1306800F00700B8423B
:101530000BD9306820F0070038433060306800F085
:101540000700B84201D00120E5E72878400705D51B
:101550006068E96820F4E06008436060287800076C
:1015600006D56068296920F4605040EAC1006060D7
:1015700000F038F86168084AC1F30311515CC840B3
:101580000649086006480068FFF7F8FE0020C2E739
:1015900000200240001002402E3E000854000020AF
:1015A0004C0000200448054900684968044AC1F31A
:1015B0000221515CC84070475400002000100240D6
:1015C0003E3E00080448054900684968044AC1F3E2
:1015D000C221515CC84070475400002000100240F6
:1015E0003E3E00080E4A51680E4801F00C03042BE1
:1015F00011D0082B0FD10C48C1F38343C903C05C41
:101600000AD55168084AC1F34041921E515C054A0F
:101610005043B0FBF1F07047044948437047000065
:101620000010024000127A001E3E000800093D0032
:101630002DE9F84F040070D02078C04DC00749D084
:101640006868C0F38100012807D06868C0F3810092
:10165000022809D16868C00306D52868800339D5F7
:1016600060680028E7D035E06068B0F5803F0BD0B7
:1016700010B1B0F5A02F11D0286820F48030286078
:10168000286820F4802002E0286840F48030286038
:10169000606890B1FFF752FE06460AE0286840F401
:1016A00080202860F0E700BFFFF748FE801B642819
:1016B00073D828688003F7D50CE0FFF73FFE064695
:1016C00005E000BFFFF73AFE801B6428F0D82868C9
:1016D0008003F7D420789A4E80074FF001094FF02D
:1016E000000839D5686810F00C0F07D06868C0F39F
:1016F0008100022809D16868C00306D428688007E1
:1017000014D52069012808D110E02069B0B1C6F8CD
:101710000090FFF713FE074605E00AE1FFF70EFE13
:10172000C01B0228C4D828688007F7D528686169DB
:1017300020F0F80040EAC10028600DE0C6F8008003
:10174000FFF7FCFD074604E0FFF7F8FDC01B022889
:1017500023D828688007F7D4207800072CD579484B
:10176000A169D9B1C0F80090FFF7E8FD074604E091
:10177000FFF7E4FDC01B02280FD8686A8007F7D581
:1017800071484FF4FA510068B0FBF1F0009000BFCF
:101790000098411E0091FAD20EE080E0C0F800806F
:1017A000FFF7CCFD074604E0FFF7C8FDC01B022889
:1017B00075D8686A8007F7D42078400760D5E86953
:1017C0000027C00008D4E86940F08050E861E8696B
:1017D000012700F0805000905C480168C90513D4CF
:1017E0000168834641F480710160FFF7A7FD8246DE
:1017F00006E000BFFFF7A2FDA0EB0A0064284ED868
:10180000DBF80000C005F5D5E06801280AD008B172
:10181000052813D0286A20F001002862286A20F0E9
:10182000040002E0286A40F001002862E06841F20A
:10183000883B98B1FFF782FD82460BE0286A40F0B2
:1018400004002862EEE700BFFFF778FDA0EB0A0175
:1018500059455AD8286A8007F6D50CE0FFF76EFD87
:10186000824605E0FFF76AFDA0EB0A0159454CD816
:10187000286A8007F6D41FB1E86920F08050E8613B
:10188000E06988B36968C1F38101022944D0022864
:10189000C6F8608004D0FFF751FD044638E034E01C
:1018A000FFF74CFD074604E0FFF748FDC01B022888
:1018B0002BD828688001F7D4206AB0F5803F05D185
:1018C0006868A16820F4003008436860D4E9080122
:1018D0000843696821F4741108436860C6F8609091
:1018E000FFF72CFD044606E025E000BFFFF726FDCC
:1018F000001B022809D828688001F7D51BE000BF2B
:10190000FFF71CFD001B022802D90320BDE8F88F59
:1019100028688001F4D40EE00128F7D06868226AB4
:1019200000F48031914204D1616A00F47010884261
:1019300001D00120EAE70020E8E7000000100240A3
:1019400000004242800442425400002000700040E7
:1019500010B5401EB0F1807F01D3012010BD4FF0C3
:10196000E02460610F21601702F08BF80020A06175
:1019700007202061002010BD7047704770B590F8B7
:101980003C20012A26D0012480F83C40022280F825
:101990003D2003685A689D6822F070060A68324349
:1019A0005A600D4B02689A4208D0B2F1804F05D0C0
:1019B0000A4B9A4202D00A4B9A4204D1496825F058
:1019C00080031943916080F83D40002180F83C106D
:1019D000084670BD022070BD002C0140000400408C
:1019E0000008004010B5040003D094F83D0010B189
:1019F00007E0012010BD002084F83C00204600F0E4
:101A00001FF8022084F83D00211D206801F074FEBB
:101A1000012084F8460084F83E0084F83F0084F8F2
:101A2000400084F8410084F8420084F8430084F8C0
:101A3000440084F8450084F83D00002010BD0000FB
:101A400008B50068B0F1804F12D10A48C16941F071
:101A50000101C161C069002200F001000090022173
:101A60001C20FFF7D7FCBDE808401C20FFF7C4BCD2
:101A700008BD00000010024090F83D10012901D07F
:101A800001207047022180F83D100168CA6842F0C9
:101A90000102CA6000680B49884208D0B0F1804F4B
:101AA00005D00949884202D00849884204D181689A
:101AB00001F00701062903D0016841F0010101602E
:101AC00000207047002C0140000400400008004046
:101AD00070B5044690F83C000025012817D0012677
:101AE00084F83C60022084F83D002068826822F07F
:101AF000770222F47F4282600868502838D00DDCDB
:101B000020284FD005DC90B3102811D14AE00220E4
:101B100070BD302846D040280AD13BE060282FD045
:101B200070280DD0B0F5805F03D0B0F5005F12D003
:101B3000012584F83D60002084F83C00284670BDF3
:101B4000CB68D1E90121206801F012FE206881688C
:101B500041F0770109E0CB68D1E90121206801F06B
:101B600007FE2068816841F480418160E1E719E067
:101B7000CA684968206801F00DFE5021206806E01F
:101B8000CA684968206801F016FE6021206801F0EB
:101B9000F9FDCEE7CA684968206801F0FBFD4021E5
:101BA0002068F4E7226801461046F0E770472DE907
:101BB000F04104460068C66805694FF00007A907B0
:101BC00013D5B10711D5F91E0161012020772068D6
:101BD00080698007204602D0FFF7E8FF04E000F0AC
:101BE0007EF8204600F07CF82777680716D5700746
:101BF00014D521686FF00400086102202077206866
:101C0000806910F4407F204602D0FFF7CFFF04E048
:101C100000F065F8204600F063F82777280715D50F
:101C2000300713D521686FF0080008610420207781
:101C30002068C0698007204602D0FFF7B7FF04E0A4
:101C400000F04DF8204600F04BF82777E80616D54F
:101C5000F00614D521686FF0100008610820207785
:101C60002068C06910F4407F204602D0FFF79EFF35
:101C700004E000F034F8204600F032F82777E80757
:101C800008D0F00706D021686FF0010008612046F7
:101C900000F027F8280608D5300606D521686FF031
:101CA000800008612046FFF767FE680608D57006C9
:101CB00006D521686FF040000861204600F012F858
:101CC000A8060AD5B00608D521686FF02000086183
:101CD0002046BDE8F041FFF750BEBDE8F0817047F7
:101CE000704770477047704770470000F8B501684B
:101CF00004460868CA684B6910F00F0F4FF00005E2
:101D000059D003F0010602F49077374365D0C1073C
:101D100005D0D10503D5616C41F001016164410733
:101D200005D5D90703D0616C41F0020161648107D8
:101D300005D5D90703D0616C41F004016164010746
:101D400007D502F02001314303D0616C41F0080156
:101D50006164616C00293AD0800604D5900602D5F2
:101D6000204601F069FD20684069616CC0F3801075
:101D7000090700D460B3204601F037FD20684069B0
:101D8000400621D52068143050E8001F21F04001A2
:101D900040E80012002AF5D1E06BA8B16D4941631B
:101DA000E06BFFF773F9002811D0E06B416B01B0D5
:101DB000BDE8F040084783060FD593060DD52046B1
:101DC000BDE8F84001F038BD2046FFF78DFFF8BDB3
:101DD0002046FFF789FF6564F8BD266B2023012E9E
:101DE0007CD1C6067AD5D60678D5086848680090B2
:101DF00048694FF00206400640D5E16B086840682C
:101E00000004000CE8D0A28D8242E5D9E085886903
:101E100020282DD020680C3050E8001F21F480715C
:101E200040E80012002AF5D12068143050E8001F65
:101E300021F0010140E80012002AF5D12068143099
:101E400050E8001F21F0400140E80012002AF5D1BF
:101E500084F84230256320680C3050E8001F21F0E0
:101E6000100140E80012002AF5D1E06BFFF7EAF814
:101E70006663A08DE18D401A81B22AE0A08DE18DCC
:101E8000401A81B2E08D0028A6D00029A4D0226893
:101E90000C3252E8000F20F4907042E80007002F47
:101EA000F5D12068143050E8002F22F0010240E8FC
:101EB0000027002FF5D184F84230256320680C30CC
:101EC00050E8002F22F0100240E80023002BF5D14B
:101ED00066632046FFF707FFF8BDFFE705062BD531
:101EE000150629D594F841002128F5D1A068B0F550
:101EF000805F01D12069B0B1206A411C2162216854
:101F000000784860E08C401E0004000CE084E3D1BF
:101F10002068C16821F08001C1602068C16841F07B
:101F20004001C160D8E7206A0088C0F3080048601B
:101F3000206A801C2062E5E74006CDD55006CBD54F
:101F4000CA68204622F04002CA6084F8413000F09E
:101F500083F9C1E7DB37000870B5040004D094F8BA
:101F60004100002510B106E0012070BD84F840500A
:101F7000204600F023F8242084F841002068C1683E
:101F800021F40051C160204601F0B8FC20680169CD
:101F900021F4904101612068416921F02A014161E9
:101FA0002068C16841F40051C1606564202084F854
:101FB000410084F842006563002070BDF0B585B033
:101FC000002400940194029403940368424F022079
:101FD00042490322424D4602BB4225D18B6943F45C
:101FE00080438B618B6903F4804304938B6943F0D6
:101FF00004038B618969039201F0040104910102D9
:10200000CDE9001069462846FFF79EF8CDE9006447
:10201000694628460294FFF797F8002203212520FD
:10202000FFF7F8F9252028E02E4FBB4229D1CB69D4
:1020300043F40033CB61CB6903F4003304938B6921
:1020400043F004038B618969039201F00401049158
:102050000421CDE9001069462846FFF775F80820ED
:10206000CDE90004694628460294FFF76DF8002286
:1020700001212620FFF7CEF92620FFF7BDF905B094
:10208000F0BD194DAB42FAD1CB6943F48023CB614B
:10209000CB6903F4802304938B6943F008038B61BD
:1020A0008969124D01F00801CDE90321CDE90060F5
:1020B00069462846FFF748F8E814CDE90004694668
:1020C00028460294FFF740F8002211462720FFF728
:1020D000A1F92720D1E7000000380140001002409C
:1020E000000801400044004000480040000C01404E
:1020F00090F84230202B01D00220704721B11AB154
:102100000023036301F056BC0120704710B500683E
:10211000244A254990420ED14869401C486108690B
:10212000401C0861481D007801F0F0F91E490122A9
:10213000491D1E4831E01E4A904226D11A4800240B
:10214000801D037808893F2813D2184A883A13540F
:10215000401C80B208810A2B11D101280FD90244FA
:1021600012F8023C0D2B0AD102F8024C401E0881E5
:1021700005E00E480C8140218838FEF7CFFA0A4965
:102180000A480122891D483007E00A49884208D1DF
:10219000054906480122091D4838BDE81040FFF7EF
:1021A000A7BF10BD004400401C00002034010020E7
:1021B00000480040003801402DE9F843044690F8FB
:1021C0004100984616460D46202802D00220BDE860
:1021D000F88385B17EB100206064212084F841003D
:1021E000FFF7ACF8A6848146E684A0682027B0F506
:1021F000805F02D003E00120E9E7206910B12E469C
:1022000000250EE000260CE08021204601F0EDFBC9
:10221000A8B9C6B116F8010B21684860E08C401ED1
:10222000E084E08C4B464FF00002CDF8008000289F
:10223000EAD14FF04001204601F0D7FB40B184F8CD
:1022400041700320C3E735F8020BC0F30800E3E751
:1022500084F841700020BAE77047FEE710B54FF4EC
:10226000FA70FEF75FFF40210548FEF735FA054991
:1022700000200880BDE8104003A0FDF7BBBF0000B0
:10228000AC000020240000205B494E49545D2042F0
:102290006C7565746F6F746820696E697469616CC0
:1022A000697A65642C2077616974696E6720666F4E
:1022B0007220636F6E6E656374696F6E2E2E2E0DC5
:1022C0000A00000010B50F4A012806D0022807D0E6
:1022D00004280ED008280AD10EE04FF4005101E086
:1022E0004FF480414FEA0200FFF71EF838B100209A
:1022F00010BD4FF40041F5E702210348F4E7012047
:1023000010BD0000001001400008014070470000AF
:1023100070B50120FFF7D6FF0026184D01280FD019
:102320000220FFF7CFFF01280CD00420FFF7CAFFDF
:10233000012809D00820FFF7C5FF012806D017E0C3
:10234000012404E0022402E0042400E00824687868
:10235000012801D064B10EE00A20FEF7E3FE20461A
:10236000FFF7B0FF012806D16E702C70204670BDBB
:10237000012068702E70002070BD00005800002001
:1023800010B5012000F092F8BDE810400220FEF7E1
:10239000C9BE000070B50122094D940321462846AC
:1023A000FEF7C7FF0120FEF7BDFE002221462846AA
:1023B000FEF7BFFFBDE870400120FEF7B3BE00008E
:1023C000000C014010B53220FEF7ACFE204C00227C
:1023D0004FF480512046FEF7ACFF002261142046E6
:1023E000FEF7A7FF00224FF480412046FEF7A1FF31
:1023F000032000F037F8FFF7CDFF0520FEF792FE2F
:10240000032000F02FF8FFF7C5FF0120FEF78AFE3A
:10241000032000F027F8FFF7BDFF0120FEF782FE42
:10242000022000F01FF8FFF7B5FF0120FEF77AFE4B
:10243000282000F03BF80C2000F038F8FFF7A0FF50
:10244000062000F033F8BDE810400A20FEF76ABE0F
:10245000000C014018B1C031C8B200F027B880317B
:10246000FAE7000070B5044600F001024FF40041A5
:102470000C48FEF75EFF0C4DC4F340024FF4807130
:102480002846FEF756FFC4F38002E9142846FEF7FB
:1024900050FFC4F3C002A9142846BDE87040FEF7FF
:1024A00048BF0000000C01400008014070B5104D0D
:1024B000044600224FF480512846FEF73AFF0022DE
:1024C00069142846FEF735FF2009FFF7CBFFFFF719
:1024D00061FF04F00F00FFF7C5FFFFF75BFF022C61
:1024E00004D8BDE870400220FEF71CBE70BD00009D
:1024F000000C014070B50C4D044601221103284622
:10250000FEF717FF002269142846FEF712FF200984
:10251000FFF7A8FFFFF73EFF04F00F00FFF7A2FF51
:10252000BDE87040FFF736BF000C014010B504460F
:1025300002E0641CFFF7DEFF20780028F9D110BD0F
:102540002DE9F04786B00024464800940194029497
:102550000394816941F010018161816901F01001EA
:102560000491816941F020018161816901F02001BC
:102570000491816941F004018161816901F00401E4
:102580000491816941F0080181618069DFF8D89088
:1025900000F008004FF20107049000223946484637
:1025A000FEF7C7FEDFF8C4A04FF4C858002241462A
:1025B0005046FEF7BEFE4FF4604001258DE8310025
:1025C00069462B48FEF7C0FD022600966946504634
:1025D000CDE90145FEF7B8FD10208DE851006946B0
:1025E0005046FEF7B1FD00970396CDE901546946C8
:1025F0004846FEF7A9FDCDF800800396CDE90154C9
:1026000069465046FEF7A0FD06208DE83100694678
:102610004846FEF799FD3820CDE90005CDE9024690
:1026200069464846FEF790FDEF0300970396CDE913
:10263000015469465046FEF787FD4FF470708DE8EF
:10264000310069464846FEF77FFD012238214846A1
:10265000FEF76FFE012239465046FEF76AFE06B0CD
:10266000BDE8F08700100240000C01400008014066
:102670000010014010B586B0002417480094019462
:102680000294039404944FF080410594016041F654
:102690001F41C0E901146321C0E903148021816155
:1026A000FFF7A0F908B1FEF7CBFC4FF48050009083
:1026B00069460948FFF70CFA08B1FEF7C1FC04941B
:1026C00004A905480594FFF759F9002801D0FEF741
:1026D000B7FC06B010BD0000640000200C4810B527
:1026E0000A4901604FF4E1314160002181600C2210
:1026F000C160C0E904128161C161FFF72DFC0028AF
:1027000003D0BDE81040FEF79BBC10BD003801406F
:10271000EC0000200E4810B50C4901604FF4612117
:102720004160002181600C22C160C0E90412816116
:10273000C161FFF711FC08B1FEF782FCBDE8104053
:10274000012204490248FFF7D3BC000000440040C6
:10275000340100202100002010B511480F49002449
:1027600001604FF41651C0E901140C21C460C0E9A6
:1027700004418461C461FFF7EFFB08B1FEF760FC20
:10278000012208490648FFF7B3FC05484021D0382C
:10279000FDF7C4FF0348801F048110BD00480040BE
:1027A0007C01002022000020411E0F2902D802498E
:1027B000085C704700207047783E000870B500F054
:1027C00051F8194C002605462278314690420BD12B
:1027D000A078012200B9A2701DB3607838B1012839
:1027E0000AD002280BD01DE0A17020701AE06270A0
:1027F000FEF7A4FD606012E00220607012E0FEF7B8
:102800009DFD6168401AB0F5FA7F0BD96421A0F5EF
:10281000FA70B0FBF1F201FB1200142802D22E462E
:1028200000E06170304670BD5C00002070B50B495F
:1028300000200B4D0870487048608870044605F110
:10284000100600BF35F8141056F824000122FEF7D8
:1028500070FD641CE4B2042CF4D370BD5C00002055
:10286000483E00082DE9F84F4FF0000A1E4E54462E
:10287000D34606F1100700BF36F8141057F82400AD
:102880000022FEF756FD5846CDF800B0401C0090DF
:102890000228FBD3DFF85080002508F1080808F172
:1028A000180900BF38F8151059F82500FEF73CFD4F
:1028B00005F10105EDB210B1042DF3D3002536F872
:1028C000141057F824000122FEF733FD25B105EB63
:1028D000840000F0FF0A03E0641CE4B2042CCBD3B4
:1028E0005046BDE8F88F0000483E0008FEE7FEE7CE
:1028F0007047000010B5FEF721FD254C2169401AF4
:10290000B0F57A7F43D3FEF719FD206121A0FDF7D2
:1029100071FCFEF713FD014626A0FDF76BFC218933
:1029200028A0FDF767FC61892BA0FDF763FC2078E8
:1029300008B12EA100E02EA12EA0FDF75BFC60786F
:1029400008B130A100E032A133A0FDF753FCA0781C
:1029500008B134A100E034A134A0FDF74BFCFEF730
:10296000BDFA08B135A200E036A23748007808B1B8
:102970002CA100E02CA135A0FDF73CFCE1883CA097
:10298000FDF738FCBDE8104040A0FDF733BC10BD9A
:10299000000000200A3D3D3D2053595354454D2031
:1029A000444542554720494E464F203D3D3D0D0A86
:1029B0000000000054696D653A20256C756D730D3B
:1029C0000A00000044697374616E63653A202564EF
:1029D0006D6D0D0A000000005468726573686F6CBD
:1029E000643A2025646D6D0D0A0000004F4E000012
:1029F0004F46460053797374656D3A2025730D0A6E
:102A000000000000414C41524D494E47000000007B
:102A10004E4F524D414C0000416C61726D3A202581
:102A2000730D0A00594553004E4F000053657474EE
:102A3000696E673A2025730D0A000000484947482F
:102A4000000000004C4F570040000020425420433B
:102A50006F6E6E65637465643A2025732028535445
:102A60004154452070696E3A202573290D0A0000F3
:102A70004C69444152204672616D65732052656312
:102A800065697665643A2025640D0A003D3D3D3D4B
:102A90003D3D3D3D3D3D3D3D3D3D3D3D3D3D3D3D66
:102AA0003D3D3D3D0D0A000007480021027842B13E
:102AB000028932B143899A4203D901214170FEF75C
:102AC00023BA4170FEF718BA000000202DE9F0414A
:102AD000474D92B0288800286FD0464846A18046CE
:102AE000FDF7C9FD002620B1414644A0FDF782FB59
:102AF00076E04FA14046FDF7BEFD4E4C012720B9C0
:102B00004DA14046FDF7B7FD30B14E48017819B9E7
:102B100007702770FEF746FA4BA14046FDF7ABFD64
:102B200040B1207810B92770FEF73CFA64230822E0
:102B300047A10CE049A14046FDF79DFD50B120782A
:102B400010B12670FEF72EFA6423092245A14848E9
:102B5000FFF732FB47A14046FDF78DFD00B308AA01
:102B600047A14046FDF7B6FC012819D1BDF8201059
:102B700042F20F70814213D8618144A0FDF73AFB05
:102B8000FEF710FA62894BA16846FDF73FFB6846E5
:102B9000FDF783FD82B2642369463548FFF70CFBDD
:102BA00048A14046FDF767FDD0B161786089CDE965
:102BB0000001207810B125A201E016E028A22389A7
:102BC00043A102A8FDF722FB02A8FDF766FD82B231
:102BD000642302A92648FFF7EFFA4CA0FDF70AFB91
:102BE00040210448FDF778FD2E8012B0BDE8F08149
:102BF00024000020AC000020415400005B4445420A
:102C000055475D2048432D303520415420636F6D7A
:102C10006D616E642072656365697665642C2069F8
:102C2000676E6F72696E673A2025730D0A000000A7
:102C30004F4B000000000020434F4E4E454354458B
:102C40004400000040000020434D443A4F4E000035
:102C500041434B3A4F4E0D0A00000000434D443AA9
:102C60004F46460041434B3A4F46460D0A0000008E
:102C70007C0100205345543A5448523A0000000069
:102C80005345543A5448523A256875005B444542CE
:102C900055475D20425420434D443A2054687265A4
:102CA00073686F6C642073657420746F2025646D85
:102CB0006D0D0A0041434B3A5448523A25640D0ABF
:102CC000000000004745543A535441545553000006
:102CD0005374617475733A53797374656D3D2573DC
:102CE0002C44697374616E63653D25646D6D2C546D
:102CF00068726573686F6C643D25646D6D2C416C02
:102D000061726D3D25640D0A000000005B44454280
:102D100055475D20425420434D443A20537461741A
:102D200075732073656E740D0A00000070B5FFF7AF
:102D3000EFFA050061D0014630A0FDF75BFA0026EE
:102D4000384C082D14D0A078012D3FD0002854D045
:102D5000042D48D0022D50D1A0890A2801D30A3869
:102D6000A081FEF71FF96420BDE87040FEF7DAB9D4
:102D700021782DA0FDF73EFA207878B1002121704E
:102D80004FF47A7561B133A0FDF734FAFFF7F8FA22
:102D900000210846FFF75EFB36A00EE00121EEE7BA
:102DA0006670FEF7A9F836A0FDF724FAFFF7E8FAF7
:102DB00000210846FFF74EFB39A0FFF7B7FB284676
:102DC000FEF7B0F9BDE87040FEF7ECB818B1A08985
:102DD0006081A67003E00120A0706089A081FEF7E9
:102DE000E1F8C820C0E7A08942F20F710A3080B232
:102DF000A0818842B5D9A181B3E770BD5B4B45592D
:102E0000535D20496E646570656E64656E74206BF9
:102E1000657920707265737365643A2025640D0AC4
:102E200000000000000000205B4B4559535D204B23
:102E300045595F4F4E4F4646207072657373656407
:102E40002C2073797374656D5F6F6E3D25640D0A78
:102E5000000000005B4B4559535D20537973746546
:102E60006D204F4E2028746F67676C6564290D0ACA
:102E70000000000053797374656D3A204F4E0000D6
:102E80005B4B4559535D2053797374656D204F46F4
:102E9000462028746F67676C6564290D0A0000007E
:102EA00053797374656D3A204F4646002DE9F0431F
:102EB00085B0FFF783FC05005BD0FFF775FC81460A
:102EC000102D39D00F2D37D00E2D35D00C2D33D0FD
:102ED0000B2D31D00A2D2FD0082D2DD0072D2BD022
:102EE000062D29D0032D27D04FF00008B54C4346BE
:102EF0004A46A07800902946B3A0FDF77BF9012748
:102F0000052309220D21BF480097FDF773F900261C
:102F1000B8F1000F30D0A07888B12079042810D201
:102F200004F1140101F80090401CC0B220710E544D
:102F3000B5A0FDF75FF90FE04FF00108D6E7BAA0A2
:102F4000EAE000210120FFF785FAC4A0FFF7EEFABE
:102F50004FF4FA70FEF7E6F89A4AC5A114326846B3
:102F6000FDF754F900210120FFF774FA6846FFF7D6
:102F7000DDFA05B0BDE8F083022D42D04FF47A7837
:102F8000042D7ED00D2D79D0092D78D0052D77D048
:102F9000012DEED1BBA0FDF72DF9FDF7B5FF6420A3
:102FA000FEF7C0F8FDF7A8FF6420FEF7BBF8FFF7B7
:102FB000E7F900210846FFF74DFA2289BCA16846CF
:102FC000FDF724F96846FFF7B1FA00210120FFF769
:102FD00041FA6289B9A16846FDF718F96846FFF71A
:102FE000A5FA4FF4FA652846FEF79CF8FFF7C8F9F2
:102FF00000210846FFF72EFA207800287BD0B2A0E7
:10300000ADE0A0780028B4D020790028B1D06D4878
:103010001430FDF723FB81B2A1F10A0042F20572E0
:1030200040F2DC55904217D86181AAA0FDF7E2F882
:10303000FFF7A6F900210846FFF70CFAAEA0FFF74C
:1030400075FA00210120FFF705FA6289AEA16846F2
:10305000FDF7DCF8684606E0FFF792F90021084624
:10306000FFF7F8F9AAA0FFF761FA2846FEF75AF829
:10307000A67026716661267644E002E013E026E041
:1030800047E0A07838B1A670267166612676FDF714
:1030900089FFA4A040E0FFF773F900210846FFF77D
:1030A000D9F9A7A029E02178A9A0FDF7A3F82078F5
:1030B00008B1B1A030E02770B7A0FDF79BF8FFF78B
:1030C0005FF900210846FFF7C5F97FA015E02178D8
:1030D000B7A0FDF78FF82078C8B126706670FDF7AD
:1030E0000BFFBDA0FDF786F8FFF74AF9002108465F
:1030F000FFF7B0F900E031E0BDA0FFF717FA404656
:10310000FEF710F805B0BDE8F043FDF74BBFBBA0DC
:1031100002E0A07828B1C1A005B0BDE8F043FDF7FA
:1031200069B8A7702671666139462676C4A0FDF796
:1031300061F8FFF725F90A20FDF7F4FF00210846A2
:10314000FFF788F9CDA0FFF7F1F900210120FFF783
:1031500081F9CEA0FFF7EAF9CFA0DDE7A4A0FFF741
:10316000E5F900210120FFF775F9607808B1D4A0D6
:1031700000E0D7A0FFF7DAF92846FDF7D3FFFFF705
:10318000FFF800210846FFF765F9D5A0FFF7CEF953
:1031900000210120FFF75EF9D448007808B1D4A0DF
:1031A00000E0D6A0FFF7C2F92846FDF7BBFFFDF708
:1031B000ABFE6420FDF7B6FFFDF79EFEFDF7F2FEC5
:1031C000D7E60000000000205B4D41545249585D95
:1031D000204B65793A2025642028256329202D205D
:1031E00069735F64696769745F6B65793D25642CF9
:1031F0002073657474696E675F6D6F64653D2564E7
:103200000D0A00009C3E00085B494E5055545D205D
:103210005468726573686F6C6420696E7075743A77
:103220002025730D0A0000005B4D41545249585D42
:10323000204E6F7420696E2073657474696E672008
:103240006D6F64652C206469676974206B657920F3
:1032500069676E6F7265640D0A0000004D61782029
:103260003420646967697473212020200000000005
:10327000496E7075743A202573206D6D20202020D2
:10328000000000005B4D41545249585D2053797352
:1032900074656D20496E666F20446973706C617946
:1032A00020776974682042757A7A65720D0A000089
:1032B000446973743A2534646D6D00005468723A41
:1032C0002534646D6D00000053797374656D3A2088
:1032D0004F4E00005B4D41545249585D2054687276
:1032E0006573686F6C642073657420746F3A202571
:1032F00064206D6D0D0A00005468726573686F6C10
:1033000064205365743A00002564206D6D00000050
:10331000496E76616C696421202831302D39393944
:10332000392900005B4D41545249585D20496E7067
:1033300075742063616E63656C6C65640D0A0000D2
:10334000446973706C617920436C656172656400D7
:103350005B4D41545249585D2041206B6579207086
:103360007265737365642C2073797374656D5F6F18
:103370006E3D25640D0A00005B4D41545249585D75
:103380002053797374656D20616C72656164792076
:103390004F4E0D0A000000005B4D41545249585DEC
:1033A0002053797374656D204F4E0D0A00000000A4
:1033B0005B4D41545249585D2042206B6579207025
:1033C0007265737365642C2073797374656D5F6FB8
:1033D0006E3D25640D0A00005B4D41545249585D15
:1033E0002053797374656D204F46460D0A00000026
:1033F00053797374656D3A204F4646005B4D4154D6
:103400005249585D2053797374656D20616C726503
:10341000616479204F46460D0A0000005B4D41541F
:103420005249585D20416C726561647920696E2053
:1034300073657474696E67206D6F64650D0A0000B2
:103440005B4D41545249585D20456E74657220743D
:1034500068726573686F6C642073657474696E67F5
:10346000206D6F64652C2073657474696E675F6D81
:103470006F64653D25640D0A0000000053657420EB
:103480005468726573686F6C643A0000496E7075B9
:10349000743A205F206D6D005B4D41545249585D78
:1034A000204C434420646973706C617920736574A7
:1034B00020636F6D706C657465640D0A0000000018
:1034C000416C61726D3A20414354495645000000F9
:1034D000416C61726D3A204E4F524D414C000000DC
:1034E000426C7565746F6F74683A0000400000208C
:1034F000436F6E6E656374656400000044697363B6
:103500006F6E6E656374656400000000F0B5424C38
:1035100000252246267857784049414B4FF0030C4E
:1035200087EA0002052E48D92A2E1DD2B6FBFCF1EF
:103530000CFB11672646DFF8E4C03178B678491CE9
:10354000CDB206EB460161442FB1012F06D00872BF
:10355000761CA67000E0C88025704CE0CE8806EB93
:103560000020F8E76070F0BD2A3E052EFBD2DFE8B0
:1035700006F003060C0F160048852B200DE04D8D3C
:1035800005EB002048852C2007E088852D2004E0ED
:103590008D8D05EB002088852E2020702BE081F892
:1035A0002E00B84205D100F085FA1E490888401C5B
:1035B000088065702570A570F0BD062EFCD2DFE88E
:1035C00006F0030B171C2225542807D10870012090
:1035D000207087F0540009E02C2802D02570657017
:1035E000F0BD48700220207087F02C00185CB9E70D
:1035F000488084F800C0985CB4E74D8805EB002053
:1036000048800420C9E788800520C6E78D8805EB3F
:10361000002088800620C0E71C0000208C020020CB
:103620001C3D0008060000207047000000B50A4855
:103630008FB0417800914389028908A101A8FCF765
:10364000E5FD01A8FDF729F882B2642301A90D4820
:10365000FEF7B2FD0FB000BD000000204469737496
:10366000616E63653A25646D6D2C5468726573688C
:103670006F6C643A25646D6D2C416C61726D3A25F6
:10368000640D0A007C010020FDF75EBE30B58FB0EE
:1036900028216846FDF742F814210AA8FDF73EF8F4
:1036A00001210804CDE900100024029402250491B0
:1036B000CDE907504FF4E01009906846FDF7B8FFD8
:1036C00008B172B6FEE70F20CDE90A054FF480601D
:1036D000CDE90C4002210AA80E94FDF7CDFE00288A
:1036E00001D072B6FEE70FB030BD70470148FEF75B
:1036F0005EBA000064000020F0B50268194B1A4C55
:103700001A4D4FF08047984205D0B84203D0A042EE
:1037100001D0A84203D122F070064A683243984291
:1037200005D0B84203D0A04201D0A84203D122F470
:103730004074CA6822434C6922F08002224302602E
:103740008A68C2620A688262984201D1096901638B
:10375000012141610169C90703D0016921F001011B
:103760000161F0BD002C0140000400400008004051
:1037700010B5846842EA032224F47F440A432243BA
:10378000826010BD826822F070020A4342F0070195
:103790008160704710B5036A046A24F00104046272
:1037A000846924F0F00444EA021423F00A020A4374
:1037B0008461026210BD10B5036A046A24F010042B
:1037C0000462846923F0A00324F4704444EA0232C2
:1037D00043EA01118261016210BD10B5406A002107
:1037E000C185C184FEF780FA10BD01680C3151E833
:1037F000002F22F4907241E80023002BF5D10168DC
:10380000143151E8002F22F0010241E80023002B7F
:10381000F5D1016B012909D101680C3151E8002F64
:1038200022F0100241E80023002BF5D1202180F87E
:10383000421000210163704708B590F84210222918
:1038400001D0022008BD82684FF480539A4201D112
:10385000016921B1816A9A421BD04AB10AE002682B
:10386000816A5268C2F308020A80816A891C08E0F2
:10387000026972B10268526802F07F020A70816ABE
:10388000491C8162C18D491E0904090CC18503D000
:103890001BE002685268F1E70168CA6822F0200262
:1038A000CA600168CA6822F48072CA6001684A6905
:1038B00022F001024A61202180F842100021416378
:1038C000026B012A03D0FEF721FC002008BD016332
:1038D00001680C3151E8002F22F0100241E800236A
:1038E000002BF5D101680A68D20602D50A6849683A
:1038F0000091818DFEF7F7F9E7E7000070B5044607
:1039000000680169E26821F44051114301612169B5
:10391000A0680843616908432168CA6841F20C63E2
:103920009A430243CA6020684169A26921F4407148
:10393000114341611E492068884202D1FDF742FED1
:1039400001E0FDF72FFE00EBC00101EB0012606803
:1039500064218000B2FBF0F3B3FBF1F36FF01806C3
:103960007343B2FBF0F5B2FBF0F605EB83053223AF
:1039700003EB0515B5FBF1F5B6FBF1F605F0F00527
:1039800005EB0615B2FBF0F6B2FBF0F0B0FBF1F080
:103990006FF01802504306EB800003EB0010B0FB01
:1039A000F1F0216800F00F002844886070BD00002D
:1039B0000038014081628285C28500214164222154
:1039C00080F84210016921B10168CA6842F480722E
:1039D000CA6001684A6942F001024A610068C16830
:1039E00041F02001C160002070472DE9F84398465E
:1039F00017460D460446089E24E0701C22D0FDF7B1
:103A00009DFCA0EB0800B0421AD8CEB12068C16876
:103A1000490717D5802D15D0402D13D00168C94313
:103A200009070FD401680025406800902046FFF781
:103A3000DCFE0820606484F840500120BDE8F88373
:103A40000320FBE72068006835EA000004D000206E
:103A5000B842D2D00020F1E70120F9E70148FEF793
:103A600045B90000EC0000200148FEF73FB9000016
:103A7000340100200148FEF739B900007C01002024
:103A8000FEE70907090E002804DB00F1E02080F8BA
:103A90000014704700F00F0000F1E02080F8141DC2
:103AA000704730380A2801D2012070470020704743
:103AB0007047000030B51248124C0022D0F81810A0
:103AC00002EB42032344DB881BB1458919446D1C7A
:103AD0004581521CD2B20C2AF2D38161C278521CA9
:103AE000D2B2C270032A09D342891AB1B1FBF2F1F2
:103AF000054A1180002181614181C17030BD000003
:103B00001C0000208C0200200800002004490A68E4
:103B10005206FCD5024AC1B2121D11607047000066
:103B200000380140FDF718FCFFF7B0FDFEF708FD77
:103B3000FEF7D4FDFEF710FEFEF79CFDFEF7EAFD52
:103B4000FEF740FCFEF71CFCFEF7E0FBFEF76EFE06
:103B500030A0FCF74FFBFDF7CFF9FEF77FFB00210C
:103B60000846FEF777FC34A0FEF7E0FC00210120B8
:103B7000FEF770FC34A0FEF7D9FC4FF4FA60FDF7B5
:103B8000D1FAFEF7FDFBFDF70DFA33A0FCF732FB8F
:103B90003C48FDF771FF00263B4F354634464FF455
:103BA000966800BFFFF7C2F8FDF7C8FB001B0228AC
:103BB00004D3FDF7C3FB0446FFF778F9FEF786FF51
:103BC000FDF7AAF9FDF7BAFB801B64280AD3FDF7BD
:103BD000B5FBB9780646B9B12CA0FCF70BFB00BFCA
:103BE000FEF762FFFDF7AAFB401B404508D3FDF737
:103BF000A5FB0546387808B1FFF718FDFEF77AFEF9
:103C00000120FDF78FFACDE72CA0FCF7F3FAFDF7C2
:103C1000C9F9E5E75B494E49545D204D617472690D
:103C200078204B657970616420696E697469616C94
:103C3000697A65640D0A00004C61736572204469FD
:103C40007374616E6365000020204D656173757249
:103C5000656D656E742020004C6173657220446947
:103C60007374616E6365204D6561737572656D6512
:103C70006E742053797374656D205374617274652A
:103C8000640D0A0064000020000000205B4D4149E3
:103C90004E5D20536B697020446973706C61795F6D
:103CA000537461747573282920696E207365747468
:103CB000696E67206D6F64650D0A00005B4D4149B8
:103CC0004E5D2043616C6C696E6720446973706C53
:103CD00061795F5374617475732829202873657442
:103CE00074696E675F6D6F64653D2564290D0A0018
:103CF00010B500290AD00878002807D00548784474
:103D0000FDF7ACF8002801D0002010BD024878442F
:103D100010BD00000E02000006020000004D9AD700
:103D20007934E3AEF2BF68258BC6115CA9E4337E1B
:103D3000D09D4A075B16C18C226FB8F51F5285C80B
:103D4000662BFCB1EDA0773A94D90E43B6FB2C61FB
:103D5000CF8255184409DE933D70A7EA3E73A4E96B
:103D6000470ADD90CC81561BB5F82F6297DA0D40DB
:103D7000EEA374396528FFB21C5186CB216CBBF6CB
:103D80005815C28FD39E4904AAE7307D88C5125FBB
:103D9000F1BC6B267A37E0AD034E99D47C31E6ABAB
:103DA00005489FD28EC31459F7BA6D20D5984F029B
:103DB000ACE1367B276ABDF05E13C489632EF9B48B
:103DC0001A5780CD91DC0B46E8A5723FCA87501D7B
:103DD000B3FE29643875A2EF410CDB96420FD895EB
:103DE0003B76A1ECB0FD2A67C984531EEBA6713C5B
:103DF00092DF0845195483CE602DFAB75D10C78A4B
:103E00002469BEF3AFE23578D69B4C01F4B96E233A
:103E10008DC0175A064B9CD17F32E5A801020203E0
:103E20000405060708090A0B0C0D0E0F1010000000
:103E3000000000000000010203040607080900005A
:103E400000000102030400002000100008000080B0
:103E50004000800000010002000C0140000C014005
:103E6000000C014000080140000C0140000C014022
:103E7000000C0140000C0140004423302A43393833
:103E80003742363534413332310400000800000037
:103E90000000000002000100001000005B444542E9
:103EA00055475D204D41545249585F4B45595F413C
:103EB0003D25642C204D41545249585F4B45595F74
:103EC000423D25642C204D41545249585F4B455981
:103ED0005F433D25642C204D41545249585F4B456A
:103EE000595F443D25640D0A000000001C40000895
:103EF0000000002064000000280100088040000845
:103F000064000020BC08000044010008100100000B
:103F100043000000F8FFFFFF0040404040404040A9
:103F2000404041414141414040404040404040408C
:103F30004040404040404040400502020202020230
:103F4000020202020202020202202020202020207F
:103F50002020200202020202020290909090909093
:103F60001010101010101010101010101010101051
:103F700010101010020202020202888888888888C5
:103F800008080808080808080808080808080808B1
:103F900008080808020202024000000000000000B9
:103FA0000000000000000000000000000000000011
:103FB0000000000000000000000000000000000001
:103FC00000000000000000000000000000000000F1
:103FD00000000000000000000000000000000000E1
:103FE00000000000000000000000000000000000D1
:103FF00000000000000000000000000000000000C1
:1040000000000000000000000000000000000000B0
:1040100000000000000000000000000000000000A0
:1040200000000000000088130000000000000000F5
:104030000000000000000000000000000000000080
:104040000000000000000000000000000000000070
:104050000000000000000000000000000000000060
:10406000000000000100000010000000000000003F
:1040700000127A00000100000000000000000000B3
:04000005080000ED02
:00000001FF
