:020000040800F2
:10000000C0440020E1010008E5010008E701000804
:10001000E9010008EB010008ED0100080000000004
:10002000000000000000000000000000EF010008D8
:10003000F101000800000000F3010008513300083E
:10004000F7010008F7010008F7010008F7010008B0
:10005000F7010008F7010008F7010008F7010008A0
:10006000F7010008F7010008F7010008F701000890
:10007000F7010008F7010008F7010008F701000880
:10008000F7010008F7010008F7010008F701000870
:10009000F7010008F7010008F7010008F701000860
:1000A000F7010008F7010008F7010008F701000850
:1000B000F7010008F7010008F7010008F701000840
:1000C000F7010008F7010008F7010008F701000830
:1000D000F701000861330008F7010008E933000860
:1000E000810E0008F7010008F7010008F701000879
:1000F000F7010008F7010008F7010008F701000800
:10010000F7010008F7010008F7010008F7010008EF
:10011000F7010008F7010008F7010008F7010008DF
:10012000F7010008F7010008F7010008F7010008CF
:1001300000F002F800F045F80AA090E8000C8244B4
:100140008344AAF10107DA4501D100F03AF8AFF291
:10015000090EBAE80F0013F0010F18BFFB1A43F0A5
:1001600001031847EC8300000C840000103A24BF00
:1001700078C878C1FAD8520724BF30C830C144BF0C
:1001800004680C607047000000230024002500264E
:10019000103A28BF78C1FBD8520728BF30C148BFEA
:1001A0000B607047642900F0C180782900F0FA8064
:1001B000732900F0FA83002070471FB51FBD10B5EA
:1001C00010BD00F00DFC1146FFF7F7FF04F050FDE5
:1001D00000F02BFC03B4FFF7F2FF03BC03F00EFAB0
:1001E00008480047FEE7FEE7FEE7FEE7FEE7FEE71A
:1001F000FEE7FEE7FEE7FEE703480449024A044B38
:100200007047000031010008C03C0020C0440020BD
:10021000C03C0020704700000FB4044910B503AA89
:10022000029800F0C7FB10BC5DF814FB2C00002006
:100230000FB41CB5074B06AA7B446946009005988D
:1002400000F081FB0020694600F090FB1CBC5DF8CB
:1002500014FB0000310700000FB41CB50C0007AA06
:10026000009001D02044401E074B7B44694601901A
:10027000069800F068FB002C03D06946002000F0CF
:1002800075FB1CBC5DF814FB0907000070B5044643
:1002900085690068C10601D5302600E02026C00728
:1002A00007D070BDD4E9012130469047206A401C38
:1002B00020626D1EF6D570BD70B504468569007864
:1002C000C00707D170BDD4E9012120209047206AE2
:1002D000401C20626D1EF6D570BD70B50C460546FB
:1002E000012A05D02878800600D5EA69002302E0BB
:1002F000012305E05B1C934202D2E05C0028F9D1A7
:10030000A869E618C01AA861286A18442862284615
:10031000FFF7BCFF04E0D5E9012114F8010B904779
:10032000B442F8D32846FFF7C7FF70BD2DE9F0416E
:100330000646002410687529314616A510D0AFF383
:100340000080002802DA404213A507E031688A07DE
:1003500001D512A502E0490704D511A5012401E049
:10036000AFF3008000210A2206F1240709E0B0FB68
:10037000F2FCB0FBF2F302FB1C003030785418465C
:10038000491C0028F3D123462A463046BDE8F041F7
:1003900000F07ABA000000002D0000002B000000E1
:1003A0002000000070B504460D4621461068AFF3EA
:1003B00000802188090502D50F4A7A4402E00E4ADE
:1003C0007A440E32002104F1240305E000F00F0608
:1003D0000009965D5E54491C0028F7D1207800235F
:1003E000000704D5702D02D009B102231132204636
:1003F000BDE8704000F048BA228000002DE9F05FAF
:10040000894604464FF0000ADFF874B1FB44C0F897
:1004100020A02046E1688847002874D0252806D00F
:10042000D4E901219047206A401C2062F1E70026B0
:100430005F462046E16888472028054607DB312DC6
:1004400005D2781910F8200C08B10643F1E7B0077F
:1004500001D526F00406C4F81CA00027C4F818A093
:100460002A2D09D0284603F0C2F838B304EB8708D8
:10047000303DC8F8185019E059F8041B204604EB29
:1004800087029161E1688847012F054618D1E0692C
:10049000002820DA26F020061DE0D8F8180000EB2E
:1004A000800005EB40003038C8F818002046E168AD
:1004B0008847054603F09BF80028EED1012F0AD0AB
:1004C0002E2D08D12046E16888477F1C0546022F63
:1004D00046F02006C4DBA069002803DA404246F05B
:1004E0000106A061F00701D026F010066C2D0BD09C
:1004F000682D09D04C2D39D06A2D35D0742D35D0CA
:100500007A2D33D016E038E0E1682F462046884740
:10051000B842054609D16C2F26D04FF48060E168BF
:10052000064320468847054604E06C2F1AD04FF456
:10053000807006430DB3A5F14100192802D820357B
:1005400046F400664A462946204626604E46FFF796
:1005500029FE80B101280BD0F61D26F0070000F11E
:10056000080956E74020E4E78020D8E70020D6E7D6
:1005700006F104094DE7284652E7206ABDE8F09FDE
:10058000F87F0000401ECAB210F8011F8A4202D054
:100590000029F9D10020704710B5431E13F8014F10
:1005A000002CFBD105E011F8014B002C03F8014BA6
:1005B00003D0521EF7D20021197010BD30B5054688
:1005C0000B462A4613F8014B12F8010B08B1A04262
:1005D000F8D01CB1002802D06D1CF1E7284630BDD0
:1005E00040EA0103024630B59B0710D14FF00134B9
:1005F00000E008C208C91D1B9D4315EAC41FF8D0BE
:1006000013F0FF0102F8011B0DD01B0AF8E711F8E7
:10061000013B002B02F8013B05D011F8013B002BF8
:1006200002F8013BF3D130BD10B5431C02E010F8D5
:10063000011B71B18107FAD14FF0013202C88C1A47
:100640008C4314EAC211F9D0C01A0A0603D0C01EA6
:1006500010BDC01A10BD0A0401D0801E10BD0902D1
:10066000FCD0401E10BD421E12F8013F002BFBD1F2
:1006700011F8013B002B02F8013BF9D17047032A26
:1006800040F2308010F0030C00F0158011F8013BAF
:10069000BCF1020F624498BF11F801CB00F8013B96
:1006A00038BF11F8013BA2F1040298BF00F801CB5A
:1006B00038BF00F8013B11F0030300F02580083A31
:1006C000C0F0088051F8043B083A51F804CBA0E888
:1006D0000810F5E7121D5CBF51F8043B40F8043BDD
:1006E000AFF30080D20724BF11F8013B11F801CB12
:1006F00048BF11F8012B24BF00F8013B00F801CBE3
:1007000048BF00F8012B704710B5203AC0F00B80AD
:10071000B1E81850203AA0E81850B1E81850A0E805
:100720001850BFF4F5AF5FEA027C24BFB1E818505F
:10073000A0E8185044BF18C918C0BDE810405FEACF
:10074000827C24BF51F8043B40F8043B08BF70474B
:10075000D20728BF31F8023B48BF11F8012B28BF50
:1007600020F8023B48BF00F8012B70474FF0000211
:100770000429C0F0128010F0030C00F01B80CCF1B3
:10078000040CBCF1020F18BF00F8012BA8BF20F821
:10079000022BA1EB0C0100F00DB85FEAC17C24BF75
:1007A00000F8012B00F8012B48BF00F8012B70471F
:1007B0004FF0000200B5134694469646203922BFFA
:1007C000A0E80C50A0E80C50B1F12001BFF4F7AF45
:1007D000090728BFA0E80C5048BF0CC05DF804EB27
:1007E000890028BF40F8042B08BF704748BF20F895
:1007F000022B11F0804F18BF00F8012B704700004A
:100800004FF0013C50F8042B51F8043B9A4221D19F
:10081000A2EB0C03934313EACC1317D150F8042B2B
:1008200051F8043B9A4215D1A2EB0C03934313EA0F
:10083000CC130BD150F8042B51F8043B9A4209D148
:10084000A2EB0C03934313EACC13DBD04FF0000070
:10085000704700BFD01A01BAB1FA81F101F0180156
:1008600022FA01F0CB40C1F12001DBB2C0B2C01AC4
:100870002CFA01F3D11A914311EAC311E6D1704762
:1008800070477047704770472DE9F0470D4699460D
:100890009246044600F124080168880604D5E06900
:1008A00021F01001216000E00120A84201DD471B7A
:1008B00000E00027A1697A1902EB0900081AA0617B
:1008C0002078C00602D42046FFF7E0FC002608E0AE
:1008D000D4E901211AF806009047206A401C761CD2
:1008E00020624E45F4DB2078C0060AD52046FFF78B
:1008F000CDFC06E0D4E9012130209047206A401C5D
:100900002062381EA7F10107F4DC07E0D4E90121D9
:1009100018F805009047206A401C2062281EA5F1A7
:100920000105F3DC2046FFF7C7FC2078000602D55E
:100930000220BDE8F0870120FBE7000001694A1CA6
:1009400002610878704700B58FB0CDE90131002110
:10095000059105497944CDE9031011466846FFF732
:100960004DFD0FB000BD0000E5FFFFFF0A6802F873
:10097000010B0A607047D1E900239A4202D2531C4E
:100980000B601070704710B5436913B1AFF300806E
:1009900001E0FFF7A2FC012010BD127800F1240154
:1009A0000A7000224A700122EDE711684FF0FF3211
:1009B000E9E70000074B70B50D467B44FFF7C3FF26
:1009C0000446284600F008F810B14FF0FF3070BD23
:1009D000204670BD1F3D0000007B00F08000704786
:1009E000754600F02BF8AE4605006946534620F0E8
:1009F0000700854618B020B5FFF7FEFBBDE8204094
:100A00004FF000064FF000074FF000084FF0000BCA
:100A100021F00701AC46ACE8C009ACE8C009ACE87D
:100A2000C009ACE8C0098D46704710B50446AFF365
:100A300000802046BDE81040FFF7CCBB004870475F
:100A40005C3C002021B1826842F00102826003E038
:100A5000826822F0010282607047014600208A68A5
:100A600002F004020AB1012000E0002070470146B4
:100A7000C86C80B270470246002013680B400BB16F
:100A8000012000E000207047014600208A6802F043
:100A900008020AB1012000E00020704730B502468C
:100AA0000020002350680F4C20400D790C6844EA68
:100AB00005242043506090680B4C2040D1E902543B
:100AC0002C434D7944EA450420439060D06A20F4D9
:100AD00070000C7C641EE4B2234340EA0350D062F1
:100AE00030BD0000FFFEF0FFFDF7F1FFF0B504465A
:100AF0000D4600200021092D11DDE068A5F10A0650
:100B000006EB4607072606FA07F18843A5F10A0611
:100B100006EB460603FA06F10843E0600CE02069A4
:100B200005EB4507072606FA07F1884305EB45065E
:100B300003FA06F108432061072A0FDA606B561E9C
:100B400006EB86071F2606FA07F18843561E06EBBA
:100B5000860605FA06F10843606322E00D2A0FDAE3
:100B6000206BD61F06EB86071F2606FA07F188437F
:100B7000D61F06EB860605FA06F10843206310E04F
:100B8000E06AA2F10D0606EB86071F2606FA07F1BA
:100B90008843A2F10D0606EB860605FA06F1084326
:100BA000E062F0BD816841F008018160704721B1C9
:100BB000826842F4A002826003E0826822F4A0020C
:100BC00082607047816841F00401816070470000D5
:100BD0002DE9F047074689469046DDF820C0002100
:100BE000002200240026002500200446024601467B
:100BF00045E0002601E0491C761C614502D2585CA4
:100C00002028F8D0614500D13BE0ACEB0100022880
:100C100007D3585C0D2804D1481C185C0A2800D161
:100C20002CE0585C0A2800D128E01EB16FF02B00A0
:100C3000BDE8F087585C3D2806D1601C04460228B8
:100C400002D96FF02B00F3E7585C7F2806DC585C74
:100C5000DFF8E4A01AF800007F2802D16FF02B0023
:100C6000E6E7585CDFF8D0A01AF80000402803DA65
:100C700014B16FF02B00DBE7521C00BF491C61452B
:100C8000B7D300BF1AB90020C8F80000D0E7D008D9
:100C900000EB40004FEA400A02F0070000EB400082
:100CA0004000C01D0AEBD002121B0FB1914504D2C7
:100CB000C8F800206FF02900BAE703240020064698
:100CC00002463D4631E018780D2805D018780A28EC
:100CD00002D01878202800D125E01878DFF858A035
:100CE0001AF80000402801D1012000E00020241A59
:100CF0001878DFF844A01AF8000066F39F10064643
:100D0000501C024604280DD1002214B1300C05F805
:100D1000010B012C02D9300A05F8010B022C01D974
:100D200005F8016B00BF491E5B1C0029CBD1E81BF5
:100D3000C8F8000000207BE71E8300082DE9F04F73
:100D400007468946099C00250026AC46A846AA46C7
:100D500000211CB900201060BDE8F08F0320B4FB17
:100D6000F0F04FF0030BB4FBFBFE0BFB1E4BBBF193
:100D7000000F02D04FF0010B01E04FF0000B00EB31
:100D80000B06B6F1804F05D34FF0FF3010606FF0C7
:100D90002900E1E7B600701C814500D327B9701C1B
:100DA00010606FF02900D7E70320B4FBF0F000EBF0
:100DB00040060025394629E013F801CB13F8018BD2
:100DC00013F801AB2D484FEA9C0B10F80B0001F80B
:100DD000010B4FEA0C1000EB281000F03F00DFF889
:100DE0009CB01BF8000001F8010B4FEA880000EBF3
:100DF000AA1000F03F001BF8000001F8010B0AF0F8
:100E00003F001BF8000001F8010BED1CB542D3D3E5
:100E1000A5422DD213F801CB681CA04202D213F8D0
:100E2000010B00E0002080461448CCF3850B10F83D
:100E30000B0001F8010B4FEA0C1000EB281000F03A
:100E40003F00DFF838B01BF8000001F8010B681C08
:100E5000A04207D23F2000EA88001BF8000001F8FA
:100E6000010B02E03D2001F8010B3D2001F8010BD0
:100E7000C81B10600020087000BF6DE7DE8200080C
:100E800010B503F05FFC04464FF4805000F036F8D4
:100E900080B114480068201A142807D3124800783B
:100EA00040F00100104908700E4804604FF4805073
:100EB00000F01EF84FF4005000F020F880B10B480D
:100EC0000068201A142807D30748007840F0020071
:100ED00005490870054804604FF4005000F008F818
:100EE00010BD000048000020440000204C000020FD
:100EF00001490860704700001404014001460020C9
:100F00000022074B1B6803EA0102054B14331B68E0
:100F10000B4013B10AB1012000E00020704700002F
:100F200000040140002123498279002A3AD00A4670
:100F3000126803689A430B461A600A1D1268036818
:100F40009A430B1D1A60027911440A6803681A4318
:100F50000A60184A0832126803689A43154B08332E
:100F60001A601A1D126803689A43124B0C331A60F8
:100F70004279102A0ED11A1F126803681A430D4BCA
:100F800008331A601A1D126803681A43094B0C33A0
:100F90001A600DE00749427911440A6803681A4350
:100FA0000A6005E0027911440A6803689A430A60FE
:100FB000704700000004014030B500228B071C0F71
:100FC0000F2303FA04F20B4B8C1053F82430934395
:100FD000084C8D1044F8253023468C1053F82430EB
:100FE0008C07240F00FA04F42343024C8D1044F8BC
:100FF000253030BD080001402DE9F04102460025B2
:101000000026002000230024002791F803C00CF0E4
:101010000F0591F803C00CF0100CBCF1000F03D0C9
:1010200091F802C04CEA050591F800C0BCF1000F30
:1010300031D0146800202BE04FF0010C0CFA00F3C3
:10104000B1F800C00CEA03069E4220D183004FF0A5
:101050000F0C0CFA03F7BC4305FA03FC4CEA04043A
:1010600091F803C0BCF1280F06D14FF0010C0CFA27
:1010700000FCC2F814C00AE091F803C0BCF1480FAC
:1010800005D14FF0010C0CFA00FCC2F810C0401C56
:101090000828D1D31460B1F800C0BCF1FF0F34DDD3
:1010A000546800202EE000F1080C4FF0010808FA07
:1010B0000CF3B1F800C00CEA03069E4221D1830074
:1010C0004FF00F0C0CFA03F7BC4305FA03FC4CEA93
:1010D000040491F803C0BCF1280F05D100F1080CFD
:1010E00008FA0CF8C2F8148091F803C0BCF1480F5C
:1010F00007D100F1080C4FF0010808FA0CF8C2F80B
:101100001080401C0828CED35460BDE8F081000058
:10111000F0B50A46002300240021002500F0004617
:10112000B6F1004F02D11D4EF16901E01B4E71680E
:10113000C0F3034583B200F44016B6F5401F08D152
:1011400021F07061154E766826F07066134F7E6050
:1011500012E000F48016B6F5801F06D1032606FAC9
:1011600005F4A14341F0706106E0460D360103FA33
:1011700006F6B14341F0706122B1460D360103FA23
:1011800006F6314300F00046B6F1004F02D1034E9F
:10119000F16101E0014E7160F0BD0000000001400E
:1011A0000246002093680B400BB1012000E00020B4
:1011B00070474161704701617047000010B5092018
:1011C00004F06BFD02F0FCFE4FF4A06000F0F4FDB3
:1011D0004FF4E131482004F07CFE03F019FD03F0E8
:1011E000ADFC04F04BFB02F043FA00F0D5FF00F039
:1011F00021FF1CA20121084601F09EF81CA201213A
:10120000022001F099F804F04FF902F0B7FE04F063
:101210007DFB01201A49C8741AA0FEF7FDFF1AA031
:10122000FEF7FAFF26A0FEF7F7FF33A0FEF7F4FF64
:1012300015A0FEF7F1FF13A0FEF7EEFF03F07EFB13
:1012400003F044FB03F08CFA39A20121032001F0E2
:1012500073F83AA20121042001F06EF83AA0FEF7DB
:10126000DBFF10BD536D617274204C6162000000A1
:1012700053797374656D20496E69742E2E2E0000AB
:10128000FC0000200D0A00003D3D3D3D3D3D3D3D43
:101290003D3D3D3D3D3D3D3D3D3D3D3D3D3D3D3D7E
:1012A0003D3D3D3D3D3D3D3D3D3D3D3D3D3D3D3D6E
:1012B0003D3D3D3D3D3D3D3D3D3D3D3D0D0A00003B
:1012C0002020536D617274204C6162204D6F6E69F5
:1012D000746F72696E672053797374656D202D2069
:1012E00053544D3332463130334338543620202066
:1012F00020200D0A00000000202020202020202097
:10130000204275696C643A20323032352D31312DEE
:1013100030392076312E322020202020202020201D
:10132000202020202020202020200D0A0000000066
:1013300048583731313A204F4B00000053656E73E7
:101340006F72733A204F4B0053797374656D20525E
:10135000656164790D0A0D0A0000000072B67047DD
:1013600062B6704710B50446207B012802D1206880
:1013700004F05EF8002020606060A060207310BD63
:101380000246002301230DE002F07F000870D2091D
:101390002AB1087840F080000870491C01E0184626
:1013A00070475B1C042BEFDD4FF0FF30F8E770B5A2
:1013B00004460E460025206898B901202073304667
:1013C00004F09AF820602068E0B100206060A66018
:1013D00003E00020216848556D1CA068A842F8D899
:1013E00010E00220207303E00020216848556D1CA6
:1013F000A068A842F8D800206060A068B04201D27E
:101400000020206070BD00002DE9FF4F83B08246B0
:101410008B469146159C0025002002900F270190D5
:101420004846FFF701F90FFA80F8B9F1000F06D12D
:101430009DA0FEF7F1FE012007B0BDE8F08F08F196
:101440000200384487B2109808B145F0020512989E
:1014500078B145F004051298FFF7E6F8C0B20290A3
:101460001398FFF7E1F801460298001D084438443C
:1014700087B2119820B1012804D0022808D104E0D5
:1014800000BF07E045F00C0504E045F0140501E05D
:101490000220D1E700BF149808B145F02405BAF145
:1014A000000F02D0BBF1000F01D10320C4E745F0CB
:1014B000C0055046FFF7B8F806465846FFF7B4F89F
:1014C0003044001D384487B239462046FFF76FFF8D
:1014D000206808B90420AFE739462068FFF746F9CD
:1014E00010216268501C606020688154D4E9002398
:1014F000D118781FFFF744FF00B20190019800282F
:1015000004DA2046FFF72EFF052095E76168019871
:101510000844606000216268501C6060206881544B
:1015200004216268501C6060206881544D2162680B
:10153000501C60602068815451216268501C6060BA
:101540002068815454216268501C60602068815476
:101550006268501C60602068815404216268501CDD
:101560006060206881546168481C60602068455450
:101570000698010A6268501C6060206881540698D1
:10158000C1B26268501C606020688154C8F30721B2
:101590006268501C6060206881546268501C606002
:1015A000206800F80280D4E90012881842464946B3
:1015B000FEF7F2FF60684044606005F00400B8B3D5
:1015C0000026139808B93FA013901298FFF72CF843
:1015D00086B2310A6268501C60602068815462687B
:1015E000501C606020688654D4E900128818324686
:1015F0001299FEF7D1FF6068304460601398FFF7DE
:1016000013F886B2310A6268501C60602068815409
:101610006268501C606020688654D4E90012881803
:1016200032461399FEF7B8FF60683044606000BF2F
:1016300005F08000C8B15046FEF7F6FF86B2310AC9
:101640006268501C6060206881546268501C606051
:1016500020688654D4E90012881832465146FEF7B5
:101660009BFF60683044606000BF05F04000C8B177
:101670005846FEF7D9FF86B2310A6268501C606096
:10168000206881546268501C606020688654D4E9E8
:101690000012881832465946FEF77EFF60683044D3
:1016A000606000BF0020C7E65B4552524F522D4D8F
:1016B0005154545D206465766964206973204E55E9
:1016C0004C4C0D0A000000002DE9FF4F83B083460B
:1016D00017469946139C0025002600200290019091
:1016E0008046BBF1000F03D1012007B0BDE8F08FA9
:1016F00000260AE00498805D232803D00498805DCA
:101700002B2801D10220F0E7761C0498805D002888
:10171000F0D148F03008119808B148F0010806EB04
:101720000900851C109820B1012804D002280AD194
:1017300005E000BF09E048F00208AD1C05E048F0F4
:101740000408AD1C01E00320CFE700BF8FB3387859
:10175000022821D14FF0000A00BF50460AF1010AC9
:10176000385C7D28F9D1AAF1030A0AF1070002903A
:101770000298A9EB000AE81CA0EB0A012046FFF73B
:1017800016FE206808B90420AFE7EA1CA2EB0A01A4
:101790002068FEF7EBFF19E0691D2046FFF707FE02
:1017A000206808B90420A0E7691D2068FEF7DEFF65
:1017B0000CE0FFE7691D2046FFF7F9FD206808B936
:1017C000042092E7691D2068FEF7D0FF6168481C7D
:1017D0006060206800F80180D4E900028118284682
:1017E000FFF7CEFD01900198002804DA2046FFF7AC
:1017F000B9FD052079E76168019808446060C6F387
:1018000007216268501C6060206881546268501C27
:10181000606020688654D4E9001288183246049922
:10182000FEF7BAFE606830446060109860B14FEA1D
:101830001B216268501C6060206881546268501CE3
:101840006060206800F802B0C7B1387802280BD178
:10185000D4E9001288183946029AFEF710FF616831
:1018600002980844606009E0D4E9001288184A46EA
:101870003946FEF704FF606848446060002034E7A2
:101880002DE9F04190B004460D4616469846169F45
:1018900023460CA2302104A80095FEF7DDFC0120B0
:1018A0000021CDE9000133460A4604A9CDE902072B
:1018B0000A20FFF709FF18B1012010B0BDE8F08140
:1018C0000020FAE7247379732F25732F25732F6473
:1018D000702F706F73742F6A736F6E002DE9FF5F46
:1018E0008046174699460E9C0026B246B346002510
:1018F000B8F1000F03D1012004B0BDE8F09F0BE068
:1019000057F8250008B90220F6E757F82500FEF73A
:101910008BFE0644681CC5B24D45F1DB09EB49005E
:10192000801C00EB060A0AF105012046FFF73FFD87
:10193000206808B90320DFE782216268501C6060DC
:1019400020688154D4E9000281185046FFF718FD41
:101950000FFA80FBBBF1000F04DA2046FFF702FD0F
:101960000420C9E76068584460604FEA1821626843
:10197000501C6060206881546268501C6060206860
:1019800000F80280002524E057F82500FEF74CFE01
:101990000646C6F307216268501C606020688154C7
:1019A0006268501C606020688654D4E90023D01817
:1019B00057F825103246FEF7EFFD6068304460604E
:1019C0000198C1B26268501C606020688154681C34
:1019D000C5B24D45D8DB00208EE7F0B504460D4674
:1019E0002646012300201060002114E0775C07F0F8
:1019F0007F07106807FB03001060705C00F0800038
:101A000008B9481CF0BDDB01B3F5001F02D36FF02D
:101A10000100F7E7491CA942E8DB4FF0FF30F1E78E
:101A200010B504466078022805D0617808A0FEF75A
:101A3000F3FB012010BDA07810B1A078012801D1DE
:101A4000E078F7E7A17810A0FEF7E6FBFF20F1E7CA
:101A50005B4552524F522D4D5154545D20434F4ED1
:101A60004E41434B206C656E677468206572726FDF
:101A7000723A202564202865787065637465642057
:101A800032290D0A000000005B4552524F522D4D85
:101A90005154545D20434F4E4E41434B20666C6180
:101AA0006773206572726F723A2025640D0A000018
:101AB0002DE9FC5F81460D4614461E46DDE90C8B80
:101AC00099F8000000F00F0A002001900AF00800C9
:101AD0000090CAF341008BF8000001AA042109F12B
:101AE0000100FFF77AFF4844471C0198022802D3FF
:101AF0000AF0010010B1FF20BDE8FC9F787839782A
:101B000040EA012020802088801C0199884201D968
:101B1000FF20F1E754A1B81CFEF750FD08B10F20DB
:101B2000EAE79BF8000020B101283DD0022877D1D8
:101B30003BE0009808B1FF20DEE72188481C03F055
:101B4000DBFC2860286808B9FF20D5E72288511CF3
:101B50002868FEF70BFE2288B91C2868FEF78FFD67
:101B60000198801E2188401AA8F80000B8F80010DB
:101B7000481C03F0C1FC3060306820B9286803F0CD
:101B800057FCFF20B8E7B8F80020511C3068FEF77A
:101B9000EDFDB8F80020B4F800C0BB1C0CEB03014D
:101BA0003068FEF76CFD4FE000BF2088801C019973
:101BB000884201D9FF209FE72088C01C395C20881B
:101BC000801C385C41EA00210E9801800E9808B90B
:101BD000FF2091E72188481C03F08EFC28602868CC
:101BE00008B9FF2088E72288511C2868FEF7BEFD4F
:101BF0002288B91C2868FEF742FD0198001F218841
:101C0000401AA8F80000B8F80010481C03F074FC53
:101C10003060306828B9286803F00AFCFF206BE7C1
:101C200010E0B8F80020511C3068FEF79FFDB8F8AE
:101C30000020B4F800C03B1D0CEB03013068FEF738
:101C40001EFD01E0FF2057E700BF2B212846FEF7CD
:101C500099FC20B923212846FEF794FC08B1FF2007
:101C60004AE7002048E70000246372657100000025
:101C700001464878022801D001207047887820B9B1
:101C8000C8780A2801D10020F7E70120F5E7000015
:101C9000F8B50446FF270CB93846F8BD2078051181
:101CA000012D01DB0E2D01DD3846F6E7032D24D191
:101CB000002000906A460421601CFFF78EFE20443D
:101CC000461C0098022803D3207800F0010008B1D8
:101CD000FF20E2E77078317840EA0120801C00990B
:101CE000884201D9FF20D8E705A1B01CFEF766FCA9
:101CF00008B10F2700E0032700E02F463846CCE765
:101D0000246372657100000010B50146FF20CB7896
:101D10008C7843EA0422142A03D0152A01D0162A0B
:101D200011D10B7933B1012B05D0022B04D0802BBC
:101D300006D103E000BF00BF002003E0012001E066
:101D4000022000BF00BF10BD70B5002100230F228C
:101D5000C47804B3154C246804F4E064C4F5E0646A
:101D6000210AC1F10403CA40447804FA03F18478DB
:101D70001440214309010E4C0678A155047804F063
:101D80001F050124AC4005786D11AD0005F1E0257B
:101D9000C5F8004109E0047804F01F050124AC40B7
:101DA000044D0678761145F8264070BD0CED00E034
:101DB00000E400E080E100E002490143024A1160D2
:101DC000704700000000FA050CED00E070B54DA270
:101DD0000121022000F0B0FA03F07CFC0446002C44
:101DE00036D021464BA0FEF717FA54A0FEF714FA9E
:101DF00000F020F95CA20121084600F09DFA5DA2E6
:101E00000121022000F098FA5DA20121032000F0D8
:101E100093FA5EA20121042000F08EFA002514E05E
:101E200000BF4FF400515D48FFF7C3F900BFFA202F
:101E300002F0E2F800BF4FF400515848FFF7BBF939
:101E400000BFFA2002F0D8F86D1C0A2DE8DB70BD47
:101E500053A20121022000F06FFA55A201210320B4
:101E600000F06AFA03F07AFB0446002C35D054A047
:101E7000FEF7D2F931A0FEF7CFF900F0DBF858A257
:101E80000121084600F058FA59A20121022000F071
:101E900053FA3BA20121032000F04EFA3BA201219C
:101EA000042000F049FA002514E000BF4FF400516F
:101EB0003A48FFF77EF900BFFA2002F09DF800BF14
:101EC0004FF400513548FFF776F900BFFA2002F0D1
:101ED00093F86D1C0A2DE8DBB9E703F0CBFC48A2B0
:101EE0000121032000F028FA49A20121042000F07A
:101EF00023FA4FF47A7002F07FF849A0FEF78CF9CC
:101F000000BFA4E75769466920496E69742E2E2EDA
:101F1000202000004552524F523A204F6E654E45E8
:101F20005420696E6974206661696C656420286359
:101F30006F64653D2564290D0A00000053797374B0
:101F4000656D2077696C6C20636F6E74696E756562
:101F500020776974686F7574206E6574776F726B23
:101F60002E2E2E0D0A0000004552524F523A205795
:101F700069466900496E6974204661696C65640050
:101F8000436F6E74696E756520696E0035207365E8
:101F9000636F6E64732E2E2E00000000001001404F
:101FA000576946693A204F4B20202020202000000E
:101FB0004F6E654E455420436F6E6E2E2E2E0000E0
:101FC0004552524F523A204F6E654E455420636F32
:101FD0006E6E656374206661696C65640D0A00004D
:101FE0004552524F523A204F6E654E455400000004
:101FF000436F6E6E656374204661696C65640000B2
:102000004F6E654E45543A204F4B20202020000053
:1020100053797374656D20526561647921200000E5
:1020200053797374656D2052656164790D0A0D0AE8
:102030000000000030B500240EE00021204600F032
:1020400031F9002504E0002000F098F9681CC5B2C1
:10205000802DF8DB601CC4B2082CEEDB30BD000024
:1020600008B50121082001F013F8C020ADF80000E8
:1020700014208DF8030003208DF8020069460A48F9
:10208000FEF7BAFF00BF08480C30006840F040007F
:1020900005490C31086000BF00BF0846006840F0E9
:1020A0008000086000BF08BD000C01400146002010
:1020B00023E000BF802202410A4032B1184A126870
:1020C00042F08002164B1A6005E0154A126822F0B1
:1020D0008002134B1A6000BF00BF114A126842F021
:1020E00040020F4B1A6000BF00BF1A46126822F070
:1020F00040021A6000BF421CD0B20828D9DB00BFE2
:10210000074A126842F04002054B1A6000BF00BF48
:102110001A46126822F040021A6000BF70470000A1
:102120000C0C014000BF0E48006840F080000C49D4
:10213000086000BF00BF0846006840F0400008602B
:1021400000BF00BF0846006820F08000086000BFA4
:1021500000BF0846006820F04000086000BF7047DC
:102160000C0C014000BF0B48006820F080000949BA
:10217000086000BF00BF0846006840F040000860EB
:1021800000BF00BF0846006840F08000086000BF44
:10219000704700000C0C014070B5002406E00025DB
:1021A00000E06D1CB5F57A7FFBD3641CB4F57A7F33
:1021B000F5D3FFF755FF27A0FEF72EF8AE2000F06D
:1021C000CDF8D52000F0CAF8802000F0C7F8A8208C
:1021D00000F0C4F83F2000F0C1F8D32000F0BEF8B2
:1021E000002000F0BBF8402000F0B8F8A12000F07B
:1021F000B5F8C82000F0B2F8DA2000F0AFF81220ED
:1022000000F0ACF8812000F0A9F8CF2000F0A6F88B
:10221000D92000F0A3F8F12000F0A0F8DB2000F0B6
:102220009DF8302000F09AF8A42000F097F8A6203E
:1022300000F094F88D2000F091F8142000F08EF852
:10224000AF2000F08BF8FFF7F5FE0DA0FDF7E4FFDF
:10225000002070BD5B4F4C45445D204750494F20E6
:10226000696E697469616C697A65643A2053434C9C
:102270003D5042362C205344413D5042370D0A0018
:102280005B4F4C45445D20496E697469616C697AA5
:102290006174696F6E20636F6D706C6574650D0A93
:1022A0000000000030B505460C4645F0B00000F0D7
:1022B00055F8102141EA141000F050F804F00F0016
:1022C00000F04CF830BD0000F0B505460E4617464C
:1022D000721ED206110E6A1E5206100EFFF7E2FFA2
:1022E000002409E0A7F12001124A02EB0111085D68
:1022F00000F044F8601CC4B2082CF3DB721ED20656
:10230000110E6A1E012303EB4202D0B2FFF7CAFF8F
:1023100000240BE0A7F12001064A02EB011204F1B0
:102320000801505C00F02AF8601CC4B2082CF1DBF4
:10233000F0BD00006A6B0008F0B507460E46154672
:10234000002407E02A5D3019C1B23846FFF7BCFF10
:10235000601CC4B2285D0028F4D1F0BD10B504465D
:10236000FFF7E0FE7820FFF7A1FE0020FFF79EFEBA
:102370002046FFF79BFEFFF7F5FE10BD10B50446A3
:10238000FFF7D0FE7820FFF791FE4020FFF78EFE8A
:102390002046FFF78BFEFFF7E5FE10BDF0B58BB0D2
:1023A0000546002600242846FEF73EF9C7B20DB1C7
:1023B0001C2F02DA01200BB0F0BD06E0A85D01A9D8
:1023C00088550020A855701CC6B2BE42F6DB00201E
:1023D00001A988550026002455E001A8805D2B281E
:1023E00010D008DC202814D023282ED0252825D072
:1023F00026283FD130E02F2812D03D2833D03F2867
:1024000038D114E0281923A1FEF72DF9E01CC4B23D
:1024100036E0281920A1FEF726F9E01CC4B22FE00F
:1024200028191EA1FEF71FF9E01CC4B228E02819E4
:102430001BA1FEF718F9E01CC4B221E0281919A16C
:10244000FEF711F9E01CC4B21AE0281916A1FEF734
:102450000AF9E01CC4B213E0281914A1FEF703F92D
:10246000E01CC4B20CE0281911A1FEF7FCF8E01C36
:10247000C4B205E001A8805D2855601CC4B200BF4D
:1024800000BF701CC6B2BE42A7DB0020285500BFAB
:1024900091E7000025324200253230002532460007
:1024A00025334600253235002532330025323600EB
:1024B000253344002DE9F04FE9B005460C46164699
:1024C0001F460DF5E47898E8000F0020689055B19C
:1024D0004CB14448864206D32FB1B9F1000F02D067
:1024E000BAF1780F03DA012069B0BDE8F08F40211E
:1024F00038A8FEF75DF93846FEF796F805903B469A
:1025000068AA4021009038A8FEF762FB482126A85F
:10251000FEF74EF9BBF1000F09D033A0334634A2C9
:1025200048218DE8310026A8FDF796FE09E02EA08F
:10253000334635A248218DE81101039526A8FDF701
:102540008BFE402148A8FEF733F926A8FEF76CF869
:10255000024626A9059006A8FEF7D6F826A8FEF79B
:1025600063F8059038A8FEF75FF8049048A800903B
:1025700006AA38A8DDE9041302F008F900206890E3
:10258000402158A8FEF714F948A8FEF74DF8059029
:1025900048AB68AA4021009058A8FEF7CFFB58A886
:1025A000FFF7FCFEBBF1000F0CD058A80EA12B4684
:1025B0001DA2CDE90046CDE9021051464846FDF77F
:1025C0004BFE0CE058A808A12B46254ACDE9018610
:1025D0000094CDE9031051464846FDF73DFE00202A
:1025E00082E700009554415D73686131000000008E
:1025F00025640A25730A70726F64756374732F25DE
:10260000730A25730000000025640A25730A70729E
:102610006F64756374732F25732F646576696365C2
:10262000732F25730A25730076657273696F6E3D8B
:102630002573267265733D70726F647563747325BC
:1026400025324625732665743D2564266D657468BC
:102650006F643D2573267369676E3D257300000026
:102660000885000870B588B005460C46114BD3E9C3
:1026700001021968DB6805AE0DC604912046FDF71E
:10268000D3FF064604A80121002200923346CDE97B
:1026900001210390224629460A20FFF715F838B990
:1026A000059A91B2049801F01BFF04A8FEF75AFEA8
:1026B00008B070BDC083000800B587B03E4B0FCB9B
:1026C000CDE90523CDE903013CA03EA340A2502162
:1026D00000904448FDF7C0FD4248029042480390F4
:1026E000002004904FF48070059002208DF81800AF
:1026F00003A8012302AA002100901420FFF7EEF89E
:1027000038B9049A91B2039801F0EAFE03A8FEF7E3
:1027100029FE642001F070FC28A02AA333A25021D6
:1027200000903B48FDF798FD394802902E480390F1
:10273000002004904FF48070059002208DF818005E
:1027400003A8012302AA002100901520FFF7C6F874
:1027500038B9049A91B2039801F0C2FE03A8FEF7BB
:1027600001FE642001F048FC14A016A329A2502108
:1027700000903148FDF770FD2F4802901A480390F1
:10278000002004904FF48070059002208DF818000E
:1027900003A8012302AA002100901620FFF79EF84B
:1027A00038B9049A91B2039801F09AFE03A8FEF793
:1027B000D9FD07B000BD0000D08300086D6F6E69C1
:1027C000746F720032325A316153675275410000A2
:1027D000247379732F25732F25732F636D642F2333
:1027E000000000006C3B00206C3A002024737973D9
:1027F0002F25732F25732F64702F706F73742F6ABA
:10280000736F6E2F61636365707465640000000010
:10281000BC3B0020247379732F25732F25732F64FD
:10282000702F706F73742F6A736F6E2F72656A6585
:1028300063746564000000000C3C002030B5B3B048
:10284000384B0FCB2FAC0FC401250020A02107AAC5
:1028500035A3CDE90032CDE9021035A3404A41A1AC
:1028600043A0FFF727FE2FA8002102910391CDE995
:102870000410084601210B022BA2CDE9001007A984
:1028800038A0FEF7C1FD002847D1309A91B22F98A9
:1028900001F026FE28B139A0FDF7BEFC012033B0BF
:1028A00030BD4FF47A7001F011FC0446002C2DD09D
:1028B0002046FFF7EDF9022824D12046FFF7B0F8B3
:1028C00006281AD2DFE800F00305090D11150025CE
:1028D00017E036A0FDF7A0FC13E040A0FDF79CFC3C
:1028E0000FE048A0FDF798FC0BE050A0FDF794FC2A
:1028F00007E059A0FDF790FC03E060A0FDF78CFC19
:1029000000BF06E066A0FDF787FC02E06BA0FDF7C4
:1029100083FC2FA8FEF726FD02E06FA0FDF77CFCEC
:102920002846BCE7A08300086D6F6E69746F720063
:1029300057524637773264422F7A2B544E396554BA
:102940006E2B744A5056316A6F576E784F5946480D
:102950007A58656A6A5638726E2B303D0000000066
:1029600000CF9D7432325A31615367527541000075
:10297000323031382D31302D333100005B45525229
:102980004F525D204661696C656420746F207365E9
:102990006E64204D51545420434F4E4E45435420B5
:1029A0007061636B6574210D0A0000005B4F6E65FA
:1029B0004E45545D204552524F523A20556E616348
:1029C0006365707461626C652070726F746F636FA1
:1029D0006C2076657273696F6E0D0A005B4F6E65D1
:1029E0004E45545D204552524F523A204964656E1F
:1029F0007469666965722072656A65637465640DE1
:102A00000A0000005B4F6E654E45545D20455252F2
:102A10004F523A2053657276657220756E61766109
:102A2000696C61626C650D0A000000005B4F6E65A9
:102A30004E45545D204552524F523A204261642027
:102A4000757365726E616D65206F7220706173734E
:102A5000776F72640D0A00005B4F6E654E45545DE2
:102A6000204552524F523A204E6F7420617574685F
:102A70006F72697A65640D0A000000005B4F6E6535
:102A80004E45545D204552524F523A20436F6E6E70
:102A9000656374696F6E206661696C65640D0A0018
:102AA0005B4552524F525D2057726F6E67207061C6
:102AB000636B657420747970650D0A005B45525232
:102AC0004F525D20434F4E4E41434B2074696D651C
:102AD0006F75740D0A0000005B4552524F525D2025
:102AE0004D51545420436F6E6E6563742046616986
:102AF0006C65640D0A000000F0B591B004464021F9
:102B000001A8FDF755FE48A12046FDF769FD4021CB
:102B100001A8FDF74DFE49490868494903F08CFBBF
:102B2000074603F00DFB0646324646A101A8FDF715
:102B30007FFB01A92046FDF796FD402101A8FDF786
:102B400037FE3E494868444903F076FB074603F0E8
:102B5000F7FA0646324641A101A8FDF769FB01A933
:102B60002046FDF780FD402101A8FDF721FE3349F5
:102B70008868394903F060FB074603F0E1FA06462E
:102B800032463BA101A8FDF753FB01A92046FDF702
:102B90006AFD402101A8FDF70BFE284839A1C26853
:102BA00001A8FDF745FB01A92046FDF75CFD40218A
:102BB00001A8FDF7FDFD2148827C38A101A8FDF7A1
:102BC00037FB01A92046FDF74EFD402101A8FDF786
:102BD000EFFD1A48C27C36A101A8FDF729FB01A927
:102BE0002046FDF740FD402101A8FDF7E1FD134817
:102BF000C068B0F5FA7F01D934A000E036A00546E0
:102C00002A4639A101A8FDF713FB01A92046FDF7CB
:102C10002AFD3BA12046FDF726FD2046FDF704FDD9
:102C2000C0B211B0F0BD00007B226964223A31329B
:102C3000332C226470223A7B00000000FC0000204C
:102C400000007A44226D76223A5B7B2276223A2576
:102C50006C647D5D2C00000000002041226D61222B
:102C60003A5B7B2276223A256C647D5D2C00000065
:102C7000226D70223A5B7B2276223A256C647D5D60
:102C80002C00000022776569676874223A5B7B221A
:102C900076223A25647D5D2C00000000226C696775
:102CA0006874223A5B7B2276223A25647D5D2C0093
:102CB000226F70656E5F636C6F7365223A5B7B2277
:102CC00076223A25647D5D2C0000000072657475E3
:102CD000726E6564000000006E6F745F72657475DB
:102CE000726E656400000000226F626A6563742280
:102CF0003A5B7B2276223A222573227D5D0000001A
:102D00007D7D00002DE9F041A6B00746002025900A
:102D1000249023902290219000264FF0FF3817B97D
:102D200026B0BDE8F0813846FEF7B2FF0646032E16
:102D300004D0042E7ED0092E7DD1B5E06A4821A9A9
:102D400022AA25ABCDE90021029023AA24A9384666
:102D5000FEF7AEFE8046B8F1000F6DD1002563A1ED
:102D60002498FDF72BFC00283CD064A065A368A242
:102D70008021009001A8FDF76FFA6EA1259802F05E
:102D8000E8FD0446002C0FDB0CB1012000E0002020
:102D90006A4988740846807C10B102F09FFD01E00A
:102DA00002F090FD02F0FAFD65A1259802F0D1FD38
:102DB0000446002C0DDB0CB1012000E000205F492F
:102DC000C8740846C07C10B102F0A0FD01E002F01A
:102DD00091FD4FF4FA7001F00FF95CA101A8FFF723
:102DE00041FC5BE061A12498FDF7E8FB002855D089
:102DF0005FA12498FDF7E2FB0546002D4DD02F2161
:102E00002846FDF7BFFB0546002D46D06D1C242249
:102E1000294603A8FDF733FC00208DF8300003A8F5
:102E200036A138A355A2CDE9001050210DA8FDF719
:102E300013FA02E034E03BE031E057A10DA8FFF7C0
:102E400011FC3CA1259802F084FD0446002C0FDB08
:102E50000CB1012000E00020384988740846807CCD
:102E600010B102F03BFD01E002F02CFD02F096FDF6
:102E700033A1259802F06DFD0446002C0DDB0CB14A
:102E8000012000E000202D49C8740846C07C10B124
:102E900002F03CFD01E002F02DFD00BF00BF00BFCD
:102EA0003846FEF7E5FE06E03846FEF72DFF02E065
:102EB0004FF0FF3800BF00BF01F0F6F8B8F1000F87
:102EC0000DD10F2E01D0032E09D1249810B12498D2
:102ED00002F0AEFA259810B1259802F0A9FA35A0B3
:102EE000FDF79AF900BF1BE75800002070726F7061
:102EF000657274792F736574000000006D6F6E69E0
:102F0000746F720032325A3161536752754100005A
:102F1000247379732F25732F25732F7468696E6757
:102F20002F70726F70657274792F7365745F72653C
:102F3000706C79006C69676874000000FC00002008
:102F40006F70656E5F636C6F736500007B226572E6
:102F5000726E6F223A302C226572726F72223A22A0
:102F600073756363657373227D000000636D642F66
:102F7000726571756573742F000000002473797396
:102F80002F25732F25732F636D642F726573706FF8
:102F90006E73652F257300007B226572726E6F223F
:102FA0003A302C226572726F72223A227375636313
:102FB000227D00005B44454255475D205B4F6E65B6
:102FC0004E65745F52657650726F5D204578697406
:102FD0000D0A000030B5C5B0194AD2E901311068B8
:102FE000D2684293449243914190002400254FF4CB
:102FF000807101A8FDF7DCFB01A8FFF77DFD044609
:10300000E4B141A8002322460EA100900FA0FEF7D4
:1030100037FC98B908E001A8415D429A501C4290E3
:1030200041988154681C05B2A542F4DB429A91B2E2
:10303000419801F055FA41A8FEF794F945B030BD2A
:10304000B08300086D6F6E69746F720032325A314E
:10305000615367527541000001460020034A5068E1
:1030600020F44040084350607047000000100240C8
:1030700029B1064AD2690243044BDA6104E0034AEB
:10308000D2698243014BDA617047000000100240B0
:1030900029B1064A92690243044B9A6104E0034A4B
:1030A00092698243014B9A61704700000010024010
:1030B0000F48006840F001000D490860084640686C
:1030C0000C4908400A494860084600680A49084017
:1030D000074908600846006820F480200860084618
:1030E000406820F4FE0048604FF41F00886070477D
:1030F000001002400000FFF8FFFFF6FE30B500218F
:103100000022002400232D4D6D6805F00C0121B133
:10311000042905D0082923D105E0294D056022E0C6
:10312000274D05601FE0254D6D6805F47012234D95
:103130006D6805F48034022505EB92421CB9214DDF
:10314000554305600BE01D4D6D6805F400351DB15C
:103150001C4D5543056002E0194D5543056002E0E2
:10316000174D056000BF00BF144D6D6805F0F001FC
:103170000909154D6B5C0568DD4045600F4D6D68B4
:1031800005F4E061090A104D6B5C4568DD4085601F
:103190000A4D6D6805F46051C90A0B4D6B5C4568BA
:1031A000DD40C560054D6D6805F44041890B074D54
:1031B0006B5CC568B5FBF3F5056130BD00100240DE
:1031C00000127A0000093D000900002019000020CB
:1031D00010B501460022002300204A11012A02D125
:1031E000094C236806E0022A02D1074C236A01E059
:1031F000054C636A01F01F02012494401C400CB18D
:10320000012000E0002010BD00100240024840688C
:1032100000F00C0070470000001002400146002042
:10322000034A506820F0F0000843506070470000E7
:10323000001002401149096821F480310F4A1160E1
:103240001146096821F480211160B0F5803F03D058
:10325000B0F5802F0ED106E00849096841F48031AD
:10326000064A116007E00549096841F4A021034AB4
:10327000116000E000BF00BF704700000010024076
:1032800001460020034A506820F4E0600843506083
:10329000704700000010024001460020034A5068B9
:1032A00020F4605040EAC1005060704700100240B6
:1032B00001490866704700000000424202460020B3
:1032C000044B586820F47C1042EA01031843014B78
:1032D000586070470010024001460020034A5068C1
:1032E00020F00300084350607047000000100240C7
:1032F00038B5002000900024002500BF3120FFF7E2
:1033000067FF05460098401C00900098B0F5A06F3C
:1033100001D0002DF2D03120FFF75AFF08B101246F
:1033200000E00024204638BD042808D14FF0E021F9
:10333000096941F004014FF0E022116107E04FF00C
:10334000E021096921F004014FF0E022116170478A
:1033500002480068401C01490860704724000020B2
:1033600010B540F225511D4800F07DF810B31B4800
:1033700000F034F9C4B21A48008800F40040C8B91B
:103380001748008800F4804060B10A2C03D0002068
:103390001349088020E01248008840F4004010499A
:1033A000088019E00D2C06D10D48008840F48040BB
:1033B0000B49088010E00A480088C0F30D00094955
:1033C0000C5407480088401C0549088008460088BE
:1033D000C72801DD0020088010BD00000038014032
:1033E000300000201001002010B540F225510E4899
:1033F00000F039F8B8B10D480088B0F5007F0CDA5C
:10340000094800F0EBF8C1B2084802880088401C67
:10341000064B18800648815405E0034800F0DEF8AA
:1034200000200249088010BD0048004050000020E4
:10343000D801002021B1828942F40052828104E047
:1034400082894DF6FF731A40828170470246002040
:10345000B1F5007F00D100BF13880B400BB10120F4
:1034600000E00020704770B50246002400230025CC
:10347000002040F66A16B14200D100BFC1F34215E8
:1034800001F01F03012606FA03F3012D02D19689EC
:10349000334006E0022D02D1168A334001E0968ABD
:1034A00033400C12012606FA04F41688344013B196
:1034B0000CB1012000E0002070BDF0B503460024EF
:1034C00000260025002040F66A17B94200D100BF4F
:1034D0001846C1F3421401F01F06012707FA06F54A
:1034E000012C01D10C3004E0022C01D1103000E09D
:1034F00014301AB107682F43076002E00768AF4332
:103500000760F0BD2DE9F04786B005460E46002461
:10351000A24600BFA1460027B08900B100BF2F46D8
:103520002C8A4CF6FF700440F08804432C82AC894E
:103530004EF6F3100440B08831890843718908437E
:103540000443AC81AC8A4FF6FF400440B089044389
:10355000AC8201A8FFF7D2FD1F48874202D1DDF8F7
:1035600010A001E0DDF80CA0A88900F4004040B1F3
:103570000AEBCA0000EB0A1031684900B0FBF1F811
:1035800007E00AEBCA0000EB0A1031688900B0FBC3
:10359000F1F86420B8FBF0F004012009642101FB7C
:1035A0001089A88900F4004040B1322000EBC90026
:1035B000B0FBF1F000F00700044308E0322000EB1C
:1035C00009106421B0FBF1F000F00F0004432C81DE
:1035D00006B0BDE8F0870000003801400146888849
:1035E000C0F308007047C1F308028280704730388A
:1035F0000A2801D2012070470020704700BF7047A1
:1036000070B504460025002619E004230122214656
:103610000E48FDF76BFA01210C48FDF7C8FA00BF10
:1036200002210A48FDF727FA0028F9D00748FDF7DC
:103630001EFA0544012000F0DFFC701CC6B20A2E01
:10364000E3DB0A20B5FBF0F080B270BD002401403E
:1036500070B504462046FFF7D3FF0546284602F022
:10366000A3FD0646014902F0E7FD70BD3333533A2E
:1036700000B587B001214FF40170FFF709FD4FF449
:103680000040FFF7E9FC0520ADF8040000208DF8AC
:10369000070001A91648FDF7AFFC002002908DF845
:1036A0000C008DF80D004FF4602004900020059070
:1036B00001208DF8180002A90E48FDF7EFF901214D
:1036C0000C48FDF7BFF90B48FDF76CFA00BF09483D
:1036D000FDF7DAF90028FAD10648FDF773FA00BFC2
:1036E0000448FDF7BAF90028FAD107B000BD000080
:1036F00000080140002401402DE9FC5FE3480088F8
:1037000000F4004000287DD0E04806780020E04921
:103710008855E0A0FCF780FDE4A1DD48FDF770F8D6
:1037200020B1E4A1DA48FDF76BF840B902F0EEF8F9
:103730000120E149C874DDA0FCF76EFDD7E3DFA1ED
:10374000D348FDF75DF820B1DEA1D148FDF758F868
:1037500058B902F0CFF802F0B5F80020D649C87485
:103760008874D6A0FCF758FDC1E3D8A1C848FDF77E
:1037700047F820B1D7A1C648FDF742F878B9CE483E
:10378000C07C40B102F0AAF80120CB498874CFA0D8
:10379000FCF742FDABE3D0A0FCF73EFDA7E3DAA1C6
:1037A000BB48FDF72DF820B1D9A1B948FDF728F89D
:1037B00040B902F087F80020BF498874D6A0FCF712
:1037C0002BFD94E3D9A1B248FDF71AF820B1D9A195
:1037D000AF48FDF715F818B9D8A0FCF71DFD86E332
:1037E000E4A1AB48FDF70CF828B1E4A1A848FDF727
:1037F00007F8002877D1B0490868E24902F01CFDBB
:10380000804600E076E302F09BFC0446AA49486843
:10381000DD4902F011FD804602F092FC0546A64902
:103820008868DA4902F0CAFB8246D649504602F05F
:1038300003FD804602F084FC0746D5A0FCF7ECFCB3
:10384000642094FBF0F100FB114894FBF0F9424630
:103850004946D5A0FCF7E0FC0A2095FBF0F100FBFF
:10386000115895FBF0F942464946D6A0FCF7D4FC26
:10387000642097FBF0F100FB117897FBF0F94246CA
:103880004946D7A0FCF7C8FC8B48C168DBA0FCF711
:10389000C3FC8948007C08B1DEA000E0DEA0014640
:1038A000DEA0FCF7B9FC8448407C08B1E0A000E051
:1038B000E2A00146E3A0FCF7AFFC7F48807C08B1A2
:1038C000E5A000E0E5A00146E5A0FCF7A5FC7A48EC
:1038D000C07C10B1E0A001E005E0E0A00146E5A059
:1038E000FCF79AFC03E3E9A16948FCF789FF28B1DA
:1038F000E8A16748FCF784FF00281CD1E7A0FCF78B
:103900008BFCEC4802680168EBA0FCF785FCF248F0
:1039100002680168F1A0FCF77FFCF8480168F8A094
:10392000FCF77AFCE3480068EB4A1268811AFAA0B7
:10393000FCF772FCDBE2FEA15548FCF761FF28B101
:10394000FDA15348FCF75CFF00287DD10020FFF764
:103950007FFE01900220FFF77BFE00908B490198CB
:1039600002F06AFC824602F0EBFB074687490098AA
:1039700002F062FC824602F0E3FB80464E49086892
:10398000824902F059FC824602F0DAFB04464A49B9
:1039900048687E4902F050FC824602F0D1FB0546A1
:1039A00045498868794902F047FC824602F0C8FB25
:1039B0008146E2A0FCF730FC4FF47A7097FBF0F1FF
:1039C00000FB117A97FBF0FB52465946E0A0FCF74A
:1039D00023FC4FF47A7098FBF0F100FB118A98FBFE
:1039E000F0FB52465946E3A0FCF716FC4FF47A7000
:1039F00094FBF0F100FB114A94FBF0FB5246594650
:103A0000E5A0FCF709FC4FF47A7095FBF0F100FBA0
:103A1000115A95FBF0FB52465946E6A0FCF7FCFB19
:103A20004FF47A7099FBF0F100FB119A99FBF0FBCF
:103A300052465946E6A0FCF7EFFB04FB05F04FF4B5
:103A40007A7190FBF1FA00E006E053462A462146DF
:103A5000E6A0FCF7E1FB4AE2F0A10D48FCF7D0FE3E
:103A600028B1F0A10A48FCF7CBFE00280CD1EFA04A
:103A7000FCF7D2FBF7A0FCF7CFFB01F02FFF4FF4D0
:103A8000FA7000F0B9FAF3E12EE2000030000020F5
:103A9000100100205B434D445D20526563656976EB
:103AA00065643A2025730D0A00000000504F4E0D4A
:103AB0000A000000504F4E00FC000020504F4646C8
:103AC0000D0A0000504F4646000000004C4F4E0DBE
:103AD0000A0000004C4F4E005B4552525D20506F73
:103AE000776572206973204F46462C2063616E6EA5
:103AF0006F74207475726E206F6E206C69676874C5
:103B00000D0A0D0A000000004C4F46460D0A000049
:103B10004C4F4646000000005B4F4B5D204C6967F0
:103B20006874204F46460D0A0D0A00005A45524F50
:103B30000D0A00005A45524F000000005B494E46F6
:103B40004F5D204858373131206E6F7420696E699F
:103B50007469616C697A65642C205A45524F206300
:103B60006F6D6D616E6420736B69707065640D0AB2
:103B70000D0A0000494E464F0D0A0000494E464FBF
:103B8000000000000000C8420000204100007A440C
:103B90005B494E464F5D2053797374656D205374B5
:103BA000617475733A0D0A002020566F6C7461675A
:103BB000653A202020202025642E253032642056AE
:103BC0000D0A0000202043757272656E743A202041
:103BD00020202025642E2564206D410D0A00000060
:103BE0002020506F7765723A202020202020202549
:103BF000642E2530326420570D0A000020205765BE
:103C0000696768743A202020202020256420670DF1
:103C10000A000000594553004E4F00002020526515
:103C20007475726E65643A2020202025730D0A0099
:103C30004445544543544544000000004E4F4E4512
:103C400000000000202048756D616E3A2020202081
:103C500020202025730D0A004F4E00004F464600DD
:103C600020204C696768743A2020202020202025DD
:103C7000730D0A002020506F7765723A20202020B3
:103C800020202025730D0A0D0A0000004858373106
:103C9000310D0A0048583731310000005B48583771
:103CA00031315D20446562756720496E666F3A0D5B
:103CB0000A00000034000020202052617720427565
:103CC000666665723A202030782530386C58202896
:103CD000256C64290D0A00003800002020205A6558
:103CE000726F20506F696E743A202030782530381A
:103CF0006C582028256C64290D0A00003C00002027
:103D000020205765696768743A20202020202025EC
:103D10006C6420670D0A0000202044656C74613AD1
:103D200020202020202020256C640D0A0D0A000090
:103D30004144430D0A000000414443005B414443B9
:103D40005D20446562756720496E666F3A0D0A0012
:103D50002020565F5261773A202020202020202505
:103D6000642E253033642056202861637475616C9D
:103D7000290D0A002020495F5261773A2020202037
:103D800020202025642E25303364205620286163AE
:103D90007475616C290D0A002020565F44697370A8
:103DA0006C61793A20202025642E2530336420561A
:103DB0000D0A00002020495F446973706C61793AF4
:103DC00020202025642E25303364206D410D0A000B
:103DD0002020505F446973706C61793A202020255F
:103DE000642E25303364206D570D0A002020505F6B
:103DF00043616C633A202020202020562A492F312D
:103E0000303030203D2025642A25642F3130303079
:103E1000203D2025640D0A0D0A000000544553542E
:103E20000D0A000054455354000000005B544553F4
:103E3000545D2052756E6E696E67204861726477BA
:103E40006172652053656C662D546573742E2E2E39
:103E50000D0A000020205B544553545D2052656CD0
:103E60006179204C696768743A204F4E2E2E2E00DF
:103E700021A0FCF7D1F901F025FD21A0FCF7CCF938
:103E800001F044FD4FF4FA7000F0B6F81AA0FCF708
:103E9000C3F901F02FFD4FF4FA7000F0ADF801F016
:103EA00035FD01201D49C8741DA0FCF7B5F900249B
:103EB00014E000BF4FF400512048FDF77AF900BF2D
:103EC000C82000F099F800BF4FF400511B48FDF7DF
:103ED00072F900BFC82000F08FF8641C032CE8DBE7
:103EE00017A0FCF799F902E01C48FCF795F90020AF
:103EF0001B490880BDE8FC9F20204F46460D0A0064
:103F000020205B544553545D2052656C61792050EC
:103F10006F7765723A204F4E2E2E2E00FC00002047
:103F200020205B544553545D204C4544303A204298
:103F30006C696E6B2078330D0A00000000100140A0
:103F40005B4F4B5D2053656C662D54657374204345
:103F50006F6D706C6574650D0A0D0A001C84000895
:103F6000300000200120014908707047080000203F
:103F700000200149087070470800002010B5142186
:103F80000348FCF715FC01200149C87410BD00006E
:103F9000FC0000200348006808B1012070470020A1
:103FA000FCE70000040000200448006820B103483A
:103FB0000068401E014908607047000004000020AE
:103FC000094800680949B0FBF1F009490870084642
:103FD000007800EB4001C1EBC0104FF6FF7101EA21
:103FE000C0000449088070472800002000127A00B1
:103FF0001E0000202000002030B50446002504E00B
:104000004FF47A7000F004F86D1CA542F8D330BD6F
:1040100070B5034600224FF0E02675690D4E3678E4
:1040200003FB06F44FF0E026B16910E04FF0E02604
:10403000B06988420BD0884202D20E1A324402E0A4
:104040002E1A0E4432440146A24200D300E0EDE7AE
:1040500000BF70BD1E00002010B5094C09A120460C
:10406000FCF7ACFA20B90BA12046FCF7A7FA20B167
:104070000AA0FCF7D1F8012010BD0020FCE70000E9
:10408000D80100205749464920444953434F4E4EDA
:1040900045435400434C4F5345440000576946691B
:1040A000206C6F73740D0A0010B54FF40071044852
:1040B000FCF75CFB0020034908800349088010BD21
:1040C000D8010020500000205200002070B50546A5
:1040D000002400BF00F07AFA70B90CA10D48FCF77B
:1040E0006DFA044644B13A212046FCF74BFA0446E7
:1040F00014B1641C204670BD0A20FFF77DFF281E06
:10410000A5F101018DB2E5D100BFF4E72B49504480
:104110002C000000D801002010B50B48006820F0EA
:104120000200094908606420FFF766FF064800683E
:1041300040F00200044908604FF47A70FFF75CFF1A
:1041400002A0FCF769F810BD0C0801405B45535014
:10415000383236365D20486172647761726520724C
:104160006573657420636F6D706C6574650D0A000E
:1041700010B50EA0FCF750F81948006820F00200B6
:10418000174908606420FFF737FF1548006840F0C2
:104190000200134908604FF4FA60FFF72DFF11A0E9
:1041A000FCF73AF8FFF780FF10BD00005B45535065
:1041B000383236365D20506572666F726D696E6793
:1041C000206861726477617265207265736574201E
:1041D0006F6E6C792028504131292E2E2E0D0A0049
:1041E0000C0801405B455350383236365D2048613B
:1041F00072647761726520726573657420636F6D98
:10420000706C6574650D0A0010B500F003F9642048
:10421000FFF7F2FEFFF780FF4FF4E13001F0E8FD19
:10422000FFF742FF4FF4FA70FFF7E6FE032129A0E3
:1042300001F042FE4FF4FA70FFF7DEFE0A240CE0B4
:10424000601E80B2041E04D123A0FBF7E5FF01200D
:1042500010BD4FF4FA70FFF7CFFE25A125A000F0A6
:104260000DF90028ECD122A124A000F007F90524C3
:104270000CE0601E80B2041E04D122A0FBF7CCFF2C
:104280000220E5E74FF4FA70FFF7B6FE18A129A067
:1042900000F0F4F80028ECD10A240CE0601E80B293
:1042A000041E04D127A0FBF7B7FF0320D0E74FF48B
:1042B000FA60FFF7A1FE2EA12FA000F0DFF8002882
:1042C000ECD135A0FBF7A8FF09A13AA000F0D6F881
:1042D0000020BDE72B2B2B005B4553503832363680
:1042E0005D20496E6974206661696C65640D0A0021
:1042F0004F4B000041540D0A00000000415445306E
:104300000D0A00005B455350383236365D20455269
:10431000524F523A204661696C656420746F207375
:1043200065742073746174696F6E206D6F646521AC
:104330000D0A000041542B43574D4F44453D310D6C
:104340000A0000005B455350383236365D20455236
:10435000524F523A205769466920636F6E6E65630B
:1043600074696F6E206661696C6564210D0A0000D6
:10437000474F54204950000041542B43574A415065
:104380003D226D797461736B222C223132333435C6
:10439000363738220D0A00005B4553503832363626
:1043A0005D205769466920636F6E6E65637465644E
:1043B000210D0A0041542B4349504D55583D300DB5
:1043C0000A00000010B504460CB9012010BD09A177
:1043D0002046FCF7F3F848B908A12046FCF7EEF8B0
:1043E00020B908A12046FCF7E9F808B10120EDE763
:1043F0000020EBE74552524F520000004641494C25
:1044000000000000414C524541445920434F4E4E5C
:104410004543540008B501210420FEF739FE02206F
:10442000ADF8000010208DF8030003208DF8020085
:1044300069460748FCF7E0FD05480C30006840F08D
:10444000020003490C31086002A0FBF7E5FE08BD3D
:10445000000801405B455350383236365D205253D8
:10446000542070696E20696E697469616C697A653F
:10447000642028504131290D0A0000002DE9F04147
:1044800005460E46C827FFF70FFE2846FCF7CCF876
:104490001FFA80F84146284601F00EFD17E000F0B3
:1044A00095F8044684B9DFF834804046FFF78AFF68
:1044B00010B10120BDE8F08131464046FCF77EF89E
:1044C00008B10020F6E700BF0A20FFF795FD381E6F
:1044D000A7F10101CFB2E2D10120EBE7D801002022
:1044E00070B588B006460C4603256420FFF784FDAE
:1044F000FFF7DAFD3220FFF77FFD36E02021684626
:10450000FCF756F9224622A16846FBF791FE24A14A
:104510006846FFF7B3FF80B93220FFF76DFD2146F3
:10452000304601F0C9FC6420FFF766FD21461DA05E
:10453000FBF772FE002008B070BD002D15DD4FF4B2
:104540009670FFF759FDFFF7AFFD6420FFF754FDAC
:1045500001211BA001F0B0FC9620FFF74DFDFFF7F5
:10456000A3FD4FF49670FFF747FD281EA5F101014A
:10457000CDB2C3D11348FBF74FFE1348FBF74CFEF7
:10458000FFF792FDC820FFF737FD0120D3E70000B9
:1045900041542B43495053454E443D25640D0A0078
:1045A0003E0000005B455350383236365D2053657F
:1045B0006E742025642062797465730D0A00000012
:1045C0001B00000070840008BC8400080A480088B2
:1045D00008B90120704708480088084909888842BE
:1045E00003D1002004490880F4E703480088034908
:1045F00008800120EEE7000050000020520000205B
:104600002DE9F05F80460C461746404601F098FDC4
:104610000546284601F0B0FD8346414601F0D8FE2C
:1046200082462D4901F008FE814601F089FD0646CB
:10463000002E00DA7642002D03DA2D2004F8010B5B
:104640006D42642D19DB642095FBF0F0303004F8E6
:10465000010B0A2095FBF0F00A2190FBF1F201FB1F
:104660001200303004F8010B0A2095FBF0F100FB3A
:104670001150303004F8010B14E00A2D0EDB0A2033
:1046800095FBF0F0303004F8010B0A2095FBF0F1B7
:1046900000FB1150303004F8010B03E005F130004D
:1046A00004F8010B002F12DD2E2004F8010B0A2064
:1046B00096FBF0F0303004F8010B012F07DD0A20E3
:1046C00096FBF0F100FB1160303004F8010B002084
:1046D0002070BDE8F09F00000000C84200BF054AFE
:1046E000128802F04002002AF9D0C2B2014B1B1D11
:1046F0001A80704700380140F0B50446142C06DAE1
:1047000001EA020523EA010685EA060019E0282CE1
:1047100004DA81EA020787EA030012E03C2C0ADA95
:1047200001EA020501EA030787EA050602EA030730
:1047300087EA060005E0502C03DA81EA020787EADF
:104740000300F0BD0148006870470000240000200D
:1047500002480068C0F300207047000008080140CC
:1047600008B501210420FEF793FC4FF48070ADF8EA
:10477000000004208DF8030003208DF80200694634
:104780000148FCF739FC08BD000801402DE9F04F55
:10479000B1B007460E4692469846DDF8E8904025AF
:1047A0004FF0360B5C203090002403E0002020A95D
:1047B0000855641C402CF9DBAE4220D0AE4213DD1C
:1047C000324639463E48FBF75AFF4A4631463C4896
:1047D00001F0EAF8002404E019F8040020A90855C3
:1047E000641C142CF8DB12E0AE4210DA002403E063
:1047F000385D20A90855641CB442F9DB07E00024A9
:1048000003E0385D20A90855641CAC42F9DB0024A4
:1048100006E020A8005D80EA0B0010A90855641C82
:10482000402CF6DB002404E010A8005D2549085563
:10483000641C402CF8DB002406E01AF80410214A1E
:1048400004F140001154641C4445F6DB08EB0502FA
:104850001C491B48FBF713FF08EB05014A461848A3
:1048600001F0A2F8002406E020A8005D309948403D
:104870000DF80400641C402CF6DB002404E01DF855
:10488000040011490855641C402CF8DB002406E0A4
:1048900019F804100C4A04F140001154641C142C43
:1048A000F6DB05F1140208490548FBF7E8FE4A4625
:1048B00005F11401024801F077F831B0BDE8F08F3E
:1048C000AC140020D80300205814002010B500F0CC
:1048D00085F80149086010BD3800002070B500F06F
:1048E0007DF8124908600846006811490968884245
:1048F00018D90E4800680F490860084600680C493E
:104900000968401A0B4908600846006801F034FC49
:104910000546094901F052FB044601F011FC054926
:10492000086002E000200349086070BD34000020E8
:10493000380000203C0000200080D34308B501214E
:104940000920FEF7A5FB01211648FCF7E1FB082032
:10495000ADF8000010208DF8030003208DF8020050
:1049600069461148FCF748FB1020ADF800004820CC
:104970008DF8030003208DF8020069460A48FCF711
:104980003BFB08210848FCF714FC6420FFF734FBCC
:10499000FFF79CFF05480268016805A0FBF73CFC97
:1049A00008BD000000023000000C0140380000206B
:1049B0005B48583731315D20496E69743A205A6539
:1049C000726F20506F696E74203D2030782530382A
:1049D0006C582028256C64290D0A000070B500244D
:1049E000334D02E00120FFF713FB10213148FCF7A3
:1049F000D7FB18B9281EA5F10105F3D13DB92EA0AA
:104A0000FBF70AFC012035490870002070BD082121
:104A10002848FCF7CEFB0120FFF7FAFA244D02E00C
:104A20000120FFF7F5FA10212248FCF7B9FB012815
:104A300003D1281EA5F10105F2D13DB928A0FBF74D
:104A4000EBFB0120254908700020DFE7002617E076
:104A5000640008211748FCF7AEFB0220FFF7D8FAE4
:104A600010211448FCF79CFB012800D1641C08218C
:104A70001048FCF79EFB0220FFF7CAFA701CC6B272
:104A8000182EE5DB08210B48FCF795FB0220FFF709
:104A9000BFFA84F4000408210648FCF78AFB0220D0
:104AA000FFF7B6FA00200D4908702046AEE7000077
:104AB00040420F00000C01405B48583731315D2007
:104AC0004552524F523A20444F55542073747563E7
:104AD0006B204C4F57210D0A0000000040000020C1
:104AE0005B48583731315D204552524F523A20438E
:104AF0006F6E76657273696F6E2074696D656F7520
:104B000074210D0A000000000146142901DA07484B
:104B10000AE0282901DA064806E03C2901DA0548BE
:104B200002E0502900DA0448704700009979825A5F
:104B3000A1EBD96EDCBC1B8FD6C162CA1FB50121A7
:104B40000820FEF7A5FA01210846FEF7A1FA4FF466
:104B50004050ADF80C0048208DF80F0003208DF870
:104B60000E0003A91748FCF747FA01F0C3F80C211F
:104B70000120FCF721FA0D210120FCF71DFA00208D
:104B80008DF808000C208DF8090001208DF80A002E
:104B90000003019001A8FCF7C5F94FF40050019003
:104BA00001A8FCF7BFF928208DF8000002208DF83D
:104BB00001008DF8020001208DF803006846FDF722
:104BC000C3F81FBD000C014070B50546002401F07C
:104BD0005CF80E48007800F0010038B101240B4861
:104BE000007800F0FE00094908700BE007480078E3
:104BF00000F0020030B102240448007800F0FD000B
:104C00000249087001F045F8204670BD44000020BC
:104C100008B501211020FEF73BFA01212020FEF704
:104C200037FA4FF40050ADF8000010208DF8030063
:104C300003208DF8020069460B48FCF7DDF90420DB
:104C4000ADF8000069460948FCF7D6F900BF4FF4FB
:104C500000510548FCF7AFFA00BF00BF042103482C
:104C6000FCF7A9FA00BF08BD001001400014014084
:104C70008EB000200C900B90FCF7A0FAF9A2012155
:104C80000846FDF759FBFCA201210220FDF754FB69
:104C90004FF4FA70FFF7B0F9FDF798F8FDF7CAF98D
:104CA0007BE30020FEF7D4FC04464FF07E5101F078
:104CB000C3FA0A900220FEF7CBFC04464FF07E5167
:104CC00001F0BAFA0990DDE9091001F08BFB0890B8
:104CD0000021089801F07CFA01D200200890EB49ED
:104CE000089801F06BF90546E84901F0A5FA044679
:104CF0004FF07E5101F0A0FA8046099F41463846A8
:104D000001F09AFA0D90FFF7E9FDE1480068E149EA
:104D1000C8600846C068B0F5FA7F01D3012000E002
:104D20000020DC490874FFF713FDDA49487408468F
:104D30000760C0F804800D9888600846C07C28B9D8
:104D400000F0C0FD0020D349887410E0FFF722F97D
:104D500068B9D048407C28B100F0C0FD0120CD49A1
:104D6000887404E000F0AEFD0020CA498874FFF7A3
:104D70001BF90020FFF728FF8146B9F1010F1ED172
:104D8000C448C07C08B9012000E00020C149C874B3
:104D90000846C07C28B100F0B9FDBFA0FBF73CFA83
:104DA00009E000F0A7FD00F08DFD0020B9498874EE
:104DB000BEA0FBF731FA9620FFF71EF90DE0B9F11E
:104DC000020F0AD1BEA0FBF727FAFFF77FFDC4A0B0
:104DD000FBF722FA9620FFF70FF90B98401C80B2E0
:104DE0000B9005287EDB00200B90FDF723F9384659
:104DF00001F0A6F90690069801F0BEF93946009038
:104E000001F0E6FABD49019001F016FA029001F0B6
:104E100097F905905620BA4908703A2048700A213F
:104E2000069890FBF1F03030B54988700A21069859
:104E300090FBF1F201FB12003030B149C8702E2016
:104E400008710A21059890FBF1F201FB1200303045
:104E5000AB494871562088710020C8710A4601216B
:104E60000846FDF769FA8B48007C40B1A448A5A12B
:104E70000A6802608A8882808979817107E0A04887
:104E8000A2A10A6802608A888280897981719C481F
:104E9000FBF7CAFB0646102E03D2C6F11100C0B2C2
:104EA00000E001200790964A01200799FDF744FA97
:104EB000404601F045F98246504601F05DF9414611
:104EC000009001F085FA8D49019001F0B5F902904A
:104ED00001F036F904904920894908703A20487059
:104EE0000A2000E0F9E19AFBF0F0303088700A20E7
:104EF0009AFBF0F100FB11A030308149C8702E20E0
:104F000008710A21049890FBF1F201FB1200303085
:104F10007B4948716D2088714120C871002008725A
:104F20000A4601210220FDF707FA5A48407C30B1B9
:104F3000734878A10A6802608988818005E070481A
:104F400076A10A680260097901716D48FBF76CFB74
:104F50000646102E03D2C6F11100C0B200E00120B7
:104F60000790674A02200799FDF7E6F94948C468A7
:104F70005720634908703A204870B4F57A7F28DBDF
:104F80004FF47A7094FBF0F030308870642094FB1A
:104F9000F0F00A2190FBF1F201FB12003030584989
:104FA000C8700A2094FBF0F00A2190FBF1F201FB9B
:104FB00012003030524908710A2094FBF0F100FBD6
:104FC000114030304E494871672088710020C87107
:104FD0003CE0642C1DDB642094FBF0F03030484949
:104FE00088700A2094FBF0F00A2190FBF1F201FB9B
:104FF000120030304249C8700A2094FBF0F100FBE7
:10500000114030303E490871672048710020887196
:105010001CE00A2C12DB0A2094FBF0F030303849F7
:1050200088700A2094FBF0F100FB114030303449C5
:10503000C870672008710020487107E004F1300053
:105040002F4988706720C870002008712C4A012100
:105050000320FDF771F90F48807C08B1284861E012
:1050600066E00000536D617274204C6162204465FB
:105070006D6F202000000000496E697469616C69E1
:105080007A696E672E2E2E200000000000007A4400
:105090003C000020FC0000205B4B4559305D205057
:1050A0006F776572204F4E0D0A0000005B4B45592B
:1050B000305D20506F776572204F46460D0A000024
:1050C0005B4B4559315D204858373131207461724E
:1050D000652073746172742E2E2E0D0A000000007C
:1050E0005B4B4559315D204858373131207461722E
:1050F0006520646F6E652E0D0A00000000002041DF
:10510000DC0000205245543A4F4B00005245543ABF
:105110004E4F0000483A594553000000483A4E4F60
:10512000000000009DA10A6802600979017105E094
:105130009C489DA10A680260898881809948FBF794
:1051400073FA0646102E03D2C6F11100C0B200E079
:1051500001200790934A03200799FDF7EDF8944941
:105160000D9801F069F8029000F0EAFF83460A21E9
:105170009BFBF1F59BFBF1F201FB12B00390502079
:10518000884908703A204870B5F57A7F2ADB4FF4D9
:105190007A7095FBF0F030308870642095FBF0F069
:1051A0000A2190FBF1F201FB120030307D49C870FA
:1051B0000A2095FBF0F00A2190FBF1F201FB1200AE
:1051C0003030784908710A2095FBF0F100FB11504E
:1051D0003030744948716D2088715720C8710020A3
:1051E000087251E0632D24DD642095FBF0F030302F
:1051F0006C4988700A2095FBF0F00A2190FBF1F2CF
:1052000001FB120030306749C8700A2095FBF0F1AD
:1052100000FB11503030634908712E20487103980B
:10522000303088716D20C871572008720020487294
:105230002AE0092D19DD0A2095FBF0F0303059499C
:1052400088700A2095FBF0F100FB11503030554971
:10525000C8702E2008710398303048716D20887115
:105260005720C871002008720EE005F130004D494A
:1052700088702E20C8700398303008716D204871F6
:10528000572088710020C871464A01210420FDF78B
:1052900053F84848C07C40B1424947A002680A60C0
:1052A00082888A808079887105E03E4844A10A6836
:1052B0000260496841603B48FBF7B6F90646102E8C
:1052C00003D2C6F11100C0B200E001200790354AB8
:1052D00004200799FDF730F800BF02223A4938460A
:1052E000FFF78EF9022239494046FFF789F938491C
:1052F0000D9800F063FE044602223649FFF780F95C
:105300002C48007C28B131203349087000204870B7
:1053100004E0302030490870002048700C98401C90
:1053200080B20C9014280BDB00200C902A48294BEB
:10533000264A2549009029A0FAF76EFF00F096FA58
:105340000020FEF7C3FE044614B1204600F084FAA4
:10535000FEF782FE80B12C480078401CC0B22A497A
:10536000087002280BD329A0FAF756FFFEF700FFBA
:1053700000202549087002E0002023490870FEF74C
:10538000BBF900BF2948C06880F400502749C860B5
:1053900000BF6420FEF730FE00BF82E44C3A4F4E5F
:1053A00000000000DC0000204C3A4F4646000000A0
:1053B00000002041FC0000205057523A4F4E0000A0
:1053C0005057523A4F4646005C0000209C00002097
:1053D00000007A447C000020BC0000205B55504C4B
:1053E0004F41445D20563D2573562020493D25738D
:1053F0006D412020503D25735720204261636B3D55
:1054000025730D0A00000000000000205B5769466C
:10541000695D206C6F73742C207265736574206DE8
:105420006F64756C65210D0A0000000000100140DA
:1054300070B5064606B970BD341F0F48844203D3C9
:1054400000F58050844203D30CA0FAF7E5FEF2E7A2
:105450000020A0702188201D0D180748281AB0F5DB
:10546000805F06D2A87820B921882888001D0844CA
:10547000208000BFDFE700002C2500205B4D454D5C
:105480005F504F4F4C5D204552524F523A20496E6B
:1054900076616C696420706F696E74657220746FD8
:1054A00020667265650D0A0010B508480849086055
:1054B00040F6FC700968088000200549096888707A
:1054C0004FF4805103A0FAF7A7FE10BD2C25002051
:1054D000540000205B4D454D5F504F4F4C5D2049BF
:1054E0006E697469616C697A65643A20256420622A
:1054F000797465730D0A000010B5024615480168FD
:1055000000230AB9002010BD1AE08878A0B90888E5
:10551000904211D3012088700C88101D844209D953
:105520000C1DA0180C88A41A241F04800024847069
:105530000A8000BF081DE6E70C88081D21185B1CC7
:105540000548081AB0F5805F01D2642BDDDB00202E
:10555000D9E70000540000202C25002070B50A2552
:10556000002438E0681E80B2051E30D11DA0FAF775
:1055700053FE002C29D1601CC4B226A0FAF74CFEC1
:105580002FA130A0FEF77AFFC820FEF735FD0A25CF
:105590000BE0681E80B2051E04D12EA0FAF73CFE77
:1055A000012070BDC820FEF727FD35A136A0FEF70B
:1055B00065FF0028EDD140A0FAF72EFEC820FEF7C7
:1055C0001BFDFEF771FD0A2505E00120E9E7C82073
:1055D000FEF712FD00BFFDF731F90028C2D100BF70
:1055E000DFE700005B4F6E654E45545D204552522B
:1055F0004F523A204D5154542061757468656E7451
:1056000069636174696F6E206661696C6564210D00
:105610000A0000005B4F6E654E45545D2041747476
:10562000656D7074696E6720746F207265636F6E4C
:105630006E656374205443502E2E2E0D0A00000018
:105640004F4B000041542B434950434C4F53450DA1
:105650000A0000005B4F6E654E45545D2045525276
:105660004F523A20544350207265636F6E6E6563EB
:1056700074696F6E206661696C6564210D0A0000B3
:10568000434F4E4E4543540041542B4349505354CD
:105690004152543D22544350222C226D7174747334
:1056A0002E6865636C6F7564732E636F6D222C3189
:1056B0003838330D0A0000005B4F6E654E45545D6F
:1056C00020544350207265636F6E6E656374656429
:1056D0000D0A000010B5FEF797FD20B118A0FAF7EB
:1056E0009BFD012010BD23A0FAF796FD4FF4FA7040
:1056F000FEF782FC0A240FE0214626A0FAF78CFD73
:10570000601E80B2041E04D130A0FAF785FD02208D
:10571000E8E7C820FEF770FC37A139A0FEF7AEFE1F
:105720000028E9D142A0FAF777FD4FF4FA70FEF7AE
:1057300063FCFEF7B9FCC820FEF75EFC0020D1E751
:105740005B4F6E654E45545D204552524F523A2094
:105750004553503832363620696E697469616C6918
:105760007A6174696F6E206661696C6564210D0AE7
:10577000000000005B4F6E654E45545D2045535060
:105780003832363620696E697469616C697A65648D
:105790000D0A00005B4F6E654E45545D20417474E8
:1057A000656D7074696E672054435020636F6E6E30
:1057B000656374696F6E2E2E2E202874696D656F77
:1057C00075743D2564290D0A000000005B4F6E656D
:1057D0004E45545D204552524F523A20544350207A
:1057E000636F6E6E656374696F6E206661696C6568
:1057F00064210D0A00000000434F4E4E4543540003
:1058000041542B43495053544152543D2254435028
:10581000222C226D717474732E6865636C6F7564CD
:10582000732E636F6D222C313838330D0A0000005F
:105830005B4F6E654E45545D2054435020636F6E40
:105840006E656374656420737563636573736675F1
:105850006C6C790D0A00000010B50446FEF782FB5F
:105860002046FDF74FFAFEF783FB10BD10B5FDF79C
:10587000B1FB10BD10B5FCF71FFF10BD08B501212D
:105880000420FDF705FC4FF4C050ADF800001020D7
:105890008DF8030003208DF8020069460848FBF7E5
:1058A000ABFB00BF4FF400610548FBF782FC00BF73
:1058B00000BF4FF480510248FBF77BFC00BF08BDDE
:1058C0000008014010B500BF4FF400610248FBF72B
:1058D00070FC00BF10BD00000008014010B500BF03
:1058E0004FF400610248FBF766FC00BF10BD0000EA
:1058F0000008014010B500BF4FF480510248FBF78B
:1059000058FC00BF10BD00000008014010B500BFEA
:105910004FF480510248FBF74EFC00BF10BD000061
:1059200000080140F0B50246C2F1200C012000FA47
:105930000CF0441EE54301EA040000FA02F601EA15
:105940000500C2F1200C20FA0CF746EA07031846BE
:10595000F0BD2DE9F04105460E464FF0FF3705B189
:105960001EB94FF0FF30BDE8F08131462846FAF706
:1059700025FE044614B94FF0FF30F4E73A212046E3
:10598000FAF700FE044614B94FF0FF30EBE7641C51
:10599000204600F04DF907463846E4E72820014943
:1059A00008607047040000202DE9F74FDDB08A46FB
:1059B0001546DDF874810AF1080909F101094FEA79
:1059C000CA005B9048464FEAE97109EB91618E117C
:1059D00048464FEAE97109EB91618911A9EB811100
:1059E0005C915C98002800DD761C5C98C0F140005A
:1059F0008144574603E0002008F807007F1CB7EBFE
:105A0000861FF8DB802008F80A000121C1EB86110F
:105A10005B9808F801005B98C0F307200221C1EBF6
:105A2000861108F801005B98C0F307400321C1EB21
:105A3000861108F801005B98000E0421C1EB861165
:105A400008F8010077485690774857907548C0434A
:105A500058907548C043599074485A900027A4E064
:105A6000002452E0102C32D2B80100EB840018F868
:105A70000000000601A941F82400B80100EB8400F1
:105A8000401C18F8000051F824104FF4803202FB3B
:105A9000001001A941F82400B80100EB8400801C2B
:105AA00018F8000051F82410121202FB001001A98E
:105AB00041F82400B80100EB8400C01C18F8000075
:105AC00051F82410084401A941F824001CE0502C8E
:105AD0001AD2E01E01AA52F82000A4F1080201AB7C
