:020000040800F2
:1000000028400020E1010008E5010008E7010008A0
:10001000E9010008EB010008ED0100080000000004
:10002000000000000000000000000000EF010008D8
:10003000F101000800000000F3010008F52B0008A2
:10004000F7010008F7010008F7010008F7010008B0
:10005000F7010008F7010008F7010008F7010008A0
:10006000F7010008F7010008F7010008F701000890
:10007000F7010008F7010008F7010008F701000880
:10008000F7010008F7010008F7010008F701000870
:10009000F7010008F7010008F7010008F701000860
:1000A000F7010008F7010008F7010008F701000850
:1000B000F7010008F7010008F7010008F701000840
:1000C000F7010008F7010008F7010008F701000830
:1000D000F7010008052C0008F7010008892C00082A
:1000E000F7010008F7010008F7010008F701000810
:1000F000F7010008F7010008F7010008F701000800
:10010000F7010008F7010008F7010008F7010008EF
:10011000F7010008F7010008F7010008F7010008DF
:10012000F7010008F7010008F7010008F7010008CF
:1001300000F002F800F045F80AA090E8000C8244B4
:100140008344AAF10107DA4501D100F03AF8AFF291
:10015000090EBAE80F0013F0010F18BFFB1A43F0A5
:100160000103184788810000A8810000103A24BFCD
:1001700078C878C1FAD8520724BF30C830C144BF0C
:1001800004680C607047000000230024002500264E
:10019000103A28BF78C1FBD8520728BF30C148BFEA
:1001A0000B607047642900F0C180782900F0FA8064
:1001B000732900F0FA83002070471FB51FBD10B5EA
:1001C00010BD00F00DFC1146FFF7F7FF03F04EFDE8
:1001D00000F02BFC03B4FFF7F2FF03BC02F05EFE5D
:1001E00008480047FEE7FEE7FEE7FEE7FEE7FEE71A
:1001F000FEE7FEE7FEE7FEE703480449024A044B38
:100200007047000031010008283C002028400020F1
:10021000283C0020704700000FB4044910B503AA21
:10022000029800F0C7FB10BC5DF814FB280000200A
:100230000FB41CB5074B06AA7B446946009005988D
:1002400000F081FB0020694600F090FB1CBC5DF8CB
:1002500014FB0000310700000FB41CB50C0007AA06
:10026000009001D02044401E074B7B44694601901A
:10027000069800F068FB002C03D06946002000F0CF
:1002800075FB1CBC5DF814FB0907000070B5044643
:1002900085690068C10601D5302600E02026C00728
:1002A00007D070BDD4E9012130469047206A401C38
:1002B00020626D1EF6D570BD70B504468569007864
:1002C000C00707D170BDD4E9012120209047206AE2
:1002D000401C20626D1EF6D570BD70B50C460546FB
:1002E000012A05D02878800600D5EA69002302E0BB
:1002F000012305E05B1C934202D2E05C0028F9D1A7
:10030000A869E618C01AA861286A18442862284615
:10031000FFF7BCFF04E0D5E9012114F8010B904779
:10032000B442F8D32846FFF7C7FF70BD2DE9F0416E
:100330000646002410687529314616A510D0AFF383
:100340000080002802DA404213A507E031688A07DE
:1003500001D512A502E0490704D511A5012401E049
:10036000AFF3008000210A2206F1240709E0B0FB68
:10037000F2FCB0FBF2F302FB1C003030785418465C
:10038000491C0028F3D123462A463046BDE8F041F7
:1003900000F07ABA000000002D0000002B000000E1
:1003A0002000000070B504460D4621461068AFF3EA
:1003B00000802188090502D50F4A7A4402E00E4ADE
:1003C0007A440E32002104F1240305E000F00F0608
:1003D0000009965D5E54491C0028F7D1207800235F
:1003E000000704D5702D02D009B102231132204636
:1003F000BDE8704000F048BA767D00002DE9F05F5E
:10040000894604464FF0000ADFF874B1FB44C0F897
:1004100020A02046E1688847002874D0252806D00F
:10042000D4E901219047206A401C2062F1E70026B0
:100430005F462046E16888472028054607DB312DC6
:1004400005D2781910F8200C08B10643F1E7B0077F
:1004500001D526F00406C4F81CA00027C4F818A093
:100460002A2D09D0284602F012FD38B304EB870884
:10047000303DC8F8185019E059F8041B204604EB29
:1004800087029161E1688847012F054618D1E0692C
:10049000002820DA26F020061DE0D8F8180000EB2E
:1004A000800005EB40003038C8F818002046E168AD
:1004B0008847054602F0EBFC0028EED1012F0AD058
:1004C0002E2D08D12046E16888477F1C0546022F63
:1004D00046F02006C4DBA069002803DA404246F05B
:1004E0000106A061F00701D026F010066C2D0BD09C
:1004F000682D09D04C2D39D06A2D35D0742D35D0CA
:100500007A2D33D016E038E0E1682F462046884740
:10051000B842054609D16C2F26D04FF48060E168BF
:10052000064320468847054604E06C2F1AD04FF456
:10053000807006430DB3A5F14100192802D820357B
:1005400046F400664A462946204626604E46FFF796
:1005500029FE80B101280BD0F61D26F0070000F11E
:10056000080956E74020E4E78020D8E70020D6E7D6
:1005700006F104094DE7284652E7206ABDE8F09FDE
:100580004C7D0000401ECAB210F8011F8A4202D002
:100590000029F9D10020704710B5431E13F8014F10
:1005A000002CFBD105E011F8014B002C03F8014BA6
:1005B00003D0521EF7D20021197010BD30B5054688
:1005C0000B462A4613F8014B12F8010B08B1A04262
:1005D000F8D01CB1002802D06D1CF1E7284630BDD0
:1005E00040EA0103024630B59B0710D14FF00134B9
:1005F00000E008C208C91D1B9D4315EAC41FF8D0BE
:1006000013F0FF0102F8011B0DD01B0AF8E711F8E7
:10061000013B002B02F8013B05D011F8013B002BF8
:1006200002F8013BF3D130BD10B5431C02E010F8D5
:10063000011B71B18107FAD14FF0013202C88C1A47
:100640008C4314EAC211F9D0C01A0A0603D0C01EA6
:1006500010BDC01A10BD0A0401D0801E10BD0902D1
:10066000FCD0401E10BD421E12F8013F002BFBD1F2
:1006700011F8013B002B02F8013BF9D17047032A26
:1006800040F2308010F0030C00F0158011F8013BAF
:10069000BCF1020F624498BF11F801CB00F8013B96
:1006A00038BF11F8013BA2F1040298BF00F801CB5A
:1006B00038BF00F8013B11F0030300F02580083A31
:1006C000C0F0088051F8043B083A51F804CBA0E888
:1006D0000810F5E7121D5CBF51F8043B40F8043BDD
:1006E000AFF30080D20724BF11F8013B11F801CB12
:1006F00048BF11F8012B24BF00F8013B00F801CBE3
:1007000048BF00F8012B704710B5203AC0F00B80AD
:10071000B1E81850203AA0E81850B1E81850A0E805
:100720001850BFF4F5AF5FEA027C24BFB1E818505F
:10073000A0E8185044BF18C918C0BDE810405FEACF
:10074000827C24BF51F8043B40F8043B08BF70474B
:10075000D20728BF31F8023B48BF11F8012B28BF50
:1007600020F8023B48BF00F8012B70474FF0000211
:100770000429C0F0128010F0030C00F01B80CCF1B3
:10078000040CBCF1020F18BF00F8012BA8BF20F821
:10079000022BA1EB0C0100F00DB85FEAC17C24BF75
:1007A00000F8012B00F8012B48BF00F8012B70471F
:1007B0004FF0000200B5134694469646203922BFFA
:1007C000A0E80C50A0E80C50B1F12001BFF4F7AF45
:1007D000090728BFA0E80C5048BF0CC05DF804EB27
:1007E000890028BF40F8042B08BF704748BF20F895
:1007F000022B11F0804F18BF00F8012B704700004A
:100800004FF0013C50F8042B51F8043B9A4221D19F
:10081000A2EB0C03934313EACC1317D150F8042B2B
:1008200051F8043B9A4215D1A2EB0C03934313EA0F
:10083000CC130BD150F8042B51F8043B9A4209D148
:10084000A2EB0C03934313EACC13DBD04FF0000070
:10085000704700BFD01A01BAB1FA81F101F0180156
:1008600022FA01F0CB40C1F12001DBB2C0B2C01AC4
:100870002CFA01F3D11A914311EAC311E6D1704762
:1008800070477047704770472DE9F0470D4699460D
:100890009246044600F124080168880604D5E06900
:1008A00021F01001216000E00120A84201DD471B7A
:1008B00000E00027A1697A1902EB0900081AA0617B
:1008C0002078C00602D42046FFF7E0FC002608E0AE
:1008D000D4E901211AF806009047206A401C761CD2
:1008E00020624E45F4DB2078C0060AD52046FFF78B
:1008F000CDFC06E0D4E9012130209047206A401C5D
:100900002062381EA7F10107F4DC07E0D4E90121D9
:1009100018F805009047206A401C2062281EA5F1A7
:100920000105F3DC2046FFF7C7FC2078000602D55E
:100930000220BDE8F0870120FBE7000001694A1CA6
:1009400002610878704700B58FB0CDE90131002110
:10095000059105497944CDE9031011466846FFF732
:100960004DFD0FB000BD0000E5FFFFFF0A6802F873
:10097000010B0A607047D1E900239A4202D2531C4E
:100980000B601070704710B5436913B1AFF300806E
:1009900001E0FFF7A2FC012010BD127800F1240154
:1009A0000A7000224A700122EDE711684FF0FF3211
:1009B000E9E70000074B70B50D467B44FFF7C3FF26
:1009C0000446284600F008F810B14FF0FF3070BD23
:1009D000204670BD832C0000007B00F08000704733
:1009E000754600F02BF8AE4605006946534620F0E8
:1009F0000700854618B020B5FFF7FEFBBDE8204094
:100A00004FF000064FF000074FF000084FF0000BCA
:100A100021F00701AC46ACE8C009ACE8C009ACE87D
:100A2000C009ACE8C0098D46704710B50446AFF365
:100A300000802046BDE81040FFF7CCBB004870475F
:100A4000C43B002021B1826842F00102826003E0D1
:100A5000826822F0010282607047014600208A68A5
:100A600002F004020AB1012000E0002070470146B4
:100A7000C86C80B270470246002013680B400BB16F
:100A8000012000E000207047014600208A6802F043
:100A900008020AB1012000E00020704730B502468C
:100AA0000020002350680F4C20400D790C6844EA68
:100AB00005242043506090680B4C2040D1E902543B
:100AC0002C434D7944EA450420439060D06A20F4D9
:100AD00070000C7C641EE4B2234340EA0350D062F1
:100AE00030BD0000FFFEF0FFFDF7F1FFF0B504465A
:100AF0000D4600200021092D11DDE068A5F10A0650
:100B000006EB4607072606FA07F18843A5F10A0611
:100B100006EB460603FA06F10843E0600CE02069A4
:100B200005EB4507072606FA07F1884305EB45065E
:100B300003FA06F108432061072A0FDA606B561E9C
:100B400006EB86071F2606FA07F18843561E06EBBA
:100B5000860605FA06F10843606322E00D2A0FDAE3
:100B6000206BD61F06EB86071F2606FA07F188437F
:100B7000D61F06EB860605FA06F10843206310E04F
:100B8000E06AA2F10D0606EB86071F2606FA07F1BA
:100B90008843A2F10D0606EB860605FA06F1084326
:100BA000E062F0BD816841F008018160704721B1C9
:100BB000826842F4A002826003E0826822F4A0020C
:100BC00082607047816841F00401816070470000D5
:100BD0002DE9F047074689469046DDF820C0002100
:100BE000002200240026002500200446024601467B
:100BF00045E0002601E0491C761C614502D2585CA4
:100C00002028F8D0614500D13BE0ACEB0100022880
:100C100007D3585C0D2804D1481C185C0A2800D161
:100C20002CE0585C0A2800D128E01EB16FF02B00A0
:100C3000BDE8F087585C3D2806D1601C04460228B8
:100C400002D96FF02B00F3E7585C7F2806DC585C74
:100C5000DFF8E4A01AF800007F2802D16FF02B0023
:100C6000E6E7585CDFF8D0A01AF80000402803DA65
:100C700014B16FF02B00DBE7521C00BF491C61452B
:100C8000B7D300BF1AB90020C8F80000D0E7D008D9
:100C900000EB40004FEA400A02F0070000EB400082
:100CA0004000C01D0AEBD002121B0FB1914504D2C7
:100CB000C8F800206FF02900BAE703240020064698
:100CC00002463D4631E018780D2805D018780A28EC
:100CD00002D01878202800D125E01878DFF858A035
:100CE0001AF80000402801D1012000E00020241A59
:100CF0001878DFF844A01AF8000066F39F10064643
:100D0000501C024604280DD1002214B1300C05F805
:100D1000010B012C02D9300A05F8010B022C01D974
:100D200005F8016B00BF491E5B1C0029CBD1E81BF5
:100D3000C8F8000000207BE7728000082DE9F04F22
:100D400007468946099C00250026AC46A846AA46C7
:100D500000211CB900201060BDE8F08F0320B4FB17
:100D6000F0F04FF0030BB4FBFBFE0BFB1E4BBBF193
:100D7000000F02D04FF0010B01E04FF0000B00EB31
:100D80000B06B6F1804F05D34FF0FF3010606FF0C7
:100D90002900E1E7B600701C814500D327B9701C1B
:100DA00010606FF02900D7E70320B4FBF0F000EBF0
:100DB00040060025394629E013F801CB13F8018BD2
:100DC00013F801AB2D484FEA9C0B10F80B0001F80B
:100DD000010B4FEA0C1000EB281000F03F00DFF889
:100DE0009CB01BF8000001F8010B4FEA880000EBF3
:100DF000AA1000F03F001BF8000001F8010B0AF0F8
:100E00003F001BF8000001F8010BED1CB542D3D3E5
:100E1000A5422DD213F801CB681CA04202D213F8D0
:100E2000010B00E0002080461448CCF3850B10F83D
:100E30000B0001F8010B4FEA0C1000EB281000F03A
:100E40003F00DFF838B01BF8000001F8010B681C08
:100E5000A04207D23F2000EA88001BF8000001F8FA
:100E6000010B02E03D2001F8010B3D2001F8010BD0
:100E7000C81B10600020087000BF6DE732800008BA
:100E80002DE9F04102460025002600200023002421
:100E9000002791F803C00CF00F0591F803C00CF087
:100EA000100CBCF1000F03D091F802C04CEA05050C
:100EB00091F800C0BCF1000F31D0146800202BE085
:100EC0004FF0010C0CFA00F3B1F800C00CEA030675
:100ED0009E4220D183004FF00F0C0CFA03F7BC4365
:100EE00005FA03FC4CEA040491F803C0BCF1280F96
:100EF00006D14FF0010C0CFA00FCC2F814C00AE055
:100F000091F803C0BCF1480F05D14FF0010C0CFA69
:100F100000FCC2F810C0401C0828D1D31460B1F8FE
:100F200000C0BCF1FF0F34DD546800202EE000F15A
:100F3000080C4FF0010808FA0CF3B1F800C00CEAF5
:100F400003069E4221D183004FF00F0C0CFA03F7E9
:100F5000BC4305FA03FC4CEA040491F803C0BCF15D
:100F6000280F05D100F1080C08FA0CF8C2F814801B
:100F700091F803C0BCF1480F07D100F1080C4FF005
:100F8000010808FA0CF8C2F81080401C0828CED3DB
:100F90005460BDE8F0810000F0B50A46002300244B
:100FA0000021002500F00046B6F1004F02D11D4E91
:100FB000F16901E01B4E7168C0F3034583B200F490
:100FC0004016B6F5401F08D121F07061154E7668C5
:100FD00026F07066134F7E6012E000F48016B6F5BE
:100FE000801F06D1032606FA05F4A14341F0706183
:100FF00006E0460D360103FA06F6B14341F0706192
:1010000022B1460D360103FA06F6314300F00046E0
:10101000B6F1004F02D1034EF16101E0014E716063
:10102000F0BD0000000001400246002093680B4024
:101030000BB1012000E00020704741617047016161
:10104000704710B50446207B012802D1206802F0C9
:101050001DFF002020606060A060207310BD02466C
:10106000002301230DE002F07F000870D2092AB1AD
:10107000087840F080000870491C01E0184670476D
:101080005B1C042BEFDD4FF0FF30F8E770B5044632
:101090000E460025206898B901202073304602F0E2
:1010A00059FF20602068E0B100206060A66003E086
:1010B0000020216848556D1CA068A842F8D810E0AF
:1010C0000220207303E00020216848556D1CA068B1
:1010D000A842F8D800206060A068B04201D2002089
:1010E000206070BD2DE9FF4F83B082468B4691464C
:1010F000159C0025002002900F2701904846FFF71D
:1011000093FA0FFA80F8B9F1000F06D19DA0FFF70E
:1011100083F8012007B0BDE8F08F08F102003844E1
:1011200087B2109808B145F00205129878B145F0E1
:1011300004051298FFF778FAC0B202901398FFF7EF
:1011400073FA01460298001D0844384487B211988A
:1011500020B1012804D0022808D104E000BF07E034
:1011600045F00C0504E045F0140501E00220D1E74C
:1011700000BF149808B145F02405BAF1000F02D061
:10118000BBF1000F01D10320C4E745F0C005504674
:10119000FFF74AFA06465846FFF746FA3044001D64
:1011A000384487B239462046FFF770FF206808B9F7
:1011B0000420AFE739462068FFF7D8FA10216268AB
:1011C000501C606020688154D4E90023D118781F36
:1011D000FFF745FF00B201900198002804DA20468D
:1011E000FFF72FFF052095E76168019808446060CC
:1011F00000216268501C606020688154042162688C
:10120000501C6060206881544D216268501C6060F1
:101210002068815451216268501C606020688154AC
:1012200054216268501C6060206881546268501CC0
:1012300060602068815404216268501C60602068EE
:1012400081546168481C6060206845540698010A12
:101250006268501C6060206881540698C1B2626860
:10126000501C606020688154C8F307216268501CDC
:101270006060206881546268501C6060206800F8DB
:101280000280D4E90012881842464946FFF784F9E3
:1012900060684044606005F00400B8B3002613980D
:1012A00008B93FA013901298FFF7BEF986B2310A31
:1012B0006268501C6060206881546268501C6060E5
:1012C00020688654D4E90012881832461299FFF734
:1012D00063F96068304460601398FFF7A5F986B23F
:1012E000310A6268501C6060206881546268501C3A
:1012F000606020688654D4E9001288183246139939
:10130000FFF74AF960683044606000BF05F0800074
:10131000C8B15046FFF788F986B2310A6268501C9E
:101320006060206881546268501C60602068865448
:10133000D4E90012881832465146FFF72DF960684B
:101340003044606000BF05F04000C8B15846FFF768
:101350006BF986B2310A6268501C60602068815463
:101360006268501C606020688654D4E900128818B6
:1013700032465946FFF710F960683044606000BF9C
:101380000020C7E65B4552524F522D4D5154545DDB
:10139000206465766964206973204E554C4C0D0AB3
:1013A000000000002DE9FF4F83B0834617469946A1
:1013B000139C002500260020029001908046BBF17E
:1013C000000F03D1012007B0BDE8F08F00260AE02E
:1013D0000498805D232803D00498805D2B2801D1D8
:1013E0000220F0E7761C0498805D0028F0D148F0D8
:1013F0003008119808B148F0010806EB0900851C77
:10140000109820B1012804D002280AD105E000BFBD
:1014100009E048F00208AD1C05E048F00408AD1CE6
:1014200001E00320CFE700BF8FB33878022821D135
:101430004FF0000A00BF50460AF1010A385C7D28CF
:10144000F9D1AAF1030A0AF1070002900298A9EB68
:10145000000AE81CA0EB0A012046FFF717FE2068EF
:1014600008B90420AFE7EA1CA2EB0A012068FFF7E5
:101470007DF919E0691D2046FFF708FE206808B9CC
:101480000420A0E7691D2068FFF770F90CE0FFE772
:10149000691D2046FFF7FAFD206808B9042092E78D
:1014A000691D2068FFF762F96168481C6060206868
:1014B00000F80180D4E9000281182846FFF7CFFD2B
:1014C00001900198002804DA2046FFF7BAFD0520B4
:1014D00079E76168019808446060C6F30721626893
:1014E000501C6060206881546268501C60602068F5
:1014F0008654D4E90012881832460499FFF74CF854
:10150000606830446060109860B14FEA1B216268E7
:10151000501C6060206881546268501C60602068C4
:1015200000F802B0C7B1387802280BD1D4E9001214
:1015300088183946029AFFF7A2F8616802980844B1
:10154000606009E0D4E9001288184A463946FFF77E
:1015500096F8606848446060002034E72DE9F04167
:1015600090B004460D4616469846169F23460CA298
:10157000302104A80095FEF76FFE01200021CDE97F
:10158000000133460A4604A9CDE902070A20FFF705
:1015900009FF18B1012010B0BDE8F0810020FAE782
:1015A000247379732F25732F25732F64702F706F19
:1015B00073742F6A736F6E002DE9FF5F80461746C4
:1015C00099460E9C0026B246B3460025B8F1000F9E
:1015D00003D1012004B0BDE8F09F0BE057F82500CF
:1015E00008B90220F6E757F82500FFF71DF8064472
:1015F000681CC5B24D45F1DB09EB4900801C00EBCE
:10160000060A0AF105012046FFF740FD206808B9E7
:101610000320DFE782216268501C606020688154EB
:10162000D4E9000281185046FFF719FD0FFA80FB3C
:10163000BBF1000F04DA2046FFF703FD0420C9E7E1
:101640006068584460604FEA18216268501C60600E
:10165000206881546268501C6060206800F8028035
:10166000002524E057F82500FEF7DEFF0646C6F306
:1016700007216268501C6060206881546268501CB9
:10168000606020688654D4E90023D01857F82510EC
:101690003246FEF781FF6068304460600198C1B255
:1016A0006268501C606020688154681CC5B24D455A
:1016B000D8DB00208EE7F0B504460D462646012310
:1016C00000201060002114E0775C07F07F071068AD
:1016D00007FB03001060705C00F0800008B9481C34
:1016E000F0BDDB01B3F5001F02D36FF00100F7E797
:1016F000491CA942E8DB4FF0FF30F1E710B5044682
:101700006078022805D0617808A0FEF785FD0120E9
:1017100010BDA07810B1A078012801D1E078F7E7DA
:10172000A17810A0FEF778FDFF20F1E75B4552524B
:101730004F522D4D5154545D20434F4E4E41434B1B
:10174000206C656E677468206572726F723A20252E
:1017500064202865787065637465642032290D0AF9
:10176000000000005B4552524F522D4D5154545DC4
:1017700020434F4E4E41434B20666C61677320659A
:1017800072726F723A2025640D0A00002DE9FC5F29
:1017900081460D4614461E46DDE90C8B99F8000083
:1017A00000F00F0A002001900AF008000090CAF330
:1017B00041008BF8000001AA042109F10100FFF7A4
:1017C0007AFF4844471C0198022802D30AF001001E
:1017D00010B1FF20BDE8FC9F7878397840EA0120FD
:1017E00020802088801C0199884201D9FF20F1E7E0
:1017F00054A1B81CFEF7E2FE08B10F20EAE79BF8FF
:10180000000020B101283DD0022877D13BE00098AC
:1018100008B1FF20DEE72188481C02F09BFB28600E
:10182000286808B9FF20D5E72288511C2868FEF7F0
:101830009DFF2288B91C2868FEF721FF0198801EB1
:101840002188401AA8F80000B8F80010481C02F0DF
:1018500081FB3060306820B9286802F017FBFF2058
:10186000B8E7B8F80020511C3068FEF77FFFB8F8E1
:101870000020B4F800C0BB1C0CEB03013068FEF77D
:10188000FEFE4FE000BF2088801C0199884201D9EC
:10189000FF209FE72088C01C395C2088801C385CB2
:1018A00041EA00210E9801800E9808B9FF2091E7C7
:1018B0002188481C02F04EFB2860286808B9FF20E8
:1018C00088E72288511C2868FEF750FF2288B91C3F
:1018D0002868FEF7D4FE0198001F2188401AA8F856
:1018E0000000B8F80010481C02F034FB306030688B
:1018F00028B9286802F0CAFAFF206BE710E0B8F8B0
:101900000020511C3068FEF731FFB8F80020B4F811
:1019100000C03B1D0CEB03013068FEF7B0FE01E098
:10192000FF2057E700BF2B212846FEF72BFE20B9EA
:1019300023212846FEF726FE08B1FF204AE70020B3
:1019400048E7000024637265710000000146487892
:10195000022801D001207047887820B9C8780A2869
:1019600001D10020F7E70120F5E70000F8B50446B3
:10197000FF270CB93846F8BD20780511012D01DB91
:101980000E2D01DD3846F6E7032D24D1002000900E
:101990006A460421601CFFF78EFE2044461C009816
:1019A000022803D3207800F0010008B1FF20E2E70D
:1019B0007078317840EA0120801C0099884201D972
:1019C000FF20D8E705A1B01CFEF7F8FD08B10F27EE
:1019D00000E0032700E02F463846CCE72463726519
:1019E0007100000010B50146FF20CB788C7843EAE7
:1019F0000422142A03D0152A01D0162A11D10B79FA
:101A000033B1012B05D0022B04D0802B06D103E08B
:101A100000BF00BF002003E0012001E0022000BF62
:101A200000BF10BD70B5002100230F22C47804B39D
:101A3000154C246804F4E064C4F5E064210AC1F1A3
:101A40000403CA40447804FA03F184781440214323
:101A500009010E4C0678A155047804F01F050124F5
:101A6000AC4005786D11AD0005F1E025C5F80041E9
:101A700009E0047804F01F050124AC40044D067809
:101A8000761145F8264070BD0CED00E000E400E062
:101A900080E100E030B500240EE00021204600F097
:101AA00039F9002504E0002000F0A0F9681CC5B257
:101AB000802DF8DB601CC4B2082CEEDB30BD0000CA
:101AC0001CB50121082001F01BF801200321034669
:101AD0000246CDE9001040210F4803F057FC0120D9
:101AE000032103460246CDE9001080210A4803F095
:101AF0004DFC00BF08480C30006840F0400006492B
:101B00000C31086000BF00BF0846006840F080004C
:101B1000086000BF1CBD0000000C01400146002011
:101B200023E000BF802202410A4032B1184A126805
:101B300042F08002164B1A6005E0154A126822F046
:101B40008002134B1A6000BF00BF114A126842F0B6
:101B500040020F4B1A6000BF00BF1A46126822F005
:101B600040021A6000BF421CD0B20828D9DB00BF77
:101B7000074A126842F04002054B1A6000BF00BFDE
:101B80001A46126822F040021A6000BF7047000037
:101B90000C0C014000BF0E48006840F080000C496A
:101BA000086000BF00BF0846006840F040000860C1
:101BB00000BF00BF0846006820F08000086000BF3A
:101BC00000BF0846006820F04000086000BF704772
:101BD0000C0C014000BF0B48006820F08000094950
:101BE000086000BF00BF0846006840F04000086081
:101BF00000BF00BF0846006840F08000086000BFDA
:101C0000704700000C0C014070B5002406E0002570
:101C100000E06D1CB5F57A7FFBD3641CB4F57A7FC8
:101C2000F5D3FFF74DFF27A0FEF7F6FAAE2000F040
:101C3000CDF8D52000F0CAF8802000F0C7F8A82021
:101C400000F0C4F83F2000F0C1F8D32000F0BEF847
:101C5000002000F0BBF8402000F0B8F8A12000F010
:101C6000B5F8C82000F0B2F8DA2000F0AFF8122082
:101C700000F0ACF8812000F0A9F8CF2000F0A6F821
:101C8000D92000F0A3F8F12000F0A0F8DB2000F04C
:101C90009DF8302000F09AF8A42000F097F8A620D4
:101CA00000F094F88D2000F091F8142000F08EF8E8
:101CB000AF2000F08BF8FFF7EDFE0DA0FEF7ACFAB9
:101CC000002070BD5B4F4C45445D204750494F207C
:101CD000696E697469616C697A65643A2053434C32
:101CE0003D5042362C205344413D5042370D0A00AE
:101CF0005B4F4C45445D20496E697469616C697A3B
:101D00006174696F6E20636F6D706C6574650D0A28
:101D10000000000030B505460C4645F0B00000F06C
:101D200055F8102141EA141000F050F804F00F00AB
:101D300000F04CF830BD0000F0B505460E461746E1
:101D4000721ED206110E6A1E5206100EFFF7E2FF37
:101D5000002409E0A7F12001124A02EB0111085DFD
:101D600000F044F8601CC4B2082CF3DB721ED206EB
:101D7000110E6A1E012303EB4202D0B2FFF7CAFF25
:101D800000240BE0A7F12001064A02EB011204F146
:101D90000801505C00F02AF8601CC4B2082CF1DB8A
:101DA000F0BD0000BE680008F0B507460E461546B7
:101DB000002407E02A5D3019C1B23846FFF7BCFFA6
:101DC000601CC4B2285D0028F4D1F0BD10B50446F3
:101DD000FFF7E0FE7820FFF7A1FE0020FFF79EFE50
:101DE0002046FFF79BFEFFF7F5FE10BD10B5044639
:101DF000FFF7D0FE7820FFF791FE4020FFF78EFE20
:101E00002046FFF78BFEFFF7E5FE10BDF0B58BB067
:101E10000546002600242846FEF706FCC7B20DB191
:101E20001C2F02DA01200BB0F0BD06E0A85D01A96D
:101E300088550020A855701CC6B2BE42F6DB0020B3
:101E400001A988550026002455E001A8805D2B28B3
:101E500010D008DC202814D023282ED0252825D007
:101E600026283FD130E02F2812D03D2833D03F28FC
:101E700038D114E0281923A1FEF7F5FBE01CC4B209
:101E800036E0281920A1FEF7EEFBE01CC4B22FE0DB
:101E900028191EA1FEF7E7FBE01CC4B228E02819B0
:101EA0001BA1FEF7E0FBE01CC4B221E0281919A138
:101EB000FEF7D9FBE01CC4B21AE0281916A1FEF700
:101EC000D2FBE01CC4B213E0281914A1FEF7CBFB2F
:101ED000E01CC4B20CE0281911A1FEF7C4FBE01C01
:101EE000C4B205E001A8805D2855601CC4B200BFE3
:101EF00000BF701CC6B2BE42A7DB0020285500BF41
:101F000091E700002532420025323000253246009C
:101F10002533460025323500253233002532360080
:101F2000253344002DE9F04FE9B005460C4616462E
:101F30001F460DF5E47898E8000F0020689055B131
:101F40004CB14448864206D32FB1B9F1000F02D0FC
:101F5000BAF1780F03DA012069B0BDE8F08F4021B3
:101F600038A8FEF725FC3846FEF75EFB05903B4699
:101F700068AA4021009038A8FEF72AFE482126A82A
:101F8000FEF716FCBBF1000F09D033A0334634A294
:101F900048218DE8310026A8FEF75EF909E02EA061
:101FA000334635A248218DE81101039526A8FEF796
:101FB00053F9402148A8FEF7FBFB26A8FEF734FBA7
:101FC000024626A9059006A8FEF79EFB26A8FEF766
:101FD0002BFB059038A8FEF727FB049048A800903B
:101FE00006AA38A8DDE9041301F084FB00206890FC
:101FF000402158A8FEF7DCFB48A8FEF715FB05902A
:1020000048AB68AA4021009058A8FEF797FE58A850
:10201000FFF7FCFEBBF1000F0CD058A80EA12B4619
:102020001DA2CDE90046CDE9021051464846FEF713
:1020300013F90CE058A808A12B46254ACDE90186E2
:102040000094CDE9031051464846FEF705F90020FB
:1020500082E700009554415D736861310000000023
:1020600025640A25730A70726F64756374732F2573
:10207000730A25730000000025640A25730A707234
:102080006F64756374732F25732F64657669636558
:10209000732F25730A25730076657273696F6E3D21
:1020A0002573267265733D70726F64756374732552
:1020B00025324625732665743D2564266D65746852
:1020C0006F643D2573267369676E3D2573000000BC
:1020D000A482000870B588B005460C46114BD3E9C0
:1020E00001021968DB6805AE0DC604912046FEF7B3
:1020F0009BFA064604A80121002200923346CDE94E
:1021000001210390224629460A20FFF74BF938B9EE
:10211000059A91B2049801F003FA04A8FEF791FF22
:1021200008B070BD1481000800B587B03E4B0FCBDE
:10213000CDE90523CDE903013CA03EA340A25021F7
:1021400000904448FEF788F84248029042480390C5
:10215000002004904FF48070059002208DF8180044
:1021600003A8012302AA002100901420FFF724FAFB
:1021700038B9049A91B2039801F0D2F903A8FEF796
:1021800060FF642000F032FF28A02AA333A2502170
:1021900000903B48FEF760F8394802902E480390C3
:1021A000002004904FF48070059002208DF81800F4
:1021B00003A8012302AA002100901520FFF7FCF9D3
:1021C00038B9049A91B2039801F0AAF903A8FEF76E
:1021D00038FF642000F00AFF14A016A329A25021A2
:1021E00000903148FEF738F82F4802901A480390C3
:1021F000002004904FF48070059002208DF81800A4
:1022000003A8012302AA002100901620FFF7D4F9A9
:1022100038B9049A91B2039801F082F903A8FEF745
:1022200010FF07B000BD0000248100086D797461C3
:10223000736B0000394D34364A34586841530000FE
:10224000247379732F25732F25732F636D642F23C8
:1022500000000000D43A0020D439002024737973A0
:102260002F25732F25732F64702F706F73742F6A4F
:10227000736F6E2F616363657074656400000000A6
:10228000243B0020247379732F25732F25732F642B
:10229000702F706F73742F6A736F6E2F72656A651B
:1022A0006374656400000000743B002030B5B3B077
:1022B000384B0FCB2FAC0FC401250020A02107AA5B
:1022C00035A3CDE90032CDE9021035A3404A41A142
:1022D00043A0FFF727FE2FA8002102910391CDE92B
:1022E0000410084601210B022BA2CDE9001007A91A
:1022F00038A0FEF7F7FE002847D1309A91B22F9808
:1023000001F00EF928B139A0FDF786FF012033B0A6
:1023100030BD4FF47A7000F0F9FE0446002C2DD049
:102320002046FFF723FB022824D12046FFF7E6F9D9
:1023300006281AD2DFE800F00305090D1115002563
:1023400017E036A0FDF768FF13E040A0FDF764FF3B
:102350000FE048A0FDF760FF0BE050A0FDF75CFF29
:1023600007E059A0FDF758FF03E060A0FDF754FF18
:1023700000BF06E066A0FDF74FFF02E06BA0FDF78F
:102380004BFF2FA8FEF75DFE02E06FA0FDF744FFB4
:102390002846BCE7F48000086D797461736B000017
:1023A000485747466E38477A64354558695A2B5224
:1023B000623147745A354D3136626E335866577202
:1023C00052576E4A4F392F7833576B3D000000004B
:1023D00000CF9D74394D34364A345868415300005B
:1023E000323031382D31302D333100005B455252BF
:1023F0004F525D204661696C656420746F2073657F
:102400006E64204D51545420434F4E4E454354204A
:102410007061636B6574210D0A0000005B4F6E658F
:102420004E45545D204552524F523A20556E6163DD
:102430006365707461626C652070726F746F636F36
:102440006C2076657273696F6E0D0A005B4F6E6566
:102450004E45545D204552524F523A204964656EB4
:102460007469666965722072656A65637465640D76
:102470000A0000005B4F6E654E45545D2045525288
:102480004F523A2053657276657220756E6176619F
:10249000696C61626C650D0A000000005B4F6E653F
:1024A0004E45545D204552524F523A2042616420BD
:1024B000757365726E616D65206F722070617373E4
:1024C000776F72640D0A00005B4F6E654E45545D78
:1024D000204552524F523A204E6F742061757468F5
:1024E0006F72697A65640D0A000000005B4F6E65CB
:1024F0004E45545D204552524F523A20436F6E6E06
:10250000656374696F6E206661696C65640D0A00AD
:102510005B4552524F525D2057726F6E672070615B
:10252000636B657420747970650D0A005B455252C7
:102530004F525D20434F4E4E41434B2074696D65B1
:102540006F75740D0A0000005B4552524F525D20BA
:102550004D51545420436F6E6E656374204661691B
:102560006C65640D0A000000F0B591B0044640218E
:1025700001A8FEF71DF948A12046FEF731F84021D9
:1025800001A8FEF715F949490868494903F0FEFC1E
:10259000074603F0B3FC0646324646A101A8FDF704
:1025A00047FE01A92046FEF75EF8402101A8FEF78C
:1025B000FFF83E494868444903F0E8FC074603F049
:1025C0009DFC0646324641A101A8FDF731FE01A956
:1025D0002046FEF748F8402101A8FEF7E9F8334904
:1025E0008868394903F0D2FC074603F087FC0646A9
:1025F00032463BA101A8FDF71BFE01A92046FEF7CC
:1026000032F8402101A8FEF7D3F8284839A1C26862
:1026100001A8FDF70DFE01A92046FEF724F8402190
:1026200001A8FEF7C5F82148827C38A101A8FDF772
:10263000FFFD01A92046FEF716F8402101A8FEF78C
:10264000B7F81A48C27C36A101A8FDF7F1FD01A92F
:102650002046FEF708F8402101A8FEF7A9F8134824
:10266000C068B0F5FA7F01DD34A000E036A0054671
:102670002A4639A101A8FDF7DBFD01A92046FDF797
:10268000F2FF3BA12046FDF7EEFF2046FDF7CCFF11
:10269000C0B211B0F0BD00007B226964223A313231
:1026A000332C226470223A7B000000004C00002092
:1026B00000007A44226D76223A5B7B2276223A250C
:1026C0006C647D5D2C00000000002041226D6122C1
:1026D0003A5B7B2276223A256C647D5D2C000000FB
:1026E000226D70223A5B7B2276223A256C647D5DF6
:1026F0002C00000022776569676874223A5B7B22B0
:1027000076223A25647D5D2C00000000226C69670A
:102710006874223A5B7B2276223A25647D5D2C0028
:10272000226F70656E5F636C6F7365223A5B7B220C
:1027300076223A25647D5D2C000000007265747578
:10274000726E6564000000006E6F745F7265747570
:10275000726E656400000000226F626A6563742215
:102760003A5B7B2276223A222573227D5D000000AF
:102770007D7D00002DE9F041A6B0074600202590A0
:10278000249023902290219000264FF0FF3817B913
:1027900026B0BDE8F0813846FFF7E8F80646032E7C
:1027A00004D0042E7ED0092E7DD1B5E06A4821A93F
:1027B00022AA25ABCDE90021029023AA24A93846FC
:1027C000FEF7E4FF8046B8F1000F6DD1002563A14C
:1027D0002498FDF7F3FE00283CD064A065A368A20E
:1027E0008021009001A8FDF737FD6EA1259802F029
:1027F000CEFB0446002C0FDB0CB1012000E00020D2
:102800006A4988740846807C10B102F08BFB01E0B5
:1028100002F07EFB02F0E0FB65A1259802F0B7FB19
:102820000446002C0DDB0CB1012000E000205F49C4
:10283000C8740846C07C10B102F088FB01E002F0C9
:102840007BFB4FF4FA7000F0D1FB5CA101A8FFF70D
:1028500041FC5BE061A12498FDF7B0FE002855D053
:102860005FA12498FDF7AAFE0546002D4DD02F212B
:102870002846FDF787FE0546002D46D06D1C242214
:10288000294603A8FDF7FBFE00208DF8300003A8C1
:1028900036A138A355A2CDE9001050210DA8FDF7AF
:1028A000DBFC02E034E03BE031E057A10DA8FFF78C
:1028B00011FC3CA1259802F06AFB0446002C0FDBBA
:1028C0000CB1012000E00020384988740846807C63
:1028D00010B102F027FB01E002F01AFB02F07CFBD2
:1028E00033A1259802F053FB0446002C0DDB0CB1FC
:1028F000012000E000202D49C8740846C07C10B1BA
:1029000002F024FB01E002F017FB00BF00BF00BF94
:102910003846FFF71BF806E03846FFF763F802E099
:102920004FF0FF3800BF00BF00F0DEFBB8F1000F32
:102930000DD10F2E01D0032E09D1249810B1249867
:1029400001F0A4FA259810B1259801F09FFA35A05E
:10295000FDF762FC00BF1BE74800002070726F703B
:10296000657274792F736574000000006D7974616D
:10297000736B0000394D34364A34586841530000B7
:10298000247379732F25732F25732F7468696E67ED
:102990002F70726F70657274792F7365745F7265D2
:1029A000706C79006C696768740000004C0000204E
:1029B0006F70656E5F636C6F736500007B2265727C
:1029C000726E6F223A302C226572726F72223A2236
:1029D00073756363657373227D000000636D642FFC
:1029E000726571756573742F00000000247379732C
:1029F0002F25732F25732F636D642F726573706F8E
:102A00006E73652F257300007B226572726E6F22D4
:102A10003A302C226572726F72223A2273756363A8
:102A2000227D00005B44454255475D205B4F6E654B
:102A30004E65745F52657650726F5D20457869749B
:102A40000D0A000030B5C5B0194AD2E9013110684D
:102A5000D2684293449243914190002400254FF460
:102A6000807101A8FDF7A4FE01A8FFF77DFD0446D3
:102A7000E4B141A8002322460EA100900FA0FEF76A
:102A80006DFD98B908E001A8415D429A501C429042
:102A900041988154681C05B2A542F4DB429A91B278
:102AA000419800F03DFD41A8FEF7CBFA45B030BD9E
:102AB000048100086D797461736B0000394D343600
:102AC0004A3458684153000001460020034A5068C8
:102AD00020F440400843506070470000001002405E
:102AE00029B1064AD2690243044BDA6104E0034A81
:102AF000D2698243014BDA61704700000010024046
:102B000029B1064A92690243044B9A6104E0034AE0
:102B100092698243014B9A617047000000100240A5
:102B200030B500210022002400232D4D6D6805F0F2
:102B30000C0121B1042905D0082923D105E0294D34
:102B4000056022E0274D05601FE0254D6D6805F406
:102B50007012234D6D6805F48034022505EB924216
:102B60001CB9214D554305600BE01D4D6D6805F402
:102B700000351DB11C4D5543056002E0194D55430C
:102B8000056002E0174D056000BF00BF144D6D6881
:102B900005F0F0010909154D6B5C0568DD404560E5
:102BA0000F4D6D6805F4E061090A104D6B5C4568D6
:102BB000DD4085600A4D6D6805F46051C90A0B4D12
:102BC0006B5C4568DD40C560054D6D6805F44041AE
:102BD000890B074D6B5CC568B5FBF3F5056130BD2E
:102BE0000010024000127A0000093D000C00002095
:102BF0001C00002002480068401C01490860704722
:102C0000240000201D49098801F0200111B31B494F
:102C1000091D0988C8B21A49098801F40041C9B9D7
:102C20001749098801F4804161B10A2803D00021C5
:102C3000134A118020E01249098841F40041104AEA
:102C4000118019E00D2806D10D49098841F4804111
:102C50000B4A118010E00A490988C1F30D01094AA5
:102C6000505407490988491C054A118011460988B2
:102C7000C72901DD002111807047000000380140A4
:102C80002C0000206000002010B540F225510E48B5
:102C900000F039F8B8B10D480088B0F5007F0CDAC3
:102CA000094800F0EBF8C1B2084802880088401CCF
:102CB000064B18800648815405E0034800F0DEF812
:102CC00000200249088010BD004800403E0000205E
:102CD0004001002021B1828942F40052828104E047
:102CE00082894DF6FF731A408281704702460020A8
:102CF000B1F5007F00D100BF13880B400BB101205C
:102D000000E00020704770B5024600240023002533
:102D1000002040F66A16B14200D100BFC1F342154F
:102D200001F01F03012606FA03F3012D02D1968953
:102D3000334006E0022D02D1168A334001E0968A24
:102D400033400C12012606FA04F41688344013B1FD
:102D50000CB1012000E0002070BDF0B50346002456
:102D600000260025002040F66A17B94200D100BFB6
:102D70001846C1F3421401F01F06012707FA06F5B1
:102D8000012C01D10C3004E0022C01D1103000E004
:102D900014301AB107682F43076002E00768AF4399
:102DA0000760F0BD2DE9F04786B005460E460024C9
:102DB000A24600BFA1460027B08900B100BF2F4640
:102DC0002C8A4CF6FF700440F08804432C82AC89B6
:102DD0004EF6F3100440B0883189084371890843E6
:102DE0000443AC81AC8A4FF6FF400440B0890443F1
:102DF000AC8201A8FFF794FE1F48874202D1DDF89C
:102E000010A001E0DDF80CA0A88900F4004040B15A
:102E10000AEBCA0000EB0A1031684900B0FBF1F878
:102E200007E00AEBCA0000EB0A1031688900B0FB2A
:102E3000F1F86420B8FBF0F004012009642101FBE3
:102E40001089A88900F4004040B1322000EBC9008D
:102E5000B0FBF1F000F00700044308E0322000EB83
:102E600009106421B0FBF1F000F00F0004432C8145
:102E700006B0BDE8F08700000038014001468888B0
:102E8000C0F308007047C1F30802828070473038F1
:102E90000A2801D2012070470020704700BF704708
:102EA0002DE9F04104460026002719E00423012201
:102EB00021461048FDF71AFE01210E48FDF777FE66
:102EC00000BF02210B48FDF7D6FD0028F9D00948C4
:102ED000FDF7CDFD0644012000F088F8781CC7B24C
:102EE0000A2FE3DB0A20B6FBF0F085B22846BDE8E6
:102EF000F0810000002401402DE9F0410446204605
:102F0000FFF7CEFF0646304603F02CF8074603498C
:102F100003F03CF805462846BDE8F0813333533AC8
:102F200000B587B001214FF40170FFF7E9FD4FF4C0
:102F30000040FFF7C9FD0520ADF8040000208DF822
:102F4000070001A91C48FDF79BFF002002908DF8A7
:102F50000C008DF80D004FF46020049000200590C7
:102F600001208DF8180002A91448FDF797FD0121F2
:102F70001248FDF767FD1148FDF714FE00BF0F482A
:102F8000FDF782FD0028FAD10C48FDF71BFE00BFBB
:102F90000A48FDF762FD0028FAD10423012200212E
:102FA0000648FDF7A3FD0423012202210348FDF793
:102FB0009DFD07B000BD0000000801400024014055
:102FC0004FF0E021096941F004014FF0E022116166
:102FD000054908601146096941F0010111616FF06E
:102FE00070415161704700002000002010B5044678
:102FF0004FF47A7104FB01F000F002F810BD0000FC
:1030000070B5034600224FF0E02675690D4E366814
:1030100003FB06F44FF0E026B16910E04FF0E02624
:10302000B06988420BD0884202D20E1A324402E0C4
:103030002E1A0E4432440146A24200D300E0EDE7CE
:1030400000BF70BD2000002010B5094C09A120462A
:10305000FDF7B4FA20B909A12046FDF7AFFA20B177
:103060000AA0FDF7D9F8012010BD0020FCE7000000
:1030700040010020434C4F5345440000434F4E4E07
:10308000454354204641494C000000005443502021
:103090006C6F73740D0A000010B5094C09A120462D
:1030A000FDF78CFA20B90BA12046FDF787FA20B175
:1030B0000AA0FDF7B1F8012010BD0020FCE70000D8
:1030C000400100205749464920444953434F4E4E42
:1030D00045435400434C4F534544000057694669EB
:1030E000206C6F73740D0A0010B54FF40071044822
:1030F000FDF73CFB0020034908800349088010BD10
:10310000400100203E0000204000002070B5054630
:10311000002400BF00F07AFA70B90CA10D48FDF749
:103120004DFA044644B13A212046FDF72BFA0446F5
:1031300014B1641C204670BD0A20FFF757FF281EFB
:10314000A5F101018DB2E5D100BFF4E72B49504450
:103150002C0000004001002010B50B48006820F052
:103160000200094908606420FFF740FF0648006834
:1031700040F00200044908604FF47A70FFF736FF10
:1031800002A0FDF749F810BD0C0801405B45535003
:10319000383236365D20486172647761726520721C
:1031A0006573657420636F6D706C6574650D0A00DE
:1031B00010B50EA0FDF730F81948006820F00200A5
:1031C000174908606420FFF711FF1548006840F0B8
:1031D0000200134908604FF4FA60FFF707FF11A0DF
:1031E000FDF71AF8FFF780FF10BD00005B45535054
:1031F000383236365D20506572666F726D696E6763
:1032000020686172647761726520726573657420ED
:103210006F6E6C792028504131292E2E2E0D0A0018
:103220000C0801405B455350383236365D2048610A
:1032300072647761726520726573657420636F6D67
:10324000706C6574650D0A0010B500F003F9642018
:10325000FFF7CCFEFFF780FF4FF4E13002F056FCA1
:10326000FFF742FF4FF4FA70FFF7C0FE032129A0D9
:1032700002F0B0FC4FF4FA70FFF7B8FE0A240CE03D
:10328000601E80B2041E04D123A0FCF7C5FF0120FC
:1032900010BD4FF4FA70FFF7A9FE25A125A000F09C
:1032A0000DF90028ECD122A124A000F007F9052493
:1032B0000CE0601E80B2041E04D122A0FCF7ACFF1B
:1032C0000220E5E74FF4FA70FFF790FE18A129A05D
:1032D00000F0F4F80028ECD10A240CE0601E80B263
:1032E000041E04D127A0FCF797FF0320D0E74FF47A
:1032F000FA60FFF77BFE2EA12FA000F0DFF8002878
:10330000ECD135A0FCF788FF09A13AA000F0D6F86F
:103310000020BDE72B2B2B005B455350383236364F
:103320005D20496E6974206661696C65640D0A00F0
:103330004F4B000041540D0A00000000415445303D
:103340000D0A00005B455350383236365D20455239
:10335000524F523A204661696C656420746F207345
:1033600065742073746174696F6E206D6F6465217C
:103370000D0A000041542B43574D4F44453D310D3C
:103380000A0000005B455350383236365D20455206
:10339000524F523A205769466920636F6E6E6563DB
:1033A00074696F6E206661696C6564210D0A0000A6
:1033B000474F54204950000041542B43574A415035
:1033C0003D226D797461736B222C22313233343596
:1033D000363738220D0A00005B45535038323636F6
:1033E0005D205769466920636F6E6E65637465641E
:1033F000210D0A0041542B4349504D55583D300D85
:103400000A00000010B504460CB9012010BD09A146
:103410002046FDF7D3F848B908A12046FDF7CEF8BD
:1034200020B908A12046FDF7C9F808B10120EDE751
:103430000020EBE74552524F520000004641494CF4
:1034400000000000414C524541445920434F4E4E2C
:103450004543540008B501210420FFF751FB022029
:10346000ADF8000010208DF8030003208DF8020055
:1034700069460748FDF704FD05480C30006840F038
:10348000020003490C31086002A0FCF7C5FE08BD2C
:10349000000801405B455350383236365D205253A8
:1034A000542070696E20696E697469616C697A650F
:1034B000642028504131290D0A0000002DE9F04117
:1034C00005460E46C827FFF70FFE2846FDF7ACF865
:1034D0001FFA80F84146284602F07CFB17E000F016
:1034E00095F8044684B9DFF834804046FFF78AFF38
:1034F00010B10120BDE8F08131464046FDF75EF88D
:1035000008B10020F6E700BF0A20FFF76FFD381E64
:10351000A7F10101CFB2E2D10120EBE74001002089
:1035200070B588B006460C4603256420FFF75EFDA3
:10353000FFF7DAFD3220FFF759FD36E0202168461B
:10354000FDF736F9224622A16846FCF771FE24A158
:103550006846FFF7B3FF80B93220FFF747FD2146E9
:10356000304602F037FB6420FFF740FD21461DA0E6
:10357000FCF752FE002008B070BD002D15DD4FF4A1
:103580009670FFF733FDFFF7AFFD6420FFF72EFDC8
:1035900001211BA002F01EFB9620FFF727FDFFF77D
:1035A000A3FD4FF49670FFF721FD281EA5F1010140
:1035B000CDB2C3D11348FCF72FFE1348FCF72CFE05
:1035C000FFF792FDC820FFF711FD0120D3E70000AF
:1035D00041542B43495053454E443D25640D0A0048
:1035E0003E0000005B455350383236365D2053654F
:1035F0006E742025642062797465730D0A000000E2
:103600001B0000000C820008588200080A4800884D
:1036100008B901207047084800880849098888428D
:1036200003D1002004490880F4E7034800880349D7
:1036300008800120EEE700003E000020400000204E
:1036400000BF054A128802F04002002AF9D0C2B237
:10365000014B1B1D1A80704700380140F0B504462D
:10366000142C06DA01EA020523EA010685EA0600BF
:1036700019E0282C04DA81EA020787EA030012E045
:103680003C2C0ADA01EA020501EA030787EA05068B
:1036900002EA030787EA060005E0502C03DA81EA14
:1036A000020787EA0300F0BD014800687047000088
:1036B0002400002002480068C0F30020704700008A
:1036C000080801401CB500BF0848806940F00400AC
:1036D0000649886100BF0020012103460246CDE96A
:1036E00000100902024801F051FE1CBD001002400A
:1036F000000801402DE9F04FB1B007460E46924652
:103700009846DDF8E89040254FF0360B5C2030906D
:10371000002403E0002020A90855641C402CF9DB9C
:10372000AE4220D0AE4213DD324639463E48FCF769
:10373000A6FF4A4631463C4801F054FC002404E010
:1037400019F8040020A90855641C142CF8DB12E0B9
:10375000AE4210DA002403E0385D20A90855641C4D
:10376000B442F9DB07E0002403E0385D20A90855E6
:10377000641CAC42F9DB002406E020A8005D80EA6E
:103780000B0010A90855641C402CF6DB002404E053
:1037900010A8005D25490855641C402CF8DB002466
:1037A00006E01AF80410214A04F140001154641C88
:1037B0004445F6DB08EB05021C491B48FCF75FFF9C
:1037C00008EB05014A46184801F00CFC002406E00D
:1037D00020A8005D309948400DF80400641C402C7E
:1037E000F6DB002404E01DF8040011490855641CB0
:1037F000402CF8DB002406E019F804100C4A04F110
:1038000040001154641C142CF6DB05F11402084925
:103810000548FCF734FF4A4605F11401024801F05F
:10382000E1FB31B0BDE8F08F14140020400300200C
:10383000C013002010B500F085F80149086010BDE4
:103840003400002070B500F07DF812490860084689
:10385000006811490968884218D90E4800680F4964
:103860000860084600680C490968401A0B4908605E
:103870000846006802F05EFB0546094902F07CFA42
:10388000044602F03BFB0549086002E000200349C2
:10389000086070BD30000020340000203800002097
:1038A0000080D34308B501210920FFF729F9012140
:1038B0001648FDF771FB0820ADF8000010208DF8C8
:1038C000030003208DF8020069461148FDF7D8FA7D
:1038D0001020ADF8000048208DF8030003208DF87B
:1038E000020069460A48FDF7CBFA08210848FDF7AF
:1038F000A4FB6420FFF77AFBFFF79CFF05480268F2
:10390000016805A0FCF788FC08BD0000000230003B
:10391000000C0140340000205B48583731315D20F5
:10392000496E69743A205A65726F20506F696E74DF
:10393000203D2030782530386C582028256C6429AB
:103940000D0A000070B50024334D02E00120FFF79E
:1039500057FB10213148FDF767FB18B9281EA5F168
:103960000105F3D13DB92EA0FCF756FC01203549E5
:103970000870002070BD08212848FDF75EFB01207B
:10398000FFF73EFB244D02E00120FFF739FB102139
:103990002248FDF749FB012803D1281EA5F10105A6
:1039A000F2D13DB928A0FCF737FC01202549087069
:1039B0000020DFE7002617E0640008211748FDF724
:1039C0003EFB0220FFF71CFB10211448FDF72CFBE7
:1039D000012800D1641C08211048FDF72EFB0220AD
:1039E000FFF70EFB701CC6B2182EE5DB08210B4852
:1039F000FDF725FB0220FFF703FB84F400040821F8
:103A00000648FDF71AFB0220FFF7FAFA00200D49DD
:103A100008702046AEE7000040420F00000C014055
:103A20005B48583731315D204552524F523A20445D
:103A30004F555420737475636B204C4F57210D0AFA
:103A4000000000003C0000205B48583731315D2009
:103A50004552524F523A20436F6E76657273696FCA
:103A60006E2074696D656F7574210D0A0000000089
:103A70000146142901DA07480AE0282901DA064834
:103A800006E03C2901DA054802E0502900DA044842
:103A9000704700009979825AA1EBD96EDCBC1B8F6C
:103AA000D6C162CA1CB500BF1148806940F0080049
:103AB0000F49886100BF00BF0846806940F00800D8
:103AC000886100BF0120009000231A460103019085
:103AD000084801F05BFC0120009000231A464103D6
:103AE0000190044801F052FC01F0E6FF1CBD00000B
:103AF00000100240000C014070B505460026FFF79B
:103B0000D3FD04463C48007850B93C48006800F4B6
:103B1000805040BB012038490870084644602DE0C1
:103B200035480078012812D13448006800F48050EC
:103B300048B931484068201A0A281FD301260220BC
:103B40002D4908701AE000202B49087016E02A4819
:103B50000078022812D12948006800F4805018B17A
:103B600000202549087009E0012D07D1224840684E
:103B7000201AC82802D301261F4844602048007834
:103B800050B91E48006800F4005040BB01201C4999
:103B90000870084644602DE019480078012812D1C9
:103BA0001648006800F4005048B915484068201ACB
:103BB0000A281FD302260220114908701AE00020AB
:103BC0000F49087016E00E480078022812D10B4801
:103BD000006800F4005018B100200949087009E09D
:103BE000012D07D106484068201AC82802D30226B2
:103BF00003484460304670BD28010020080C014095
:103C0000340100201CB500BF1548806940F0100049
:103C10001349886100BF00BF0846806940F020005A
:103C2000886100BF012000900023024641030190FB
:103C30000C4801F0ABFB0120009000230246042158
:103C40000190094801F0A2FB01225103054801F04F
:103C500091FB01220421044801F08CFB1CBD0000F3
:103C60000010024000100140001401408AB00025FD
:103C700000260027A84601F0A7FC5BA0FCF7CCFAC1
:103C8000B0E000F05DFC681C85B2142D02DB00255D
:103C900001F08AFE701C86B2642E02DB002600F062
:103CA0008BF9781C87B2B7F5487F4ADB00275C495F
:103CB00008685C4902F06AF9099002F01FF9814630
:103CC00057494868574902F061F9099002F016F91E
:103CD000824653498868534902F058F9099002F026
:103CE0000DF983460A209BFBF0F100FB11B009900F
:103CF0000A209BFBF0F008900A209AFBF0F100FBF1
:103D000011A007900A209AFBF0F006900A2099FB78
:103D1000F0F100FB119005900A2099FBF0F004905F
:103D20003F4ADDE90810D268079BCDE90032CDE9B2
:103D300002103DA004A90EC9FCF76EFA00F0F8FBD2
:103D400000BF43480068401C4149086008460068BD
:103D5000B0F57A6F27D33F480078002823D1086058
:103D6000FFF79AF9A0B13CA0FCF756FA3E4800785C
:103D7000401C3D49087008460078022813DB3BA030
:103D8000FCF74AFAFFF714FA0020374908700AE0F6
:103D9000002035490870FFF757F920B137A0FCF72C
:103DA0003BFAFFF705FA0020FFF7B0F9044614B11B
:103DB000204600F0AFFB00F041FC08F101001FFAC3
:103DC00080F8B8F1640F09DB4FF0000800BF2E48FF
:103DD000C06880F400502C49C86000BF0520FFF780
:103DE00005F900BF4DE700005B495744475D205788
:103DF00061746368646F672044495341424C454491
:103E000020666F7220646562756767696E672072ED
:103E10006573746172742069737375650D0A0000AF
:103E20004C00002000002041563A25642E2564569F
:103E300020493A25642E25646D4120573A25646750
:103E400020503A25642E25646D570D0A00000000AD
:103E5000000000200500002057694669206C6F7340
:103E600074210D0A00000000040000205769466913
:103E70002072657365740D0A0000000054435020E1
:103E80006C6F7374210D0A000010014070B5064676
:103E900006B970BD341F0F48844203D300F580502B
:103EA000844203D30CA0FCF7B7F9F2E70020A0701E
:103EB0002188201D0D180748281AB0F5805F06D20A
:103EC000A87820B921882888001D0844208000BFD8
:103ED000DFE70000942400205B4D454D5F504F4FBD
:103EE0004C5D204552524F523A20496E76616C69C2
:103EF0006420706F696E74657220746F20667265DD
:103F0000650D0A0010B508480849086040F6FC70C5
:103F10000968088000200549096888704FF48051BD
:103F200003A0FCF779F910BD942400204400002080
:103F30005B4D454D5F504F4F4C5D20496E69746934
:103F4000616C697A65643A202564206279746573CE
:103F50000D0A000010B502461548016800230AB991
:103F6000002010BD1AE08878A0B90888904211D3CB
:103F7000012088700C88101D844209D90C1DA018DE
:103F80000C88A41A241F0480002484700A8000BFB7
:103F9000081DE6E70C88081D21185B1C0548081A57
:103FA000B0F5805F01D2642BDDDB0020D9E7000093
:103FB00044000020942400202DE9F04F87B0FDF745
:103FC00069FD7649086801F099FF0190019801F0B8
:103FD000B1FF009071480168009802F0A3F8834691
:103FE0006F4901F0D3FF804601F088FF81464B46C0
:103FF0006CA102A8019AFCF71BF902AA012108464C
:10400000FDF7D2FE6548007C20B169A102A8FCF74B
:104010000FF903E068A102A8FCF70AF94FF0010BC1
:1040200002A8FCF701FB8046B8F1100F03D2C8F1DB
:10403000110000F0FF0B02AA59460120FDF7B4FE63
:104040005649486801F05AFF8246504601F072FF17
:10405000009052484168009802F064F88346504945
:1040600001F094FF804601F049FF06463346524670
:1040700053A102A8FCF7DCF802AA01210220FDF7F7
:1040800093FE4648407C20B150A102A8FCF7D0F82E
:1040900003E050A102A8FCF7CBF84FF0010B02A8F7
:1040A000FCF7C2FA8046B8F1100F03D2C8F1110034
:1040B00000F0FF0B02AA59460220FDF775FE3748B3
:1040C00046A1C26802A8FCF7B3F802AA01210320A6
:1040D000FDF76AFE3148807C20B142A102A8FCF7BE
:1040E000A7F803E041A102A8FCF7A2F84FF0010BEA
:1040F00002A8FCF799FA8046B8F1100F03D2C8F174
:10410000110000F0FF0B02AA59460320FDF74CFEF8
:1041100022498868224901F039FF804601F0EEFE0D
:1041200004460A2194FBF1F594FBF1F201FB1247DE
:10413000B5F57A7F05DB2A462EA102A8FCF778F8B0
:1041400005E03B462A462DA102A8FCF771F802AA19
:1041500001210420FDF728FE1048C07C20B12AA1CF
:1041600002A8FCF765F803E029A102A8FCF760F8B3
:104170004FF0010B02A8FCF757FA8046B8F1100F78
:1041800003D2C8F1110000F0FF0B02AA5946042027
:10419000FDF70AFE07B0BDE8F08F00004C000020DC
:1041A00000002041563A25642E2564560000000088
:1041B0005245543A4F4B00005245543A4E4F00007E
:1041C000493A25642E25646D41000000483A59455E
:1041D00053000000483A4E4F00000000573A256453
:1041E000670000004C3A4F4E000000004C3A4F462A
:1041F00046000000503A25646D570000503A25648F
:104200002E25646D570000005057523A4F4E000063
:104210005057523A4F46460070B50A25002438E000
:10422000681E80B2051E30D11DA0FBF7F5FF002CE3
:1042300029D1601CC4B226A0FBF7EEFF2FA130A04D
:10424000FFF73CF9C820FEF7D1FE0A250BE0681EF7
:1042500080B2051E04D12EA0FBF7DEFF012070BD49
:10426000C820FEF7C3FE35A136A0FFF727F90028C6
:10427000EDD140A0FBF7D0FFC820FEF7B7FEFEF758
:1042800033FF0A2505E00120E9E7C820FEF7AEFE6E
:1042900000BFFEF70BF80028C2D100BFDFE7000027
:1042A0005B4F6E654E45545D204552524F523A2049
:1042B0004D5154542061757468656E7469636174FE
:1042C000696F6E206661696C6564210D0A000000EB
:1042D0005B4F6E654E45545D20417474656D70741E
:1042E000696E6720746F207265636F6E6E656374AC
:1042F000205443502E2E2E0D0A0000004F4B00007C
:1043000041542B434950434C4F53450D0A00000084
:104310005B4F6E654E45545D204552524F523A20D8
:10432000544350207265636F6E6E656374696F6E7F
:10433000206661696C6564210D0A0000434F4E4E92
:104340004543540041542B43495053544152543D2A
:1043500022544350222C226D717474732E6865634D
:104360006C6F7564732E636F6D222C313838330D8A
:104370000A0000005B4F6E654E45545D205443506B
:10438000207265636F6E6E65637465640D0A00006C
:1043900010B5FEF759FF20B118A0FBF73DFF012033
:1043A00010BD23A0FBF738FF4FF4FA70FEF71EFE96
:1043B0000A240FE0214626A0FBF72EFF601E80B2E4
:1043C000041E04D130A0FBF727FF0220E8E7C82035
:1043D000FEF70CFE37A139A0FFF770F80028E9D1ED
:1043E00042A0FBF719FF4FF4FA70FEF7FFFDFEF74E
:1043F0007BFEC820FEF7FAFD0020D1E75B4F6E651B
:104400004E45545D204552524F523A204553503844
:1044100032363620696E697469616C697A617469D3
:104420006F6E206661696C6564210D0A00000000F2
:104430005B4F6E654E45545D2045535038323636DD
:1044400020696E697469616C697A65640D0A00009F
:104450005B4F6E654E45545D20417474656D70749C
:10446000696E672054435020636F6E6E6563746994
:104470006F6E2E2E2E202874696D656F75743D2524
:1044800064290D0A000000005B4F6E654E45545DC7
:10449000204552524F523A2054435020636F6E6E63
:1044A000656374696F6E206661696C6564210D0ACD
:1044B00000000000434F4E4E4543540041542B43EF
:1044C000495053544152543D22544350222C226DA2
:1044D000717474732E6865636C6F7564732E636F8B
:1044E0006D222C313838330D0A0000005B4F6E65A9
:1044F0004E45545D2054435020636F6E6E65637467
:104500006564207375636365737366756C6C790D90
:104510000A00000010B50446012004490870204636
:10452000FEF728F900200149087010BD05000020A1
:1045300010B5FEF787FA10BD10B5FDF7F5FD10BDFB
:1045400010B50020FFF7D8FA0446012C1BD11648FD
:10455000C07C08B9012000E000201349C874084657
:10456000C07C28B100F0F2FC10A0FBF755FE1AE069
:1045700000F0E2FC00F0CCFC00200B49887410A095
:10458000FBF74AFE0FE0022C0DD112A0FBF744FE10
:10459000FFF750F91A48026801681AA0FBF73CFEC1
:1045A0002548FBF739FE10BD4C0000205B4B4559F8
:1045B000305D20506F776572204F4E0D0A0000006D
:1045C0005B4B4559305D20506F776572204F4646F2
:1045D0000D0A00005B4B4559315D20485837313199
:1045E00020546172653A2052656164696E67207A71
:1045F00065726F20706F696E742E2E2E0D0A00008A
:10460000340000205B4B4559315D205461726520B8
:10461000636F6D706C657465642E205A65726F20CF
:10462000706F696E74203D2030782530386C5820CA
:1046300028256C64290D0A00C48100082DE9FC5F5F
:10464000E348008800F4004000287DD0E048067868
:104650000020E0498855E0A0FBF7DEFDE4A1DD483D
:10466000FCF7CEF820B1E4A1DA48FCF7C9F840B96C
:1046700000F06CFC0120E149C874DDA0FBF7CCFD23
:10468000D4E3DFA1D348FCF7BBF820B1DEA1D148C9
:10469000FCF7B6F858B900F04FFC00F039FC0020E8
:1046A000D649C8748874D6A0FBF7B6FDBEE3D8A17E
:1046B000C848FCF7A5F820B1D7A1C648FCF7A0F878
:1046C00078B9CE48C07C40B100F02CFC0120CB4929
:1046D0008874CFA0FBF7A0FDA8E3D0A0FBF79CFD5A
:1046E000A4E3DAA1BB48FCF78BF820B1D9A1B94803
:1046F000FCF786F840B900F00BFC0020BF49887435
:10470000D6A0FBF789FD91E3D9A1B248FCF778F870
:1047100020B1D9A1AF48FCF773F818B9D8A0FBF7BE
:104720007BFD83E3E4A1AB48FCF76AF828B1E4A180
:10473000A848FCF765F8002877D1B0490868E24935
:1047400001F024FC804600E073E301F0D7FB04464F
:10475000AA494868DD4901F019FC804601F0CEFB0A
:104760000546A6498868DA4901F006FB8246D64923
:10477000504601F00BFC804601F0C0FB0746D5A077
:10478000FBF74AFD642094FBF0F100FB114894FB19
:10479000F0F942464946D5A0FBF73EFD0A2095FBBD
:1047A000F0F100FB115895FBF0F942464946D6A0BE
:1047B000FBF732FD642097FBF0F100FB117897FBCB
:1047C000F0F942464946D7A0FBF726FD8B48C16861
:1047D000DBA0FBF721FD8948007C08B1DEA000E0EA
:1047E000DEA00146DEA0FBF717FD8448407C08B13F
:1047F000E0A000E0E2A00146E3A0FBF70DFD7F484A
:10480000807C08B1E5A000E0E5A00146E5A0FBF74B
:1048100003FD7A48C07C10B1E0A001E005E0E0A013
:104820000146E5A0FBF7F8FC00E3E9A16948FBF7C6
:10483000E7FF28B1E8A16748FBF7E2FF00281CD199
:10484000E7A0FBF7E9FCEC4802680168EBA0FBF786
:10485000E3FCF24802680168F1A0FBF7DDFCF848D0
:104860000168F8A0FBF7D8FCE3480068EB4A12683F
:10487000811AFAA0FBF7D0FCD8E2FEA15548FBF75D
:10488000BFFF28B1FDA15348FBF7BAFF00287DD137
:104890000020FEF731FB01900220FEF72DFB009077
:1048A0008B49019801F072FB824601F027FB074615
:1048B0008749009801F06AFB824601F01FFB8046A1
:1048C0004E490868824901F061FB824601F016FBFF
:1048D00004464A4948687E4901F058FB824601F087
:1048E0000DFB054645498868794901F04FFB824632
:1048F00001F004FB8146E2A0FBF78EFC4FF47A70D6
:1049000097FBF0F100FB117A97FBF0FB52465946FA
:10491000E0A0FBF781FC4FF47A7098FBF0F100FB0C
:10492000118A98FBF0FB52465946E3A0FBF774FC52
:104930004FF47A7094FBF0F100FB114A94FBF0FB0A
:1049400052465946E5A0FBF767FC4FF47A7095FB99
:10495000F0F100FB115A95FBF0FB52465946E6A0D8
:10496000FBF75AFC4FF47A7099FBF0F100FB119AB7
:1049700099FBF0FB52465946E6A0FBF74DFC04FBC1
:1049800005F04FF47A7190FBF1FA00E006E053462F
:104990002A462146E6A0FBF73FFC47E2F0A10D487E
:1049A000FBF72EFF28B1F0A10A48FBF729FF0028EA
:1049B0000CD1EFA0FBF730FCF7A0FBF72DFC00F0CB
:1049C000B1FA4FF4FA70FEF711FBF3E12BE20000AD
:1049D0002C000020600000205B434D445D205265A8
:1049E0006365697665643A2025730D0A000000004E
:1049F000504F4E0D0A000000504F4E004C0000205A
:104A0000504F46460D0A0000504F46460000000039
:104A10004C4F4E0D0A0000004C4F4E005B45525269
:104A20005D20506F776572206973204F46462C20B9
:104A300063616E6E6F74207475726E206F6E206C81
:104A4000696768740D0A0D0A000000004C4F464665
:104A50000D0A00004C4F4646000000005B4F4B5DC6
:104A6000204C69676874204F46460D0A0D0A000005
:104A70005A45524F0D0A00005A45524F000000009F
:104A80005B494E464F5D204858373131206E6F7478
:104A900020696E697469616C697A65642C205A4575
:104AA000524F20636F6D6D616E6420736B6970701F
:104AB00065640D0A0D0A0000494E464F0D0A0000BC
:104AC000494E464F000000000000C842000020414F
:104AD00000007A445B494E464F5D205379737465FC
:104AE0006D205374617475733A0D0A002020566F5F
:104AF0006C746167653A202020202025642E2530C3
:104B0000326420560D0A0000202043757272656ED3
:104B1000743A202020202025642E2564206D410D2C
:104B20000A0000002020506F7765723A2020202074
:104B300020202025642E2530326420570D0A0000E5
:104B400020205765696768743A202020202020259E
:104B50006420670D0A000000594553004E4F0000C5
:104B6000202052657475726E65643A2020202025DD
:104B7000730D0A0044455445435445440000000069
:104B80004E4F4E4500000000202048756D616E3A82
:104B90002020202020202025730D0A004F4E0000E9
:104BA0004F46460020204C696768743A2020202038
:104BB00020202025730D0A002020506F7765723A5F
:104BC0002020202020202025730D0A0D0A0000003F
:104BD00048583731310D0A0048583731310000004C
:104BE0005B48583731315D20446562756720496EF6
:104BF000666F3A0D0A00000030000020202052614C
:104C000077204275666665723A2020307825303804
:104C10006C582028256C64290D0A000034000020FF
:104C200020205A65726F20506F696E743A202030D0
:104C3000782530386C582028256C64290D0A00002E
:104C40003800002020205765696768743A202020CA
:104C5000202020256C6420670D0A00002020446578
:104C60006C74613A20202020202020256C640D0ADD
:104C70000D0A00004144430D0A0000004144430076
:104C80005B4144435D20446562756720496E666FF1
:104C90003A0D0A002020565F5261773A20202020EA
:104CA00020202025642E253033642056202861637F
:104CB0007475616C290D0A002020495F5261773AB2
:104CC0002020202020202025642E253033642056EB
:104CD000202861637475616C290D0A002020565FDD
:104CE000446973706C61793A20202025642E253048
:104CF000336420560D0A00002020495F4469737018
:104D00006C61793A20202025642E25303364206D93
:104D1000410D0A002020505F446973706C61793A3C
:104D200020202025642E25303364206D570D0A0085
:104D30002020505F43616C633A20202020202056C1
:104D40002A492F31303030203D2025642A25642F18
:104D500031303030203D2025640D0A0D0A0000005E
:104D6000544553540D0A00005445535400000000AC
:104D70005B544553545D2052756E6E696E672048D2
:104D8000617264776172652053656C662D5465733A
:104D9000742E2E2E0D0A000020205B544553545DC6
:104DA0002052656C6179204C696768743A204F4ED7
:104DB0002E2E2E0020A0FBF72FFA00F0A9F820A03D
:104DC000FBF72AFA00F0C2F84FF4FA70FEF70EF97A
:104DD00019A0FBF721FA00F0AFF84FF4FA70FEF7D4
:104DE00005F900F0B3F801201C49C8741CA0FBF7BA
:104DF00013FA002411E000224FF400511F4800F084
:104E0000B9FAC820FEF7F2F8012251031B4800F05E
:104E1000B1FAC820FEF7EAF8641C032CEBDB18A0FB
:104E2000FBF7FAF902E01D48FBF7F6F900201C49F0
:104E30000880BDE8FC9F000020204F46460D0A0078
:104E400020205B544553545D2052656C617920509D
:104E50006F7765723A204F4E2E2E2E004C000020A8
:104E600020205B544553545D204C4544303A204249
:104E70006C696E6B2078330D0A0000000010014051
:104E80005B4F4B5D2053656C662D546573742043F6
:104E90006F6D706C6574650D0A0D0A0070810008F5
:104EA0002C0000201CB500BF1748806940F00400AA
:104EB0001549886100BF00BF0846806940F00400C2
:104EC000886100BF0220012100230A46CDE90010BD
:104ED00081020E4800F05AFA0220012100230A46FE
:104EE000CDE90010C102094800F050FA00224FF449
:104EF0000061064800F03EFA00224FF4805103485A
:104F000000F038FA1CBD000000100240000801400B
:104F100010B500224FF40061014800F02BFA10BDDB
:104F20000008014010B50122D102024800F022FA27
:104F300010BD00000008014010B500224FF4805160
:104F4000014800F017FA10BD0008014010B5012219
:104F50001103024800F00EFA10BD000000080140E5
:104F6000F0B50246C2F1200C012000FA0CF0441EFC
:104F7000E54301EA040000FA02F601EA0500C2F185
:104F8000200C20FA0CF746EA07031846F0BD2DE97D
:104F9000F04105460E464FF0FF3705B11EB94FF000
:104FA000FF30BDE8F08131462846FBF707FB044699
:104FB00014B94FF0FF30F4E73A212046FBF7E2FA4C
:104FC000044614B94FF0FF30EBE7641C204600F0B4
:104FD0004DF907463846E4E7282001490860704744
:104FE000080000202DE9F74FDDB08A461546DDF8B0
:104FF00074810AF1080909F101094FEACA005B90BE
:1050000048464FEAE97109EB91618E1148464FEA33
:10501000E97109EB91618911A9EB81115C915C98AF
:10502000002800DD761C5C98C0F1400081445746A2
:1050300003E0002008F807007F1CB7EB861FF8DBB1
:10504000802008F80A000121C1EB86115B9808F85E
:1050500001005B98C0F307200221C1EB861108F81C
:1050600001005B98C0F307400321C1EB861108F8EB
:1050700001005B98000E0421C1EB861108F80100C5
:1050800077485690774857907548C0435890754870
:10509000C043599074485A900027A4E0002452E07D
:1050A000102C32D2B80100EB840018F80000000682
:1050B00001A941F82400B80100EB8400401C18F855
:1050C000000051F824104FF4803202FB001001A9B7
:1050D00041F82400B80100EB8400801C18F800009F
:1050E00051F82410121202FB001001A941F824000B
:1050F000B80100EB8400C01C18F8000051F824101F
:10510000084401A941F824001CE0502C1AD2E01EEA
:1051100001AA52F82000A4F1080201AB53F82220A2
:105120005040A4F10E0253F822205040A4F1100286
:1051300053F8222080EA02010120FFF711FF01A9A4
:1051400041F82400641C502CAAD3569855905798C7
:10515000549058985390599852905A9851900024CE
:105160002AE005205599FFF7FBFE83462046529B17
:10517000539A5499FEF772FA584400905199009846
:10518000084400902046FEF773FC00990844009004
:1051900001A850F8241000980844009052985190AB
:1051A000539852901E205499FFF7DAFE5390559869
:1051B000549000985590641C502CD2D35699559811
:1051C00008445690579954980844579058995398C2
:1051D0000844589059995298084459905A995198AE
:1051E00008445A907F1CB742FFF658AF5698E870B3
:1051F0005698000AA8705698000C68705698000ED1
:1052000028705798E8715798000AA8715798000CB1
:1052100068715798000E28715898E8725898000ADB
:10522000A8725898000C68725898000E2872599805
:10523000E8735998000AA8735998000C6873599834
:10524000000E28735A98E8745A98000AA8745A985D
:10525000000C68745A98000E287460B0BDE8F08F96
:105260000123456789ABCDEFF0E1D2C310B501460C
:105270000022012309B9002010BD00E0491C087874
:1052800028B108782028F9D008780928F6D00878BD
:105290002D2803D14FF0FF33491C03E008782B2859
:1052A00000D1491C06E00878303802EB820400EB9C
:1052B0004402491C0878302802DB08783928F2DDDE
:1052C00002FB03F0D8E7000010B5024600210020E1
:1052D000264B1B6843F48033244C23600AE000BF54
:1052E000224B1B6803F400331BB1B1F5004F00D90A
:1052F00004E0491C4FF6F0739942F0D300BF4FF61B
:10530000F073994201D301202FE04FF48063174CD2
:105310006360921E23465B6843EA824363602346D0
:105320005B6843F4803363601023114C2360234691
:105330001B6843F0020323600C4B1B6843F080732F
:105340000A4C236000BF094B1B685B0E002BFAD090
:10535000064B5B6843F00203044C636000BF034BE1
:105360005B68C3F38103022BF9D110BD001002402A
:105370000020024002F001031BB103690B430361EB
:1053800003E0036943EA0143036170472DE9F843F1
:1053900004460F4615461E46DDE908893B4884420F
:1053A00004D101210420FDF7ABFB2EE038488442F4
:1053B00004D101210820FDF7A3FB26E035488442F3
:1053C00004D101211020FDF79BFB1EE032488442EE
:1053D00004D101212020FDF793FB16E02F488442E1
:1053E00004D101214020FDF78BFB0EE02C488442C4
:1053F00004D101218020FDF783FB06E02948844287
:1054000003D101218015FDF77BFBADF800708DB94C
:10541000B9F1010F03D148208DF803001FE0B9F165
:10542000020F03D128208DF8030018E004208DF826
:10543000030014E0012D08D11EB910208DF80300DF
:105440000DE014208DF8030009E0022D07D11EB9EC
:1054500018208DF8030002E01C208DF80300B8F13D
:10546000020F03D102208DF8020009E0B8F1010F0C
:1054700003D101208DF8020002E003208DF8020024
:1054800069462046FBF7FCFCBDE8F88300080140B4
:10549000000C0140001001400014014000180140C0
:1054A000001C0140002001402DE9F04107468846DC
:1054B00014461D46284600F033F8C5F1040007FAEB
:1054C00000F60F20284100EA0800064306F00F0608
:1054D000E21704EBD2625211920002F1E022D2F8FC
:1054E00000212146E31704EBD3635B11A4EB431CBB
:1054F000012303FA0CF31A432046E31704EBD363AA
:105500005B119B0003F1E023C3F800210348005D19
:1055100040EA061001490855BDE8F08100E400E0CA
:105520000146072323EA01021202054B18684FF6D1
:10553000FF031840034B18431043014B186070479A
:105540000CED00E00000FA054A0A52020243014B4A
:105550001A60704708ED00E010B5044600201749B6
:105560000861C8601420486100208861C86108464D
:10557000006840F001000860084640681049084093
:105580000E494860084600680E4908400B4908600B
:105590000846006820F4802008600846406820F42F
:1055A000FE0048604FF41F0088602046FFF78CFE25
:1055B00000214FF00060FFF7C7FF10BD0010024050
:1055C0000000FFF8FFFFF6FE70B50920FFF7C4FFEB
:1055D0004820FDF7F5FC4FF4E131482000F008FBCE
:1055E000FEF710FBFDF79CFCFFF75CFCFEF75AFA98
:1055F000FCF70AFBFCF74EFA66A201210846FCF70D
:10560000D3FB67A201210220FCF7CEFBFEF77AFC58
:1056100014216748FBF7CCF801206549C874FFF7EF
:1056200095FC64A0FAF7F8FD63A0FAF7F5FD70A009
:10563000FAF7F2FD7CA0FAF7EFFD5FA0FAF7ECFDB8
:105640005CA0FAF7E9FDFEF72DF9FEF7F3F8FEF797
:1056500039F883A201210320FCF7A6FB83A20121D4
:105660000420FCF7A1FB84A0FAF7D6FD87A2012154
:105670000220FCF799FBFEF78BFE0446002C33D08A
:10568000214686A0FAF7C8FD8EA0FAF7C5FDFCF703
:1056900001FA97A201210846FCF786FB97A2012197
:1056A0000220FCF781FB98A201210320FCF77CFB80
:1056B00098A201210420FCF777FB002511E00022CD
:1056C0004FF400519748FFF755FEFA20FDF78EFC86
:1056D000012251039348FFF74DFEFA20FDF786FCA7
:1056E0006D1C0A2DEBDB51E08FA201210220FCF79B
:1056F0005BFB91A201210320FCF756FBFEF78CFD1A
:105700000446002C32D090A0FAF786FD6DA0FAF77F
:1057100083FDFCF7BFF994A201210846FCF744FB86
:1057200095A201210220FCF73FFB77A20121032073
:10573000FCF73AFB77A201210420FCF735FB00259A
:1057400011E000224FF400517648FFF713FEFA20D3
:10575000FDF74CFC012251037248FFF70BFEFA20C3
:10576000FDF744FC6D1C0A2DEBDB0FE0FEF7E4FEB9
:1057700085A201210320FCF717FB87A20121042049
:10578000FCF712FB4FF47A70FDF730FC3AA0FAF701
:1057900043FD70BD536D617274204C616200000066
:1057A00053797374656D20496E69742E2E2E000036
:1057B0004C0000200D0A00003D3D3D3D3D3D3D3D7E
:1057C0003D3D3D3D3D3D3D3D3D3D3D3D3D3D3D3D09
:1057D0003D3D3D3D3D3D3D3D3D3D3D3D3D3D3D3DF9
:1057E0003D3D3D3D3D3D3D3D3D3D3D3D0D0A0000C6
:1057F0002020536D617274204C6162204D6F6E6980
:10580000746F72696E672053797374656D202D20F3
:1058100053544D33324631303343385436202020F0
:1058200020200D0A00000000202020202020202021
:10583000204275696C643A20323032352D31312D79
:1058400030352076312E31202020202020202020AD
:10585000202020202020202020200D0A00000000F1
:1058600048583731313A204F4B00000053656E7372
:105870006F72733A204F4B0053797374656D2052E9
:10588000656164790D0A0D0A0000000057694669D8
:1058900020496E69742E2E2E202000004552524F52
:1058A000523A204F6E654E455420696E69742066E9
:1058B00061696C65642028636F64653D2564290D0A
:1058C0000A00000053797374656D2077696C6C2051
:1058D000636F6E74696E756520776974686F75742F
:1058E000206E6574776F726B2E2E2E0D0A000000ED
:1058F0004552524F523A205769466900496E6974C1
:10590000204661696C656400436F6E74696E7565ED
:1059100020696E0035207365636F6E64732E2E2EC2
:105920000000000000100140576946693A204F4BC3
:1059300020202020202000004F6E654E455420433B
:105940006F6E6E2E2E2E00004552524F523A204F4F
:105950006E654E455420636F6E6E6563742066619C
:10596000696C65640D0A00004552524F523A204F4F
:105970006E654E4554000000436F6E6E6563742083
:105980004661696C656400004F6E654E45543A206F
:105990004F4B20202020000053797374656D2052F6
:1059A000656164792120000070B50020FDF7A4FA3C
:1059B00005460220FDF7A0FA06464FF07E51284624
:1059C00000F0E4FA264908603146284600F0B4FBAE
:1059D00004462348446002465168106800F0D6FA35
:1059E0001F498860FDF72EFF1E48008880B21C49C1
:1059F000C8600846C068B0F5FA7F02DB0120087471
:105A000002E0002016490874FDF754FE144948745A
:105A10001548006828B114480068401E1249086003
:105A20001CE00F48407C70B10D48C07C58B10C4858
:105A3000807C98B9FFF776FA0120094988740BA099
:105A4000FAF7EAFB0AE00648807C38B1FFF760FA13
:105A50000020034988740EA0FAF7DEFB70BD000039
:105A60004C00002038000020080000205B41555405
:105A70004F5D2048756D616E206465746563746563
:105A800064202D3E204C69676874204F4E0D0A003B
:105A90005B4155544F5D204E6F2068756D616E20DF
:105AA0006465746563746564202D3E204C69676885
:105AB00074204F46460D0A0010B500204FF0E0213B
:105AC000086188610D48486148170F21002807DAEE
:105AD0000A07140E0A4A00F00F031B1FD45403E0F8
